:100000000C945C000C9479000C9479000C947900A9
:100010000C9479000C9462080C9479000C9479008B
:100020000C9479000C9479000C9479000C9479006C
:100030000C9479000C9479000C9479000C940108CC
:100040000C9479000C9479000C9479000C9479004C
:100050000C943C080C9479000C9479000C94790071
:100060000C9479000C9479000C9479000C9479002C
:100070000C9479000C9479000C947900E300B6009C
:10008000B900FA00FA00FA00FA00FA00FA00FA00E1
:10009000FA00FA00FA00D900BC00C100C600D10085
:1000A000C900F600F1004B075307C607BE07B307A8
:1000B0005B079B07AC07D50711241FBECFEFD0E12C
:1000C000DEBFCDBF14E0A0E0B1E0E2ECFEE102C093
:1000D00005900D92AE31B107D9F725E0AEE1B4E05D
:1000E00001C01D92A835B207E1F70E9487080C9461
:1000F0005F0F0C94000080912A049FEF980F9630B8
:1001000050F590912B0460912C048330A1F028F4D9
:10011000813049F0823059F00895853081F098F0AF
:100120008630A9F00895892F0E9475020895892FBD
:100130000E949D020895892F0E94C5020895892F6B
:100140000E9412030895892F0E94EA020895892FC0
:100150000E943703089590E0FC013797E531F105DF
:1001600008F048C0E25CFF4F0C945A0C0E94120247
:1001700008950E940D02089580912B040E94CD0BDA
:10018000089580912B040E94500408950E94F50167
:10019000089540E060912C0480912B040E945F033D
:1001A000089541E060912C0480912B040E945F032C
:1001B000089520E040E251EA67E070E086EF9BE0BE
:1001C0000E940309089521E040E251EA67E070E0EF
:1001D0008AEF96E00E94030980912B048093220409
:1001E00008950E94F5010E94C90B089580912B0487
:1001F0000E9498030895FC0101900020E9F73197CF
:10020000E81BF90B2E2F3AEA3093C600AFE1BEE4AB
:100210001197F1F700C0000034E13093C600AFE160
:10022000BEE41197F1F700C00000E093C600EFE1D3
:10023000FEE43197F1F700C00000222389F0382F47
:10024000E82FF92FA6ECB0E081918C938FE19EE42A
:100250000197F1F700C000008E2F831B8217A0F3D7
:1002600085E58093C600AFE1BEE41197F1F700C0C9
:1002700000000895CF93DF9370E06115710591F050
:10028000E82FF92F80E090E0A6ECB0E021912C93CC
:10029000CFE1DEE42197F1F700C000000196861758
:1002A0009707A0F3DF91CF910895CF93DF9300D00C
:1002B00000D0CDB7DEB783E091E09F938F930E948B
:1002C0007A0C8AEA898383E18A831B8285E58C83A1
:1002D00064E0CE0101960E943A010F900F900F90BA
:1002E0000F900F900F90DF91CF910895F894909117
:1002F0000201923021F128F4992349F0913091F0D4
:100300004DC0933081F1943009F43FC047C08A3A20
:1003100009F044C081E080930201109200018093B3
:1003200000013CC08C3130F492E090930201809344
:100330002A0434C0109202010E9455012FC081117D
:1003400005C010923504109229040AC093E09093DE
:100350000201809335041092290481508233F0F019
:10036000109202011BC0E091290491E09E0F90932E
:100370002904F0E0E55DFB4F8083809135049817F8
:1003800068F084E08093020109C0853519F00E946D
:10039000550102C00E947B001092020178940895DA
:1003A00089E18093C400E1ECF0E080818068808383
:1003B00080818061808380818860808310920201C7
:1003C000089580911E0490911F04A0912004B09183
:1003D00021040196A11DB11D80931E0490931F045A
:1003E000A0932004B0932104089517BC1092B30089
:1003F0008BB1887F8BB98BB1807E8BB98BB1807FBD
:100400008BB98BB1807C8BB981EE91E00E94040A9C
:1004100084E291E00E94FB00089580E391E00E9455
:10042000FB00089582E491E00E94FB00089517BC50
:100430001092B300239A84B5836084BD84B5806430
:1004400084BD84B5806884BD85B5816085BD579ABB
:10045000E0EBF0E080818360808380818064808332
:10046000808180688083E1EBF0E08081816080831F
:10047000259A2D9A249A2C9A539A559A8BB1807F5B
:100480008BB98BB1807C8BB9529A549A8BB1887F8F
:100490008BB98BB1807E8BB908951F93CF93DF9377
:1004A000D82FC62F142F21E040E452E46FE070E013
:1004B00081EE91E00E94AC0A1095D1110AC0CC23C4
:1004C00019F05A985C9A02C05A9A5C981093B3003B
:1004D00008C0CC2319F05B9A5D9802C05B985D9AC6
:1004E00017BDDF91CF911F910895CF93DF93D82F40
:1004F000C62F462F60E080E00E944D024C2F60E046
:1005000081E00E944D0285EF91E00E94040AAD2F28
:10051000B0E020E432E44FE050E00E946F0CAB0109
:10052000BC0120E085EF91E00E94030983E691E0A1
:100530000E94FB00DF91CF910895CF93DF93D82FD6
:10054000C62F462F61E080E00E944D024C2F61E0F3
:1005500081E00E944D0285EF91E00E94040AAD2FD8
:10056000B0E020E432E44FE050E00E946F0CAB01B9
:10057000BC0120E085EF91E00E94030983E791E050
:100580000E94FB00DF91CF910895CF93C82F462F93
:1005900060E080E00E944D024AE060E081E00E945D
:1005A0004D0285EF91E00E94040AAC2FB0E020E4F8
:1005B00032E44FE050E00E946F0CAB01BC0120E040
:1005C00085EF91E00E94030982E891E00E94FB0020
:1005D000CF910895CF93DF93C82FD62F4AE060E0E4
:1005E00080E00E944D024D2F60E081E00E944D02AC
:1005F00085EF91E00E94040AAC2FB0E020E432E4E1
:100600004FE050E00E946F0CAB01BC0120E085EF91
:1006100091E00E94030989E991E00E94FB00DF91CB
:10062000CF910895CF93C82F462F61E080E00E94BC
:100630004D024AE061E081E00E944D0285EF91E0C9
:100640000E94040AAC2FB0E020E432E44FE050E016
:100650000E946F0CAB01BC0120E085EF91E00E948D
:10066000030981EB91E00E94FB00CF910895CF93A5
:10067000DF93C82FD62F4AE061E080E00E944D0250
:100680004D2F61E081E00E944D0285EF91E00E94D4
:10069000040AAC2FB0E020E432E44FE050E00E94C6
:1006A0006F0CAB01BC0120E085EF91E00E940309D3
:1006B00087EC91E00E94FB00DF91CF910895CF93EA
:1006C000DF93D82FC62F41110FC0462F61E081E084
:1006D0000E944D024C2F60E080E00E944D028EEDA2
:1006E00091E00E94FB000EC0462F60E081E00E9476
:1006F0004D024C2F61E080E00E944D0285EF91E0B9
:100700000E94FB0085EF91E00E94040AAD2FB0E04B
:1007100020E432E44FE050E00E946F0CAB01BC01DA
:1007200020E085EF91E00E940309DF91CF910895C9
:100730000F931F93CF93DF93CDB7DEB7C456D10984
:100740000FB6F894DEBF0FBECDBF8823C9F010925C
:100750003604109237041092380410923904109223
:100760003A0410923B0410923C0410923D04109203
:100770001E0410921F0410922004109221042BC01A
:1007800040911E0450911F04609120047091210437
:100790008091360490913704A0913804B0913904C7
:1007A0007F936F935F934F93BF93AF939F938F9379
:1007B0008BE092E09F938F938E010F5F1F4F1F93EB
:1007C0000F930E948E0CC8010E94FB000FB6F89494
:1007D000DEBF0FBECDBFCC59DF4F0FB6F894DEBFE2
:1007E0000FBECDBFDF91CF911F910F910895109251
:1007F0003604109237041092380410923904109283
:100800003A0410923B0410923C0410923D04089567
:10081000EF92FF920F931F93CF93DF93C0E0D0E04E
:100820000F2EFDE1EF2EF2E0FF2EF02D06E514E095
:100830008091890490E00C2E02C0959587950A94CA
:10084000E2F780FF22C0FE01EE0FFF1FEE0FFF1F39
:10085000EA5BFB4F40815181628173817F936F938B
:100860005F934F93DF93CF93FF92EF921F930F937A
:100870000E948E0CC8010E94FB008DB79EB70A969D
:100880000FB6F8949EBF0FBE8DBF2196C430D10520
:1008900079F6DF91CF911F910F91FF90EF9008951E
:1008A000CF93DF934091890421E030E0B90102C089
:1008B000660F771F8A95E2F7CB018427809389041E
:1008C0003091890420918904909189048091890450
:1008D00033FB332730F91F923F9322FB222720F965
:1008E0001F922F93969591701F929F9381701F92E4
:1008F0008F938EE292E09F938F93C6E5D4E0DF93CF
:10090000CF930E948E0CCE010E94FB003091880490
:1009100020918804909188048091880433FB3327C8
:1009200030F91F923F9322FB222720F91F922F9329
:10093000969591701F929F9381701F928F9389E477
:1009400092E09F938F93DF93CF930E948E0CCE0102
:100950000E94FB0088E094E00E947F0A9091890445
:100960006DB77EB7685E7F4F0FB6F8947EBF0FBE3F
:100970006DBF992361F0811115C021E040E452E47C
:100980006FE070E088E094E00E9403090FC090914E
:10099000890491110BC0882349F088E094E00E94FB
:1009A000040A04C0809189048823B9F3DF91CF91B0
:1009B00008954091880421E030E0B90102C0660F3B
:1009C000771F8A95E2F7CB0184278093880484E41B
:1009D00096E00E947F0A90918804992361F081112A
:1009E00015C021E040EA56E861E070E084E496E05A
:1009F0000E94030908959091880491110BC08823E7
:100A000049F084E496E00E94040A089580918804E5
:100A10008823B9F30895AAE7B0E08C9187608C939E
:100A2000ECE7F0E080818064808380818F77808331
:100A30008081806280838C9180688C93109289047D
:100A40001092880480E00E94D90481E00E94D904B9
:100A500082E00E94D90483E00E94D9040895ECE763
:100A6000F0E09081907E90839081892B8083EAE7EB
:100A7000F0E080818064808308950E942F05EAE77A
:100A8000F0E0808186FDFDCF2091780022952695AB
:100A9000269523708091790090E0880F991F880F28
:100AA000991F822B08958F929F92AF92BF92CF92FF
:100AB000DF92EF92FF920F931F93CF93DF93CDB707
:100AC000DEB72E970FB6F894DEBF0FBECDBF182F3E
:100AD0009E012F5F3F4F79016E013FE0C30ED11C95
:100AE000812F0E943D05D7018D939D937D01AC150B
:100AF000BD05B1F721E030E080E001E0F12C90E0AD
:100B0000D12CE12C2DC0482F50E0FA01EE0FFF1F31
:100B1000AA24A394B12CAC0EBD1EEA0DFB1D60816E
:100B200071814A01AFEF8A1A9A0AD401AA0FBB1F3A
:100B3000AA0DBB1D0D90BC91A02DA617B70758F4A8
:100B4000B183A083F401EE0FFF1FEA0DFB1D71833B
:100B500060832D2D3E2D8F5F03C0202F3F2D892FC9
:100B6000863088F2232BC9F32F8138858D819E81B1
:100B7000280F391F89859A85280F391FABEABAEAF1
:100B80000E94600C96958795412F50E0FA01EE0F78
:100B9000FF1FE25CFB4F20813181232B41F4FA01DE
:100BA000EE0FFF1FE25CFB4F9183808325C0FA01AB
:100BB000EE0FFF1FE25CFB4F20813181B901660F10
:100BC000771F660F771F660F771F5B01A21AB30AA4
:100BD0009501BC01660F771F860F971F280F391FDD
:100BE000ADECBCEC0E94600C969587959695879528
:100BF00096958795918380831230D0F4FA01EE0F99
:100C0000FF1FE25CFB4F2081318122953295307FBE
:100C10003227207F32272B53314040E050E061E5FE
:100C20007CEE84E090E00E94380CCA01B90119C042
:100C3000FA01EE0FFF1FE25CFB4F2081318122950C
:100C40003295307F3227207F32272850324040E0D3
:100C500050E06DEF7DEB8BE090E00E94380CCA0114
:100C6000B9012E960FB6F894DEBF0FBECDBFDF914F
:100C7000CF911F910F91FF90EF90DF90CF90BF9099
:100C8000AF909F908F9008958091880480FF0BC053
:100C900080E00E945305609346047093470480935C
:100CA0004804909349048091880481FF0BC081E03F
:100CB0000E94530560934A0470934B0480934C0444
:100CC00090934D048091880482FF0BC082E00E94C3
:100CD000530560934E0470934F0480935004909397
:100CE00051048091880483FF0BC083E00E94530568
:100CF000609352047093530480935404909355046A
:100D000008957F928F929F92AF92BF92CF92DF927F
:100D1000EF92FF920F931F93CF93DF93CDB7DEB780
:100D20002E970FB6F894DEBF0FBECDBF782E6E01A2
:100D30008FE0C80ED11CFE0131967F010AE710E05A
:100D40000F2EF8E78F2E912CF02D0F2EF9E7AF2EF6
:100D5000B12CF02D872D0E942F05F801808186FD92
:100D6000FCCFF4012081229526952695237030E052
:100D7000F70131832083F501808190E0880F991F6E
:100D8000880F991F282B392BF701219331937F016D
:100D9000EC15FD05F9F6FE01319640E050E0819139
:100DA0009191480F591FEC15FD05C9F79A01A3E968
:100DB000B4E20E94600C481B590B9A0136952795A6
:100DC000820F931F96958795969587952E960FB6C9
:100DD000F894DEBF0FBECDBFDF91CF911F910F9171
:100DE000FF90EF90DF90CF90BF90AF909F908F904B
:100DF0007F900895AF92BF92CF92DF92EF92FF92D1
:100E00000F931F93CF93DF93CDB7DEB7C456D109AD
:100E10000FB6F894DEBF0FBECDBF80E00E94810602
:100E2000B82EA92E81E00E9481068C01109200014B
:100E300083E00E9481066C0182E00E9481067C01B1
:100E4000809123041F928F931F930F93AF92BF92B1
:100E5000FF92EF92DF92CF928EE692E09F938F9374
:100E6000CE0101965C01BF928F930E948E0CC5014A
:100E70000E94FB000FB6F894DEBF0FBECDBF80917D
:100E8000230490E08930910508F099C0FC01ED5AE7
:100E9000FF4F0C945A0C81E08093230481E992E087
:100EA0000E94FB008CC06DE78CE30E94EA0283E0A5
:100EB0008093230484C097E9C916D10460F087E9C0
:100EC000E816F10440F082E08093230441E06BE4F3
:100ED0008CE30E945F0304361105A8F4809122047C
:100EE00081508093220480912204811109C040E046
:100EF0006BE48CE30E945F0386E08093230403C0CD
:100F000088E0809323040D3D110538F084E0809340
:100F100023046BE48CE30E94C5020B5A11090F34C1
:100F2000110508F04CC083E0809323046BE48CE34C
:100F30000E94EA0244C09BE5C916D10408F03FC0F4
:100F400084EBE816F104D8F56BE486E00E947502A4
:100F500087E08093230433C00E94F5018AEF96E076
:100F60000E94040A2CC00C32114048F585E08093A1
:100F700023046BE48CE30E94750221C085E080931A
:100F800023046BE48CE30E94750219C085E6E81A1D
:100F9000F10897E2E916F10490F46BE48CE30E9407
:100FA000750285E0809323040AC00C32114038F4A6
:100FB00085E0809323046BE48CE30E94750281E05A
:100FC00080930001CC59DF4F0FB6F894DEBF0FBEFF
:100FD000CDBFDF91CF911F910F91FF90EF90DF90E8
:100FE000CF90BF90AF900895EFE6F0E080818160F0
:100FF0008083109285001092840081E080938100AC
:1010000008951F920F920FB60F9211242F933F93C2
:101010004F935F936F937F938F939F93AF93BF9300
:10102000EF93FF938091240490912504A0912604CE
:10103000B09127040196A11DB11D809324049093C3
:101040002504A0932604B093270460E672E280E0B2
:1010500090E00E94C90AFF91EF91BF91AF919F91DB
:101060008F917F916F915F914F913F912F910F9051
:101070000FBE0F901F9018951F920F920FB60F92F0
:1010800011242F933F934F935F936F937F938F938D
:101090009F93AF93BF93EF93FF938091C6000E94FD
:1010A0007601FF91EF91BF91AF919F918F917F91C9
:1010B0006F915F914F913F912F910F900FBE0F90C5
:1010C0001F9018951F920F920FB60F9211248F93B5
:1010D0009F93AF93BF938091360490913704A09172
:1010E0003804B09139040196A11DB11D80933604D6
:1010F00090933704A0933804B0933904BF91AF9113
:101100009F918F910F900FBE0F901F901895CF93C6
:10111000DF93CDB7DEB7C456D1090FB6F894DEBF62
:101120000FBECDBF78940E94D0010E94F4070E94A8
:10113000F50B0E9417020E94E9080E940B05ECE6DD
:10114000F0E08081876080832798E8E6F0E0808186
:101150008260808320E040E251EA67E070E087EF40
:1011600093E00E9403091092360410923704109203
:1011700038041092390410923A0410923B041092F1
:101180003C0410923D048DEB92E00E94FB008091A4
:10119000360490913704A0913804B0913904BF937C
:1011A000AF939F938F9382ED92E09F938F938E01E5
:1011B0000F5F1F4F1F930F930E948E0CC8010E9458
:1011C000FB000FB6F894DEBF0FBECDBF0E94600BD0
:1011D000FDCF409101014423A9F080E090E0FC01A3
:1011E000EE0FFF1F9C01220F331F220F331F220F10
:1011F000331FE20FF31FE657FB4F1186108601964F
:10120000841768F30895DF92EF92FF920F931F9374
:10121000CF93DF93CDB7DEB7CE56D1090FB6F89492
:10122000DEBF0FBECDBFF894D0900101DD2009F4E0
:1012300077C0E0919204F0919304EF2B09F47AC007
:10124000E0919204F0919304E817F90709F05EC069
:101250002DC07F01DF01AA0FBB1FAA0FBB1FAA0F62
:10126000BB1F8F01000F111FA00FB11FA657BB4F4F
:1012700018960D90BC91A02DAB2B09F44EC08F0198
:10128000000F111FDF01AA0FBB1FAA0FBB1FAA0F60
:10129000BB1FA00FB11FA657BB4F18960D90BC9156
:1012A000A02D3196A817B90799F502C0E12CF12CB1
:1012B00080910001882309F498C0F701EE0FFF1F09
:1012C000EE0CFF1CEE0CFF1CEE0CFF1CEE0DFF1DC8
:1012D000E657FB4F80819181A281B381BF93AF9389
:1012E0009F938F9389ED92E09F938F938E01055F7B
:1012F0001F4F1F930F930E948E0CC8010E94FB008A
:101300000FB6F894DEBF0FBECDBF6FC0E1E0F0E0D6
:101310003E2FED1508F49DCF01C0E32FED110BC05A
:1013200080910001882309F460C085E093E00E9469
:10133000FB005BC030E0211104C0A0E0F0E0E0E081
:1013400004C0A42FF52FE62F272F032F10E0498389
:101350005A836B837C83AD83FE83EF8328879A87D0
:101360008987D801AA0FBB1FC801880F991F880F52
:10137000991F880F991FA80FB91FA657BB4F8AE066
:10138000FE01319601900D928A95E1F7809100015E
:10139000882351F1F801EE0FFF1F000F111F000FFE
:1013A000111F000F111FE00FF11FE657FB4F808147
:1013B0009181A281B381BF93AF939F938F931F922B
:1013C0003F9383E193E09F938F938E01055F1F4FBF
:1013D0001F930F930E948E0CC8010E94FB000FB652
:1013E000F894DEBF0FBECDBF7894C259DF4F0FB661
:1013F000F894DEBF0FBECDBFDF91CF911F910F914B
:10140000FF90EF90DF900895BF92CF92DF92EF921E
:10141000FF920F931F93CF93DF93CDB7DEB7C456E0
:10142000D1090FB6F894DEBF0FBECDBF8C018091FD
:101430000101882309F452C0B12C0F2EF8E4CF2EFD
:10144000F3E0DF2EF02DCE0101967C012B2D30E054
:10145000F901EE0FFF1FC901880F991F880F991F0F
:10146000880F991FE80FF91FE657FB4F40855185FC
:101470004017510769F5C901880F991F880F991FF7
:10148000880F991FF901EE0FFF1FE80FF91FE657AC
:10149000FB4F1186108610821182128213821482F1
:1014A00015821682178280910001882389F03F936C
:1014B000BF92DF92CF92FF92EF920E948E0CC701F3
:1014C0000E94FB000F900F900F900F900F900F90C5
:1014D000B39480910101B81608F4B8CFCC59DF4F0E
:1014E0000FB6F894DEBF0FBECDBFDF91CF911F9135
:1014F0000F91FF90EF90DF90CF90BF900895609193
:101500000101662319F12091920430919304281768
:101510003907F1F021E030E015C0F901EE0FFF1FAF
:10152000A901440F551F440F551F440F551FE40FC9
:10153000F51FE657FB4F408551852F5F3F4F4817FA
:10154000590741F0261748F380E0089580E0089598
:1015500081E0089581E00895CF92DF92EF92FF92AB
:101560001F93CF93DF93EC016A017B01122F0E943E
:101570007F0A811106C0212FB701A601CE010E946A
:101580000309DF91CF911F91FF90EF90DF90CF90F3
:1015900008958F929F92AF92BF92DF92EF92FF9247
:1015A0000F931F93CF93DF9310910101112309F43F
:1015B0007BC020E030E0D12CE12CF12C00E0F901DF
:1015C000A901440F551F440F551F440F551FD90142
:1015D000AA0FBB1FA40FB51FA657BB4F18964D915E
:1015E0005C911997452B09F45AC0A901440F551F66
:1015F000440F551F440F551FD901AA0FBB1FA40F3D
:10160000B51FA657BB4F8D909D90AD90BC9089287B
:101610008A288B2809F443C0A901440F551F440FA1
:10162000551F440F551FD901AA0FBB1FA40FB51F8B
:10163000A657BB4F8D909D90AD90BC9068157905D5
:101640008A059B05B8F4A901440F551F440F551F87
:10165000440F551FD901AA0FBB1FA40FB51FA657D2
:10166000BB4F8D909D90AD90BC90861A970AA80AAA
:10167000B90A04C08D2C9E2CAF2CB02EEF01CC0FDC
:10168000DD1FEE0FFF1FEE0FFF1FEE0FFF1FEC0F12
:10169000FD1FE657FB4F80829182A282B3822F5FAB
:1016A0003F4F211708F48BCFDF91CF911F910F91FE
:1016B000FF90EF90DF90BF90AF909F908F90089534
:1016C000EF92FF921F93CF93DF93F89480910101E3
:1016D000882309F457C010E0C12FD0E0FE01EE0FBF
:1016E000FF1FCE01880F991F880F991F880F991F20
:1016F000E80FF91FE657FB4F80859185892BE1F1B3
:10170000CE01880F991F880F991F880F991FFE011E
:10171000EE0FFF1FE80FF91FE657FB4F8081918105
:10172000A281B381892B8A2B8B2B31F57F01008419
:10173000F185E02D0995F70184819581A681B78116
:10174000892B8A2B8B2B49F084819581A681B781C7
:1017500080839183A283B3830FC0CE01880F991F2A
:10176000CC0FDD1FCC0FDD1FCC0FDD1FC80FD91F25
:10177000C657DB4F198618861F5F80910101181725
:1017800008F4AACF7894DF91CF911F91FF90EF904A
:1017900008950E94E90808950895813069F018F0CD
:1017A000823099F008958CEC9BE00E94040A80E757
:1017B00093E00E94FB0008958CEC9BE00E94040AD9
:1017C00084E893E00E94FB0008951092280421E031
:1017D00040E452E46FE070E08CEC9BE00E9403096F
:1017E00089E993E00E94FB00089508950F931F93E9
:1017F000CF93DF93CDB7DEB7A3970FB6F894DEBFD4
:101800000FBECDBF40913A0450913B0460913C041F
:1018100070913D048091360490913704A091380472
:10182000B09139047F936F935F934F93BF93AF93BE
:101830009F938F9387E094E09F938F938E010F5F28
:101840001F4F1F930F930E948E0CC8010E94FB0034
:101850000FB6F894DEBF0FBECDBFA3960FB6F894B7
:10186000DEBF0FBECDBFDF91CF911F910F910895C5
:10187000A1E21A2EAA1BBB1BFD010DC0AA1FBB1F94
:10188000EE1FFF1FA217B307E407F50720F0A21B06
:10189000B30BE40BF50B661F771F881F991F1A9473
:1018A00069F760957095809590959B01AC01BD019D
:1018B000CF010895EE0FFF1F0590F491E02D0994DC
:1018C000A29FB001B39FC001A39F700D811D112481
:1018D000911DB29F700D811D1124911D08950E94CC
:1018E000600CA59F900DB49F900DA49F800D911D3D
:1018F00011240895A0E0B0E0E0E8FCE00C94380F7B
:10190000FE01359661917191AF01809154059091DE
:1019100055050E94B00CE2E00C94540FAEE0B0E02C
:10192000E4E9FCE00C94360F0D891E8986E08C8377
:101930001A8309838FEF9FE79E838D83AE01475EF5
:101940005F4F6F89788DCE0101960E94B00CEF81B8
:10195000F885E00FF11F10822E96E4E00C94520FF0
:10196000ACE0B0E0E6EBFCE00C94280F7C016B01EE
:101970008A01FC0117821682838181FFBDC1CE01DD
:1019800001964C01F7019381F60193FD859193FF38
:1019900081916F01882309F4ABC1853239F493FD3D
:1019A000859193FF81916F01853229F4B70190E011
:1019B0000E94980EE7CF512C312C20E02032A0F469
:1019C0008B3269F030F4803259F0833269F420614F
:1019D0002CC08D3239F0803339F4216026C022606A
:1019E000246023C0286021C027FD27C030ED380FB8
:1019F0003A3078F426FF06C0FAE05F9E300D1124DD
:101A0000532E13C08AE0389E300D1124332E2062ED
:101A10000CC08E3221F426FD6BC1206406C08C36CA
:101A200011F4206802C0883641F4F60193FD8591D7
:101A300093FF81916F018111C1CF982F9F7D9554A4
:101A4000933028F40C5F1F4FFFE3F9830DC08336FA
:101A500031F0833771F0833509F05BC022C0F801A3
:101A6000808189830E5F1F4F44244394512C54017D
:101A700015C03801F2E06F0E711CF801A080B18032
:101A800026FF03C0652D70E002C06FEF7FEFC50138
:101A90002C870E948D0E2C0183012C852F77222EFE
:101AA00017C03801F2E06F0E711CF801A080B18000
:101AB00026FF03C0652D70E002C06FEF7FEFC50108
:101AC0002C870E94820E2C012C852068222E8301F7
:101AD00023FC1BC0832D90E048165906B0F4B701D3
:101AE00080E290E00E94980E3A94F4CFF50127FC32
:101AF000859127FE81915F01B70190E00E94980EC9
:101B000031103A94F1E04F1A51084114510471F721
:101B1000E5C0843611F0893639F5F80127FF07C092
:101B200060817181828193810C5F1F4F08C0608149
:101B30007181882777FD8095982F0E5F1F4F2F7634
:101B4000B22E97FF09C090958095709561957F4F53
:101B50008F4F9F4F2068B22E2AE030E0A4010E94F0
:101B6000CA0EA82EA81844C0853729F42F7EB22E9D
:101B70002AE030E025C0F22FF97FBF2E8F36C1F06A
:101B800018F4883579F0B4C0803719F0883721F01F
:101B9000AFC02F2F2061B22EB4FE0DC08B2D8460FC
:101BA000B82E09C024FF0AC09F2F9660B92E06C028
:101BB00028E030E005C020E130E002C020E132E062
:101BC000F801B7FE07C060817181828193810C5F4B
:101BD0001F4F06C06081718180E090E00E5F1F4F53
:101BE000A4010E94CA0EA82EA818FB2DFF77BF2EB5
:101BF000B6FE0BC02B2D2E7FA51450F4B4FE0AC0E8
:101C0000B2FC08C02B2D2E7E05C07A2C2B2D03C0D4
:101C10007A2C01C0752C24FF0DC0FE01EA0DF11DC8
:101C20008081803311F4297E09C022FF06C073949D
:101C3000739404C0822F867809F0739423FD13C037
:101C400020FF06C05A2C731418F4530C5718732C29
:101C5000731468F4B70180E290E02C870E94980E1C
:101C600073942C85F5CF731410F4371801C0312C00
:101C700024FF12C0B70180E390E02C870E94980EE9
:101C80002C8522FF17C021FF03C088E590E002C029
:101C900088E790E0B7010CC0822F867859F021FDCB
:101CA00002C080E201C08BE227FD8DE2B70190E027
:101CB0000E94980EA51438F4B70180E390E00E94CA
:101CC000980E5A94F7CFAA94F401EA0DF11D808181
:101CD000B70190E00E94980EA110F5CF332009F4CF
:101CE00051CEB70180E290E00E94980E3A94F6CF70
:101CF000F7018681978102C08FEF9FEF2C96E2E17A
:101D00000C94440FFC010590615070400110D8F70D
:101D1000809590958E0F9F1F0895FC016150704033
:101D200001900110D8F7809590958E0F9F1F089510
:101D30000F931F93CF93DF93182F092FEB018B8104
:101D400081FD03C08FEF9FEF20C082FF10C04E8146
:101D50005F812C813D81421753077CF4E881F98132
:101D60009F012F5F3F4F39832883108306C0E8858A
:101D7000F985812F0995892B29F72E813F812F5FC6
:101D80003F4F3F832E83812F902FDF91CF911F9163
:101D90000F910895FA01AA27283051F1203181F1DD
:101DA000E8946F936E7F6E5F7F4F8F4F9F4FAF4F63
:101DB000B1E03ED0B4E03CD0670F781F891F9A1F76
:101DC000A11D680F791F8A1F911DA11D6A0F711D2A
:101DD000811D911DA11D20D009F468943F912AE036
:101DE000269F11243019305D3193DEF6CF0108951E
:101DF000462F4770405D4193B3E00FD0C9F7F6CF4F
:101E0000462F4F70405D4A3318F0495D31FD405216
:101E1000419302D0A9F7EACFB4E0A69597958795AC
:101E200077956795BA95C9F700976105710508958B
:101E30009B01AC010A2E0694579547953795279537
:101E4000BA95C9F7620F731F841F951FA01D0895CF
:101E50002F923F924F925F926F927F928F929F92BA
:101E6000AF92BF92CF92DF92EF92FF920F931F93A8
:101E7000CF93DF93CDB7DEB7CA1BDB0B0FB6F89459
:101E8000DEBF0FBECDBF09942A88398848885F8499
:101E90006E847D848C849B84AA84B984C884DF800A
:101EA000EE80FD800C811B81AA81B981CE0FD11DEE
:101EB0000FB6F894DEBF0FBECDBFED010895F894C4
:021EC000FFCF52
:101EC2000114FF5472696D6974652064696E206E35
:101ED2006F7520756C74696D756C206D6573616AC0
:101EE200212121004D2D616D206F707269742100D6
:101EF20053746172742046726565205020502050E0
:101F02002100537461727420636F6D706C65746527
:101F120020656E636C6F73656420636F6E746F759A
:101F22007221004D612064756320696E61696E746F
:101F32006521004D612064756320696E61706F696F
:101F420021004D612064756320696E61696E74655C
:101F5200207374616E676121004D61206475632096
:101F6200696E61696E746520647265617074612165
:101F7200004D612064756320696E61706F69207322
:101F820074616E676121004D612064756320696E22
:101F920061706F69206472656170746121006D61A6
:101FA20020726F746573632073707265206472654A
:101FB20061707461006D6120726F74657363207368
:101FC200707265207374616E676100696320256CAD
:101FD200752C2074696D657020256C750073656EB3
:101FE200736F7220232564203D20256C7500736574
:101FF2006E736F7273546F53656E6420256420256F
:1020020064202564202564200073656E736F7273EB
:10201200546F526561642025642025642025642064
:102022002564203C3C2D2D00446F6E6521005346F3
:102032003D2564202044463D25642020533D2564EF
:102042002020443D2564202073746172653D25641F
:1020520000536120696E636570656D203A440053D8
:10206200463D2564202044463D2564202020443DF1
:102072002564202073746172653D25640020203E32
:102082003E3E6D61696E2073746172743C3C3C200B
:102092002000696320256C750046756E6374696162
:1020A200206173746120652064656A6120696E2015
:1020B200636F616461212063752064656C61793AA4
:1020C20020256C7500436F61646120652066756C24
:1020D2006C2100456E747279206164617567617468
:1020E20020696E20636F61646121206C6120696EDA
:1020F2006465782025642073692063752064656CAB
:1021020061793A20256C7500456E7472792073747A
:102112006572732064696E20636F6164612E20644E
:102122006520706520706F7A69746961202564008A
:102132006C6564756C206120666F737420737469BA
:102142006E732E006C6564756C206120666F73740B
:1021520020617072696E732E006C6564756C2076F6
:10216200612027626C696E63617269272E00736554
:102172006E736F722023303A20256400737461728B
:10218200746564210073656E736F722023313A2087
:1021920025640073656E736F722023323A202564C2
:1021A2000073656E736F722023333A2025640074C6
:1021B2003A20256C750025642025640072696768E1
:1021C20074006C65667400656E6320434E543A2059
:0E21D200313A256C752020323A256C750000DC
:00000001FF
