S01300005352492050726F6A6563742E737265632C
S11300000C945B000C9478000C9478000C947800A9
S11300100C9478000C9478000C9478000C9478007C
S11300200C9478000C9478000C9478000C9478006C
S11300300C9478000C9478000C9478000C94680666
S11300400C9478000C9478000C9478000C9478004C
S11300500C94A3060C9478000C9478000C9478000B
S11300600C9478000C9478000C9478000C9478002C
S11300700C9478000C9478000C947800E200B5009D
S1130080B800F400F400F400F400F400F400F40008
S1130090F400F400F400D800BB00C000C500D00098
S11300A0C800F000B205BA052D0625061A06C205D9
S11300B0020613063C0611241FBECFEFD0E1DEBFBB
S11300C0CDBF13E0A0E0B1E0E8EAF9E102C0059099
S11300D00D92A83DB107D9F724E0A8EDB3E001C023
S11300E01D92A93FB207E1F70E94C9060C94D20CF5
S11300F00C9400008091E2039FEF980F963050F526
S11301009091E3036091E4038330A1F028F48130FB
S113011049F0823059F00895853081F098F08630A6
S1130120A9F00895892F0E9445020895892F0E94FD
S11301306D020895892F0E9495020895892F0E94C7
S1130140E2020895892F0E94BA020895892F0E941D
S11301500703089590E0FC013797E431F10508F0B6
S113016043C0E25CFF4F0C94CD090E94F401089552
S11301700E94EF0108958091E3030E94A409089569
S11301808091E3030E94680308950E94DB010895AF
S113019040E06091E4038091E3030E942F030895FB
S11301A041E06091E4038091E3030E942F030895EA
S11301B021E040E251EA67E070E082E495E00E94C9
S11301C0F706089521E040E251EA67E070E081E635
S11301D095E00E94F7068091E3038093DA03089583
S11301E00E94DB010E94A0090895FC0101900020F7
S11301F0E9F73197E81BF90B2E2F3AEA3093C60042
S1130200AFE1BEE41197F1F700C0000034E1309390
S1130210C600AFE1BEE41197F1F700C00000E0931F
S1130220C600EFE1FEE43197F1F700C0000022239D
S113023089F0382FE82FF92FA6ECB0E081918C9348
S11302408FE19EE40197F1F700C000008E2F831B1D
S11302508217A0F385E58093C600AFE1BEE4119751
S1130260F1F700C000000895CF93DF9370E06115AB
S1130270710591F0E82FF92F80E090E0A6ECB0E052
S113028021912C93CFE1DEE42197F1F700C0000027
S1130290019686179707A0F3DF91CF910895CF9326
S11302A0DF9300D000D0CDB7DEB783E091E09F9319
S11302B08F930E94ED098AEA898383E18A831B82F2
S11302C085E58C8364E0CE0101960E9434010F9091
S11302D00F900F900F900F900F90DF91CF91089592
S11302E0F89490910201923021F128F4992349F075
S11302F0913091F04DC0933081F1943009F43FC0B6
S113030047C08A3A09F044C081E080930201109208
S11303100001809300013CC08B3130F492E0909353
S113032002018093E20334C0109202010E944F0143
S11303302FC0811105C01092ED031092E1030AC091
S113034093E0909302018093ED031092E1038150B6
S11303508233F0F0109202011BC0E091E10391E0BE
S11303609E0F9093E103F0E0ED51FC4F8083809168
S1130370ED03981768F084E08093020109C0853585
S113038019F00E944F0102C00E947A0010920201EB
S11303907894089589E18093C400E1ECF0E08081D1
S11303A0806880838081806180838081886080838D
S11303B010920201089584E291E00E94F50017BCB6
S11303C01092B3008BB1887F8BB98BB1807E8BB9CF
S11303D08BB1807F8BB98BB1807C8BB9089580E31E
S11303E091E00E94F500089582E491E00E94F500F6
S11303F0089517BC1092B300239A84B5836084BD1A
S113040084B5806484BD84B5806884BD85B581600D
S113041085BD579AE0EBF0E0808183608083808122
S113042080648083808180688083E1EBF0E0808158
S113043081608083259A2D9A249A2C9A539A559AEE
S11304408BB1807F8BB98BB1807C8BB9529A549AD3
S11304508BB1887F8BB98BB1807E8BB90895409521
S113046081110AC0662319F05A985C9A02C05A9AFC
S11304705C984093B3000895662319F05B9A5D98E5
S113048002C05B985D9A47BD0895CF93DF93D82F40
S1130490C62F462F60E080E00E942F024C2F60E0C0
S11304A081E00E942F028BED91E00E94F807AD2FAE
S11304B0B0E020E432E44FE050E00E94E209AB01F6
S11304C0BC0120E08BED91E00E94F70683E691E009
S11304D00E94F500DF91CF910895CF93DF93D82F39
S11304E0C62F462F61E080E00E942F024C2F61E06E
S11304F081E00E942F028BED91E00E94F807AD2F5E
S1130500B0E020E432E44FE050E00E94E209AB01A5
S1130510BC0120E08BED91E00E94F70683E791E0B7
S11305200E94F500DF91CF910895CF93C82F462FF5
S113053060E080E00E942F024AE060E081E00E94D7
S11305402F028BED91E00E94F807AC2FB0E020E47D
S113055032E44FE050E00E94E209AB01BC0120E02C
S11305608BED91E00E94F70682E891E00E94F5008D
S1130570CF910895CF93DF93C82FD62F4AE060E040
S113058080E00E942F024D2F60E081E00E942F0244
S11305908BED91E00E94F807AC2FB0E020E432E448
S11305A04FE050E00E94E209AB01BC0120E08BED7A
S11305B091E00E94F70689E991E00E94F500DF913D
S11305C0CF910895CF93C82F462F61E080E00E9419
S11305D02F024AE061E081E00E942F028BED91E05E
S11305E00E94F807AC2FB0E020E432E44FE050E082
S11305F00E94E209AB01BC0120E08BED91E00E9476
S1130600F70681EB91E00E94F500CF910895CF9316
S1130610DF93C82FD62F4AE061E080E00E942F02CA
S11306204D2F61E081E00E942F028BED91E00E944A
S1130630F807AC2FB0E020E432E44FE050E00E9431
S1130640E209AB01BC0120E08BED91E00E94F706CA
S113065087EC91E00E94F500DF91CF910895CF934C
S1130660DF93D82FC62F41110FC0462F61E081E0E0
S11306700E942F024C2F60E080E00E942F028EED3A
S113068091E00E94F5000EC0462F60E081E00E94D8
S11306902F024C2F61E080E00E942F0285EF91E051
S11306A00E94F5008BED91E00E94F807AD2FB0E0B9
S11306B020E432E44FE050E00E94E209AB01BC01C7
S11306C020E08BED91E00E94F706DF91CF91089531
S11306D04091D80321E030E0B90102C0660F771FD2
S11306E08A95E2F7CB0184278093D8038091D803BD
S11306F01F928F938BE092E09F938F9387EF93E009
S11307009F938F930E94010A87EF93E00E94F50064
S11307108EE794E00E9473089091D8030F900F9095
S11307200F900F900F900F90992361F0811115C0D5
S113073021E040E950ED63E070E08EE794E00E9430
S1130740F70608959091D80391110BC0882349F0BE
S11307508EE794E00E94F80708958091D8038823D7
S1130760B9F30895AAE7B0E08C9187608C93ECE725
S1130770F0E080818064808380818F7780838081B2
S1130780806280838C9180688C930895ECE7F0E01C
S11307909081907E90839081892B8083EAE7F0E0BA
S11307A080818064808308950E94C603EAE7F0E0B4
S11307B0808186FDFDCF209178002295269526958F
S11307C023708091790090E0880F991F880F991FFA
S11307D0822B08958F929F92AF92BF92CF92DF9215
S11307E0EF92FF920F931F93CF93DF93CDB7DEB7B2
S11307F02E970FB6F894DEBF0FBECDBF182F9E0103
S11308002F5F3F4F79016E013FE0C30ED11C812F52
S11308100E94D403F701819391937F01EC15FD05A8
S1130820B1F721E030E080E001E0F12C90E0D12C40
S1130830E12C32C0482F50E0FA01EE0FFF1FAA242A
S1130840A394B12CAC0EBD1EEA0DFB1D6081718119
S11308504A01EFEF8E1A9E0AD401AA0FBB1FAA0DFC
S1130860BB1D0D90BC91A02DA617B70780F4440FB3
S1130870551F4A0D5B1DFA01B183A083F401EE0FED
S1130880FF1FEA0DFB1D718360832D2D3E2D8F5FAD
S113089003C0202F3F2D892F863060F2232BC9F30C
S11308A02F8138858D819E81280F391F89859A85EE
S11308B0280F391FABEABAEA0E94D30996958795A7
S11308C0E12FF0E0EE0FFF1FE151FC4F9183808395
S11308D0BC0180E090E02E960FB6F894DEBF0FBE08
S11308E0CDBFDF91CF911F910F91FF90EF90DF90DB
S11308F0CF90BF90AF909F908F900895EF92FF920A
S11309000F931F93CF93DF93C0E0D0E00F2EFFE24D
S1130910EF2EF2E0FF2EF02D07EF13E08091D803C5
S113092090E00C2E02C0959587950A94E2F780FF1B
S113093025C0C093EE038091EE030E94EA037093F6
S11309402A04609329048091290490912A04209117
S1130950EE039F938F931F922F93FF92EF921F9317
S11309600F930E94010AC8010E94F5008DB79EB73B
S113097008960FB6F8949EBF0FBE8DBF2196C43063
S1130980D10561F6DF91CF911F910F91FF90EF9008
S113099008957F928F929F92AF92BF92CF92DF92EF
S11309A0EF92FF920F931F93CF93DF93CDB7DEB7F0
S11309B02E970FB6F894DEBF0FBECDBF782E6E0112
S11309C08FE0C80ED11CFE0131967F010AE710E0CA
S11309D00F2EF8E78F2E912CF02D0F2EF9E7AF2E66
S11309E0B12CF02D872D0E94C603F801808186FD6D
S11309F0FCCFF4012081229526952695237030E0C2
S1130A00F70131832083F501808190E0880F991FDD
S1130A10880F991F282B392BF701219331937F01DC
S1130A20EC15FD05F9F6FE01319640E050E08191A8
S1130A309191480F591FEC15FD05C9F79A01A3E9D7
S1130A40B4E20E94D309481B590B9A0136952795A5
S1130A50820F931F96958795969587952E960FB638
S1130A60F894DEBF0FBECDBFDF91CF911F910F91E0
S1130A70FF90EF90DF90CF90BF90AF909F908F90BA
S1130A807F9008958091D903823061F0833091F092
S1130A90811116C081E08093D90366E98CE30E943A
S1130AA04502089580E492E00E94F50083E080937B
S1130AB0D903089582E495E00E94F8071092D903BF
S1130AC00895AF92BF92CF92DF92EF92FF920F936D
S1130AD01F93CF93DF93CDB7DEB7C456D1090FB6BA
S1130AE0F894DEBF0FBECDBF82E00E94C904B82EC9
S1130AF0A92E83E00E94C9048C011092000180E0B9
S1130B000E94C9046C0181E00E94C9047C018091A7
S1130B10DB031F928F931F930F93AF92BF92FF92A9
S1130B20EF92DF92CF9286E492E09F938F93CE016F
S1130B3001965C01BF928F930E94010AC5010E9435
S1130B40F5000FB6F894DEBF0FBECDBF8091DB0376
S1130B5090E08930910508F099C0FC01EE5AFF4FEE
S1130B600C94CD0981E08093DB0389E692E00E9436
S1130B70F5008CC06DE78CE30E94BA0283E0809399
S1130B80DB0384C097E9C916D10460F087E9E8164D
S1130B90F10440F082E08093DB0341E06BE48CE3FA
S1130BA00E942F0304361105A8F48091DA038150C2
S1130BB08093DA038091DA03811109C040E06BE489
S1130BC08CE30E942F0386E08093DB0303C088E05C
S1130BD08093DB030D3D110538F084E08093DB0343
S1130BE06BE48CE30E9495020B5A11090F34110532
S1130BF008F04CC083E08093DB036BE48CE30E9439
S1130C00BA0244C09BE5C916D10408F03FC084EB86
S1130C10E816F104D8F56BE486E00E94450287E00B
S1130C208093DB0333C00E94DB0181E695E00E94E0
S1130C30F8072CC00C32114048F585E08093DB03A3
S1130C406BE48CE30E94450221C085E08093DB03C2
S1130C506BE48CE30E94450219C085E6E81AF108AA
S1130C6097E2E916F10490F46BE48CE30E944502E8
S1130C7085E08093DB030AC00C32114038F485E030
S1130C808093DB036BE48CE30E94450281E0809354
S1130C900001CC59DF4F0FB6F894DEBF0FBECDBFB5
S1130CA0DF91CF911F910F91FF90EF90DF90CF9044
S1130CB0BF90AF900895EFE6F0E08081816080837B
S1130CC0109285001092840081E080938100089541
S1130CD01F920F920FB60F9211242F933F934F93AD
S1130CE05F936F937F938F939F93AF93BF93EF9390
S1130CF0FF938091DC039091DD03A091DE03B0911A
S1130D00DF030196A11DB11D8093DC039093DD03E5
S1130D10A093DE03B093DF0360E672E280E090E02C
S1130D200E94A008FF91EF91BF91AF919F918F9185
S1130D307F916F915F914F913F912F910F900FBED3
S1130D400F901F9018951F920F920FB60F921124B7
S1130D502F933F934F935F936F937F938F939F93BF
S1130D60AF93BF93EF93FF938091C6000E947001ED
S1130D70FF91EF91BF91AF919F918F917F916F916F
S1130D805F914F913F912F910F900FBE0F901F9045
S1130D9018950E94CA010E945B060E94CC090E9419
S1130DA0F9010E94B2030E94DD06789485E992E07D
S1130DB00E94F5000E943709FDCF409101014423B0
S1130DC0A9F080E090E0FC01EE0FFF1F9C01220FD0
S1130DD0331F220F331F220F331FE20FF31FE55D72
S1130DE0FB4F118610860196841768F30895DF92ED
S1130DF0EF92FF920F931F93CF93DF93CDB7DEB79C
S1130E00CE56D1090FB6F894DEBF0FBECDBFF8940D
S1130E10D0900101DD2009F477C0E0913304F09112
S1130E203404EF2B09F47AC0E0913304F0913404D4
S1130E30E817F90709F05EC02DC07F01DF01AA0F92
S1130E40BB1FAA0FBB1FAA0FBB1F8F01000F111FCF
S1130E50A00FB11FA55DBB4F18960D90BC91A02D9E
S1130E60AB2B09F44EC08F01000F111FDF01AA0F35
S1130E70BB1FAA0FBB1FAA0FBB1FA00FB11FA55DED
S1130E80BB4F18960D90BC91A02D3196A817B907A9
S1130E9099F502C0E12CF12C80910001882309F41A
S1130EA098C0F701EE0FFF1FEE0CFF1CEE0CFF1CA9
S1130EB0EE0CFF1CEE0DFF1DE55DFB4F8081918163
S1130EC0A281B381BF93AF939F938F938AEA92E0F9
S1130ED09F938F938E01055F1F4F1F930F930E9463
S1130EE0010AC8010E94F5000FB6F894DEBF0FBED8
S1130EF0CDBF6FC0E1E0F0E03E2FED1508F49DCFCB
S1130F0001C0E32FED110BC080910001882309F487
S1130F1060C086ED92E00E94F5005BC030E02111D4
S1130F2004C0A0E0F0E0E0E004C0A42FF52FE62F19
S1130F30272F032F10E049835A836B837C83AD836F
S1130F40FE83EF8328879A878987D801AA0FBB1F5E
S1130F50C801880F991F880F991F880F991FA80F20
S1130F60B91FA55DBB4F8AE0FE01319601900D9239
S1130F708A95E1F780910001882351F1F801EE0F81
S1130F80FF1F000F111F000F111F000F111FE00F93
S1130F90F11FE55DFB4F80819181A281B381BF93F5
S1130FA0AF939F938F931F923F9384EE92E09F930E
S1130FB08F938E01055F1F4F1F930F930E94010AA9
S1130FC0C8010E94F5000FB6F894DEBF0FBECDBF76
S1130FD07894C259DF4F0FB6F894DEBF0FBECDBF71
S1130FE0DF91CF911F910F91FF90EF90DF900895C3
S1130FF0BF92CF92DF92EF92FF920F931F93CF9302
S1131000DF93CDB7DEB7C456D1090FB6F894DEBF6F
S11310100FBECDBF8C0180910101882309F452C019
S1131020B12C0F2EF9E1CF2EF3E0DF2EF02DCE01FF
S113103001967C012B2D30E0F901EE0FFF1FC90151
S1131040880F991F880F991F880F991FE80FF91FA0
S1131050E55DFB4F408551854017510769F5C9018E
S1131060880F991F880F991F880F991FF901EE0F98
S1131070FF1FE80FF91FE55DFB4F118610861082F4
S11310801182128213821482158216821782809131
S11310900001882389F03F93BF92DF92CF92FF92A1
S11310A0EF920E94010AC7010E94F5000F900F9071
S11310B00F900F900F900F90B39480910101B81688
S11310C008F4B8CFCC59DF4F0FB6F894DEBF0FBE8B
S11310D0CDBFDF91CF911F910F91FF90EF90DF90E3
S11310E0CF90BF90089560910101662319F120917A
S11310F033043091340428173907F1F021E030E04B
S113110015C0F901EE0FFF1FA901440F551F440F2D
S1131110551F440F551FE40FF51FE55DFB4F408538
S113112051852F5F3F4F4817590741F0261748F361
S113113080E0089580E0089581E0089581E00895B5
S11311408F929F92AF92BF92DF92EF92FF920F9392
S11311501F93CF93DF9310910101112309F47BC0F6
S113116020E030E0D12CE12CF12C00E0F901A901C0
S1131170440F551F440F551F440F551FD901AA0F83
S1131180BB1FA40FB51FA55DBB4F18964D915C9175
S11311901997452B09F45AC0A901440F551F440F50
S11311A0551F440F551FD901AA0FBB1FA40FB51F0C
S11311B0A55DBB4F8D909D90AD90BC9089288A28E9
S11311C08B2809F443C0A901440F551F440F551F30
S11311D0440F551FD901AA0FBB1FA40FB51FA55D4E
S11311E0BB4F8D909D90AD90BC90681579058A0594
S11311F09B05B8F4A901440F551F440F551F440F14
S1131200551FD901AA0FBB1FA40FB51FA55DBB4F66
S11312108D909D90AD90BC90861A970AA80AB90A41
S113122004C08D2C9E2CAF2CB02EEF01CC0FDD1FF3
S1131230EE0FFF1FEE0FFF1FEE0FFF1FEC0FFD1F42
S1131240E55DFB4F80829182A282B3822F5F3F4F84
S1131250211708F48BCFDF91CF911F910F91FF904D
S1131260EF90DF90BF90AF909F908F900895EF9292
S1131270FF921F93CF93DF93F89480910101882309
S113128009F457C010E0C12FD0E0FE01EE0FFF1F9C
S1131290CE01880F991F880F991F880F991FE80F97
S11312A0F91FE55DFB4F80859185892BE1F1CE0126
S11312B0880F991F880F991F880F991FFE01EE0F41
S11312C0FF1FE80FF91FE55DFB4F80819181A2812B
S11312D0B381892B8A2B8B2B31F57F010084F18517
S11312E0E02D0995F70184819581A681B781892B29
S11312F08A2B8B2B49F084819581A681B7818083C9
S11313009183A283B3830FC0CE01880F991FCC0FA2
S1131310DD1FCC0FDD1FCC0FDD1FC80FD91FC55D2E
S1131320DB4F198618861F5F80910101181708F496
S1131330AACF7894DF91CF911F91FF90EF900895F9
S11313400E94DD0608950895813069F018F0823016
S113135099F0089583EA99E00E94F80781E493E004
S11313600E94F500089583EA99E00E94F80785E554
S113137093E00E94F50008951092E00321E040E418
S113138052E46FE070E083EA99E00E94F7068AE68F
S113139093E00E94F50008950895EE0FFF1F059055
S11313A0F491E02D0994A29FB001B39FC001A39FC3
S11313B0700D811D1124911DB29F700D811D11248A
S11313C0911D08950E94D309A59F900DB49F900D7F
S11313D0A49F800D911D11240895A0E0B0E0E3EFD7
S11313E0F9E00C94AB0CFE01359661917191AF015B
S11313F08091F5049091F6040E94230AE2E00C9493
S1131400C70CAEE0B0E0E7E0FAE00C94A90C0D895B
S11314101E8986E08C831A8309838FEF9FE79E835E
S11314208D83AE01475E5F4F6F89788DCE01019643
S11314300E94230AEF81F885E00FF11F10822E9697
S1131440E4E00C94C50CACE0B0E0E9E2FAE00C9402
S11314509B0C7C016B018A01FC011782168283813B
S113146081FFBDC1CE0101964C01F7019381F601C4
S113147093FD859193FF81916F01882309F4ABC19A
S1131480853239F493FD859193FF81916F01853203
S113149029F4B70190E00E940B0CE7CF512C312CBA
S11314A020E02032A0F48B3269F030F4803259F01D
S11314B0833269F420612CC08D3239F0803339F4E1
S11314C0216026C02260246023C0286021C027FD3B
S11314D027C030ED380F3A3078F426FF06C0FAE022
S11314E05F9E300D1124532E13C08AE0389E300DB8
S11314F01124332E20620CC08E3221F426FD6BC1E0
S1131500206406C08C3611F4206802C0883641F489
S1131510F60193FD859193FF81916F018111C1CFF4
S1131520982F9F7D9554933028F40C5F1F4FFFE351
S1131530F9830DC0833631F0833771F0833509F0B8
S11315405BC022C0F801808189830E5F1F4F442451
S11315504394512C540115C03801F2E06F0E711CF4
S1131560F801A080B18026FF03C0652D70E002C0A1
S11315706FEF7FEFC5012C870E94000C2C018301C3
S11315802C852F77222E17C03801F2E06F0E711CC4
S1131590F801A080B18026FF03C0652D70E002C071
S11315A06FEF7FEFC5012C870E94F50B2C012C8572
S11315B02068222E830123FC1BC0832D90E0481653
S11315C05906B0F4B70180E290E00E940B0C3A9403
S11315D0F4CFF50127FC859127FE81915F01B701C6
S11315E090E00E940B0C31103A94F1E04F1A51082C
S11315F04114510471F7E5C0843611F0893639F588
S1131600F80127FF07C060817181828193810C5F9B
S11316101F4F08C060817181882777FD8095982FBE
S11316200E5F1F4F2F76B22E97FF09C090958095BD
S1131630709561957F4F8F4F9F4F2068B22E2AE09F
S113164030E0A4010E943D0CA82EA81844C08537A0
S113165029F42F7EB22E2AE030E025C0F22FF97F44
S1131660BF2E8F36C1F018F4883579F0B4C08037B6
S113167019F0883721F0AFC02F2F2061B22EB4FEAD
S11316800DC08B2D8460B82E09C024FF0AC09F2F83
S11316909660B92E06C028E030E005C020E130E0B5
S11316A002C020E132E0F801B7FE07C06081718119
S11316B0828193810C5F1F4F06C06081718180E03D
S11316C090E00E5F1F4FA4010E943D0CA82EA818A5
S11316D0FB2DFF77BF2EB6FE0BC02B2D2E7FA5143E
S11316E050F4B4FE0AC0B2FC08C02B2D2E7E05C0F7
S11316F07A2C2B2D03C07A2C01C0752C24FF0DC02D
S1131700FE01EA0DF11D8081803311F4297E09C0A8
S113171022FF06C07394739404C0822F867809F064
S1131720739423FD13C020FF06C05A2C731418F4BD
S1131730530C5718732C731468F4B70180E290E0CB
S11317402C870E940B0C73942C85F5CF731410F422
S1131750371801C0312C24FF12C0B70180E390E098
S11317602C870E940B0C2C8522FF17C021FF03C07D
S113177088E590E002C088E790E0B7010CC0822FB2
S1131780867859F021FD02C080E201C08BE227FD7A
S11317908DE2B70190E00E940B0CA51438F4B70158
S11317A080E390E00E940B0C5A94F7CFAA94F401C2
S11317B0EA0DF11D8081B70190E00E940B0CA1108D
S11317C0F5CF332009F451CEB70180E290E00E94B6
S11317D00B0C3A94F6CFF7018681978102C08FEF04
S11317E09FEF2C96E2E10C94B70CFC01059061503C
S11317F070400110D8F7809590958E0F9F1F089523
S1131800FC016150704001900110D8F780959095CB
S11318108E0F9F1F08950F931F93CF93DF93182F5D
S1131820092FEB018B8181FD03C08FEF9FEF20C057
S113183082FF10C04E815F812C813D814217530786
S11318407CF4E881F9819F012F5F3F4F398328831E
S1131850108306C0E885F985812F0995892B29F71E
S11318602E813F812F5F3F4F3F832E83812F902F07
S1131870DF91CF911F910F910895FA01AA27283083
S113188051F1203181F1E8946F936E7F6E5F7F4F49
S11318908F4F9F4FAF4FB1E03ED0B4E03CD0670FC5
S11318A0781F891F9A1FA11D680F791F8A1F911D18
S11318B0A11D6A0F711D811D911DA11D20D009F468
S11318C068943F912AE0269F11243019305D3193AA
S11318D0DEF6CF010895462F4770405D4193B3E093
S11318E00FD0C9F7F6CF462F4F70405D4A3318F03A
S11318F0495D31FD4052419302D0A9F7EACFB4E0EB
S1131900A6959795879577956795BA95C9F70097A2
S11319106105710508959B01AC010A2E0694579543
S1131920479537952795BA95C9F7620F731F841F9A
S1131930951FA01D08952F923F924F925F926F9230
S11319407F928F929F92AF92BF92CF92DF92EF924B
S1131950FF920F931F93CF93DF93CDB7DEB7CA1BCC
S1131960DB0B0FB6F894DEBF0FBECDBF09942A88F7
S1131970398848885F846E847D848C849B84AA849F
S1131980B984C884DF80EE80FD800C811B81AA812C
S1131990B981CE0FD11D0FB6F894DEBF0FBECDBFF7
S10B19A0ED010895F894FFCF56
S11319A80114FF5472696D6974652064696E206E50
S11319B86F7520756C74696D756C206D6573616ADB
S11319C8212121004D2D616D206F707269742100F1
S11319D853746172742046726565205020502050FB
S11319E82100537461727420636F6D706C65746543
S11319F820656E636C6F73656420636F6E746F75B6
S1131A087221004D612064756320696E61696E748A
S1131A186521004D612064756320696E61706F698A
S1131A2821004D612064756320696E61696E746577
S1131A38207374616E676121004D612064756320B1
S1131A48696E61696E746520647265617074612180
S1131A58004D612064756320696E61706F6920733D
S1131A6874616E676121004D612064756320696E3D
S1131A7861706F69206472656170746121006D61C1
S1131A8820726F7465736320737072652064726565
S1131A9861707461006D6120726F74657363207383
S1131AA8707265207374616E67610073656E736F1D
S1131AB87273546F52656164202325642000736532
S1131AC86E736F726E202325643A20256C7500733B
S1131AD8656E736F7220232564203D202568750088
S1131AE8446F6E65210053463D2564202044463DDD
S1131AF825642020533D25642020443D256420206E
S1131B0873746172653D256400536120696E636571
S1131B1870656D203A440053463D256420204446B0
S1131B283D2564202020443D25642020737461727F
S1131B38653D25640020203E3E3E6D61696E20733C
S1131B48746172743C3C3C20200046756E63746971
S1131B5861206173746120652064656A6120696E1F
S1131B6820636F616461212063752064656C617909
S1131B783A20256C7500436F6164612065206675A1
S1131B886C6C2100456E74727920616461756761BB
S1131B987420696E20636F61646121206C6120691F
S1131BA86E646578202564207369206375206465F4
S1131BB86C61793A20256C7500456E7472792073CE
S1131BC8746572732064696E20636F6164612E208A
S1131BD8646520706520706F7A6974696120256472
S1131BE8006C6564756C206120666F73742073746F
S1131BF8696E732E006C6564756C206120666F7362
S1131C087420617072696E732E006C6564756C2043
S1131C1876612027626C696E63617269272E00738E
S1131C28656E736F722023303A20256400737461E3
S1131C3872746564210073656E736F722023313A80
S1131C482025640073656E736F722023323A202551
S1131C58640073656E736F722023333A2025640021
S1131C68743A20256C750025642025640072696720
S10B1C786874006C65667400D9
S9030000FC
