S01300005352492050726F6A6563742E737265632C
S11300000C9451000C946E000C946E000C946E00D1
S11300100C946E000C946E000C946E000C946E00A4
S11300200C946E000C946E000C946E000C946E0094
S11300300C946E000C946E000C946E000C946E0480
S11300400C946E000C946E000C946E000C946E0074
S11300500C94A9040C946E000C946E000C946E0025
S11300600C946E000C946E000C946E000C946E0054
S11300700C946E000C946E000C946E005301EA0014
S1130080ED006001600160016001600160016001D8
S11300906001600160014901F000F5003601410191
S11300A0390111241FBECFEFD0E1DEBFCDBF13E075
S11300B0A0E0B1E0E2EBFFE102C005900D92AA35A9
S11300C0B107D9F724E0AAE5B3E001C01D92AD3829
S11300D0B207E1F70E94CF040C94D70F0C940000F0
S11300E0FC0101900020E9F73197E81BF90B2E2F52
S11300F03AEA3093C600AFE1BEE41197F1F700C0CD
S1130100000034E13093C600AFE1BEE41197F1F78B
S113011000C00000E093C600EFE1FEE43197F1F780
S113012000C00000222389F0382FE82FF92FA6EC15
S1130130B0E081918C938FE19EE40197F1F700C0C8
S113014000008E2F831B8217A0F385E58093C600E1
S1130150AFE1BEE41197F1F700C00000089580916B
S11301606B039FEF980F963050F590916C0360915C
S11301706D038330A1F028F4813049F0823059F0C6
S11301800895853081F098F08630A9F00895892F7C
S11301900E945F020895892F0E9487020895892F83
S11301A00E94AF020895892F0E94FC020895892FAE
S11301B00E94D4020895892F0E942103089590E09B
S11301C0FC013797E331F10508F07AC0E25CFF4F98
S11301D00C94D20C0E941A0208950E9415020895EC
S11301E080916C030E945F08089580916D038130B3
S11301F089F580916C03811115C08AE898E00E940A
S11302002907882329F08AE898E00E94AE06089519
S113021021E040E452E46FE070E08AE898E00E9454
S1130220AD050895813009F04BC087E799E00E943D
S11302302907882329F087E799E00E94AE060895EC
S113024021E040E452E46FE070E087E799E00E9427
S1130250AD05089580916C03811103C00E948A0842
S11302600895813069F50E94770908950E94080273
S1130270089540E060916D0380916C030E944903EE
S1130280089541E060916D0380916C030E944903DD
S1130290089521E040E157E260E070E08CEB98E0E3
S11302A00E94AD05089521E040E452E46FE070E05F
S11302B089EA99E00E94AD0584E091E00E94700013
S11302C00895CF93DF9370E06115710591F0E82FE5
S11302D0F92F80E090E0A6ECB0E021912C93CFE1DF
S11302E0DEE42197F1F700C0000001968617970716
S11302F0A0F3DF91CF910895CF93DF9300D000D086
S1130300CDB7DEB784E191E09F938F930E94F20C06
S11303108AEA898383E18A831B8285E58C8364E08E
S1130320CE0101960E9461010F900F900F900F90E3
S11303300F900F90DF91CF910895F894909103015D
S1130340923021F128F4992349F0913091F04DC075
S1130350933081F1943009F43FC047C08A3A09F0E0
S113036044C081E080930301109200018093000156
S11303703CC08B3130F492E09093030180936B0383
S113038034C0109203010E947C012FC0811105C06A
S11303901092760310926A030AC093E090930301CB
S11303A08093760310926A0381508233F0F01092A6
S11303B003011BC0E0916A0391E09E0F90936A03CE
S11303C0F0E0E459FC4F808380917603981768F03D
S11303D084E08093030109C0853519F00E947C01F3
S11303E002C00E94AF00109203017894089583E341
S11303F08093C400E1ECF0E0808180688083808198
S113040080618083808188608083109203010895D5
S113041085E391E00E94700088B18C7F88B9409890
S11304208FEF87BD8093B300089581E491E00E942B
S11304307000089583E591E00E94700008958FEFA5
S113044087BD8093B3001B9A84B5836084BD84B553
S1130450806484BD84B5806884BD85B5816085BDB4
S1130460239A579AE0EBF0E0808183608083808157
S113047080648083808180688083E1EBF0E0808108
S113048081608083389A399A88B18C7F88B9409882
S11304900895611101C04095811108C04093B300D3
S11304A0611102C040980895409A089547BD6111B2
S11304B004C088B18C7F88B90895419A0895CF9378
S11304C0DF93D82FC62F462F60E080E00E944902B8
S11304D04C2F60E081E00E94490288E092E00E9493
S11304E0AE06AD2FB0E020E432E44FE050E00E94CD
S11304F0E70CAB01BC0120E088E092E00E94AD056E
S113050084E791E00E947000DF91CF910895CF932A
S1130510DF93D82FC62F462F61E080E00E94490266
S11305204C2F61E081E00E94490288E092E00E9441
S1130530AE06AD2FB0E020E432E44FE050E00E947C
S1130540E70CAB01BC0120E088E092E00E94AD051D
S113055084E891E00E947000DF91CF910895CF93D9
S1130560C82F462F60E080E00E9449024AE060E024
S113057081E00E94490288E092E00E94AE06AC2F1E
S1130580B0E020E432E44FE050E00E94E70CAB011D
S1130590BC0120E088E092E00E94AD0583E991E08F
S11305A00E947000CF910895CF93DF93C82FD62F68
S11305B04AE060E080E00E9449024D2F60E081E063
S11305C00E94490288E092E00E94AE06AC2FB0E09F
S11305D020E432E44FE050E00E94E70CAB01BC01A0
S11305E020E088E092E00E94AD058AEA91E00E9452
S11305F07000DF91CF910895CF93C82F462F61E00B
S113060080E00E9449024AE061E081E00E944902E0
S113061088E092E00E94AE06AC2FB0E020E432E421
S11306204FE050E00E94E70CAB01BC0120E088E001
S113063092E00E94AD0582EC91E00E947000CF919F
S11306400895CF93DF93C82FD62F4AE061E080E06E
S11306500E9449024D2F61E081E00E94490288E036
S113066092E00E94AE06AC2FB0E020E432E44FE00A
S113067050E00E94E70CAB01BC0120E088E092E06E
S11306800E94AD0588ED91E00E947000DF91CF914A
S11306900895CF93DF93D82FC62F41110FC0462F53
S11306A060E081E00E9449024C2F61E080E00E94FA
S11306B049028FEE91E00E9470000EC0462F61E067
S11306C081E00E9449024C2F60E080E00E944902D0
S11306D086E092E00E94700088E092E00E94AE06FC
S11306E0AD2FB0E020E432E44FE050E00E94E70C8C
S11306F0AB01BC0120E088E092E00E94AD05DF91EF
S1130700CF91089590E0880F991FFC01EE0FFF1F11
S1130710EE0FFF1FEE0FFF1FE81BF90BE958FC4F0C
S11307201182108213821282158214821782168219
S11307301186108613861286089587E793E02FEAC0
S113074033E050E009C0119211924F5F4730D9F75E
S11307500E968217930719F0FC01452FF4CFAAE7F0
S1130760B0E08C9187608C93ECE7F0E0808180644A
S1130770808380818F7780838081806280838C9165
S113078080688C930895ECE7F0E09081907E9083EC
S11307909081892B8083EAE7F0E080818064808304
S11307A008956F927F928F929F92AF92BF92CF9251
S11307B0DF92EF92FF920F931F93CF93DF93982EC4
S11307C00E948203892D90E09C01220F331FF901BE
S11307D0EE0FFF1FEE0FFF1FEE0FFF1FE21BF30BC9
S11307E0E958FC4F118210825F016E2E7B2C0F2E74
S11307F0F6E08F2EF02DCAE7D0E00F2EF8E7CF2ECB
S1130800D12CF02D8F01045F1F4F0F2EF9E7EF2E2F
S1130810F12CF02D892D0E94C3035A2D4B2DE62D6A
S1130820F72D882D22813381219331938150D1F783
S1130830888186FDFDCFF601808182958695869517
S1130840837090E0F80191838083F701208130E088
S1130850220F331F220F331F822B932BF801918316
S11308608083F50180819181892BA1F2E52FF42FFA
S113087040E050E020E081919191480F591F2F5F93
S11308802730C9F79A01A3E9B4E20E94D80C481BA7
S1130890590B9A0136952795820F931F9695879544
S11308A096958795DF91CF911F910F91FF90EF90CF
S11308B0DF90CF90BF90AF909F908F907F906F907C
S11308C00895EFE6F0E080818160808310928500D6
S11308D01092840081E08093810008951F920F920A
S11308E00FB60F9211242F933F934F935F936F93FF
S11308F07F938F939F93AF93BF93EF93FF938091D5
S11309005A0390915B03A0915C03B0915D0301963F
S1130910A11DB11D80935A0390935B03A0935C03C4
S1130920B0935D0360E672E280E090E00E945607B7
S1130930FF91EF91BF91AF919F918F917F916F91B3
S11309405F914F913F912F910F900FBE0F901F9089
S113095018951F920F920FB60F9211242F933F9365
S11309604F935F936F937F938F939F93AF93BF93B3
S1130970EF93FF938091C6000E949D01FF91EF9138
S1130980BF91AF919F918F917F916F915F914F91A3
S11309903F912F910F900FBE0F901F9018950E94BA
S11309A0F7010E9461040E9487080E941F020E94AE
S11309B09D030E94930578948CE192E00E9470005C
S11309C05D9A21E040E553EC60E070E08EE29AE04D
S11309D00E94AD050E94ED07FDCF8F929F92AF92CA
S11309E0BF92CF92DF92EF92FF920E94B70A6B01FF
S11309F07C019F772DEC3CEC4CEC5DE30E946B0C8E
S1130A001816E4F42AE037ED43E25CE3C701B601CB
S1130A100E946F0C9B01AC0160915E0370915F03B7
S1130A2080916003909161030E94B80A60935E0311
S1130A3070935F0380936003909361032DEC3CEC0F
S1130A404CEC5DE3C701B6010E946F0C4B015C01E5
S1130A502AE037ED43EA5BE360915E0370915F0344
S1130A6080916003909161030E946F0C9B01AC0123
S1130A70C501B4010E94B80A4B015C0120916203D4
S1130A80309163034091640350916503C701B6013B
S1130A900E94B70A2AE037ED43E25CE30E94200B90
S1130AA02AE037ED43E25CE30E946F0C9B01AC014A
S1130AB0C501B4010E94B80A4B015C0120E030E09A
S1130AC040E850E40E946B0C18165CF020E030E023
S1130AD040E850ECC501B4010E941C0B882344F08B
S1130AE00FC0812C912C54016894A7F8B6F808C063
S1130AF00F2E812C912CF0E8AF2EF0ECBF2EF02DB0
S1130B00C0926203D0926303E0926403F09265039F
S1130B10C501B401FF90EF90DF90CF90BF90AF90EC
S1130B209F908F900895409101014423A9F080E0A3
S1130B3090E0FC01EE0FFF1F9C01220F331F220FD8
S1130B40331F220F331FE20FF31FE155FC4F1186B1
S1130B5010860196841768F30895DF92EF92FF924E
S1130B600F931F93CF93DF93CDB7DEB7CE56D10942
S1130B700FB6F894DEBF0FBECDBFF894D09001013C
S1130B80DD2009F477C0E091B703F091B803EF2BAF
S1130B9009F47AC0E091B703F091B803E817F907B4
S1130BA009F05EC02DC07F01DF01AA0FBB1FAA0F91
S1130BB0BB1FAA0FBB1F8F01000F111FA00FB11F76
S1130BC0A155BC4F18960D90BC91A02DAB2B09F4E8
S1130BD04EC08F01000F111FDF01AA0FBB1FAA0F08
S1130BE0BB1FAA0FBB1FA00FB11FA155BC4F189666
S1130BF00D90BC91A02D3196A817B90799F502C0A4
S1130C00E12CF12C80910001882309F498C0F701AC
S1130C10EE0FFF1FEE0CFF1CEE0CFF1CEE0CFF1C76
S1130C20EE0DFF1DE155FC4F80819181A281B381BE
S1130C30BF93AF939F938F9381E392E09F938F939E
S1130C408E01055F1F4F1F930F930E94060DC8016D
S1130C500E9470000FB6F894DEBF0FBECDBF6FC008
S1130C60E1E0F0E03E2FED1508F49DCF01C0E32F45
S1130C70ED110BC080910001882309F460C08DE55B
S1130C8092E00E9470005BC030E0211104C0A0E03B
S1130C90F0E0E0E004C0A42FF52FE62F272F032F68
S1130CA010E049835A836B837C83AD83FE83EF8397
S1130CB028879A878987D801AA0FBB1FC801880F84
S1130CC0991F880F991F880F991FA80FB91FA15545
S1130CD0BC4F8AE0FE01319601900D928A95E1F7AE
S1130CE080910001882351F1F801EE0FFF1F000FDE
S1130CF0111F000F111F000F111FE00FF11FE1550D
S1130D00FC4F80819181A281B381BF93AF939F9364
S1130D108F931F923F938BE692E09F938F938E0164
S1130D20055F1F4F1F930F930E94060DC8010E9479
S1130D3070000FB6F894DEBF0FBECDBF7894C259D1
S1130D40DF4F0FB6F894DEBF0FBECDBFDF91CF915A
S1130D501F910F91FF90EF90DF900895BF92CF9273
S1130D60DF92EF92FF920F931F93CF93DF93CDB750
S1130D70DEB7C456D1090FB6F894DEBF0FBECDBF9F
S1130D808C0180910101882309F452C0B12C0F2EEB
S1130D90F0EACF2EF2E0DF2EF02DCE0101967C0199
S1130DA02B2D30E0F901EE0FFF1FC901880F991FA9
S1130DB0880F991F880F991FE80FF91FE155FC4F01
S1130DC0408551854017510769F5C901880F991F5E
S1130DD0880F991F880F991FF901EE0FFF1FE80F65
S1130DE0F91FE155FC4F1186108610821182128280
S1130DF0138214821582168217828091000188233F
S1130E0089F03F93BF92DF92CF92FF92EF920E94BC
S1130E10060DC7010E9470000F900F900F900F9065
S1130E200F900F90B39480910101B81608F4B8CFD5
S1130E30CC59DF4F0FB6F894DEBF0FBECDBFDF91A4
S1130E40CF911F910F91FF90EF90DF90CF90BF90C3
S1130E50089560910101662319F12091B70330913F
S1130E60B80328173907F1F021E030E015C0F90183
S1130E70EE0FFF1FA901440F551F440F551F440FC8
S1130E80551FE40FF51FE155FC4F408551852F5F39
S1130E903F4F4817590741F0261748F380E008955B
S1130EA080E0089581E0089581E008958F929F92F3
S1130EB0AF92BF92DF92EF92FF920F931F93CF9363
S1130EC0DF9310910101112309F47BC020E030E08D
S1130ED0D12CE12CF12C00E0F901A901440F551F9C
S1130EE0440F551F440F551FD901AA0FBB1FA40F50
S1130EF0B51FA155BC4F18964D915C911997452B80
S1130F0009F45AC0A901440F551F440F551F440F3B
S1130F10551FD901AA0FBB1FA40FB51FA155BC4F64
S1130F208D909D90AD90BC9089288A288B2809F4D7
S1130F3043C0A901440F551F440F551F440F551FAB
S1130F40D901AA0FBB1FA40FB51FA155BC4F8D908B
S1130F509D90AD90BC90681579058A059B05B8F401
S1130F60A901440F551F440F551F440F551FD901A4
S1130F70AA0FBB1FA40FB51FA155BC4F8D909D9008
S1130F80AD90BC90861A970AA80AB90A04C08D2CA1
S1130F909E2CAF2CB02EEF01CC0FDD1FEE0FFF1FE8
S1130FA0EE0FFF1FEE0FFF1FEC0FFD1FE155FC4F6F
S1130FB080829182A282B3822F5F3F4F211708F46F
S1130FC08BCFDF91CF911F910F91FF90EF90DF9026
S1130FD0BF90AF909F908F900895EF92FF921F93D0
S1130FE0CF93DF93F89480910101882309F457C0CB
S1130FF010E0C12FD0E0FE01EE0FFF1FCE01880FDD
S1131000991F880F991F880F991FE80FF91FE15541
S1131010FC4F80859185892BE1F1CE01880F991FC2
S1131020880F991F880F991FFE01EE0FFF1FE80F0D
S1131030F91FE155FC4F80819181A281B381892BF5
S11310408A2B8B2B31F57F010084F185E02D0995E6
S1131050F70184819581A681B781892B8A2B8B2BFB
S113106049F084819581A681B78180839183A2838D
S1131070B3830FC0CE01880F991FCC0FDD1FCC0F97
S1131080DD1FCC0FDD1FC80FD91FC155DC4F1986DA
S113109018861F5F80910101181708F4AACF78946D
S11310A0DF91CF911F91FF90EF9008958091690394
S11310B0811104C09BB180E489278BB908958130E4
S11310C071F018F08230A9F0089586E598E00E9446
S11310D0AE065E9888EC92E00E947000089586E562
S11310E098E00E94AE065E9A8CED92E00E94700039
S11310F0089521E040E452E46FE070E086E598E072
S11311000E94AD0581EF92E00E9470000895569A06
S1131110559A08950F931F93CF93DF93CDB7DEB7FE
S1131120C654D1090FB6F894DEBF0FBECDBF80E020
S11311300E94D1039F938F9386E093E09F938F93B4
S11311408E010F5F1F4F1F930F930E94060DC8015E
S11311500E9470000F900F900F900F900F900F90BF
S1131160CA5BDF4F0FB6F894DEBF0FBECDBFDF9171
S1131170CF911F910F910895CF92DF92EF92FF923A
S11311800F931F93CF93DF9380916603882339F0E5
S11311901092660310926703109268039FC08091B7
S11311A0680381112CC081E080936803109283044A
S11311B010928404109285041092860410927F0485
S11311C010928004109281041092820410927B0485
S11311D010927C0410927D0410927E041092770485
S11311E0109278041092790410927A046FEA8CE3D6
S11311F00E945F0284E193E00E9470006FC08091BE
S1131200670381116BC00F2EFBE7EF2EF4E0FF2E76
S1131210F02DF70180819181A281B3810F2EF7E730
S1131220CF2EF4E0DF2EF02DF60180839183A2838C
S1131230B3830FE714E0F80180819181A281B38127
S1131240F70180839183A283B383C3E8D4E08881C8
S11312509981AA81BB81F80180839183A283B3839E
S113126080E00E94D103A0E0B0E088839983AA8340
S1131270BB83F60180819181A281B381F701C08093
S1131280D180E280F380F8010081118122813381D1
S1131290488159816A817B818C0D9D1DAE1DBF1DC6
S11312A0800F911FA21FB31F840F951FA61FB71F86
S11312B0843B9440A105B10588F00E94080288E0AF
S11312C092E00E94AE068CEB98E00E94AE060E946B
S11312D08A0881E08093670380936603DF91CF914E
S11312E01F910F91FF90EF90DF90CF9008950F938F
S11312F01F93CF93DF93CDB7DEB7C654D1090FB692
S1131300F894DEBF0FBECDBF81E00E94D1039F934E
S11313108F938DE193E09F938F938E010F5F1F4F07
S11313201F930F930E94060DC8010E9470000F9036
S11313300F900F900F900F900F90CA5BDF4F0FB676
S1131340F894DEBF0FBECDBFDF91CF911F910F91F7
S11313500895CF92DF92EF92FF920F931F93CF9352
S1131360DF93CDB7DEB769970FB6F894DEBF0FBE33
S1131370CDBF81E00E94D1038C010E3A81E01807B1
S113138048F48EEA91E0801B910B409718F0015FBE
S11313901F4F06C00E3B91E0190710F00F501109C2
S11313A0B80180E090E00E94B90B9B01AC0160E0C1
S11313B070E087ED93E40E94ED046B017C011F93C0
S11313C00F9320E030E048EC52E40E946F0C0E943E
S11313D0880B7F936F9382E393E09F938F938E01A7
S11313E00F5F1F4F1F930F930E94060DC8010E94A9
S11313F070000FB6F894DEBF0FBECDBF20E030E022
S113140040E050E4C701B6010E946B0C181664F466
S113141080910301813099F088E393E00E94700089
S113142081E0809303010BC080910301823039F085
S11314308EE393E00E94700082E08093030169963A
S11314400FB6F894DEBF0FBECDBFDF91CF911F91D1
S11314500F91FF90EF90DF90CF900895CF92DF929D
S1131460EF92FF920F931F93CF93DF93CDB7DEB725
S1131470C456D1090FB6F894DEBF0FBECDBF80E0CD
S11314800E94D1037C011092000181E00E94D103EB
S11314906C01809102011F928F93DF92CF92FF9291
S11314A0EF9283E493E09F938F938E010F5F1F4F1E
S11314B01F930F930E94060DC8010E9470000FB67F
S11314C0F894DEBF0FBECDBF80910201813031F1AF
S11314D058F0823079F18436B9F51092020168EC43
S11314E08CE30E945F0230C09DE2E91691E0F906A8
S11314F040F082E08093020141E06AEF8CE30E94B5
S1131500490381E9C81681E0D806F0F081E08093B0
S1131510020168EC8CE30E94AF0216C09CE2C9167B
S113152091E0D90688F41092020168EC8CE30E94E1
S11315305F020AC088ECE816F10430F468EC8CE32E
S11315400E945F021092020181E080930001CC5955
S1131550DF4F0FB6F894DEBF0FBECDBFDF91CF9142
S11315601F910F91FF90EF90DF90CF900895505806
S1131570BB27AA270ED075C166D130F06BD120F0FD
S113158031F49F3F11F41EF45BC10EF4E095E7FBC8
S113159051C1E92F77D180F3BA1762077307840723
S11315A0950718F071F49EF58FC10EF4E0950B2E9B
S11315B0BA2FA02D0B01B90190010C01CA01A001A1
S11315C01124FF27591B99F0593F50F4503E68F1FC
S11315D01A16F040A22F232F342F4427585FF3CF3D
S11315E0469537952795A795F0405395C9F77EF40E
S11315F01F16BA0B620B730B840BBAF09150A1F057
S1131600FF0FBB1F661F771F881FC2F70EC0BA0FDC
S1131610621F731F841F48F4879577956795B79564
S1131620F7959E3F08F0B3CF9395880F08F099275C
S1131630EE0F979587950895D9D008F481E0089521
S11316400CD00FC107D140F0FED030F021F45F3F41
S113165019F0F0C0511139C1F3C014D198F3992392
S1131660C9F35523B1F3951B550BBB27AA27621762
S11316707307840738F09F5F5F4F220F331F441FA7
S1131680AA1FA9F333D00E2E3AF0E0E830D09150DF
S11316905040E695001CCAF729D0FE2F27D0660FCC
S11316A0771F881FBB1F261737074807AB07B0E80B
S11316B009F0BB0B802DBF01FF2793585F4F2AF021
S11316C09E3F510568F0B6C000C15F3FECF3983E01
S11316D0DCF3869577956795B795F7959F5FC9F77E
S11316E0880F911D9695879597F90895E1E0660F07
S11316F0771F881FBB1F621773078407BA0720F080
S1131700621B730B840BBA0BEE1F88F7E0950895E8
S113171004D06894B111D9C00895BCD088F09F5703
S113172090F0B92F9927B751A0F0D1F0660F771F29
S1131730881F991F1AF0BA95C9F712C0B13081F009
S1131740C3D0B1E00895C0C0672F782F8827B85F51
S113175039F0B93FCCF3869577956795B395D9F76A
S11317603EF490958095709561957F4F8F4F9F4F74
S11317700895E89409C097FB3EF490958095709580
S113178061957F4F8F4F9F4F9923A9F0F92F96E9C9
S1131790BB279395F695879577956795B795F1113E
S11317A0F8CFFAF4BB0F11F460FF1BC06F5F7F4FDB
S11317B08F4F9F4F16C0882311F096E911C07723ED
S11317C021F09EE8872F762F05C0662371F096E8F6
S11317D0862F70E060E02AF09A95660F771F881FC5
S11317E0DAF7880F9695879597F90895990F000869
S11317F0550FAA0BE0E8FEEF16161706E807F907DF
S1131800C0F012161306E407F50798F0621B730B79
S1131810840B950B39F40A2661F0232B242B252BFA
S113182021F408950A2609F4A140A6958FEF811D9D
S1131830811D089597F99F6780E870E060E008953E
S11318409FEF80EC089500240A94161617061806D4
S11318500906089500240A941216130614060506B0
S11318600895092E0394000C11F4882352F0BB0F41
S113187040F4BF2B11F460FF04C06F5F7F4F8F4FA4
S11318809F4F089557FD9058440F551F59F05F3FDF
S113189071F04795880F97FB991F61F09F3F79F08E
S11318A087950895121613061406551FF2CF469510
S11318B0F1DF08C0161617061806991FF1CF869592
S11318C07105610508940895E894BB276627772776
S11318D0CB0197F908958ADF08F48FEF08950BD0B0
S11318E0C0CFB1DF28F0B6DF18F0952309F0A2CFFE
S11318F0A7CF1124EACFC6DFA0F3959FD1F3950FAC
S113190050E0551F629FF001729FBB27F00DB11D7F
S1131910639FAA27F00DB11DAA1F649F6627B00D0F
S1131920A11D661F829F2227B00DA11D621F739FF8
S1131930B00DA11D621F839FA00D611D221F749F06
S11319403327A00D611D231F849F600D211D822F4D
S1131950762F6A2F11249F5750408AF0E1F0882394
S11319604AF0EE0FFF1FBB1F661F771F881F9150A1
S11319705040A9F79E3F510570F05CCFA6CF5F3F62
S1131980ECF3983EDCF3869577956795B795F795D4
S1131990E7959F5FC1F7FE2B880F911D969587955C
S11319A097F90895EE0FFF1F0590F491E02D099427
S11319B0A29FB001B39FC001A39F700D811D11248C
S11319C0911DB29F700D811D1124911D08950E94D7
S11319D0D80CA59F900DB49F900DA49F800D911DD0
S11319E011240895A0E0B0E0E8EFFCE00C94B00FFF
S11319F0FE01359661917191AF01809189049091B6
S1131A008A040E94280DE2E00C94CC0FAEE0B0E012
S1131A10ECE0FDE00C94AE0F0D891E8986E08C830A
S1131A201A8309838FEF9FE79E838D83AE01475E00
S1131A305F4F6F89788DCE0101960E94280DEF814A
S1131A40F885E00FF11F10822E96E4E00C94CA0F83
S1131A50ACE0B0E0EEE2FDE00C94A00F7C016B0181
S1131A608A01FC0117821682838181FFBDC1CE01E8
S1131A7001964C01F7019381F60193FD859193FF43
S1131A8081916F01882309F4ABC1853239F493FD48
S1131A90859193FF81916F01853229F4B70190E01C
S1131AA00E94100FE7CF512C312C20E02032A0F4FB
S1131AB08B3269F030F4803259F0833269F420615A
S1131AC02CC08D3239F0803339F4216026C0226075
S1131AD0246023C0286021C027FD27C030ED380FC3
S1131AE03A3078F426FF06C0FAE05F9E300D1124E8
S1131AF0532E13C08AE0389E300D1124332E2062F9
S1131B000CC08E3221F426FD6BC1206406C08C36D5
S1131B1011F4206802C0883641F4F60193FD8591E2
S1131B2093FF81916F018111C1CF982F9F7D9554AF
S1131B30933028F40C5F1F4FFFE3F9830DC0833605
S1131B4031F0833771F0833509F05BC022C0F801AE
S1131B50808189830E5F1F4F44244394512C540188
S1131B6015C03801F2E06F0E711CF801A080B1803D
S1131B7026FF03C0652D70E002C06FEF7FEFC50143
S1131B802C870E94050F2C0183012C852F77222E90
S1131B9017C03801F2E06F0E711CF801A080B1800B
S1131BA026FF03C0652D70E002C06FEF7FEFC50113
S1131BB02C870E94FA0E2C012C852068222E83018A
S1131BC023FC1BC0832D90E048165906B0F4B701DE
S1131BD080E290E00E94100F3A94F4CFF50127FCC4
S1131BE0859127FE81915F01B70190E00E94100F5B
S1131BF031103A94F1E04F1A51084114510471F72D
S1131C00E5C0843611F0893639F5F80127FF07C09D
S1131C1060817181828193810C5F1F4F08C0608154
S1131C207181882777FD8095982F0E5F1F4F2F763F
S1131C30B22E97FF09C090958095709561957F4F5E
S1131C408F4F9F4F2068B22E2AE030E0A4010E94FB
S1131C50420FA82EA81844C0853729F42F7EB22E2F
S1131C602AE030E025C0F22FF97FBF2E8F36C1F075
S1131C7018F4883579F0B4C0803719F0883721F02A
S1131C80AFC02F2F2061B22EB4FE0DC08B2D846007
S1131C90B82E09C024FF0AC09F2F9660B92E06C033
S1131CA028E030E005C020E130E002C020E132E06D
S1131CB0F801B7FE07C060817181828193810C5F56
S1131CC01F4F06C06081718180E090E00E5F1F4F5E
S1131CD0A4010E94420FA82EA818FB2DFF77BF2E47
S1131CE0B6FE0BC02B2D2E7FA51450F4B4FE0AC0F3
S1131CF0B2FC08C02B2D2E7E05C07A2C2B2D03C0E0
S1131D007A2C01C0752C24FF0DC0FE01EA0DF11DD3
S1131D108081803311F4297E09C022FF06C07394A8
S1131D20739404C0822F867809F0739423FD13C042
S1131D3020FF06C05A2C731418F4530C5718732C34
S1131D40731468F4B70180E290E02C870E94100FAE
S1131D5073942C85F5CF731410F4371801C0312C0B
S1131D6024FF12C0B70180E390E02C870E94100F7B
S1131D702C8522FF17C021FF03C088E590E002C034
S1131D8088E790E0B7010CC0822F867859F021FDD6
S1131D9002C080E201C08BE227FD8DE2B70190E032
S1131DA00E94100FA51438F4B70180E390E00E945C
S1131DB0100F5A94F7CFAA94F401EA0DF11D808113
S1131DC0B70190E00E94100FA110F5CF332009F461
S1131DD051CEB70180E290E00E94100F3A94F6CF02
S1131DE0F7018681978102C08FEF9FEF2C96E2E185
S1131DF00C94BC0FFC010590615070400110D8F7A1
S1131E00809590958E0F9F1F0895FC01615070403E
S1131E1001900110D8F7809590958E0F9F1F08951B
S1131E200F931F93CF93DF93182F092FEB018B810F
S1131E3081FD03C08FEF9FEF20C082FF10C04E8151
S1131E405F812C813D81421753077CF4E881F9813D
S1131E509F012F5F3F4F39832883108306C0E88595
S1131E60F985812F0995892B29F72E813F812F5FD1
S1131E703F4F3F832E83812F902FDF91CF911F916E
S1131E800F910895FA01AA27283051F1203181F1E8
S1131E90E8946F936E7F6E5F7F4F8F4F9F4FAF4F6E
S1131EA0B1E03ED0B4E03CD0670F781F891F9A1F81
S1131EB0A11D680F791F8A1F911DA11D6A0F711D35
S1131EC0811D911DA11D20D009F468943F912AE041
S1131ED0269F11243019305D3193DEF6CF01089529
S1131EE0462F4770405D4193B3E00FD0C9F7F6CF5A
S1131EF0462F4F70405D4A3318F0495D31FD405222
S1131F00419302D0A9F7EACFB4E0A69597958795B7
S1131F1077956795BA95C9F7009761057105089596
S1131F209B01AC010A2E0694579547953795279542
S1131F30BA95C9F7620F731F841F951FA01D0895DA
S1131F402F923F924F925F926F927F928F929F92C5
S1131F50AF92BF92CF92DF92EF92FF920F931F93B3
S1131F60CF93DF93CDB7DEB7CA1BDB0B0FB6F89464
S1131F70DEBF0FBECDBF09942A88398848885F84A4
S1131F806E847D848C849B84AA84B984C884DF8015
S1131F90EE80FD800C811B81AA81B981CE0FD11DF9
S1131FA00FB6F894DEBF0FBECDBFED010895F894CF
S1051FB0FFCF5D
S1131FB2011464FF646F54696D65722073746172F5
S1131FC2746564005472696D6974652064696E2075
S1131FD26E6F7520756C74696D756C206D657361B7
S1131FE26A212121004D2D616D206F707269742167
S1131FF2005374617274204672656520502050202B
S1132002502100537461727420636F6D706C657437
S11320126520656E636C6F73656420636F6E746FA5
S1132022757221004D612064756320696E61696E69
S1132032746521004D612064756320696E61706F5F
S11320426921004D612064756320696E61696E7453
S113205265207374616E676121004D61206475634C
S113206220696E61696E7465206472656170746161
S113207221004D612064756320696E61706F69206F
S11320827374616E676121004D6120647563206918
S11320926E61706F69206472656170746121006D94
S11320A26120726F74657363207370726520647249
S11320B26561707461006D6120726F746573632071
S11320C273707265207374616E67610020203E3EF6
S11320D23E6D61696E2073746172743C3C3C2020D5
S11320E20046756E637469612061737461206520B2
S11320F264656A6120696E20636F61646121206393
S1132102752064656C61793A20256C7500436F61B2
S1132112646120652066756C6C2100456E74727969
S1132122206164617567617420696E20636F616404
S11321326121206C6120696E6465782025642073B6
S1132142692063752064656C61793A20256C750099
S1132152456E7472792073746572732064696E209B
S1132162636F6164612E20646520706520706F7AEC
S113217269746961202564006C6564756C20612052
S1132182666F7374207374696E732E006C65647564
S11321926C206120666F737420617072696E732E95
S11321A2006C6564756C2076612027626C696E63CD
S11321B2617269272E0073656E736F722023303A41
S11321C22025640073746172746564210073656E02
S11321D2736F722023313A20256400743A20256CEF
S11321E275002564202564007269676874006C6553
S11321F266740073663D2564202073643D25642063
S10D22022073746172653D256400C9
S9030000FC
