:100000000C94C3000C94E0000C94E0000C94E0000D
:100010000C94E0000C945C030C94E0000C94E00061
:100020000C94E0000C94E0000C94E0000C94E000D0
:100030000C94E0000C94E0000C94E0000C94260D6D
:100040000C94E0000C94E0000C94E0000C94E000B0
:100050000C9486020C94E0000C94E0000C94E000F8
:100060000C94E0000C94E0000C94E0000C94E00090
:100070000C94E0000C94E0000C94E00053014B0160
:1000800095015E0136013901B0019201B001B00164
:10009000B001B001B001B0015B013C014301480176
:1000A000720177016C01AE01A501170A1F0A920ABD
:1000B0008A0A7F0A270A670A780AA10A891396130F
:1000C000A71311146514761486149C14AA14FE1434
:1000D0004B15A1153B1648164816481648164816E3
:1000E0004816481648164816481648164816481620
:1000F0004816481648164816481648164816F0126C
:100100003D1348164816481648164816481648160D
:1001100048164816481648164816481648164816EF
:1001200048164816481648164816481648164816DF
:1001300048164816481648164816481648164816CF
:1001400048164816481648164816481648164816BF
:1001500048164816481648164816481648164816AF
:10016000481648164816481648164816481648169F
:10017000481648164816481648164816481648168F
:1001800048164816B81311241FBECFEFD0E1DEBFCA
:10019000CDBF13E0A0E0B1E0E0E3F3E302C00590DF
:1001A0000D92A63FB107D9F725E0A6EFB3E001C055
:1001B0001D92AA3BB207E1F70E94BE0A0C94961961
:1001C0000C9400000F93CF93DF93809100049FEF76
:1001D000980F963008F03FC0C0910104D0910204FE
:1001E0009091FF03933011F40E94010B9091000451
:1001F0009330B1F028F4913049F0923061F023C08F
:10020000953099F0B8F09630D1F01DC06D2F8C2F3D
:100210000E94030518C06D2F8C2F0E94330513C058
:100220006D2F8C2F0E9463050EC06D2F8C2F0E94A6
:10023000C20509C06D2F8C2F0E94910504C06D2F3F
:100240008C2F0E94F0058091FF03833009F088C055
:100250000E94010B85C090E0FC013797E731F10562
:1002600008F07EC0E25CFF4F0C9491160E94BB1117
:1002700077C00E94A20474C06091020480910104BE
:100280000E9437106DC0809101040E94C00768C0B1
:100290000E94850465C041E06091020480910104E0
:1002A0000E94DC065DC040E0609102048091010480
:1002B0000E94DC0655C00E94421052C021E040E27C
:1002C00051EA67E070E088EC99E00E94710B809140
:1002D00001048093FA0344C00E94850481E00E94D7
:1002E000BD0E3EC0809101040E94B80339C08091C8
:1002F0000B048330A8F160910104862F90E0A0E008
:10030000B0E0BA2FA92F982F882720910204BC01B2
:10031000CD01620F711D811D911D409103040E944A
:100320004E101EC00E94D8111BC080910B04843057
:10033000B8F00091040420910304409102046091FC
:10034000010482E00E9421060BC080910B048130E1
:1003500039F4809101040E94360B02C00E94160BF2
:10036000DF91CF910F910895FC0101900020E9F7F2
:100370003197E81BF90B2E2F3AEA3093C600ABED0C
:10038000B5E01197F1F700C0000035E13093C600E9
:10039000ABEDB5E01197F1F700C00000E093C600A7
:1003A000EBEDF5E03197F1F700C00000222389F072
:1003B000382FE82FF92FA6ECB0E081918C938BEDCC
:1003C00095E00197F1F700C000008E2F831B821784
:1003D000A0F385E58093C600ABEDB5E01197F1F78A
:1003E00000C000000895CF93DF9370E061157105A0
:1003F00091F0E82FF92F80E090E0A6ECB0E0219199
:100400002C93CBEDD5E02197F1F700C000000196C9
:1004100086179707A0F3DF91CF910895CF93DF93CD
:1004200000D000D0CDB7DEB781E091E09F938F93ED
:100430000E94B1168AEA898384E18A831B8285E55A
:100440008C8364E0CE0101960E94F3010F900F901F
:100450000F900F900F900F90DF91CF910895F89427
:100460009091FE039230F1F028F4992341F09130FD
:1004700061F040C0933019F1943099F13BC08A3A51
:10048000C9F581E08093FE0335C08E3130F492E0EF
:100490009093FE03809300042DC01092FE030E94EF
:1004A0000E0228C0811128C010920B041092FF0385
:1004B00084E08093FE031EC01092FE031BC0E091F7
:1004C000FF0391E09E0F9093FF03F0E0EF5FFB4F7F
:1004D000808380910B04981768F084E08093FE037A
:1004E00009C0853519F00E940E0202C00E94E20088
:1004F0001092FE037894089593E09093FE03809306
:100500000B041092FF038333B8F6F4CF1F920F92BF
:100510000FB60F9211242F933F934F935F936F93D6
:100520007F938F939F93AF93BF93EF93FF938091AC
:10053000C6000E942F02FF91EF91BF91AF919F9152
:100540008F917F916F915F914F913F912F910F907C
:100550000FBE0F901F901895CF93DF9370E0611539
:10056000710591F0E82FF92F80E090E0A6ECB0E063
:1005700021912C93CBEDD5E02197F1F700C000003D
:10058000019686179707A0F3DF91CF91089589E12F
:100590008093C400E1ECF0E08081806880838081FA
:1005A000806180838081886080831092FE0308953B
:1005B0008091F6039091F703A091F803B091F903AD
:1005C0000296A11DB11D8093F6039093F703A093AB
:1005D000F803B093F90380E008950F931F93CF932E
:1005E000DF93CDB7DEB764970FB6F894DEBF0FBECA
:1005F000CDBF80910C0490910D04A0910E04B09198
:100600000F044091120450911304609114047091EE
:100610001504840F951FA61FB71FAC01BD01440F21
:10062000551F661F771F440F551F661F771F8A01CE
:100630009B01000F111F221F331F000F111F221FCC
:10064000331F400F511F621F731F840F951FA61F7A
:10065000B71FAC01BD01769567955795479576957F
:100660006795579547958091F6039091F703A09170
:10067000F803B091F9032AEA298322E12A8328E0CA
:100680002B837C836D835E834F83B887A9879A878A
:100690008B8785E58C876CE0CE0101960E94AC02C9
:1006A00080E064960FB6F894DEBF0FBECDBFDF9139
:1006B000CF911F910F9108951F920F920FB60F9235
:1006C00011248F939F93AF93BF9383B190911104A3
:1006D00081709817B9F083B1817080931104809173
:1006E0000C0490910D04A0910E04B0910F0401969A
:1006F000A11DB11D80930C0490930D04A0930E04D2
:10070000B0930F0493B18091100490789817B9F0CA
:1007100083B1807880931004809112049091130427
:10072000A0911404B09115040196A11DB11D8093F0
:10073000120490931304A0931404B0931504BF9172
:10074000AF919F918F910F900FBE0F901F901895B2
:10075000ECE6F0E080818160808320988081806871
:1007600080832798E8E6F0E08081826080830895A6
:10077000FF920F931F93CF93DF93CDB7DEB7C4568D
:10078000D1090FB6F894DEBF0FBECDBFF82E009191
:10079000F6031091F7032091F8033091F90380914B
:1007A0000C0490910D04A0910E04B0910F0440919F
:1007B00012045091130460911404709115043F9336
:1007C0002F931F930F938A019B01080F191F2A1F54
:1007D0003B1FD901C801880F991FAA1FBB1F880F93
:1007E000991FAA1FBB1FAC01BD01440F551F661FF7
:1007F000771F440F551F661F771F840F951FA61F75
:10080000B71F080F191F2A1F3B1FB901A8017695B2
:1008100067955795479576956795579547957F9333
:100820006F935F934F9382E291E09F938F938E013A
:100830000F5F1F4F1F930F930E94C516C8010E94A0
:10084000B4018DEE92E00E94F40B0FB6F894DEBF77
:100850000FBECDBF81110AC021E048E256E46FE02F
:1008600070E08DEE92E00E94710B04C08DEE92E07C
:100870000E94B60DFF20C1F010920C0410920D04DE
:1008800010920E0410920F0410921204109213048E
:1008900010921404109215041092F6031092F703AC
:1008A0001092F8031092F903CC59DF4F0FB6F89469
:1008B000DEBF0FBECDBFDF91CF911F910F91FF9093
:1008C0000895882351F021E040E251EA67E070E0AA
:1008D0008DEE92E00E94220C08958DEE92E00E942F
:1008E000B60D0895882351F021E040E45DE063E017
:1008F00070E088ED92E00E94220C089588ED92E06D
:100900000E94B60D0E94D802089517BC1092B30041
:100910008BB1887F8BB98BB1807E8BB98BB1807F97
:100920008BB98BB1807C8BB980E00E947204159AE0
:1009300020E030E0A90160E070E0CB010E943C07BC
:1009400080E008958091FC0380FF04C08EE391E075
:100950000E94B401089517BC1092B300239A84B585
:10096000836084BD84B5806484BD84B5806884BDA3
:1009700085B5816085BD579AE0EBF0E080818360AA
:100980008083808180648083808180688083E1EBC4
:10099000F0E0808181608083259A2D9A249A2C9A98
:1009A000539A559A8BB1807F8BB98BB1807C8BB970
:1009B000529A549A8BB1887F8BB98BB1807E8BB958
:1009C00008951F93CF93DF93D82FC62F142F81E064
:1009D0000E9472041095D1110AC0CC2319F05B9AC1
:1009E0005D9802C05B985D9A1093B30008C0CC2359
:1009F00019F05A985C9A02C05A9A5C9817BDDF9118
:100A0000CF911F910895CF93DF93D82FC62F462FF4
:100A100060E080E00E94E1044C2F60E081E00E94F1
:100A2000E104AD2FB0E020E432E44FE050E00E945A
:100A3000A616AB01BC0120E085E894E00E94220CE0
:100A400020E030E0A90160E070E0CB010E943C07AB
:100A50008091FC0380FF04C081E791E00E94B40113
:100A6000DF91CF910895CF93DF93D82FC62F462FD4
:100A700061E080E00E94E1044C2F61E081E00E948F
:100A8000E104AD2FB0E020E432E44FE050E00E94FA
:100A9000A616AB01BC0120E085E894E00E94220C80
:100AA00020E030E0A90160E070E0CB010E943C074B
:100AB0008091FC0380FF04C081E891E00E94B401B2
:100AC000DF91CF910895CF93C82F462F60E080E04B
:100AD0000E94E1044AE060E081E00E94E104AC2F62
:100AE000B0E020E432E44FE050E00E94A616AB01F3
:100AF000BC0120E085E894E00E94220C20E030E078
:100B0000A90160E271EA87E090E00E943C078091D1
:100B1000FC0380FF04C080E991E00E94B401CF9102
:100B20000895CF93DF93C82FD62F4AE060E080E08E
:100B30000E94E1044D2F60E081E00E94E104AC2FAF
:100B4000B0E020E432E44FE050E00E94A616AB0192
:100B5000BC0120E085E894E00E94220C20E231EA0A
:100B600047E050E060E070E0CB010E943C078091DC
:100B7000FC0380FF04C087EA91E00E94B401DF918A
:100B8000CF910895CF93C82F462F61E080E00E9457
:100B9000E1044AE061E081E00E94E104AC2FB0E0B2
:100BA00020E432E44FE050E00E94A616AB01BC0105
:100BB00020E085E894E00E94220C20E030E0A901CA
:100BC00060E271EA87E090E00E943C078091FC03BC
:100BD00080FF04C08FEB91E00E94B401CF91089593
:100BE000CF93DF93C82FD62F4AE061E080E00E94C8
:100BF000E1044D2F61E081E00E94E104AC2FB0E000
:100C000020E432E44FE050E00E94A616AB01BC01A4
:100C100020E085E894E00E94220C20E231EA47E0DF
:100C200050E060E070E0CB010E943C078091FC0343
:100C300080FF04C085ED91E00E94B401DF91CF9167
:100C40000895DF92EF92FF920F931F93CF93DF935C
:100C5000CDB7DEB7C456D1090FB6F894DEBF0FBECC
:100C6000CDBFD82EE62EF42E122F402F622F80E01B
:100C70000E94E1044F2D6E2D81E00E94E104AD2D14
:100C8000B0E020E432E44FE050E00E94A616AB0151
:100C9000BC0120E085E894E00E94220C11110DC0F7
:100CA00081E0E81218C020E030E0A90160E271EABA
:100CB00087E090E00E943C0751C0113079F5E110C7
:100CC0002DC020E231EA47E050E060E070E0CB0167
:100CD0000E943C0743C0E11021C00F1550F420E2F0
:100CE00031EA47E050E060E070E0CB010E943C0751
:100CF00035C0F01650F420E030E0A90160E271EA5E
:100D000087E090E00E943C0729C020E030E0A90184
:100D100060E070E0CB010E943C0720C0F01650F468
:100D200020E030E0A90160E271EA87E090E00E94F3
:100D30003C0714C00F1550F420E231EA47E050E0C0
:100D400060E070E0CB010E943C0708C020E030E08A
:100D5000A90160E070E0CB010E943C078091FC0398
:100D600080FF1BC01F920F931F921F931F92FF9231
:100D70001F92EF928CEE91E09F938F938E010F5F05
:100D80001F4F1F930F930E94C516C8010E94B40104
:100D90000FB6F894DEBF0FBECDBFCC59DF4F0FB6F4
:100DA000F894DEBF0FBECDBFDF91CF911F910F91A1
:100DB000FF90EF90DF900895CF93DF93D82FC62F49
:100DC00041111CC0462F61E081E00E94E1044C2FDC
:100DD00060E080E00E94E1048091FC0380FF04C099
:100DE0008AE092E00E94B40120E030E0A90160E2D4
:100DF00071EA87E090E00E943C071BC0462F60E04C
:100E000081E00E94E1044C2F61E080E00E94E10457
:100E10008091FC0380FF04C081E292E00E94B40153
:100E200020E231EA47E050E060E070E0CB010E9450
:100E30003C07AD2FB0E020E432E44FE050E00E94E8
:100E4000A616AB01BC0120E085E894E00E94220CCC
:100E5000DF91CF91089592B180E2892782B980E035
:100E6000089592B180E1892782B980E008950C9AB3
:100E70000D9A149A159A0895CF92DF92EF92FF92ED
:100E800069017A01611571058105910531F48BE2E3
:100E900097E00E94B60D149807C021E0AB01BC0199
:100EA0008BE297E00E94220CC114D104E104F1040A
:100EB00031F481E397E00E94B60D159807C021E058
:100EC000B701A60181E397E00E94220CFF90EF900A
:100ED000DF90CF900895EF92FF920F931F93CF93DF
:100EE000DF93C0E0D0E00F2EF7E3EF2EF2E0FF2E0D
:100EF000F02D0EE214E08091610490E00C2E02C00F
:100F0000959587950A94E2F780FF22C0FE01EE0FC7
:100F1000FF1FEE0FFF1FE25EFB4F40815181628198
:100F200073817F936F935F934F93DF93CF93FF9280
:100F3000EF921F930F930E94C516C8010E94B4013F
:100F40008DB79EB70A960FB6F8949EBF0FBE8DBFA1
:100F50002196C430D10579F680E0DF91CF911F91C1
:100F60000F91FF90EF90089524E0829FC00111241B
:100F7000FC01E25EFB4F80819181A281B3810895E3
:100F8000CF93DF934091610421E030E0B90102C0CA
:100F9000660F771F8A95E2F7CB018427809361045F
:100FA0003091610420916104909161048091610409
:100FB00033FB332730F91F923F9322FB222720F97E
:100FC0001F922F93969591701F929F9381701F92FD
:100FD0008F9388E492E09F938F93CEE2D4E0DF93E7
:100FE000CF930E94C516CE010E94B40130916004D7
:100FF00020916004909160048091600433FB33275A
:1010000030F91F923F9322FB222720F91F922F9342
:10101000969591701F929F9381701F928F9383E694
:1010200092E09F938F93DF93CF930E94C516CE01DA
:101030000E94B4018BE697E00E94F40B909161044A
:101040006DB77EB7685E7F4F0FB6F8947EBF0FBE58
:101050006DBF992361F0811115C021E040E452E495
:101060006FE070E08BE697E00E94710B0FC09091EB
:10107000610491110BC0882349F08BE697E00E9430
:10108000B60D04C0809161048823B9F3DF91CF913C
:101090000895882369F08FE08093600421E040EA9E
:1010A00056E861E070E08AE899E00E94220C089519
:1010B0008AE899E00E94B60D0895AAE7B0E08C9105
:1010C00087608C93ECE7F0E080818064808380818E
:1010D0008F7780838081806280838C9180688C93FD
:1010E00010926104109260040895ECE7F0E09081A2
:1010F000907E90839081892B8083EAE7F0E0808165
:101100008064808308950E947508EAE7F0E080819A
:1011100086FDFDCF20917800229526952695237097
:101120008091790090E0880F991F880F991F822B7A
:1011300008958F929F92AF92BF92CF92DF92EF92DB
:10114000FF920F931F93CF93DF93CDB7DEB72E9708
:101150000FB6F894DEBF0FBECDBF182F9E012F5FD4
:101160003F4F79016E013FE0C30ED11C812F0E94D9
:101170008308D7018D939D937D01AC15BD05B1F713
:1011800021E030E080E001E0F12C90E0D12CE12C76
:101190002DC0482F50E0FA01EE0FFF1FAA24A394A0
:1011A000B12CAC0EBD1EEA0DFB1D608171814A01A0
:1011B000AFEF8A1A9A0AD401AA0FBB1FAA0DBB1D52
:1011C0000D90BC91A02DA617B70758F4B183A0834A
:1011D000F401EE0FFF1FEA0DFB1D718360832D2DBF
:1011E0003E2D8F5F03C0202F3F2D892F863088F240
:1011F000232BC9F32F8138858D819E81280F391FBC
:1012000089859A85280F391FABEABAEA0E9497169A
:1012100096958795412F50E0FA01EE0FFF1FEA5E89
:10122000FB4F20813181232B41F4FA01EE0FFF1F88
:10123000EA5EFB4F9183808325C0FA01EE0FFF1F0A
:10124000EA5EFB4F20813181B901660F771F660F7F
:10125000771F660F771F5B01A21AB30A9501BC01C5
:10126000660F771F860F971F280F391FADECBCEC58
:101270000E9497169695879596958795969587954A
:10128000918380831230D0F4FA01EE0FFF1FEA5EE3
:10129000FB4F2081318122953295307F3227207F8C
:1012A00032272B53314040E050E061E57CEE84E092
:1012B00090E00E946F16CA01B90119C0FA01EE0F41
:1012C000FF1FEA5EFB4F2081318122953295307FEE
:1012D0003227207F32272850324040E050E06DEF27
:1012E0007DEB8BE090E00E946F16CA01B9012E964B
:1012F0000FB6F894DEBF0FBECDBFDF91CF911F9127
:101300000F91FF90EF90DF90CF90BF90AF909F90A4
:101310008F9008958091600480FF0BC080E00E9450
:10132000990860931E0470931F0480932004909387
:1013300021048091600481FF0BC081E00E94990824
:1013400060932204709323048093240490932504D3
:101350008091600482FF0BC082E00E949908609334
:101360002604709327048093280490932904809185
:10137000600483FF0BC083E00E94990860932A04F5
:1013800070932B0480932C0490932D0480E0089597
:10139000AF92BF92CF92DF92EF92FF920F931F9383
:1013A000CF93DF93CDB7DEB7C456D1090FB6F8940B
:1013B000DEBF0FBECDBF80E00E94B407B82EA92EBD
:1013C00081E00E94B4078C0183E00E94B4076C01A5
:1013D00082E00E94B4077C018091FB031F928F93EF
:1013E0001F930F93AF92BF92FF92EF92DF92CF9233
:1013F00088E892E09F938F93CE0101965C01BF92A3
:101400008F930E94C516C5010E94B4010FB6F894CF
:10141000DEBF0FBECDBF8091FB0390E08930910508
:1014200008F099C0FC01EB5AFF4F0C94911681E033
:101430008093FB038BEA92E00E94B4018CC06DE7BD
:101440008CE30E94910583E08093FB0384C097E9BD
:10145000C916D10460F087E9E816F10440F082E093
:101460008093FB0341E06BE48CE30E94DC060436CE
:101470001105A8F48091FA0381508093FA038091BA
:10148000FA03811109C040E06BE48CE30E94DC06A2
:1014900086E08093FB0303C088E08093FB030D3D4F
:1014A000110538F084E08093FB036BE48CE30E9429
:1014B00063050B5A11090F34110508F04CC083E085
:1014C0008093FB036BE48CE30E94910544C09BE591
:1014D000C916D10408F03FC084EBE816F104D8F532
:1014E0006BE486E00E94030587E08093FB0333C032
:1014F0000E94850488EC99E00E94B60D2CC00C3245
:10150000114048F585E08093FB036BE48CE30E9477
:10151000030521C085E08093FB036BE48CE30E940C
:10152000030519C085E6E81AF10897E2E916F10407
:1015300090F46BE48CE30E94030585E08093FB0349
:101540000AC00C32114038F485E08093FB036BE451
:101550008CE30E94030580E0CC59DF4F0FB6F8946E
:10156000DEBF0FBECDBFDF91CF911F910F91FF90D6
:10157000EF90DF90CF90BF90AF9008950E94C70288
:101580000E94620B0E94AB040E9437070E945D0814
:101590000E94A803789481E00E94D80A81E00E940A
:1015A000E30A87ED92E00E94B4010E941E0EFDCF77
:1015B0002091FC039091FC038227282F2170922711
:1015C0009093FC0308953091FC032091FC03982F25
:1015D000917091959327927092279093FC030E94AB
:1015E000490808953091FC032091FC03982F9170D5
:1015F00091959327947092279093FC030E94610425
:1016000008958091FC0380FF09C080E00E94D80A01
:101610008091FC0388608093FC0308958091FC0313
:1016200083FF03C081E00E94D80A0895CF93DF931F
:1016300000D000D000D0CDB7DEB78AEA89838DE133
:101640008A8381E08B838091FC038C8385E58D8385
:1016500065E0CE0101960E94AC0226960FB6F89482
:10166000DEBF0FBECDBFDF91CF910895CF93C82FBE
:1016700081700E94D80AC1FB882780F90E94E30A82
:10168000C2FB882780F90E94F20A0E94160BCF91B4
:10169000089580E090E0FC01EE0FFF1F9C01220FF7
:1016A000331F220F331F220F331FE20FF31FEE5998
:1016B000FB4F1186108601968431910561F71092D7
:1016C000340508950E94490BEFE6F0E080818160C7
:1016D0008083109285001092840081E080938100C5
:1016E00008950F931F93CF93DF93CDB7DEB7CE56F8
:1016F000D1090FB6F894DEBF0FBECDBFF89421110B
:1017000005C0B0E0A0E0F0E0E0E004C0B42FA52FF9
:10171000F62FE72F2091340530E049835A836B83FD
:101720007C83BD83AE83FF83E8879A878987D9014D
:10173000AA0FBB1F220F331F220F331F220F331F8D
:10174000A20FB31FAE59BB4F8AE0FE013196019044
:101750000D928A95E1F7809134058F5F809334056F
:101760008091FC0380FF33C08091340590E00197A5
:10177000FC01EE0FFF1F880F991F880F991F880F1C
:10178000991FE80FF91FEE59FB4F80819181A281CB
:10179000B38120913405BF93AF939F938F93822F92
:1017A00090E001979F938F938CEE92E09F938F939D
:1017B0008E01055F1F4F1F930F930E94C516C8012E
:1017C0000E94B4010FB6F894DEBF0FBECDBF78946F
:1017D000C259DF4F0FB6F894DEBF0FBECDBFDF9109
:1017E000CF911F910F91089520913405222321F16B
:1017F00020916A0430916B0428173907F9F040E012
:1018000014C0242F30E0F901EE0FFF1F220F331F09
:10181000220F331F220F331FE20FF31FEE59FB4F2E
:10182000208531852817390759F04F5F20913405FD
:10183000421738F380E0089580E0089581E008952C
:1018400081E008950F931F93CF93DF93C22FF894F5
:1018500020913405222309F459C0E0916A04F091E3
:101860006B04E817F90709F049C018C0ED2FF0E044
:101870008F01000F111FDF01AA0FBB1FAA0FBB1F93
:10188000AA0FBB1FA00FB11FAE59BB4F18960D90EA
:10189000BC91A02DA817B90791F503C0E0E0F0E0D6
:1018A000D0E09F01220F331F220F331F220F331F5F
:1018B000DF01AA0FBB1FA20FB31FAE59BB4F4D9341
:1018C0005D936D937C931397C11104C000E010E009
:1018D000980102C08A019B01DF01AA0FBB1FEE0F16
:1018E000FF1FEE0FFF1FEE0FFF1FEA0FFB1FEE594A
:1018F000FB4F048315832683378309C0D0E0DF5F65
:1019000020913405D21708F4B1CF01C0D0E0209166
:101910003405D21303C02C2F0E94710B7894DF91F1
:10192000CF911F910F9108958F929F92AF92BF9286
:10193000FF920F931F93CF93DF93209134052223BF
:1019400009F47AC0C0E0F12C00E010E0D0E02C2FC8
:1019500030E0F901EE0FFF1FA901440F551F440F9E
:10196000551F440F551FE40FF51FEE59FB4F4085DF
:101970005185452B09F45AC0A901440F551F440F46
:10198000551F440F551FF901EE0FFF1FE40FF51F00
:10199000EE59FB4F80809180A280B38089288A28ED
:1019A0008B2809F443C0A901440F551F440F551F4C
:1019B000440F551FF901EE0FFF1FE40FF51FEE59FD
:1019C000FB4F80809180A280B380681579058A05DD
:1019D0009B05B8F4A901440F551F440F551F440F30
:1019E000551FF901EE0FFF1FE40FF51FEE59FB4FD6
:1019F00080809180A280B380861A970AA80AB90ACB
:101A000004C08F2C902EA12EBD2EF901EE0FFF1FCA
:101A1000220F331F220F331F220F331FE20FF31F3A
:101A2000EE59FB4F80829182A282B382CF5F2091D8
:101A30003405C21708F48BCFDF91CF911F910F911E
:101A4000FF90BF90AF909F908F9008951F920F923C
:101A50000FB60F9211242F933F934F935F936F9381
:101A60007F938F939F93AF93BF93EF93FF9362E125
:101A700070E280E090E00E94940CFF91EF91BF91A2
:101A8000AF919F918F917F916F915F914F913F9116
:101A90002F910F900FBE0F901F901895EF92FF920D
:101AA0001F93CF93DF93CDB7DEB7E2970FB6F894CD
:101AB000DEBF0FBECDBF182F8091FC0380FF17C083
:101AC0007F936F931F921F9381E293E09F938F9375
:101AD000CE0101967C01FF928F930E94C516C7012B
:101AE0000E94B4010FB6F894DEBF0FBECDBF809147
:101AF0003405181750F59AE0212F30E0A9014F5F07
:101B00005F4FD901AA0FBB1F220F331F220F331FB4
:101B1000220F331FA20FB31FAE59BB4FFA01EE0FB6
:101B2000FF1F440F551F440F551F440F551FE40F4F
:101B3000F51FEE59FB4F892F01900D928A95E1F721
:101B40001F5F809134051817B8F2809134058150D9
:101B500080933405E2960FB6F894DEBF0FBECDBF7A
:101B6000DF91CF911F91FF90EF900895BF92CF9298
:101B7000DF92EF92FF920F931F93CF93DF93CDB736
:101B8000DEB7C456D1090FB6F894DEBF0FBECDBF85
:101B90008C0180913405882309F43FC0B12C0F2EAD
:101BA000F1E3CF2EF3E0DF2EF02DCE0101967C0184
:101BB0002B2D30E0F901EE0FFF1FC901880F991F8F
:101BC000880F991F880F991FE80FF91FEE59FB4FD7
:101BD0004085518540175107D9F48091FC0380FF5F
:101BE00011C03F93BF92DF92CF92FF92EF920E947B
:101BF000C516C7010E94B4010F900F900F900F906F
:101C00000F900F9069E573E08B2D0E944E0DBA94F2
:101C1000B39480913405B81658F2CC59DF4F0FB603
:101C2000F894DEBF0FBECDBFDF91CF911F910F9112
:101C3000FF90EF90DF90CF90BF9008951F93CF93C8
:101C4000DF93F89480913405882309F491C010E063
:101C5000C12FD0E0FE01EE0FFF1FCE01880F991FAC
:101C6000880F991F880F991FE80FF91FEE59FB4F36
:101C700020853185232B09F475C0CE01880F991F6B
:101C8000880F991F880F991FFE01EE0FFF1FE80FA5
:101C9000F91FEE59FB4F4081518162817381452BC1
:101CA000462B472B09F05EC0CE01880F991F880F85
:101CB000991F880F991FFE01EE0FFF1FE80FF91FF4
:101CC000EE59FB4F0084F185E02D09958823B1F092
:101CD000CE01880F991FCC0FDD1FCC0FDD1FCC0F5D
:101CE000DD1FC80FD91FCE59DB4F1986188669E64C
:101CF00073E0812F0E944E0D115034C0CE01880F29
:101D0000991F880F991F880F991FFE01EE0FFF1F63
:101D1000E80FF91FEE59FB4F4481558166817781A9
:101D2000452B462B472B49F04481558166817781AD
:101D3000408351836283738315C0CE01880F991F3E
:101D4000CC0FDD1FCC0FDD1FCC0FDD1FC80FD91F3F
:101D5000CE59DB4F1986188667E773E0812F0E9402
:101D60004E0D11501F5F80913405181708F470CF85
:101D70007894DF91CF911F91089581E090E0FC016C
:101D8000EE0FFF1F9C01220F331F220F331F220F64
:101D9000331FE20FF31FEE59FB4F11861086019699
:101DA0008431910561F781E08093340508958F9225
:101DB0009F92AF92BF92CF92DF92EF92FF920F93DA
:101DC0001F93CF93DF93CDB7DEB7C456D1090FB6BB
:101DD000F894DEBF0FBECDBF83E00E94B4076C0154
:101DE000E12CF12C82E00E94B4074C01A12CB12C13
:101DF0008091FC0380FF1BC01F921F929F928F92C5
:101E00001F921F92DF92CF9284E893E09F938F936B
:101E10008E010F5F1F4F1F930F930E94C516C801BD
:101E20000E94B4010FB6F894DEBF0FBECDBF809103
:101E3000FD03813069F018F08230F9F022C081E0B2
:101E40008093FD0366E98EE10E94030580E01EC0D9
:101E500092E8C916D104E104F104A8F482E88816D6
:101E60009104A104B10488F482E08093FD0366E943
:101E700081E00E94330580E009C00E94850481E072
:101E800005C080E003C080E001C080E0CC59DF4F96
:101E90000FB6F894DEBF0FBECDBFDF91CF911F917B
:101EA0000F91FF90EF90DF90CF90BF90AF909F90F9
:101EB0008F9008950F931F93CF93DF93CDB7DEB725
:101EC000C456D1090FB6F894DEBF0FBECDBF8091C6
:101ED000A005813071F020F0823009F458C0BAC0FA
:101EE0006091AF0584E60E94030581E08093A00520
:101EF000AFC080910C0490910D04A0910E04B0919C
:101F00000F044091120450911304609114047091D5
:101F10001504840F951FA61FB71FB695A795979513
:101F20008795B695A79597958795AC01BD01440F08
:101F3000551F661F771F440F551F661F771F8A01A5
:101F40009B01000F111F221F331F000F111F221FA3
:101F5000331F400F511F621F731F840F951FA61F51
:101F6000B71F0091A2051091A3052091A4053091FF
:101F7000A505081719072A073B0708F069C062E89A
:101F800081E00E94330582E08093A00561C00E9439
:101F900085044091F6035091F7036091F803709126
:101FA000F90380910C0490910D04A0910E04B0915E
:101FB0000F04009112041091130420911404309125
:101FC00015047F936F935F934F93B901A801480F56
:101FD000591F6A1F7B1F769567955795479576958C
:101FE000679557954795DB01CA01880F991FAA1F6E
:101FF000BB1F880F991FAA1FBB1F8C019D01000FDB
:10200000111F221F331F000F111F221F331F800FAC
:10201000911FA21FB31F840F951FA61FB71FBF9349
:10202000AF939F938F9383E993E09F938F938E0158
:102030000F5F1F4F1F930F930E94C516C8010E9488
:10204000B4010FB6F894DEBF0FBECDBF81E003C070
:1020500080E001C080E0CC59DF4F0FB6F894DEBFBE
:102060000FBECDBFDF91CF911F910F9108958823AF
:1020700011F0159A01C01598662311F0149A08956D
:10208000149808951092FD0321E040EA56E861E0BB
:1020900070E087ED9EE00E94710B08958F929F92F1
:1020A000AF92BF92CF92DF92EF92FF920F931F9366
:1020B0001092A005C0900C04D0900D04E0900E0486
:1020C000F0900F0400911204109113042091140455
:1020D000309115040C0D1D1D2E1D3F1D6801790149
:1020E000F694E794D794C794F694E794D794C7945A
:1020F00097018601000F111F221F331F000F111FB0
:10210000221F331F48015901880C991CAA1CBB1CB3
:10211000880C991CAA1CBB1C080D191D2A1D3B1DEF
:102120000C0D1D1D2E1D3F1D6B017C01C00ED11E0F
:10213000E21EF31EC092A205D092A305E092A40570
:10214000F092A5054093AF0521E040E157E260E041
:1021500070E08AE59FE00E94220C1F910F91FF9092
:10216000EF90DF90CF90BF90AF909F908F900895A9
:102170004F925F926F927F92AF92BF92CF92DF9217
:10218000EF92FF920F931F93CF93DF9300D000D075
:10219000CDB7DEB72B013C0129833A834B835C83A7
:1021A000C801B701052E59E0660F771F881F991FD8
:1021B0005A95D1F7502D2AE631E040E050E00E94D8
:1021C0006F1689819A81AB81BC81821B930BA40B12
:1021D000B50B9C01AD01AAE6B1E00E94A616DC0198
:1021E000CB01072E79E0B695A795979587957A95B7
:1021F000D1F7702D481659066A067B06A0F484199B
:102200009509A609B7092D893E894F89588D281748
:1022100039074A075B07D8F0A816B906CA06DB06D5
:10222000C0F483E01BC0481A590A6A0A7B0A8D89E8
:102230009E89AF89B88D84159505A605B70558F018
:10224000A414B504C604D70440F481E007C084E0B8
:1022500005C082E003C080E001C082E00F900F90D3
:102260000F900F90DF91CF911F910F91FF90EF9002
:10227000DF90CF90BF90AF907F906F905F904F9026
:102280000895AF92BF92CF92DF92EF92FF920F9399
:102290001F93CF93DF9382E00E94B407EC0181E0AB
:1022A0000E94B4079E0140E050E0BC0180E090E055
:1022B0001F921F921F92EDE2EF930F2EF6E1AF2EC9
:1022C000B12CC12CD12CF02D1FE5E12EF12C00E01A
:1022D00010E00E94B8100F900F900F900F90C82F31
:1022E000823029F4809100018230A9F530C08091BC
:1022F0000001C81771F1C230B9F028F4CC2341F0C5
:10230000C13061F020C0C33099F0C430B9F01BC0B7
:1023100040E06BE48AE00E94DC0615C040E06CE31C
:102320008AE00E94DC060FC00E94850481E018C08C
:1023300041E06CE38AE00E94DC0605C041E06BE40A
:102340008AE00E94DC06C093000180E009C081E0C1
:1023500007C080E005C080910001823029F780E04D
:10236000DF91CF911F910F91FF90EF90DF90CF9071
:10237000BF90AF90089581E491E10E94F40B88230F
:1023800049F081E491E10E94B60D85EA93E00E9454
:10239000B401089521E040E950ED63E070E081E48C
:1023A00091E10E94220C8FEB93E00E94B40108950A
:1023B00081E280933A051092AA051092A10510922D
:1023C000AB051092AC051092AD051092AE0521E060
:1023D00040E950ED63E070E08FEC92E10E94220C46
:1023E0000895CF92DF92EF92FF9281E00E94B407AE
:1023F0006C01E12CF12C8091A1051F928F9387ED48
:1024000093E09F938F938CE395E09F938F930E942B
:10241000C5168CE395E00E94B4010F900F900F90C9
:102420000F900F900F908091A105823009F44CC05D
:1024300028F4882351F08130D1F0A5C0833009F40D
:1024400060C0843009F494C09EC081E08093A105EF
:10245000C092AB05D092AC05E092AD05F092AE050E
:1024600040E06AE58FE00E94DC0680E093C0809146
:10247000AB059091AC05A091AD05B091AE05AC0156
:10248000BD014B5F5F4F6F4F7F4F4C155D056E0574
:102490007F0550F4C092AB05D092AC05E092AD053B
:1024A000F092AE0580E076C00597A109B109C81683
:1024B000D906EA06FB0608F068C082E08093A10511
:1024C00010923B0580E066C080913B058F5F809352
:1024D0003B05C092AB05D092AC05E092AD05F09201
:1024E000AE05843008F453C083E08093A105C09208
:1024F0003505D0923605E0923705F092380580E038
:1025000049C08091AB059091AC05A091AD05B0910B
:10251000AE058C159D05AE05BF0548F484E080939B
:10252000A10510923B0541E061E40E94DC06C092E7
:10253000AB05D092AC05E092AD05F092AE0580916E
:10254000350590913605A0913705B09138058C1569
:102550009D05AE05BF0510F46C017D01C0923505E7
:10256000D0923605E0923705F092380580E012C02F
:1025700080913B058F5F80933B05853050F00E9432
:10258000850481E007C080E005C080E003C080E0F2
:1025900001C080E0FF90EF90DF90CF9008958F9280
:1025A0009F92AF92BF92CF92DF92EF92FF920F93E2
:1025B00082E00E94B4074C01A12CB12C81E00E9462
:1025C000B4076C01E12CF12C40913A0550E04536FE
:1025D000510508F05DC3FA01E25AFF4F0C949116C1
:1025E00060EA8EE10E94030580910C0490910D0435
:1025F000A0910E04B0910F04409112045091130465
:102600006091140470911504840F951FA61FB71FC5
:10261000B695A79597958795B695A795979587951C
:10262000AC01BD01440F551F661F771F440F551F96
:10263000661F771F6A017B01CC0CDD1CEE1CFF1CA2
:10264000CC0CDD1CEE1CFF1C4C0D5D1D6E1D7F1D9A
:10265000840F951FA61FB71F88539F4FAF4FBF4FC3
:102660008093B0059093B105A093B205B093B305E4
:1026700082E280933A0580E028C380910C04909117
:102680000D04A0910E04B0910F04409112045091DA
:1026900013046091140470911504840F951FA61FF4
:1026A000B71FB695A79597958795B695A7959795D2
:1026B0008795AC01BD01440F551F661F771F440F5E
:1026C000551F661F771F6A017B01CC0CDD1CEE1CB9
:1026D000FF1CCC0CDD1CEE1CFF1C4C0D5D1D6E1D8B
:1026E0007F1D840F951FA61FB71FC090B005D09007
:1026F000B105E090B205F090B305C816D906EA0618
:10270000FB0608F0C7C210923A050E94850480E0DB
:10271000DCC20E944111813009F0BEC280933A05AB
:102720006CE38EE10E94030580E0CFC229E2C21A69
:10273000D108E108F10839E5C316D104E104F10438
:1027400008F0ACC282E080933A0580E0BEC24DE260
:10275000C41641E0D406E104F10408F4A1C284E601
:1027600080933A056EE18AE00E94330580E0ADC2B5
:1027700059E2C51AD108E108F10889E5C816D10463
:10278000E104F10408F08EC262E384E10E940305D3
:1027900080910C0490910D04A0910E04B0910F044F
:1027A0004091120450911304609114047091150427
:1027B000840F951FA61FB71FB695A7959795879568
:1027C000B695A79597958795AC01BD01440F551F08
:1027D000661F771F440F551F661F771F6A017B0115
:1027E000CC0CDD1CEE1CFF1CCC0CDD1CEE1CFF1CFD
:1027F0004C0D5D1D6E1D7F1D840F951FA61FB71FFD
:1028000082599F4FAF4FBF4F8093B0059093B10552
:10281000A093B205B093B30583E080933A0580E0BE
:1028200054C280910C0490910D04A0910E04B091BB
:102830000F0440911204509113046091140470919C
:102840001504840F951FA61FB71FB695A7959795DA
:102850008795B695A79597958795AC01BD01440FCF
:10286000551F661F771F440F551F661F771F6A018C
:102870007B01CC0CDD1CEE1CFF1CCC0CDD1CEE1C0B
:10288000FF1C4C0D5D1D6E1D7F1D840F951FA61F27
:10289000B71FC090B005D090B105E090B205F090A0
:1028A000B305C816D906EA06FB0608F0FDC10E946A
:1028B000850484E080933A0502E321E04AEA60E07F
:1028C00085E00E94210680E000C228ECC216D104F7
:1028D000E104F10408F0EAC185E080933A0541E0A3
:1028E00060E58AE00E94DC0680E0EFC13DEDC316A2
:1028F000D104E104F10408F4DBC162E38FE00E943B
:10290000030586E080933A0580E0DFC14AEA841639
:102910009104A104B10408F0CDC187E080933A0589
:102920001092A1051092AB051092AC051092AD0566
:102930001092AE0580E0C9C10E94F111882309F40C
:10294000BBC188E080933A0568E28FE00E940305EE
:1029500080E0BBC154E685169104A104B10408F0DF
:10296000ADC180910C0490910D04A0910E04B09122
:102970000F0440911204509113046091140470915B
:102980001504840F951FA61FB71FB695A795979599
:102990008795B695A79597958795AC01BD01440F8E
:1029A000551F661F771F440F551F661F771F6A014B
:1029B0007B01CC0CDD1CEE1CFF1CCC0CDD1CEE1CCA
:1029C000FF1C4C0D5D1D6E1D7F1D840F951FA61FE6
:1029D000B71F8C599F4FAF4FBF4F8093B005909357
:1029E000B105A093B205B093B30589E080933A0591
:1029F00062E38AE00E94330580E067C180910C04A5
:102A000090910D04A0910E04B0910F044091120416
:102A1000509113046091140470911504840F951F54
:102A2000A61FB71FB695A79597958795B695A795B5
:102A300097958795AC01BD01440F551F661F771F01
:102A4000440F551F661F771F6A017B01CC0CDD1CEC
:102A5000EE1CFF1CCC0CDD1CEE1CFF1C4C0D5D1D88
:102A60006E1D7F1D840F951FA61FB71FC090B00558
:102A7000D090B105E090B205F090B305C816D90624
:102A8000EA06FB0608F01CC10E9485048AE08093D8
:102A90003A0580E01AC10E94850480910C0490914F
:102AA0000D04A0910E04B0910F04409112045091B6
:102AB00013046091140470911504840F951FA61FD0
:102AC000B71FB695A79597958795B695A7959795AE
:102AD0008795AC01BD01440F551F661F771F440F3A
:102AE000551F661F771F4A015B01880C991CAA1CA1
:102AF000BB1C880C991CAA1CBB1C480D591D6A1DC7
:102B00007B1D840F951FA61FB71F4E96A11DB11DDB
:102B10008093B0059093B105A093B205B093B3052F
:102B20008BE080933A0562E38AE00E940305C0923D
:102B3000A605D092A705E092A805F092A90580E02D
:102B4000C4C080910C0490910D04A0910E04B0912A
:102B50000F04409112045091130460911404709179
:102B60001504840F951FA61FB71FB695A7959795B7
:102B70008795B695A79597958795AC01BD01440FAC
:102B8000551F661F771F440F551F661F771F4A0189
:102B90005B01880C991CAA1CBB1C880C991CAA1CE4
:102BA000BB1C480D591D6A1D7B1D840F951FA61F58
:102BB000B71F8090B0059090B105A090B205B0907D
:102BC000B30588169906AA06BB0608F07BC080915B
:102BD000A6059091A705A091A805B091A905460169
:102BE000570125E0820E911CA11CB11C8816990684
:102BF000AA06BB06A0F4BC01CD016C197D098E09A3
:102C00009F092AE030E040E050E00E946F16609398
:102C1000390540E06BE482E00E94DC0627C04C01ED
:102C20005D0135E0830E911CA11CB11C8C149D0428
:102C3000AE04BF04B0F4A7019601281B390B4A0B60
:102C40005B0BCA01B9012AE030E040E050E00E948D
:102C50006F166093390541E06BE482E00E94DC0668
:102C600005C081E0809339050E9485048CE0809343
:102C70003A0580E02AC0809139058150809339055A
:102C8000811122C081EE93E00E94B40181E01DC059
:102C900080E01BC080E019C080E017C080E015C054
:102CA00080E013C080E011C080E00FC080E00DC064
:102CB00080E00BC080E009C080E007C080E005C074
:102CC00080E003C080E001C080E00F91FF90EF90B2
:102CD000DF90CF90BF90AF909F908F900895A1E22A
:102CE0001A2EAA1BBB1BFD010DC0AA1FBB1FEE1F86
:102CF000FF1FA217B307E407F50720F0A21BB30BD1
:102D0000E40BF50B661F771F881F991F1A9469F74C
:102D100060957095809590959B01AC01BD01CF01A8
:102D20000895EE0FFF1F0590F491E02D0994A29FE6
:102D3000B001B39FC001A39F700D811D1124911D8F
:102D4000B29F700D811D1124911D08950E94971648
:102D5000A59F900DB49F900DA49F800D911D1124EF
:102D60000895A0E0B0E0E7EBF6E10C946F19FE01E6
:102D7000359661917191AF018091B6059091B7053B
:102D80000E94E716E2E00C948B19AEE0B0E0EBECA9
:102D9000F6E10C946D190D891E8986E08C831A83E7
:102DA00009838FEF9FE79E838D83AE01475E5F4F60
:102DB0006F89788DCE0101960E94E716EF81F88524
:102DC000E00FF11F10822E96E4E00C948919ACE01C
:102DD000B0E0EDEEF6E10C945F197C016B018A0125
:102DE000FC0117821682838181FFBDC1CE0101964D
:102DF0004C01F7019381F60193FD859193FF819139
:102E00006F01882309F4ABC1853239F493FD8591B4
:102E100093FF81916F01853229F4B70190E00E9400
:102E2000CF18E7CF512C312C20E02032A0F48B3288
:102E300069F030F4803259F0833269F420612CC09B
:102E40008D3239F0803339F4216026C0226024604D
:102E500023C0286021C027FD27C030ED380F3A304D
:102E600078F426FF06C0FAE05F9E300D1124532E41
:102E700013C08AE0389E300D1124332E20620CC01E
:102E80008E3221F426FD6BC1206406C08C3611F40D
:102E9000206802C0883641F4F60193FD859193FFC6
:102EA00081916F018111C1CF982F9F7D95549330EF
:102EB00028F40C5F1F4FFFE3F9830DC0833631F018
:102EC000833771F0833509F05BC022C0F80180813F
:102ED00089830E5F1F4F44244394512C540115C025
:102EE0003801F2E06F0E711CF801A080B18026FF5E
:102EF00003C0652D70E002C06FEF7FEFC5012C8726
:102F00000E94C4182C0183012C852F77222E17C014
:102F10003801F2E06F0E711CF801A080B18026FF2D
:102F200003C0652D70E002C06FEF7FEFC5012C87F5
:102F30000E94B9182C012C852068222E830123FCC5
:102F40001BC0832D90E048165906B0F4B70180E20B
:102F500090E00E94CF183A94F4CFF50127FC8591B8
:102F600027FE81915F01B70190E00E94CF183110D8
:102F70003A94F1E04F1A51084114510471F7E5C039
:102F8000843611F0893639F5F80127FF07C06081D2
:102F90007181828193810C5F1F4F08C060817181B4
:102FA000882777FD8095982F0E5F1F4F2F76B22EC2
:102FB00097FF09C090958095709561957F4F8F4FD1
:102FC0009F4F2068B22E2AE030E0A4010E94011930
:102FD000A82EA81844C0853729F42F7EB22E2AE0E7
:102FE00030E025C0F22FF97FBF2E8F36C1F018F4E4
:102FF000883579F0B4C0803719F0883721F0AFC038
:103000002F2F2061B22EB4FE0DC08B2D8460B82E00
:1030100009C024FF0AC09F2F9660B92E06C028E081
:1030200030E005C020E130E002C020E132E0F801EC
:10303000B7FE07C060817181828193810C5F1F4F51
:1030400006C06081718180E090E00E5F1F4FA40197
:103050000E940119A82EA818FB2DFF77BF2EB6FEDF
:103060000BC02B2D2E7FA51450F4B4FE0AC0B2FC69
:1030700008C02B2D2E7E05C07A2C2B2D03C07A2C58
:1030800001C0752C24FF0DC0FE01EA0DF11D8081E9
:10309000803311F4297E09C022FF06C07394739413
:1030A00004C0822F867809F0739423FD13C020FF9B
:1030B00006C05A2C731418F4530C5718732C73143D
:1030C00068F4B70180E290E02C870E94CF187394D7
:1030D0002C85F5CF731410F4371801C0312C24FF60
:1030E00012C0B70180E390E02C870E94CF182C8596
:1030F00022FF17C021FF03C088E590E002C088E7E7
:1031000090E0B7010CC0822F867859F021FD02C0F3
:1031100080E201C08BE227FD8DE2B70190E00E94C2
:10312000CF18A51438F4B70180E390E00E94CF18BF
:103130005A94F7CFAA94F401EA0DF11D8081B701EA
:1031400090E00E94CF18A110F5CF332009F451CEA2
:10315000B70180E290E00E94CF183A94F6CFF701D1
:103160008681978102C08FEF9FEF2C96E2E10C944D
:103170007B19FC010590615070400110D8F78095D3
:1031800090958E0F9F1F0895FC0161507040019033
:103190000110D8F7809590958E0F9F1F08950F937B
:1031A0001F93CF93DF93182F092FEB018B8181FDA4
:1031B00003C08FEF9FEF20C082FF10C04E815F8160
:1031C0002C813D81421753077CF4E881F9819F01EE
:1031D0002F5F3F4F39832883108306C0E885F98528
:1031E000812F0995892B29F72E813F812F5F3F4F32
:1031F0003F832E83812F902FDF91CF911F910F91CD
:103200000895FA01AA27283051F1203181F1E8947C
:103210006F936E7F6E5F7F4F8F4F9F4FAF4FB1E0C9
:103220003ED0B4E03CD0670F781F891F9A1FA11DC4
:10323000680F791F8A1F911DA11D6A0F711D811DC5
:10324000911DA11D20D009F468943F912AE0269F8A
:1032500011243019305D3193DEF6CF010895462FE9
:103260004770405D4193B3E00FD0C9F7F6CF462FCA
:103270004F70405D4A3318F0495D31FD4052419333
:1032800002D0A9F7EACFB4E0A695979587957795F0
:103290006795BA95C9F700976105710508959B0177
:1032A000AC010A2E06945795479537952795BA9500
:1032B000C9F7620F731F841F951FA01D08952F92D9
:1032C0003F924F925F926F927F928F929F92AF92B6
:1032D000BF92CF92DF92EF92FF920F931F93CF9303
:1032E000DF93CDB7DEB7CA1BDB0B0FB6F894DEBF9A
:1032F0000FBECDBF09942A88398848885F846E84C0
:103300007D848C849B84AA84B984C884DF80EE8009
:10331000FD800C811B81AA81B981CE0FD11D0FB612
:10332000F894DEBF0FBECDBFED010895F894FFCF36
:10333000025472696D6974652064696E206E6F75E0
:1033400020756C74696D756C206D6573616A2121DF
:1033500021000A202020646973743A20256C7520AE
:103360000A20202074696D703A20256C7500537412
:1033700061727420467265652050205020502100F3
:10338000537461727420636F6D706C657465206531
:103390006E636C6F73656420636F6E746F757221FA
:1033A000004D612064756320696E61696E746521EA
:1033B000004D612064756320696E61706F69210042
:1033C0004D612064756320696E61696E7465207358
:1033D00074616E676121004D612064756320696EC0
:1033E00061696E7465206472656170746121004D5D
:1033F000612064756320696E61706F692073746108
:103400006E676121004D612064756320696E617093
:103410006F6920647265617074612100726F7469F4
:10342000726520736D656368657261203A20257549
:10343000202575202575202575006D6120726F741B
:103440006573632073707265206472656170746166
:10345000006D6120726F74657363207370726520F4
:103460007374616E67610073656E736F72202325DC
:1034700064203D20256C750073656E736F72735404
:103480006F53656E64202564202564202564202503
:1034900064200073656E736F7273546F526561645C
:1034A000202564202564202564202564203C3C2DB3
:1034B0002D00446F6E65210053463D256420204455
:1034C000463D25642020533D25642020443D25644D
:1034D000202073746172653D256400536120696E1C
:1034E000636570656D203A440053463D2564202095
:1034F00044463D2564202020443D256420207374EB
:103500006172653D25640020203E3E3E6D61696E1E
:103510002073746172743C3C3C202000456E7472D0
:1035200079206164617567617420696E20636F61E1
:10353000646121206C6120696E64657820256420B7
:1035400073692063752064656C61793A20256C7518
:1035500000736869667420693D25642028257329F5
:1035600000456E7472792073746572732064696E9D
:1035700020636F6164612E20646520706520706F28
:103580007A697469612025750072656D6F766520B2
:1035900066756E6374696F6E0072657475726E65C0
:1035A000642074727565006E6F7420706572696F47
:1035B00064696300666C3A256C75202066723A2552
:1035C0006C750064703A20256C75202074696D65F7
:1035D0003A256C750072656D6F7665642070617256
:1035E000616C656C20636865636B20666374006161
:1035F0006464656420706172616C656C20636865E9
:10360000636B2066637400636D2073743A257520C4
:103610000078416D20706172636174207061726125
:063620006C656C21000046
:00000001FF
