:100000000C9451000C946E000C946E000C946E00D5
:100010000C946E000C946E000C946E000C946E00A8
:100020000C946E000C946E000C946E000C946E0098
:100030000C946E000C946E000C946E000C944B04A7
:100040000C946E000C946E000C946E000C946E0078
:100050000C9486040C946E000C946E000C946E004C
:100060000C946E000C946E000C946E000C946E0058
:100070000C946E000C946E000C946E004F01EA001C
:10008000ED005C015C015C015C015C015C015C01F8
:100090005C015C015C014501F000F50036013F01A7
:1000A000390111241FBECFEFD0E1DEBFCDBF13E079
:1000B000A0E0B1E0E0E2FEE102C005900D92A234C2
:1000C000B107D9F724E0A2E4B3E001C01D92A5373F
:1000D000B207E1F70E94AC040C940E0F0C940000E0
:1000E000FC0101900020E9F73197E81BF90B2E2F56
:1000F0003AEA3093C600AFE1BEE41197F1F700C0D1
:10010000000034E13093C600AFE1BEE41197F1F78F
:1001100000C00000E093C600EFE1FEE43197F1F784
:1001200000C00000222389F0382FE82FF92FA6EC19
:10013000B0E081918C938FE19EE40197F1F700C0CC
:1001400000008E2F831B8217A0F385E58093C600E5
:10015000AFE1BEE41197F1F700C00000089580916F
:1001600053039FEF980F963050F590915403609190
:1001700055038330A1F028F4813049F0823059F0E2
:100180000895853081F098F08630A9F00895892F80
:100190000E945B020895892F0E947F020895892F93
:1001A0000E94A3020895892F0E94E8020895892FD2
:1001B0000E94C4020895892F0E940903089590E0C7
:1001C000FC013797E331F10508F076C0E25CFF4FA0
:1001D0000C94090C0E94160208950E9411020895C1
:1001E000809154030E941F08089580915503813027
:1001F00089F580915403811115C08AE498E00E942A
:10020000E906882329F08AE498E00E946E060895A2
:1002100021E040E452E46FE070E08AE498E00E945C
:1002200081050895813009F047C087E399E00E9475
:10023000E906882329F087E399E00E946E06089575
:1002400021E040E452E46FE070E087E399E00E942F
:100250008105089580915403811103C00E944A08CA
:100260000895813049F50E94370908950E940402DB
:10027000089560E0809154030E942D03089561E089
:10028000809154030E942D03089521E040E157E23C
:1002900060E070E08CE798E00E948105089521E01D
:1002A00040E452E46FE070E089E699E00E94810545
:1002B00083E091E00E9470000895CF93DF9370E097
:1002C0006115710591F0E82FF92F80E090E0A6EC20
:1002D000B0E021912C93CFE1DEE42197F1F700C04B
:1002E0000000019686179707A0F3DF91CF9108953C
:1002F000CF93DF9300D000D0CDB7DEB783E191E09C
:100300009F938F930E94290C8AEA898383E18A83D1
:100310001B8285E58C8364E0CE0101960E945D011D
:100320000F900F900F900F900F900F90DF91CF9143
:100330000895F89490910201923021F128F49923C4
:1003400049F0913091F04DC0933081F1943009F42F
:100350003FC047C08A3A09F044C081E0809302015F
:1003600010920001809300013CC08B3130F492E088
:10037000909302018093530334C0109202010E94B3
:1003800078012FC0811105C010925E0310925203B4
:100390000AC093E09093020180935E03109252038F
:1003A00081508233F0F0109202011BC0E0915203A1
:1003B00091E09E0F90935203F0E0EC5AFC4F808343
:1003C00080915E03981768F084E08093020109C071
:1003D000853519F00E94780102C00E94AF0010928A
:1003E00002017894089583E38093C400E1ECF0E087
:1003F0008081806880838081806180838081886043
:10040000808310920201089584E391E00E947000BD
:1004100088B18C7F88B940988FEF87BD8093B300F7
:10042000089580E491E00E947000089582E591E0D3
:100430000E94700008958FEF87BD8093B3001B9AD0
:1004400084B5836084BD84B5806484BD84B58068D0
:1004500084BD85B5816085BD239A579AE0EBF0E0B5
:1004600080818360808380818064808380818068D4
:100470008083E1EBF0E0808181608083389A399A53
:1004800088B18C7F88B940980895611101C040956A
:10049000811108C04093B300611102C040980895D3
:1004A000409A089547BD611104C088B18C7F88B916
:1004B0000895419A0895CF93DF93D82FC62F462FE2
:1004C00060E080E00E9445024C2F60E081E00E94E5
:1004D0004502AD2FB0E020E432E44FE050E00E944E
:1004E0001E0CAB01BC0120E084E092E00E9481057B
:1004F00083E791E00E947000DF91CF910895CF9340
:10050000DF93D82FC62F462F61E080E00E9445027E
:100510004C2F61E081E00E944502AD2FB0E020E465
:1005200032E44FE050E00E941E0CAB01BC0120E021
:1005300084E092E00E94810583E891E00E947000CF
:10054000DF91CF910895CF93C82F462F60E080E0D0
:100550000E9445024AE060E081E00E944502AC2F23
:10056000B0E020E432E44FE050E00E941E0CAB010A
:10057000BC0120E084E092E00E94810582E991E0E4
:100580000E947000CF910895CF93DF93C82FD62F8C
:100590004AE060E080E00E9445024D2F60E081E08B
:1005A0000E944502AC2FB0E020E432E44FE050E07E
:1005B0000E941E0CAB01BC0120E084E092E00E948E
:1005C000810589EA91E00E947000DF91CF91089542
:1005D000CF93C82F462F61E080E00E9445024AE099
:1005E00061E081E00E944502AC2FB0E020E432E4FB
:1005F0004FE050E00E941E0CAB01BC0120E084E003
:1006000092E00E94810581EC91E00E947000CF9100
:100610000895CF93DF93C82FD62F4AE061E080E0A2
:100620000E9445024D2F61E081E00E944502AC2FFF
:10063000B0E020E432E44FE050E00E941E0CAB0139
:10064000BC0120E084E092E00E94810587ED91E00A
:100650000E947000DF91CF910895CF93C82F611150
:100660000FC049E161E081E00E94450249E160E09C
:1006700080E00E9445028EEE91E00E9470000EC064
:1006800049E160E081E00E94450249E161E080E0EB
:100690000E94450285E092E00E947000AC2FB0E01D
:1006A00020E432E44FE050E00E941E0CAB01BC019C
:1006B00020E084E092E00E948105CF91089590E0CF
:1006C000880F991FFC01EE0FFF1FEE0FFF1FEE0FAB
:1006D000FF1FE81BF90BE15AFC4F118210821382B5
:1006E0001282158214821782168211861086138652
:1006F000128608958FE593E027E933E050E009C0C2
:10070000119211924F5F4730D9F70E9682179307D7
:1007100019F0FC01452FF4CFAAE7B0E08C91876077
:100720008C93ECE7F0E080818064808380818F7718
:1007300080838081806280838C9180688C9308950F
:10074000ECE7F0E09081907E90839081892B80830C
:10075000EAE7F0E080818064808308956F927F9261
:100760008F929F92AF92BF92CF92DF92EF92FF92C1
:100770000F931F93CF93DF93982E0E945F03892DD1
:1007800090E09C01220F331FF901EE0FFF1FEE0FC7
:10079000FF1FEE0FFF1FE21BF30BE15AFC4F11820C
:1007A00010825F016E2E7B2C0F2EF6E08F2EF02D27
:1007B000CAE7D0E00F2EF8E7CF2ED12CF02D8F0115
:1007C000045F1F4F0F2EF9E7EF2EF12CF02D892D2E
:1007D0000E94A0035A2D4B2DE62DF72D882D228146
:1007E0003381219331938150D1F7888186FDFDCFEC
:1007F000F6018081829586958695837090E0F80158
:1008000091838083F701208130E0220F331F220F74
:10081000331F822B932BF80191838083F501808114
:100820009181892BA1F2E52FF42F40E050E020E0E8
:1008300081919191480F591F2F5F2730C9F79A0175
:10084000A3E9B4E20E940F0C481B590B9A0136959C
:100850002795820F931F9695879596958795DF919B
:10086000CF911F910F91FF90EF90DF90CF90BF90AD
:10087000AF909F908F907F906F900895EFE6F0E09B
:10088000808181608083109285001092840081E0D5
:100890008093810008951F920F920FB60F9211243A
:1008A0002F933F934F935F936F937F938F939F9378
:1008B000AF93BF93EF93FF938091420390914303D3
:1008C000A0914403B09145030196A11DB11D8093F1
:1008D000420390934303A0934403B093450360E61F
:1008E00072E280E090E00E941607FF91EF91BF91C5
:1008F000AF919F918F917F916F915F914F913F91B8
:100900002F910F900FBE0F901F9018951F920F926E
:100910000FB60F9211242F933F934F935F936F93D2
:100920007F938F939F93AF93BF93EF93FF938091A8
:10093000C6000E949901FF91EF91BF91AF919F91E5
:100940008F917F916F915F914F913F912F910F9078
:100950000FBE0F901F9018950E94F3010E943E0455
:100960000E9447080E941B020E947A030E946705AA
:1009700078948BE192E00E9470005D9A0E94AD072E
:10098000FDCF8F929F92AF92BF92CF92DF92EF9264
:10099000FF920E94EE096B017C019F772DEC3CECED
:1009A0004CEC5DE30E94A20B1816E4F42AE037ED4C
:1009B00043E25CE3C701B6010E94A60B9B01AC01B8
:1009C00060914603709147038091480390914903D9
:1009D0000E94EF0960934603709347038093480396
:1009E000909349032DEC3CEC4CEC5DE3C701B60160
:1009F0000E94A60B4B015C012AE037ED43EA5BE362
:100A00006091460370914703809148039091490398
:100A10000E94A60B9B01AC01C501B4010E94EF0925
:100A20004B015C0120914A0330914B0340914C03F0
:100A300050914D03C701B6010E94EE092AE037ED3F
:100A400043E25CE30E94570A2AE037ED43E25CE3AD
:100A50000E94A60B9B01AC01C501B4010E94EF09E5
:100A60004B015C0120E030E040E850E40E94A20B22
:100A700018165CF020E030E040E850ECC501B4010D
:100A80000E94530A882344F00FC0812C912C5401FA
:100A90006894A7F8B6F808C00F2E812C912CF0E8C6
:100AA000AF2EF0ECBF2EF02DC0924A03D0924B0334
:100AB000E0924C03F0924D03C501B401FF90EF901A
:100AC000DF90CF90BF90AF909F908F90089540910E
:100AD00001014423A9F080E090E0FC01EE0FFF1F2C
:100AE0009C01220F331F220F331F220F331FE20FEF
:100AF000F31FE956FC4F118610860196841768F3A0
:100B00000895DF92EF92FF920F931F93CF93DF939D
:100B1000CDB7DEB7CE56D1090FB6F894DEBF0FBE03
:100B2000CDBFF894D0900101DD2009F474C0E091AC
:100B30009F03F091A003EF2B09F474C0E0919F0391
:100B4000F091A003E817F90709F05BC02DC07F0101
:100B5000DF01AA0FBB1FAA0FBB1FAA0FBB1F8F016C
:100B6000000F111FA00FB11FA956BC4F18960D9072
:100B7000BC91A02DAB2B09F44BC08F01000F111FAE
:100B8000DF01AA0FBB1FAA0FBB1FAA0FBB1FA00F1D
:100B9000B11FA956BC4F18960D90BC91A02D31964F
:100BA000A817B90781F502C0E12CF12C8091000152
:100BB000F701EE0FFF1FEE0CFF1CEE0CFF1CEE0CFE
:100BC000FF1CEE0DFF1DE956FC4F80819181A28133
:100BD000B381BF93AF939F938F9380E392E09F93F2
:100BE0008F938E01055F1F4F1F930F930E943D0C43
:100BF000C8010E9470000FB6F894DEBF0FBECDBFD3
:100C00005EC0E1E0F0E03E2FED1508F4A0CF01C09A
:100C1000E32FED1108C0809100018CE592E00E9465
:100C200070004DC030E0211104C010E0B0E0A0E041
:100C300004C0142FB52FA62F272FE32FF0E04983F0
:100C40005A836B837C831D83BE83AF8328879A87F7
:100C50008987CF01880F991FEE0FFF1FEE0FFF1F2F
:100C6000EE0FFF1F8E0F9F1F89569C4F2AE0FE013B
:100C70003196DC0101900D922A95E1F72091000157
:100C8000FC0180819181A281B381BF93AF939F9337
:100C90008F931F923F938AE692E09F938F938E01EA
:100CA000055F1F4F1F930F930E943D0CC8010E94C8
:100CB000700078940FB6F894DEBF0FBECDBFC25956
:100CC000DF4F0FB6F894DEBF0FBECDBFDF91CF91DF
:100CD0001F910F91FF90EF90DF900895BF92CF92F8
:100CE000DF92EF92FF920F931F93CF93DF93CDB7D5
:100CF000DEB7C456D1090FB6F894DEBF0FBECDBF24
:100D00008C0180910101882309F452C0B12C0F2E6F
:100D1000FFE9CF2EF2E0DF2EF02DCE0101967C010F
:100D20002B2D30E0F901EE0FFF1FC901880F991F2D
:100D3000880F991F880F991FE80FF91FE956FC4F7C
:100D4000408551854017510769F5C901880F991FE2
:100D5000880F991F880F991FF901EE0FFF1FE80FE9
:100D6000F91FE956FC4F11861086108211821282FB
:100D700013821482158216821782809100018823C3
:100D800089F03F93BF92DF92CF92FF92EF920E9441
:100D90003D0CC7010E9470000F900F900F900F90B4
:100DA0000F900F90B39480910101B81608F4B8CF5A
:100DB000CC59DF4F0FB6F894DEBF0FBECDBFDF9129
:100DC000CF911F910F91FF90EF90DF90CF90BF9048
:100DD000089560910101662319F120919F033091DC
:100DE000A00328173907F1F021E030E015C0F90120
:100DF000EE0FFF1FA901440F551F440F551F440F4D
:100E0000551FE40FF51FE956FC4F408551852F5FB4
:100E10003F4F4817590741F0261748F380E00895DF
:100E200080E0089581E0089581E008958F929F9277
:100E3000AF92BF92DF92EF92FF920F931F93CF93E7
:100E4000DF9310910101112309F47BC020E030E011
:100E5000D12CE12CF12C00E0F901A901440F551F20
:100E6000440F551F440F551FD901AA0FBB1FA40FD4
:100E7000B51FA956BC4F18964D915C911997452BFB
:100E800009F45AC0A901440F551F440F551F440FC0
:100E9000551FD901AA0FBB1FA40FB51FA956BC4FE0
:100EA0008D909D90AD90BC9089288A288B2809F45C
:100EB00043C0A901440F551F440F551F440F551F30
:100EC000D901AA0FBB1FA40FB51FA956BC4F8D9007
:100ED0009D90AD90BC90681579058A059B05B8F486
:100EE000A901440F551F440F551F440F551FD90129
:100EF000AA0FBB1FA40FB51FA956BC4F8D909D9084
:100F0000AD90BC90861A970AA80AB90A04C08D2C25
:100F10009E2CAF2CB02EEF01CC0FDD1FEE0FFF1F6C
:100F2000EE0FFF1FEE0FFF1FEC0FFD1FE956FC4FEA
:100F300080829182A282B3822F5F3F4F211708F4F3
:100F40008BCFDF91CF911F910F91FF90EF90DF90AA
:100F5000BF90AF909F908F900895EF92FF921F9354
:100F6000CF93DF93F89480910101882309F457C04F
:100F700010E0C12FD0E0FE01EE0FFF1FCE01880F61
:100F8000991F880F991F880F991FE80FF91FE956BD
:100F9000FC4F80859185892BE1F1CE01880F991F47
:100FA000880F991F880F991FFE01EE0FFF1FE80F92
:100FB000F91FE956FC4F80819181A281B381892B71
:100FC0008A2B8B2B31F57F010084F185E02D09956B
:100FD000F70184819581A681B781892B8A2B8B2B80
:100FE00049F084819581A681B78180839183A28312
:100FF000B3830FC0CE01880F991FCC0FDD1FCC0F1C
:10100000DD1FCC0FDD1FC80FD91FC956DC4F198655
:1010100018861F5F80910101181708F4AACF7894F1
:10102000DF91CF911F91FF90EF9008958091510330
:10103000811104C09BB180E489278BB90895813068
:1010400071F018F08230A9F0089586E198E00E94CE
:101050006E065E9887EC92E00E947000089586E12B
:1010600098E00E946E065E9A8BED92E00E947000FE
:10107000089521E040E452E46FE070E086E198E0FA
:101080000E94810580EF92E00E9470000895569AB8
:10109000559A08950F931F93CF93DF93CDB7DEB783
:1010A000C654D1090FB6F894DEBF0FBECDBF80E0A5
:1010B0000E94AE039F938F9385E093E09F938F935D
:1010C0008E010F5F1F4F1F930F930E943D0CC801AD
:1010D0000E9470000F900F900F900F900F900F9044
:1010E000CA5BDF4F0FB6F894DEBF0FBECDBFDF91F6
:1010F000CF911F910F910895CF92DF92EF92FF92BF
:101100000F931F93CF93DF9380914E03882339F081
:1011100010924E0310924F03109250039FC0809183
:10112000500381112CC081E08093500310926B0416
:1011300010926C0410926D0410926E041092670469
:10114000109268041092690410926A041092630469
:1011500010926404109265041092660410925F0469
:101160001092600410926104109262046FEA8CE3A2
:101170000E945B0283E193E00E9470006FC0809147
:101180004F0381116BC00F2EF3E6EF2EF4E0FF2E1C
:10119000F02DF70180819181A281B3810F2EFFE5AF
:1011A000CF2EF4E0DF2EF02DF60180839183A28311
:1011B000B38307E614E0F80180819181A281B381B5
:1011C000F70180839183A283B383CBE6D4E0888147
:1011D0009981AA81BB81F80180839183A283B38323
:1011E00080E00E94AE03A0E0B0E088839983AA83E8
:1011F000BB83F60180819181A281B381F701C08018
:10120000D180E280F380F801008111812281338155
:10121000488159816A817B818C0D9D1DAE1DBF1D4A
:10122000800F911FA21FB31F840F951FA61FB71F0A
:10123000843B9440A105B10588F00E94040284E03B
:1012400092E00E946E068CE798E00E946E060E9473
:101250004A0881E080934F0380934E03DF91CF9142
:101260001F910F91FF90EF90DF90CF9008950F9313
:101270001F93CF93DF93CDB7DEB7C654D1090FB616
:10128000F894DEBF0FBECDBF81E00E94AE039F93F6
:101290008F938CE193E09F938F938E010F5F1F4F8D
:1012A0001F930F930E943D0CC8010E9470000F9085
:1012B0000F900F900F900F900F90CA5BDF4F0FB6FB
:1012C000F894DEBF0FBECDBFDF91CF911F910F917C
:1012D0000895CF92DF92EF92FF920F931F93CF93D7
:1012E000DF93CDB7DEB769970FB6F894DEBF0FBEB8
:1012F000CDBF81E00E94AE038C010E3A81E0180759
:1013000048F48EEA91E0801B910B409718F0015F42
:101310001F4F06C00E3B91E0190710F00F50110946
:10132000B80180E090E00E94F00A9B01AC0160E00F
:1013300070E087ED93E40E94C1046B017C011F9370
:101340000F9320E030E048EC52E40E94A60B0E948C
:10135000BF0A7F936F9381E393E09F938F938E01F6
:101360000F5F1F4F1F930F930E943D0CC8010E94F7
:1013700070000FB6F894DEBF0FBECDBF20E030E0A6
:1013800040E050E4C701B6010E94A20B181664F4B5
:1013900080910201813099F087E393E00E94700010
:1013A00081E0809302010BC080910201823039F00C
:1013B0008DE393E00E94700082E0809302016996C1
:1013C0000FB6F894DEBF0FBECDBFDF91CF911F9156
:1013D0000F91FF90EF90DF90CF9008955058BB276A
:1013E000AA270ED075C166D130F06BD120F031F450
:1013F0009F3F11F41EF45BC10EF4E095E7FB51C171
:10140000E92F77D180F3BA1762077307840795072E
:1014100018F071F49EF58FC10EF4E0950B2EBA2FE3
:10142000A02D0B01B90190010C01CA01A0011124EA
:10143000FF27591B99F0593F50F4503E68F11A1696
:10144000F040A22F232F342F4427585FF3CF469527
:1014500037952795A795F0405395C9F77EF41F1649
:10146000BA0B620B730B840BBAF09150A1F0FF0F13
:10147000BB1F661F771F881FC2F70EC0BA0F621FFF
:10148000731F841F48F4879577956795B795F795EF
:101490009E3F08F0B3CF9395880F08F09927EE0F81
:1014A000979587950895D9D008F481E008950CD0D8
:1014B0000FC107D140F0FED030F021F45F3F19F0AA
:1014C000F0C0511139C1F3C014D198F39923C9F375
:1014D0005523B1F3951B550BBB27AA27621773073A
:1014E000840738F09F5F5F4F220F331F441FAA1FEE
:1014F000A9F333D00E2E3AF0E0E830D091505040AE
:10150000E695001CCAF729D0FE2F27D0660F771F5B
:10151000881FBB1F261737074807AB07B0E809F03D
:10152000BB0B802DBF01FF2793585F4F2AF09E3FD2
:10153000510568F0B6C000C15F3FECF3983EDCF3A4
:10154000869577956795B795F7959F5FC9F7880F4B
:10155000911D9695879597F90895E1E0660F771F9D
:10156000881FBB1F621773078407BA0720F0621B2E
:10157000730B840BBA0BEE1F88F7E095089504D027
:101580006894B111D9C00895BCD088F09F5790F0ED
:10159000B92F9927B751A0F0D1F0660F771F881F98
:1015A000991F1AF0BA95C9F712C0B13081F0C3D0B3
:1015B000B1E00895C0C0672F782F8827B85F39F051
:1015C000B93FCCF3869577956795B395D9F73EF4F7
:1015D00090958095709561957F4F8F4F9F4F08959F
:1015E000E89409C097FB3EF49095809570956195BD
:1015F0007F4F8F4F9F4F9923A9F0F92F96E9BB2773
:101600009395F695879577956795B795F111F8CFEE
:10161000FAF4BB0F11F460FF1BC06F5F7F4F8F4F59
:101620009F4F16C0882311F096E911C0772321F04F
:101630009EE8872F762F05C0662371F096E8862FE7
:1016400070E060E02AF09A95660F771F881FDAF73E
:10165000880F9695879597F90895990F0008550F6B
:10166000AA0BE0E8FEEF16161706E807F907C0F028
:1016700012161306E407F50798F0621B730B840B30
:10168000950B39F40A2661F0232B242B252B21F40A
:1016900008950A2609F4A140A6958FEF811D811DAA
:1016A000089597F99F6780E870E060E008959FEFE4
:1016B00080EC089500240A941616170618060906E9
:1016C000089500240A9412161306140605060895B8
:1016D000092E0394000C11F4882352F0BB0F40F440
:1016E000BF2B11F460FF04C06F5F7F4F8F4F9F4F80
:1016F000089557FD9058440F551F59F05F3F71F002
:101700004795880F97FB991F61F09F3F79F0879568
:101710000895121613061406551FF2CF4695F1DFF1
:1017200008C0161617061806991FF1CF8695710581
:10173000610508940895E894BB2766277727CB01B5
:1017400097F908958ADF08F48FEF08950BD0C0CF82
:10175000B1DF28F0B6DF18F0952309F0A2CFA7CFAC
:101760001124EACFC6DFA0F3959FD1F3950F50E087
:10177000551F629FF001729FBB27F00DB11D639F43
:10178000AA27F00DB11DAA1F649F6627B00DA11DE9
:10179000661F829F2227B00DA11D621F739FB00D8F
:1017A000A11D621F839FA00D611D221F749F3327FF
:1017B000A00D611D231F849F600D211D822F762F98
:1017C0006A2F11249F5750408AF0E1F088234AF095
:1017D000EE0FFF1FBB1F661F771F881F91505040E1
:1017E000A9F79E3F510570F05CCFA6CF5F3FECF3A9
:1017F000983EDCF3869577956795B795F795E795CD
:101800009F5FC1F7FE2B880F911D9695879597F9DD
:101810000895EE0FFF1F0590F491E02D0994A29F0B
:10182000B001B39FC001A39F700D811D1124911DB4
:10183000B29F700D811D1124911D08950E940F0CFF
:10184000A59F900DB49F900DA49F800D911D112414
:101850000895A0E0B0E0EFE2FCE00C94E70EFE019A
:10186000359661917191AF018091710490917204EC
:101870000E945F0CE2E00C94030FAEE0B0E0E3E402
:10188000FCE00C94E50E0D891E8986E08C831A839A
:1018900009838FEF9FE79E838D83AE01475E5F4F85
:1018A0006F89788DCE0101960E945F0CEF81F885DB
:1018B000E00FF11F10822E96E4E00C94010FACE0D3
:1018C000B0E0E5E6FCE00C94D70E7C016B018A01E8
:1018D000FC0117821682838181FFBDC1CE01019672
:1018E0004C01F7019381F60193FD859193FF81915E
:1018F0006F01882309F4ABC1853239F493FD8591DA
:1019000093FF81916F01853229F4B70190E00E9425
:10191000470EE7CF512C312C20E02032A0F48B323F
:1019200069F030F4803259F0833269F420612CC0C0
:101930008D3239F0803339F4216026C02260246072
:1019400023C0286021C027FD27C030ED380F3A3072
:1019500078F426FF06C0FAE05F9E300D1124532E66
:1019600013C08AE0389E300D1124332E20620CC043
:101970008E3221F426FD6BC1206406C08C3611F432
:10198000206802C0883641F4F60193FD859193FFEB
:1019900081916F018111C1CF982F9F7D9554933014
:1019A00028F40C5F1F4FFFE3F9830DC0833631F03D
:1019B000833771F0833509F05BC022C0F801808164
:1019C00089830E5F1F4F44244394512C540115C04A
:1019D0003801F2E06F0E711CF801A080B18026FF83
:1019E00003C0652D70E002C06FEF7FEFC5012C874B
:1019F0000E943C0E2C0183012C852F77222E17C0CC
:101A00003801F2E06F0E711CF801A080B18026FF52
:101A100003C0652D70E002C06FEF7FEFC5012C871A
:101A20000E94310E2C012C852068222E830123FC7C
:101A30001BC0832D90E048165906B0F4B70180E230
:101A400090E00E94470E3A94F4CFF50127FC85916F
:101A500027FE81915F01B70190E00E94470E31108F
:101A60003A94F1E04F1A51084114510471F7E5C05E
:101A7000843611F0893639F5F80127FF07C06081F7
:101A80007181828193810C5F1F4F08C060817181D9
:101A9000882777FD8095982F0E5F1F4F2F76B22EE7
:101AA00097FF09C090958095709561957F4F8F4FF6
:101AB0009F4F2068B22E2AE030E0A4010E94790EE8
:101AC000A82EA81844C0853729F42F7EB22E2AE00C
:101AD00030E025C0F22FF97FBF2E8F36C1F018F409
:101AE000883579F0B4C0803719F0883721F0AFC05D
:101AF0002F2F2061B22EB4FE0DC08B2D8460B82E26
:101B000009C024FF0AC09F2F9660B92E06C028E0A6
:101B100030E005C020E130E002C020E132E0F80111
:101B2000B7FE07C060817181828193810C5F1F4F76
:101B300006C06081718180E090E00E5F1F4FA401BC
:101B40000E94790EA82EA818FB2DFF77BF2EB6FE97
:101B50000BC02B2D2E7FA51450F4B4FE0AC0B2FC8E
:101B600008C02B2D2E7E05C07A2C2B2D03C07A2C7D
:101B700001C0752C24FF0DC0FE01EA0DF11D80810E
:101B8000803311F4297E09C022FF06C07394739438
:101B900004C0822F867809F0739423FD13C020FFC0
:101BA00006C05A2C731418F4530C5718732C731462
:101BB00068F4B70180E290E02C870E94470E73948E
:101BC0002C85F5CF731410F4371801C0312C24FF85
:101BD00012C0B70180E390E02C870E94470E2C854D
:101BE00022FF17C021FF03C088E590E002C088E70C
:101BF00090E0B7010CC0822F867859F021FD02C019
:101C000080E201C08BE227FD8DE2B70190E00E94E7
:101C1000470EA51438F4B70180E390E00E94470E08
:101C20005A94F7CFAA94F401EA0DF11D8081B7010F
:101C300090E00E94470EA110F5CF332009F451CE59
:101C4000B70180E290E00E94470E3A94F6CFF70188
:101C50008681978102C08FEF9FEF2C96E2E10C9472
:101C6000F30EFC010590615070400110D8F780958B
:101C700090958E0F9F1F0895FC0161507040019058
:101C80000110D8F7809590958E0F9F1F08950F93A0
:101C90001F93CF93DF93182F092FEB018B8181FDC9
:101CA00003C08FEF9FEF20C082FF10C04E815F8185
:101CB0002C813D81421753077CF4E881F9819F0113
:101CC0002F5F3F4F39832883108306C0E885F9854D
:101CD000812F0995892B29F72E813F812F5F3F4F57
:101CE0003F832E83812F902FDF91CF911F910F91F2
:101CF0000895FA01AA27283051F1203181F1E894A2
:101D00006F936E7F6E5F7F4F8F4F9F4FAF4FB1E0EE
:101D10003ED0B4E03CD0670F781F891F9A1FA11DE9
:101D2000680F791F8A1F911DA11D6A0F711D811DEA
:101D3000911DA11D20D009F468943F912AE0269FAF
:101D400011243019305D3193DEF6CF010895462F0E
:101D50004770405D4193B3E00FD0C9F7F6CF462FEF
:101D60004F70405D4A3318F0495D31FD4052419358
:101D700002D0A9F7EACFB4E0A69597958795779515
:101D80006795BA95C9F700976105710508959B019C
:101D9000AC010A2E06945795479537952795BA9525
:101DA000C9F7620F731F841F951FA01D08952F92FE
:101DB0003F924F925F926F927F928F929F92AF92DB
:101DC000BF92CF92DF92EF92FF920F931F93CF9328
:101DD000DF93CDB7DEB7CA1BDB0B0FB6F894DEBFBF
:101DE0000FBECDBF09942A88398848885F846E84E5
:101DF0007D848C849B84AA84B984C884DF80EE802F
:101E0000FD800C811B81AA81B981CE0FD11D0FB637
:101E1000F894DEBF0FBECDBFED010895F894FFCF5B
:101E20000114FF646F54696D65722073746172747C
:101E30006564005472696D6974652064696E206E12
:101E40006F7520756C74696D756C206D6573616A52
:101E5000212121004D2D616D206F70726974210068
:101E60005374617274204672656520502050205072
:101E70002100537461727420636F6D706C657465BA
:101E800020656E636C6F73656420636F6E746F752D
:101E90007221004D612064756320696E61696E7402
:101EA0006521004D612064756320696E61706F6902
:101EB00021004D612064756320696E61696E7465EF
:101EC000207374616E676121004D61206475632029
:101ED000696E61696E7465206472656170746121F8
:101EE000004D612064756320696E61706F692073B5
:101EF00074616E676121004D612064756320696EB5
:101F000061706F69206472656170746121006D6138
:101F100020726F74657363207370726520647265DC
:101F200061707461006D6120726F746573632073FA
:101F3000707265207374616E67610020203E3E3EC2
:101F40006D61696E2073746172743C3C3C202000AA
:101F500046756E63746961206173746120652064E5
:101F6000656A6120696E20636F6164612120637519
:101F70002064656C61793A20256C7500436F61645B
:101F80006120652066756C6C2100456E7472792045
:101F90006164617567617420696E20636F6164615B
:101FA00021206C6120696E64657820256420736946
:101FB0002063752064656C61793A20256C75004555
:101FC0006E7472792073746572732064696E206315
:101FD0006F6164612E20646520706520706F7A697E
:101FE000746961202564006C6564756C20612066ED
:101FF0006F7374207374696E732E006C6564756CF6
:10200000206120666F737420617072696E732E0098
:102010006C6564756C2076612027626C696E636103
:102020007269272E0073656E736F722023303A2019
:1020300025640073746172746564210073656E7346
:102040006F722023313A20256400743A20256C7584
:10205000002564202564007269676874006C6566F9
:0220600074000A
:00000001FF
