:100000000C945B000C9478000C9478000C947800AD
:100010000C9478000C9478000C9478000C94780080
:100020000C9478000C9478000C9478000C94780070
:100030000C9478000C9478000C9478000C947D0457
:100040000C9478000C9478000C9478000C94780050
:100050000C94B8040C9478000C9478000C947800FC
:100060000C9478000C9478000C9478000C94780030
:100070000C9478000C9478000C9478001E01B50064
:10008000B800300130013001300130013001300161
:100090003001300130011401BB00C00001010C012E
:1000A00004012C011308040886087B0870081F0847
:1000B0005D086908920811241FBECFEFD0E1DEBFB2
:1000C000CDBF13E0A0E0B1E0E0E0FAE102C00590AE
:1000D0000D92AA36B107D9F724E0AAE6B3E001C031
:1000E0001D92A739B207E1F70E94DE040C94FE0CC2
:1000F0000C940000809175039FEF980F963050F597
:1001000090917603609177038330A1F028F48130D9
:1001100049F0823059F00895853081F098F08630AA
:10012000A9F00895892F0E946E020895892F0E94D8
:1001300096020895892F0E94BE020895892F0E9479
:100140000B030895892F0E94E3020895892F0E94CE
:100150003003089590E0FC013797E431F10508F091
:100160007FC0E25CFF4F0C94F9090E9429020895B8
:100170000E9424020895809176030E94AF0808959A
:1001800080917703813089F580917603811115C0C4
:100190008AED98E00E948906882329F08AED98E08C
:1001A0000E940E06089521E040E452E46FE070E002
:1001B0008AED98E00E940D050895813009F050C045
:1001C00087EC99E00E948906882329F087EC99E062
:1001D0000E940E06089521E040E452E46FE070E0D2
:1001E00087EC99E00E940D050895809176038111B6
:1001F00003C00E94DA080895813091F50E94C70972
:1002000008950E941702089540E06091770380915D
:1002100076030E945803089541E06091770380912E
:1002200076030E945803089521E040E157E260E020
:1002300070E08CE099E00E940D05089521E040E215
:1002400051EA67E070E082EC97E00E940D05809132
:10025000760380936E0308950E9417020E94B607EA
:100260000895FC0101900020E9F73197E81BF90B94
:100270002E2F3AEA3093C600AFE1BEE41197F1F7B2
:1002800000C0000034E13093C600AFE1BEE4119736
:10029000F1F700C00000E093C600EFE1FEE4319703
:1002A000F1F700C00000222389F0382FE82FF92F42
:1002B000A6ECB0E081918C938FE19EE40197F1F779
:1002C00000C000008E2F831B8217A0F385E580936A
:1002D000C600AFE1BEE41197F1F700C00000089539
:1002E000CF93DF9370E06115710591F0E82FF92F3E
:1002F00080E090E0A6ECB0E021912C93CFE1DEE429
:100300002197F1F700C00000019686179707A0F328
:10031000DF91CF910895CF93DF9300D000D0CDB778
:10032000DEB783E091E09F938F930E94190A8AEAD7
:10033000898383E18A831B8285E58C8364E0CE0117
:1003400001960E9470010F900F900F900F900F90E8
:100350000F90DF91CF910895F8949091020192301F
:1003600021F128F4992349F0913091F04DC0933058
:1003700081F1943009F43FC047C08A3A09F044C083
:1003800081E08093020110920001809300013CC043
:100390008B3130F492E0909302018093750334C066
:1003A000109202010E948B012FC0811105C0109292
:1003B0008003109274030AC093E09093020180932B
:1003C00080031092740381508233F0F01092020186
:1003D0001BC0E091740391E09E0F90937403F0E0D2
:1003E000EA58FC4F808380918003981768F084E07E
:1003F0008093020109C0853519F00E948B0102C06B
:100400000E947A00109202017894089583E3809309
:10041000C400E1ECF0E080818068808380818061AD
:10042000808380818860808310920201089584E235
:1004300091E00E94310188B18C7F88B940988FEF9C
:1004400087BD8093B300089580E391E00E9431015D
:10045000089582E491E00E94310108958FEF87BDF5
:100460008093B3001B9A84B5836084BD84B5806497
:1004700084BD84B5806884BD85B5816085BD239ABF
:10048000579AE0EBF0E08081836080838081806414
:100490008083808180688083E1EBF0E080818160EF
:1004A0008083389A399A88B18C7F88B940980895AA
:1004B000611101C04095811108C04093B3006111E2
:1004C00002C040980895409A089547BD611104C044
:1004D00088B18C7F88B90895419A0895CF93DF93AE
:1004E000D82FC62F462F60E080E00E9458024C2F84
:1004F00060E081E00E94580287E192E00E940E06CF
:10050000AD2FB0E020E432E44FE050E00E940E0A4C
:10051000AB01BC0120E087E192E00E940D0583E67B
:1005200091E00E943101DF91CF910895CF93DF9345
:10053000D82FC62F462F61E080E00E9458024C2F32
:1005400061E081E00E94580287E192E00E940E067D
:10055000AD2FB0E020E432E44FE050E00E940E0AFC
:10056000AB01BC0120E087E192E00E940D0583E72A
:1005700091E00E943101DF91CF910895CF93C82F70
:10058000462F60E080E00E9458024AE060E081E08F
:100590000E94580287E192E00E940E06AC2FB0E064
:1005A00020E432E44FE050E00E940E0AAB01BC01AF
:1005B00020E087E192E00E940D0582E891E00E9430
:1005C0003101CF910895CF93DF93C82FD62F4AE002
:1005D00060E080E00E9458024D2F60E081E00E94C0
:1005E000580287E192E00E940E06AC2FB0E020E4B2
:1005F00032E44FE050E00E940E0AAB01BC0120E063
:1006000087E192E00E940D0589E991E00E943101A5
:10061000DF91CF910895CF93C82F462F61E080E0FE
:100620000E9458024AE061E081E00E94580287E19E
:1006300092E00E940E06AC2FB0E020E432E44FE0DE
:1006400050E00E940E0AAB01BC0120E087E192E07D
:100650000E940D0581EB91E00E943101CF91089538
:10066000CF93DF93C82FD62F4AE061E080E00E944D
:1006700058024D2F61E081E00E94580287E192E02C
:100680000E940E06AC2FB0E020E432E44FE050E0D0
:100690000E940E0AAB01BC0120E087E192E00E94BB
:1006A0000D0587EC91E00E943101DF91CF91089513
:1006B000CF93DF93D82FC62F41110FC0462F60E094
:1006C00081E00E9458024C2F61E080E00E945802B5
:1006D0008EED91E00E9431010EC0462F61E081E075
:1006E0000E9458024C2F60E080E00E94580285EF83
:1006F00091E00E94310187E192E00E940E06AD2F49
:10070000B0E020E432E44FE050E00E940E0AAB017A
:10071000BC0120E087E192E00E940D05DF91CF91BE
:10072000089590E0880F991FFC01EE0FFF1FEE0F58
:10073000FF1FEE0FFF1FE81BF90BEF57FC4F118255
:1007400010821382128215821482178216821186F9
:10075000108613861286089581E893E029EB33E032
:1007600050E009C0119211924F5F4730D9F70E96B1
:100770008217930719F0FC01452FF4CFAAE7B0E0E8
:100780008C9187608C93ECE7F0E0808180648083BB
:1007900080818F7780838081806280838C91806864
:1007A0008C930895ECE7F0E09081907E90839081A7
:1007B000892B8083EAE7F0E080818064808308955C
:1007C0006F927F928F929F92AF92BF92CF92DF9261
:1007D000EF92FF920F931F93CF93DF93982E0E9477
:1007E0009103892D90E09C01220F331FF901EE0F38
:1007F000FF1FEE0FFF1FEE0FFF1FE21BF30BEF5764
:10080000FC4F118210825F016E2E7B2C0F2EF6E0C2
:100810008F2EF02DCAE7D0E00F2EF8E7CF2ED12C87
:10082000F02D8F01045F1F4F0F2EF9E7EF2EF12CF3
:10083000F02D892D0E94D2035A2D4B2DE62DF72D38
:10084000882D22813381219331938150D1F7888182
:1008500086FDFDCFF6018081829586958695837011
:1008600090E0F80191838083F701208130E0220F2E
:10087000331F220F331F822B932BF8019183808328
:10088000F50180819181892BA1F2E52FF42F40E0C1
:1008900050E020E081919191480F591F2F5F273040
:1008A000C9F79A01A3E9B4E20E94FF09481B590B5A
:1008B0009A0136952795820F931F96958795969561
:1008C0008795DF91CF911F910F91FF90EF90DF906F
:1008D000CF90BF90AF909F908F907F906F90089532
:1008E000EFE6F0E0808181608083109285001092B5
:1008F000840081E08093810008951F920F920FB6CB
:100900000F9211242F933F934F935F936F937F9395
:100910008F939F93AF93BF93EF93FF9380916A035D
:1009200090916B03A0916C03B0916D030196A11D92
:10093000B11D80936A0390936B03A0936C03B093F3
:100940006D0360E672E280E090E00E94B606FF91DF
:10095000EF91BF91AF919F918F917F916F915F9137
:100960004F913F912F910F900FBE0F901F901895B0
:100970001F920F920FB60F9211242F933F934F9314
:100980005F936F937F938F939F93AF93BF93EF93F7
:10099000FF938091C6000E94AC01FF91EF91BF913F
:1009A000AF919F918F917F916F915F914F913F9107
:1009B0002F910F900FBE0F901F9018950E94060266
:1009C0000E9470040E94D7080E942E020E94AC036D
:1009D0000E94F30478948BE092E00E9431015E9AC9
:1009E0000E944D07FDCF409101014423A9F080E012
:1009F00090E0FC01EE0FFF1F9C01220F331F220F1E
:100A0000331F220F331FE20FF31FE754FC4F1186F1
:100A100010860196841768F30895DF92EF92FF9293
:100A20000F931F93CF93DF93CDB7DEB7CE56D10987
:100A30000FB6F894DEBF0FBECDBFF894D090010181
:100A4000DD2009F477C0E091C103F091C203EF2BE0
:100A500009F47AC0E091C103F091C203E817F907E5
:100A600009F05EC02DC07F01DF01AA0FBB1FAA0FD6
:100A7000BB1FAA0FBB1F8F01000F111FA00FB11FBB
:100A8000A754BC4F18960D90BC91A02DAB2B09F428
:100A90004EC08F01000F111FDF01AA0FBB1FAA0F4D
:100AA000BB1FAA0FBB1FA00FB11FA754BC4F1896A6
:100AB0000D90BC91A02D3196A817B90799F502C0E9
:100AC000E12CF12C80910001882309F498C0F701F2
:100AD000EE0FFF1FEE0CFF1CEE0CFF1CEE0CFF1CBC
:100AE000EE0DFF1DE754FC4F80819181A281B381FF
:100AF000BF93AF939F938F9380E292E09F938F93E6
:100B00008E01055F1F4F1F930F930E942D0AC8018E
:100B10000E9431010FB6F894DEBF0FBECDBF6FC08B
:100B2000E1E0F0E03E2FED1508F49DCF01C0E32F8A
:100B3000ED110BC080910001882309F460C08CE4A2
:100B400092E00E9431015BC030E0211104C0A0E0BE
:100B5000F0E0E0E004C0A42FF52FE62F272F032FAD
:100B600010E049835A836B837C83AD83FE83EF83DC
:100B700028879A878987D801AA0FBB1FC801880FC9
:100B8000991F880F991F880F991FA80FB91FA75485
:100B9000BC4F8AE0FE01319601900D928A95E1F7F3
:100BA00080910001882351F1F801EE0FFF1F000F23
:100BB000111F000F111F000F111FE00FF11FE7544D
:100BC000FC4F80819181A281B381BF93AF939F93AA
:100BD0008F931F923F938AE592E09F938F938E01AC
:100BE000055F1F4F1F930F930E942D0AC8010E949B
:100BF00031010FB6F894DEBF0FBECDBF7894C25955
:100C0000DF4F0FB6F894DEBF0FBECDBFDF91CF919F
:100C10001F910F91FF90EF90DF900895BF92CF92B8
:100C2000DF92EF92FF920F931F93CF93DF93CDB795
:100C3000DEB7C456D1090FB6F894DEBF0FBECDBFE4
:100C40008C0180910101882309F452C0B12C0F2E30
:100C5000FFE8CF2EF2E0DF2EF02DCE0101967C01D1
:100C60002B2D30E0F901EE0FFF1FC901880F991FEE
:100C7000880F991F880F991FE80FF91FE754FC4F41
:100C8000408551854017510769F5C901880F991FA3
:100C9000880F991F880F991FF901EE0FFF1FE80FAA
:100CA000F91FE754FC4F11861086108211821282C0
:100CB0001382148215821682178280910001882384
:100CC00089F03F93BF92DF92CF92FF92EF920E9402
:100CD0002D0AC7010E9431010F900F900F900F90C5
:100CE0000F900F90B39480910101B81608F4B8CF1B
:100CF000CC59DF4F0FB6F894DEBF0FBECDBFDF91EA
:100D0000CF911F910F91FF90EF90DF90CF90BF9008
:100D1000089560910101662319F12091C10330917A
:100D2000C20328173907F1F021E030E015C0F901BE
:100D3000EE0FFF1FA901440F551F440F551F440F0D
:100D4000551FE40FF51FE754FC4F408551852F5F79
:100D50003F4F4817590741F0261748F380E00895A0
:100D600080E0089581E0089581E008958F929F9238
:100D7000AF92BF92DF92EF92FF920F931F93CF93A8
:100D8000DF9310910101112309F47BC020E030E0D2
:100D9000D12CE12CF12C00E0F901A901440F551FE1
:100DA000440F551F440F551FD901AA0FBB1FA40F95
:100DB000B51FA754BC4F18964D915C911997452BC0
:100DC00009F45AC0A901440F551F440F551F440F81
:100DD000551FD901AA0FBB1FA40FB51FA754BC4FA5
:100DE0008D909D90AD90BC9089288A288B2809F41D
:100DF00043C0A901440F551F440F551F440F551FF1
:100E0000D901AA0FBB1FA40FB51FA754BC4F8D90CB
:100E10009D90AD90BC90681579058A059B05B8F446
:100E2000A901440F551F440F551F440F551FD901E9
:100E3000AA0FBB1FA40FB51FA754BC4F8D909D9048
:100E4000AD90BC90861A970AA80AB90A04C08D2CE6
:100E50009E2CAF2CB02EEF01CC0FDD1FEE0FFF1F2D
:100E6000EE0FFF1FEE0FFF1FEC0FFD1FE754FC4FAF
:100E700080829182A282B3822F5F3F4F211708F4B4
:100E80008BCFDF91CF911F910F91FF90EF90DF906B
:100E9000BF90AF909F908F900895EF92FF921F9315
:100EA000CF93DF93F89480910101882309F457C010
:100EB00010E0C12FD0E0FE01EE0FFF1FCE01880F22
:100EC000991F880F991F880F991FE80FF91FE75482
:100ED000FC4F80859185892BE1F1CE01880F991F08
:100EE000880F991F880F991FFE01EE0FFF1FE80F53
:100EF000F91FE754FC4F80819181A281B381892B36
:100F00008A2B8B2B31F57F010084F185E02D09952B
:100F1000F70184819581A681B781892B8A2B8B2B40
:100F200049F084819581A681B78180839183A283D2
:100F3000B3830FC0CE01880F991FCC0FDD1FCC0FDC
:100F4000DD1FCC0FDD1FC80FD91FC754DC4F19861A
:100F500018861F5F80910101181708F4AACF7894B2
:100F6000DF91CF911F91FF90EF9008950E94F304BD
:100F7000089580917303811104C09BB180E4892797
:100F80008BB90895CF92DF92EF92FF920F931F9348
:100F9000CF93DF93CDB7DEB7C456D1090FB6F8941F
:100FA000DEBF0FBECDBF80E00E94E0037C01109247
:100FB000000181E00E94E0038C0180916F031F9289
:100FC0008F931F930F93FF92EF9287EB92E09F9383
:100FD0008F93CE0101966C01DF928F930E942D0AB0
:100FE000C6010E9431010FB6F894DEBF0FBECDBF1F
:100FF00040916F0350E04930510508F09DC0FA015F
:10100000EE5AFF4F0C94F9099DE2E91691E0F906BA
:1010100008F492C040E06AEF8CE30E94580382E03B
:1010200080936F0389C068EC8CE30E946E0281E0BC
:1010300080936F0381EE92E00E9431017DC08DE2CA
:10104000E81681E0F80640F082E080936F0341E00B
:101050006AEF8CE30E945803003A1105A8F48091CE
:101060006E03815080936E0380916E03811109C0DD
:1010700040E06AEF8CE30E94580386E080936F03A0
:1010800003C088E080936F03013991E0190738F0BD
:1010900084E080936F0368EC8CE30E94BE020B5ADD
:1010A00011090D31110508F047C083E080936F03EB
:1010B00068EC8CE30E94E3023FC084EBE816F10485
:1010C000D8F568EC8CE30E946E0287E080936F0392
:1010D00033C00E94170282EC97E00E940E062CC0DB
:1010E0000C32114048F585E080936F0368EC8CE387
:1010F0000E946E0221C00D321140F0F085E0809315
:101100006F0368EC8CE30E946E0216C094EBE91644
:10111000F10490F468EC8CE30E946E0285E0809309
:101120006F030AC0093C110538F085E080936F0316
:1011300068EC8CE30E946E0281E080930001CC5940
:10114000DF4F0FB6F894DEBF0FBECDBFDF91CF915A
:101150001F910F91FF90EF90DF90CF900895813015
:1011600071F018F08230A9F0089589EB97E00E94A1
:101170000E065E988FEE92E00E943101089589EB91
:1011800097E00E940E065E9A83E093E00E94310190
:10119000089521E040E452E46FE070E089EB97E0CD
:1011A0000E940D0588E193E00E9431010895569A4E
:1011B000559A08950F931F93CF93DF93CDB7DEB762
:1011C000C654D1090FB6F894DEBF0FBECDBF80E084
:1011D0000E94E0039F938F938DE293E09F938F9300
:1011E0008E010F5F1F4F1F930F930E942D0AC8019E
:1011F0000E9431010F900F900F900F900F900F9061
:10120000CA5BDF4F0FB6F894DEBF0FBECDBFDF91D4
:10121000CF911F910F910895CF92DF92EF92FF929D
:101220000F931F93CF93DF9380917003882339F03E
:101230001092700310927103109272039FC08091FC
:10124000720381112CC081E08093720310928D048F
:1012500010928E0410928F041092900410928904C0
:1012600010928A0410928B0410928C0410928504C0
:1012700010928604109287041092880410928104C0
:101280001092820410928304109284046FEA8CE31B
:101290000E946E028BE393E00E9431016FC0809147
:1012A000710381116BC00F2EF5E8EF2EF4E0FF2ED5
:1012B000F02DF70180819181A281B3810F2EF1E899
:1012C000CF2EF4E0DF2EF02DF60180839183A283F0
:1012D000B38309E814E0F80180819181A281B38190
:1012E000F70180839183A283B383CDE8D4E0888122
:1012F0009981AA81BB81F80180839183A283B38302
:1013000080E00E94E003A0E0B0E088839983AA8394
:10131000BB83F60180819181A281B381F701C080F6
:10132000D180E280F380F801008111812281338134
:10133000488159816A817B818C0D9D1DAE1DBF1D29
:10134000800F911FA21FB31F840F951FA61FB71FE9
:10135000843B9440A105B10588F00E94170287E103
:1013600092E00E940E068CE099E00E940E060E9418
:10137000DA0881E08093710380937003DF91CF914D
:101380001F910F91FF90EF90DF90CF9008950F93F2
:101390001F93CF93DF93CDB7DEB7C654D1090FB6F5
:1013A000F894DEBF0FBECDBF81E00E94E0039F93A3
:1013B0008F9384E493E09F938F938E010F5F1F4F71
:1013C0001F930F930E942D0AC8010E9431010F90B4
:1013D0000F900F900F900F900F90CA5BDF4F0FB6DA
:1013E000F894DEBF0FBECDBFDF91CF911F910F915B
:1013F0000895EE0FFF1F0590F491E02D0994A29F30
:10140000B001B39FC001A39F700D811D1124911DD8
:10141000B29F700D811D1124911D08950E94FF0936
:10142000A59F900DB49F900DA49F800D911D112438
:101430000895A0E0B0E0EFE1FAE00C94D70CFE01D3
:10144000359661917191AF018091930490919404CC
:101450000E944F0AE2E00C94F30CAEE0B0E0E3E34C
:10146000FAE00C94D50C0D891E8986E08C831A83D2
:1014700009838FEF9FE79E838D83AE01475E5F4FA9
:101480006F89788DCE0101960E944F0AEF81F88511
:10149000E00FF11F10822E96E4E00C94F10CACE00A
:1014A000B0E0E5E5FAE00C94C70C7C016B018A0121
:1014B000FC0117821682838181FFBDC1CE01019696
:1014C0004C01F7019381F60193FD859193FF819182
:1014D0006F01882309F4ABC1853239F493FD8591FE
:1014E00093FF81916F01853229F4B70190E00E944A
:1014F000370CE7CF512C312C20E02032A0F48B3276
:1015000069F030F4803259F0833269F420612CC0E4
:101510008D3239F0803339F4216026C02260246096
:1015200023C0286021C027FD27C030ED380F3A3096
:1015300078F426FF06C0FAE05F9E300D1124532E8A
:1015400013C08AE0389E300D1124332E20620CC067
:101550008E3221F426FD6BC1206406C08C3611F456
:10156000206802C0883641F4F60193FD859193FF0F
:1015700081916F018111C1CF982F9F7D9554933038
:1015800028F40C5F1F4FFFE3F9830DC0833631F061
:10159000833771F0833509F05BC022C0F801808188
:1015A00089830E5F1F4F44244394512C540115C06E
:1015B0003801F2E06F0E711CF801A080B18026FFA7
:1015C00003C0652D70E002C06FEF7FEFC5012C876F
:1015D0000E942C0C2C0183012C852F77222E17C002
:1015E0003801F2E06F0E711CF801A080B18026FF77
:1015F00003C0652D70E002C06FEF7FEFC5012C873F
:101600000E94210C2C012C852068222E830123FCB2
:101610001BC0832D90E048165906B0F4B70180E254
:1016200090E00E94370C3A94F4CFF50127FC8591A5
:1016300027FE81915F01B70190E00E94370C3110C5
:101640003A94F1E04F1A51084114510471F7E5C082
:10165000843611F0893639F5F80127FF07C060811B
:101660007181828193810C5F1F4F08C060817181FD
:10167000882777FD8095982F0E5F1F4F2F76B22E0B
:1016800097FF09C090958095709561957F4F8F4F1A
:101690009F4F2068B22E2AE030E0A4010E94690C1E
:1016A000A82EA81844C0853729F42F7EB22E2AE030
:1016B00030E025C0F22FF97FBF2E8F36C1F018F42D
:1016C000883579F0B4C0803719F0883721F0AFC081
:1016D0002F2F2061B22EB4FE0DC08B2D8460B82E4A
:1016E00009C024FF0AC09F2F9660B92E06C028E0CB
:1016F00030E005C020E130E002C020E132E0F80136
:10170000B7FE07C060817181828193810C5F1F4F9A
:1017100006C06081718180E090E00E5F1F4FA401E0
:101720000E94690CA82EA818FB2DFF77BF2EB6FECD
:101730000BC02B2D2E7FA51450F4B4FE0AC0B2FCB2
:1017400008C02B2D2E7E05C07A2C2B2D03C07A2CA1
:1017500001C0752C24FF0DC0FE01EA0DF11D808132
:10176000803311F4297E09C022FF06C0739473945C
:1017700004C0822F867809F0739423FD13C020FFE4
:1017800006C05A2C731418F4530C5718732C731486
:1017900068F4B70180E290E02C870E94370C7394C4
:1017A0002C85F5CF731410F4371801C0312C24FFA9
:1017B00012C0B70180E390E02C870E94370C2C8583
:1017C00022FF17C021FF03C088E590E002C088E730
:1017D00090E0B7010CC0822F867859F021FD02C03D
:1017E00080E201C08BE227FD8DE2B70190E00E940C
:1017F000370CA51438F4B70180E390E00E94370C51
:101800005A94F7CFAA94F401EA0DF11D8081B70133
:1018100090E00E94370CA110F5CF332009F451CE8F
:10182000B70180E290E00E94370C3A94F6CFF701BE
:101830008681978102C08FEF9FEF2C96E2E10C9496
:10184000E30CFC010590615070400110D8F78095C1
:1018500090958E0F9F1F0895FC016150704001907C
:101860000110D8F7809590958E0F9F1F08950F93C4
:101870001F93CF93DF93182F092FEB018B8181FDED
:1018800003C08FEF9FEF20C082FF10C04E815F81A9
:101890002C813D81421753077CF4E881F9819F0137
:1018A0002F5F3F4F39832883108306C0E885F98571
:1018B000812F0995892B29F72E813F812F5F3F4F7B
:1018C0003F832E83812F902FDF91CF911F910F9116
:1018D0000895FA01AA27283051F1203181F1E894C6
:1018E0006F936E7F6E5F7F4F8F4F9F4FAF4FB1E013
:1018F0003ED0B4E03CD0670F781F891F9A1FA11D0E
:10190000680F791F8A1F911DA11D6A0F711D811D0E
:10191000911DA11D20D009F468943F912AE0269FD3
:1019200011243019305D3193DEF6CF010895462F32
:101930004770405D4193B3E00FD0C9F7F6CF462F13
:101940004F70405D4A3318F0495D31FD405241937C
:1019500002D0A9F7EACFB4E0A69597958795779539
:101960006795BA95C9F700976105710508959B01C0
:10197000AC010A2E06945795479537952795BA9549
:10198000C9F7620F731F841F951FA01D08952F9222
:101990003F924F925F926F927F928F929F92AF92FF
:1019A000BF92CF92DF92EF92FF920F931F93CF934C
:1019B000DF93CDB7DEB7CA1BDB0B0FB6F894DEBFE3
:1019C0000FBECDBF09942A88398848885F846E8409
:1019D0007D848C849B84AA84B984C884DF80EE8053
:1019E000FD800C811B81AA81B981CE0FD11D0FB65C
:1019F000F894DEBF0FBECDBFED010895F894FFCF80
:101A00000114FF5472696D6974652064696E206EFB
:101A10006F7520756C74696D756C206D6573616A86
:101A2000212121004D2D616D206F7072697421009C
:101A300053746172742046726565205020502050A6
:101A40002100537461727420636F6D706C657465EE
:101A500020656E636C6F73656420636F6E746F7561
:101A60007221004D612064756320696E61696E7436
:101A70006521004D612064756320696E61706F6936
:101A800021004D612064756320696E61696E746523
:101A9000207374616E676121004D6120647563205D
:101AA000696E61696E74652064726561707461212C
:101AB000004D612064756320696E61706F692073E9
:101AC00074616E676121004D612064756320696EE9
:101AD00061706F69206472656170746121006D616D
:101AE00020726F7465736320737072652064726511
:101AF00061707461006D6120726F7465736320732F
:101B0000707265207374616E67610020203E3E3EF6
:101B10006D61696E2073746172743C3C3C202000DE
:101B200046756E6374696120617374612065206419
:101B3000656A6120696E20636F616461212063754D
:101B40002064656C61793A20256C7500436F61648F
:101B50006120652066756C6C2100456E7472792079
:101B60006164617567617420696E20636F6164618F
:101B700021206C6120696E6465782025642073697A
:101B80002063752064656C61793A20256C75004589
:101B90006E7472792073746572732064696E206349
:101BA0006F6164612E20646520706520706F7A69B2
:101BB0007469612025640073656E7A6F7246617482
:101BC000613D2564202073656E7A6F724472656191
:101BD0007074613D2564202073746172653D2564D5
:101BE00000536120696E636570656D203A44006C36
:101BF0006564756C206120666F7374207374696E00
:101C0000732E006C6564756C206120666F737420A0
:101C1000617072696E732E006C6564756C207661FC
:101C20002027626C696E63617269272E0073656E8E
:101C3000736F722023303A202564007374617274CC
:101C40006564210073656E736F722023313A20251D
:101C50006400743A20256C750025642025640072A8
:0A1C600069676874006C6566740023
:00000001FF
