:100000000C9452000C946F000C946F000C946F00D1
:100010000C946F000C946F000C946F000C946F00A4
:100020000C946F000C946F000C946F000C946F0094
:100030000C946F000C946F000C946F000C944904A6
:100040000C946F000C946F000C946F000C946F0074
:100050000C9484040C946F000C946F000C946F004B
:100060000C946F000C946F000C946F000C946F0054
:100070000C946F000C946F000C946F0049014C01BC
:100080009B019B019B019B019B019B019B019B0190
:100090009B019B018D014F0154017E01870181016C
:1000A0009B01970111241FBECFEFD0E1DEBFCDBF72
:1000B00013E0A0E0B1E0E8E4F7E102C005900D92A2
:1000C000AC31B107D9F724E0ACE1B3E001C01D9237
:1000D000A734B207E1F70E94AA040C94A20B0C9477
:1000E000000010920201089583E38093C400E1ECC4
:1000F000F0E080818068808380818061808380815E
:10010000886080830895FC0101900020E9F7319711
:10011000E81BF90B2E2F3AEA3093C600AFE1BEE49C
:100120001197F1F700C0000034E13093C600AFE151
:10013000BEE41197F1F700C00000E093C600EFE1C4
:10014000FEE43197F1F700C00000222389F0382F38
:10015000E82FF92FA6ECB0E081918C938FE19EE41B
:100160000197F1F700C000008E2F831B8217A0F3C8
:1001700085E58093C600AFE1BEE41197F1F700C0BA
:1001800000000895CF93DF9370E06115710591F041
:10019000E82FF92F80E090E0A6ECB0E021912C93BD
:1001A000CFE1DEE42197F1F700C000000196861749
:1001B0009707A0F3DF91CF910895CF93DF9300D0FD
:1001C00000D0CDB7DEB783E091E09F938F930E947C
:1001D000BD088AEA898383E18A831B8285E58C8353
:1001E00064E0CE0101960E94C2000F900F900F9024
:1001F0000F900F900F90DF91CF9108951092020110
:1002000080E00E94600381E00E94600380E00E9421
:10021000600380E00E9460030895F89480912503B4
:100220009FEF980F963050F5909126036091270329
:100230008330A1F028F4813049F0823059F00895DC
:10024000853081F098F08630A9F00895892F0E94BA
:100250005C020895892F0E9480020895892F0E94D0
:10026000A4020895892F0E94E9020895892F0E940F
:10027000C5020895892F0E940A03089590E0FC01A9
:100280003897E431F10508F056C0E25CFF4F0C945A
:100290009D080E9417024FC00E9412024CC080911C
:1002A00026030E944D0747C0809127038130D1F477
:1002B0008091260381110AC021E040E452E46FE0FE
:1002C00070E088E797E00E94D90435C0813099F545
:1002D00021E040E452E46FE070E088E698E00E949C
:1002E000D90429C080912603811103C00E94780798
:1002F00022C0813001F50E9478071DC00E940502CE
:100300001AC060E0809126030E942E0314C061E0B1
:10031000809126030E942E030EC021E040E157E2A7
:1003200060E070E08DEA97E00E94D90404C00E946A
:1003300041070E94FE0078940895CF93C82F9091B2
:100340000201923069F128F4992349F09130D9F0F3
:100350005AC09330C9F1943009F448C054C08A3A65
:1003600009F051C0C1E0C09302011092000120E0E9
:1003700040E856E968E970E081E790E00E94D9041E
:10038000C093000140C08B3130F482E080930201C1
:10039000C093250338C0109202010E94DD0033C0D3
:1003A000811105C010923003109224030AC083E02B
:1003B00080930201C093300310922403C150C233D2
:1003C00010F1109202011FC0E091240381E08E0F12
:1003D00080932403F0E0EA5DFC4FC08390913003EA
:1003E000891788F084E0809302010DC081E790E0D6
:1003F0000E94C605C53519F00E94DD0002C00E94AA
:100400000D0110920201CF91089584E291E00E94C3
:10041000830088B18C7F88B940988FEF87BD809327
:10042000B300089580E391E00E948300089582E480
:1004300091E00E94830008958FEF87BD8093B30001
:100440001B9A84B5836084BD84B5806484BD84B503
:10045000806884BD85B5816085BD239A579AE0EB9D
:10046000F0E08081836080838081806480838081EC
:1004700080688083E1EBF0E0808181608083389A3E
:10048000399A88B18C7F88B940980895611101C06C
:100490004095811108C04093B300611102C040989B
:1004A0000895409A089547BD611104C088B18C7FBA
:1004B00088B90895419A0895CF93DF93D82FC62F16
:1004C000462F60E080E00E9446024C2F60E081E011
:1004D0000E944602AD2FB0E020E432E44FE050E04D
:1004E0000E94B208AB01BC0120E085E092E00E94CE
:1004F000D90483E691E00E948300DF91CF910895B3
:10050000CF93DF93D82FC62F462F61E080E00E9463
:1005100046024C2F61E081E00E944602AD2FB0E020
:1005200020E432E44FE050E00E94B208AB01BC018D
:1005300020E085E092E00E94D90483E791E00E94E8
:100540008300DF91CF910895CF93C82F462F60E0AD
:1005500080E00E9446024AE060E081E00E9446029C
:10056000AC2FB0E020E432E44FE050E00E94B2084B
:10057000AB01BC0120E085E092E00E94D90482E852
:1005800091E00E948300CF910895CF93DF93C82F0D
:10059000D62F4AE060E080E00E9446024D2F60E0E6
:1005A00081E00E944602AC2FB0E020E432E44FE04C
:1005B00050E00E94B208AB01BC0120E085E092E06F
:1005C0000E94D90489E991E00E948300DF91CF91D4
:1005D0000895CF93C82F462F61E080E00E94460225
:1005E0004AE061E081E00E944602AC2FB0E020E4E6
:1005F00032E44FE050E00E94B208AB01BC0120E0C1
:1006000085E092E00E94D90481EB91E00E94830092
:10061000CF910895CF93DF93C82FD62F4AE061E0A2
:1006200080E00E9446024D2F61E081E00E94460278
:10063000AC2FB0E020E432E44FE050E00E94B2087A
:10064000AB01BC0120E085E092E00E94D90487EC78
:1006500091E00E948300DF91CF910895CF93C82F3E
:1006600061110FC049E161E081E00E94460249E169
:1006700060E080E00E9446028EED91E00E948300DF
:100680000EC049E160E081E00E94460249E161E07C
:1006900080E00E94460285EF91E00E948300AC2F2B
:1006A000B0E020E432E44FE050E00E94B208AB0139
:1006B000BC0120E085E092E00E94D904CF9108952A
:1006C00090E0880F991FFC01EE0FFF1FEE0FFF1F38
:1006D000EE0FFF1FE81BF90BEF5CFC4F118210823D
:1006E0001382128215821482178216821186108656
:1006F00013861286089581E393E029E633E050E003
:1007000009C0119211924F5F4730D9F70E968217A8
:10071000930719F0FC01452FF4CFAAE7B0E08C91C4
:1007200087608C93ECE7F0E0808180648083808137
:100730008F7780838081806280838C9180688C93A6
:100740000895ECE7F0E09081907E90839081892B72
:100750008083EAE7F0E080818064808308956F926F
:100760007F928F929F92AF92BF92CF92DF92EF9241
:10077000FF920F931F93CF93DF93982E90E09C01ED
:10078000220F331FF901EE0FFF1FEE0FFF1FEE0FB9
:10079000FF1FE21BF30BEF5CFC4F118210825F0125
:1007A0006E2E7B2C0F2EF6E08F2EF02DCAE7D0E0B8
:1007B0000F2EF8E7CF2ED12CF02D8F01045F1F4FA5
:1007C0000F2EF9E7EF2EF12CF02D892D0E94A103B9
:1007D0005A2D4B2DE62DF72D882D22813381219323
:1007E00031938150D1F7888186FDFDCFF60180815C
:1007F000829586958695837090E0F8019183808339
:10080000F701208130E0220F331F220F331F822B8C
:10081000932BF80191838083F50180819181892B4D
:10082000A1F2E52FF42F40E050E020E0819191917A
:10083000480F591F2F5F2730C9F79A01A3E9B4E287
:100840000E94A308481B590B9A0136952795820FE1
:10085000931F9695879596958795DF91CF911F91D8
:100860000F91FF90EF90DF90CF90BF90AF909F904F
:100870008F907F906F900895EFE6F0E08081816027
:100880008083109285001092840081E08093810023
:1008900008951F920F920FB60F9211242F933F933A
:1008A0004F935F936F937F938F939F93AF93BF9378
:1008B000EF93FF9380911C0390911D03A0911E0361
:1008C000B0911F030196A11DB11D80931C0390934D
:1008D0001D03A0931E03B0931F0360E672E280E045
:1008E00090E00E944106FF91EF91BF91AF919F91DF
:1008F0008F917F916F915F914F913F912F910F90C9
:100900000FBE0F901F9018951F920F920FB60F9267
:1009100011242F933F934F935F936F937F938F9304
:100920009F93AF93BF93EF93FF938091C6000E9474
:100930009D01FF91EF91BF91AF919F918F917F9119
:100940006F915F914F913F912F910F900FBE0F903C
:100950001F9018950E9474000E943C040E94750725
:100960000E941C020E947B030E94BF0478948BE0CB
:1009700092E00E9483005E9A0E94D806FDCF4091CB
:1009800001014423A9F080E090E0FC01EE0FFF1F7D
:100990009C01220F331F220F331F220F331FE20F40
:1009A000F31FE759FC4F118610860196841768F3F0
:1009B0000895DF92EF92FF920F931F93CF93DF93EF
:1009C000CDB7DEB7CE56D1090FB6F894DEBF0FBE55
:1009D000CDBFF894D0900101DD2009F474C0E091FE
:1009E0007103F0917203EF2B09F474C0E09171036D
:1009F000F0917203E817F90709F05BC02DC07F0181
:100A0000DF01AA0FBB1FAA0FBB1FAA0FBB1F8F01BD
:100A1000000F111FA00FB11FA759BC4F18960D90C2
:100A2000BC91A02DAB2B09F44BC08F01000F111FFF
:100A3000DF01AA0FBB1FAA0FBB1FAA0FBB1FA00F6E
:100A4000B11FA759BC4F18960D90BC91A02D31969F
:100A5000A817B90781F502C0E12CF12C80910001A3
:100A6000F701EE0FFF1FEE0CFF1CEE0CFF1CEE0C4F
:100A7000FF1CEE0DFF1DE759FC4F80819181A28183
:100A8000B381BF93AF939F938F938BE192E09F933A
:100A90008F938E01055F1F4F1F930F930E94D10804
:100AA000C8010E9483000FB6F894DEBF0FBECDBF11
:100AB0005EC0E1E0F0E03E2FED1508F4A0CF01C0EC
:100AC000E32FED1108C08091000187E492E00E94BD
:100AD00083004DC030E0211104C010E0B0E0A0E080
:100AE00004C0142FB52FA62F272FE32FF0E0498342
:100AF0005A836B837C831D83BE83AF8328879A8749
:100B00008987CF01880F991FEE0FFF1FEE0FFF1F80
:100B1000EE0FFF1F8E0F9F1F87599C4F2AE0FE018B
:100B20003196DC0101900D922A95E1F720910001A8
:100B3000FC0180819181A281B381BF93AF939F9388
:100B40008F931F923F9385E592E09F938F938E0141
:100B5000055F1F4F1F930F930E94D108C8010E9489
:100B6000830078940FB6F894DEBF0FBECDBFC25994
:100B7000DF4F0FB6F894DEBF0FBECDBFDF91CF9130
:100B80001F910F91FF90EF90DF900895BF92CF9249
:100B9000DF92EF92FF920F931F93CF93DF93CDB726
:100BA000DEB7C456D1090FB6F894DEBF0FBECDBF75
:100BB0008C0180910101882309F452C0B12C0F2EC1
:100BC000FAE8CF2EF2E0DF2EF02DCE0101967C0167
:100BD0002B2D30E0F901EE0FFF1FC901880F991F7F
:100BE000880F991F880F991FE80FF91FE759FC4FCD
:100BF000408551854017510769F5C901880F991F34
:100C0000880F991F880F991FF901EE0FFF1FE80F3A
:100C1000F91FE759FC4F118610861082118212824B
:100C20001382148215821682178280910001882314
:100C300089F03F93BF92DF92CF92FF92EF920E9492
:100C4000D108C7010E9483000F900F900F900F9062
:100C50000F900F90B39480910101B81608F4B8CFAB
:100C6000CC59DF4F0FB6F894DEBF0FBECDBFDF917A
:100C7000CF911F910F91FF90EF90DF90CF90BF9099
:100C800008958F929F92AF92BF92DF92EF92FF9260
:100C90000F931F93CF93DF9310910101112309F458
:100CA0007BC020E030E0D12CE12CF12C00E0F901F8
:100CB000A901440F551F440F551F440F551FD9015B
:100CC000AA0FBB1FA40FB51FA759BC4F18964D9173
:100CD0005C911997452B09F45AC0A901440F551F7F
:100CE000440F551F440F551FD901AA0FBB1FA40F56
:100CF000B51FA759BC4F8D909D90AD90BC90892891
:100D00008A288B2809F443C0A901440F551F440FBA
:100D1000551F440F551FD901AA0FBB1FA40FB51FA4
:100D2000A759BC4F8D909D90AD90BC9068157905EA
:100D30008A059B05B8F4A901440F551F440F551FA0
:100D4000440F551FD901AA0FBB1FA40FB51FA759E8
:100D5000BC4F8D909D90AD90BC90861A970AA80AC2
:100D6000B90A04C08D2C9E2CAF2CB02EEF01CC0FF5
:100D7000DD1FEE0FFF1FEE0FFF1FEE0FFF1FEC0F2B
:100D8000FD1FE759FC4F80829182A282B3822F5FC0
:100D90003F4F211708F48BCFDF91CF911F910F9117
:100DA000FF90EF90DF90BF90AF909F908F9008954D
:100DB000EF92FF921F93CF93DF93F89480910101FC
:100DC000882309F457C010E0C12FD0E0FE01EE0FD8
:100DD000FF1FCE01880F991F880F991F880F991F39
:100DE000E80FF91FE759FC4F80859185892BE1F1C8
:100DF000CE01880F991F880F991F880F991FFE0138
:100E0000EE0FFF1FE80FF91FE759FC4F808191811A
:100E1000A281B381892B8A2B8B2B31F57F01008432
:100E2000F185E02D0995F70184819581A681B7812F
:100E3000892B8A2B8B2B49F084819581A681B781E0
:100E400080839183A283B3830FC0CE01880F991F43
:100E5000CC0FDD1FCC0FDD1FCC0FDD1FC80FD91F3E
:100E6000C759DC4F198618861F5F8091010118173A
:100E700008F4AACF7894DF91CF911F91FF90EF9063
:100E800008950E94BF04089580912303811104C036
:100E90009BB180E489278BB90895813071F018F0F7
:100EA0008230A9F0089584E497E00E94C6055E9818
:100EB00082EB92E00E948300089584E497E00E9410
:100EC000C6055E9A86EC92E00E948300089521E0B8
:100ED00040E251EA67E070E084E497E00E94D904C0
:100EE0008BED92E00E9483000895569A559A0895DA
:100EF0000F931F93CF93DF93CDB7DEB7C654D109BD
:100F00000FB6F894DEBF0FBECDBF80E00E94600335
:100F100080E00E94AF039F938F9380EF92E09F93B6
:100F20008F938E010F5F1F4F1F930F930E94D10865
:100F3000C8010E9483000F900F900F900F900F90A8
:100F40000F90CA5BDF4F0FB6F894DEBF0FBECDBF68
:100F5000DF91CF911F910F910895CF92DF92EF9281
:100F6000FF920F931F93CF93DF93809120038823E9
:100F700039F01092200310922103109222039FC097
:100F80008091220381112CC081E080932203109272
:100F90003D0410923E0410923F04109240041092BF
:100FA000390410923A0410923B0410923C041092BF
:100FB00035041092360410923704109238041092BF
:100FC00031041092320410923304109234046FEA08
:100FD0008CE30E945C028EEF92E00E9483006FC05F
:100FE0008091210381116BC00F2EF5E3EF2EF4E009
:100FF000FF2EF02DF70180819181A281B3810F2E08
:10100000F1E3CF2EF4E0DF2EF02DF6018083918303
:10101000A283B38309E314E0F80180819181A28166
:10102000B381F70180839183A283B383CDE3D4E0BE
:1010300088819981AA81BB81F80180839183A283F1
:10104000B38380E00E94AF03A0E0B0E0888399837F
:10105000AA83BB83F60180819181A281B381F701CC
:10106000C080D180E280F380F8010081118122816B
:101070003381488159816A817B818C0D9D1DAE1D14
:10108000BF1D800F911FA21FB31F840F951FA61FA6
:10109000B71F843B9440A105B10588F00E9405026A
:1010A00085E092E00E94C6058DEA97E00E94C605A1
:1010B0000E94780781E08093210380932003DF91D1
:1010C000CF911F910F91FF90EF90DF90CF900895F7
:1010D0000F931F93CF93DF93CDB7DEB7C654D109DB
:1010E0000FB6F894DEBF0FBECDBF81E00E94600353
:1010F00081E00E94AF039F938F9387E093E09F93DB
:101100008F938E010F5F1F4F1F930F930E94D10883
:10111000C8010E9483000F900F900F900F900F90C6
:101120000F90CA5BDF4F0FB6F894DEBF0FBECDBF86
:10113000DF91CF911F910F910895EE0FFF1F059042
:10114000F491E02D0994A29FB001B39FC001A39F29
:10115000700D811D1124911DB29F700D811D1124F0
:10116000911D08950E94A308A59F900DB49F900D16
:10117000A49F800D911D11240895A0E0B0E0E3EC40
:10118000F8E00C947B0BFE01359661917191AF01F3
:1011900080914304909144040E94F308E2E00C948F
:1011A000970BAEE0B0E0E7EDF8E00C94790B0D8919
:1011B0001E8986E08C831A8309838FEF9FE79E83C5
:1011C0008D83AE01475E5F4F6F89788DCE010196AA
:1011D0000E94F308EF81F885E00FF11F10822E9630
:1011E000E4E00C94950BACE0B0E0E9EFF8E00C948F
:1011F0006B0B7C016B018A01FC01178216828381D3
:1012000081FFBDC1CE0101964C01F7019381F6012A
:1012100093FD859193FF81916F01882309F4ABC100
:10122000853239F493FD859193FF81916F01853269
:1012300029F4B70190E00E94DB0AE7CF512C312C52
:1012400020E02032A0F48B3269F030F4803259F083
:10125000833269F420612CC08D3239F0803339F447
:10126000216026C02260246023C0286021C027FDA1
:1012700027C030ED380F3A3078F426FF06C0FAE088
:101280005F9E300D1124532E13C08AE0389E300D1E
:101290001124332E20620CC08E3221F426FD6BC146
:1012A000206406C08C3611F4206802C0883641F4F0
:1012B000F60193FD859193FF81916F018111C1CF5B
:1012C000982F9F7D9554933028F40C5F1F4FFFE3B8
:1012D000F9830DC0833631F0833771F0833509F01F
:1012E0005BC022C0F801808189830E5F1F4F4424B8
:1012F0004394512C540115C03801F2E06F0E711C5B
:10130000F801A080B18026FF03C0652D70E002C007
:101310006FEF7FEFC5012C870E94D00A2C0183015B
:101320002C852F77222E17C03801F2E06F0E711C2A
:10133000F801A080B18026FF03C0652D70E002C0D7
:101340006FEF7FEFC5012C870E94C50A2C012C8509
:101350002068222E830123FC1BC0832D90E04816B9
:101360005906B0F4B70180E290E00E94DB0A3A949B
:10137000F4CFF50127FC859127FE81915F01B7012C
:1013800090E00E94DB0A31103A94F1E04F1A5108C4
:101390004114510471F7E5C0843611F0893639F5EE
:1013A000F80127FF07C060817181828193810C5F02
:1013B0001F4F08C060817181882777FD8095982F25
:1013C0000E5F1F4F2F76B22E97FF09C09095809524
:1013D000709561957F4F8F4F9F4F2068B22E2AE006
:1013E00030E0A4010E940D0BA82EA81844C0853738
:1013F00029F42F7EB22E2AE030E025C0F22FF97FAB
:10140000BF2E8F36C1F018F4883579F0B4C080371C
:1014100019F0883721F0AFC02F2F2061B22EB4FE13
:101420000DC08B2D8460B82E09C024FF0AC09F2FE9
:101430009660B92E06C028E030E005C020E130E01B
:1014400002C020E132E0F801B7FE07C0608171817F
:10145000828193810C5F1F4F06C06081718180E0A3
:1014600090E00E5F1F4FA4010E940D0BA82EA8183C
:10147000FB2DFF77BF2EB6FE0BC02B2D2E7FA514A4
:1014800050F4B4FE0AC0B2FC08C02B2D2E7E05C05D
:101490007A2C2B2D03C07A2C01C0752C24FF0DC093
:1014A000FE01EA0DF11D8081803311F4297E09C00F
:1014B00022FF06C07394739404C0822F867809F0CB
:1014C000739423FD13C020FF06C05A2C731418F424
:1014D000530C5718732C731468F4B70180E290E032
:1014E0002C870E94DB0A73942C85F5CF731410F4BB
:1014F000371801C0312C24FF12C0B70180E390E0FF
:101500002C870E94DB0A2C8522FF17C021FF03C015
:1015100088E590E002C088E790E0B7010CC0822F18
:10152000867859F021FD02C080E201C08BE227FDE0
:101530008DE2B70190E00E94DB0AA51438F4B701F0
:1015400080E390E00E94DB0A5A94F7CFAA94F4015A
:10155000EA0DF11D8081B70190E00E94DB0AA11025
:10156000F5CF332009F451CEB70180E290E00E941C
:10157000DB0A3A94F6CFF7018681978102C08FEF9C
:101580009FEF2C96E2E10C94870BFC0105906150D3
:1015900070400110D8F7809590958E0F9F1F089589
:1015A000FC016150704001900110D8F78095909532
:1015B0008E0F9F1F08950F931F93CF93DF93182FC4
:1015C000092FEB018B8181FD03C08FEF9FEF20C0BE
:1015D00082FF10C04E815F812C813D8142175307ED
:1015E0007CF4E881F9819F012F5F3F4F3983288385
:1015F000108306C0E885F985812F0995892B29F785
:101600002E813F812F5F3F4F3F832E83812F902F6D
:10161000DF91CF911F910F910895FA01AA272830E9
:1016200051F1203181F1E8946F936E7F6E5F7F4FAF
:101630008F4F9F4FAF4FB1E03ED0B4E03CD0670F2B
:10164000781F891F9A1FA11D680F791F8A1F911D7E
:10165000A11D6A0F711D811D911DA11D20D009F4CE
:1016600068943F912AE0269F11243019305D319310
:10167000DEF6CF010895462F4770405D4193B3E0F9
:101680000FD0C9F7F6CF462F4F70405D4A3318F0A0
:10169000495D31FD4052419302D0A9F7EACFB4E051
:1016A000A6959795879577956795BA95C9F7009709
:1016B0006105710508959B01AC010A2E06945795AA
:1016C000479537952795BA95C9F7620F731F841F01
:1016D000951FA01D08952F923F924F925F926F9297
:1016E0007F928F929F92AF92BF92CF92DF92EF92B2
:1016F000FF920F931F93CF93DF93CDB7DEB7CA1B33
:10170000DB0B0FB6F894DEBF0FBECDBF09942A885D
:10171000398848885F846E847D848C849B84AA8405
:10172000B984C884DF80EE80FD800C811B81AA8192
:10173000B981CE0FD11D0FB6F894DEBF0FBECDBF5D
:08174000ED010895F894FFCFBC
:101748000114FF5472696D6974652064696E206EB6
:101758006F7520756C74696D756C206D6573616A41
:10176800212121004D2D616D206F70726974210057
:101778005374617274204672656520502050205061
:101788002100537461727420636F6D706C657465A9
:1017980020656E636C6F73656420636F6E746F751C
:1017A8007221004D612064756320696E61696E74F1
:1017B8006521004D612064756320696E61706F69F1
:1017C80021004D612064756320696E61696E7465DE
:1017D800207374616E676121004D61206475632018
:1017E800696E61696E7465206472656170746121E7
:1017F800004D612064756320696E61706F692073A4
:1018080074616E676121004D612064756320696EA3
:1018180061706F69206472656170746121006D6127
:1018280020726F74657363207370726520647265CB
:1018380061707461006D6120726F746573632073E9
:10184800707265207374616E6761002D6D61696ED9
:101858002073746172743132332D0046756E63746F
:101868006961206173746120652064656A6120691B
:101878006E20636F616461212063752064656C610B
:10188800793A20256C7500436F6164612065206694
:10189800756C6C2100456E7472792061646175679E
:1018A800617420696E20636F61646121206C61201E
:1018B800696E6465782025642073692063752064E7
:1018C800656C61793A20256C7500456E74727920D3
:1018D80073746572732064696E20636F6164612E2E
:1018E80020646520706520706F7A697469612025AD
:1018F80064006C6564756C206120666F7374207376
:1019080074696E732E006C6564756C206120666F57
:10191800737420617072696E732E006C6564756CE7
:101928002076612027626C696E63617269272E00D8
:1019380073656E736F722023303A202564007374C8
:101948006172746564210073656E736F7220233150
:0C1958003A20256400743A20256C7500CC
:00000001FF
