:100000000C94BC000C94D9000C94D9000C94D90029
:100010000C94D9000C9486030C94D9000C94D9004C
:100020000C94D9000C94D9000C94D9000C94D900EC
:100030000C94D9000C94D9000C94D9000C944A105B
:100040000C94D9000C94D9000C94D9000C94D900CC
:100050000C947A020C94D9000C94D9000C94D90019
:100060000C94D9000C94D9000C94D9000C94D900AC
:100070000C94D9000C94D9000C94D90052014A0177
:100080008601A40135013801A4018301A401A40162
:10009000A401A401A201A401A401A4015A013B01ED
:1000A00042014701630168015D019F0196018316CA
:1000B0009016A1160B175F17701780179617A417C5
:1000C000F81745189B183519421942194219421957
:1000D0004219421942194219421942194219421948
:1000E0004219421942194219421942194219421938
:1000F000EA15371642194219421942194219421992
:100100004219421942194219421942194219421917
:100110004219421942194219421942194219421907
:1001200042194219421942194219421942194219F7
:1001300042194219421942194219421942194219E7
:1001400042194219421942194219421942194219D7
:1001500042194219421942194219421942194219C7
:1001600042194219421942194219421942194219B7
:10017000421942194219B21611241FBECFEFD0E125
:10018000DEBFCDBF14E0A0E0B1E0E4E2F9E302C0DD
:1001900005900D92AE30B107D9F725E0AEE0B4E09E
:1001A00001C01D92A03FB207E1F70E94B60D0C946A
:1001B000901C0C9400001092150480E008950F9399
:1001C000CF93DF9380911F049FEF980F963008F034
:1001D00041C0C0912004D091210490911A04933021
:1001E00019F480E00E940A0E90911F049330B1F040
:1001F00028F4913049F0923061F023C0953099F0A5
:10020000B8F09630D1F01DC06D2F8C2F0E944C0598
:1002100018C06D2F8C2F0E947C0513C06D2F8C2F62
:100220000E94AC050EC06D2F8C2F0E940B0609C0DA
:100230006D2F8C2F0E94DA0504C06D2F8C2F0E9429
:10024000390680911A04833009F07EC081E00E9453
:100250000A0E7AC090E0FC013797E931F10508F009
:1002600073C0E25CFF4F0C948B190E94920D6CC01E
:100270000E94F70469C060912104809120040E94CB
:100280004E1362C0809120040E9414085DC00E9439
:10029000DC045AC041E060912104809120040E9456
:1002A000250752C040E060912104809120040E9403
:1002B00025074AC00E94591347C00E94DC0481E010
:1002C0000E94C31141C0809120040E94FB033CC0E6
:1002D00080912A048330C0F160912004862F90E041
:1002E000A0E0B0E0BA2FA92F982F882720912104F1
:1002F000BC01CD01620F711D811D911D4091220431
:100300000E94651321C00E94D2141EC080912A044D
:100310008430D0F0009123042091220440912104E4
:100320006091200482E00E946A060EC080912A0437
:10033000813051F4809120040E944D0E05C00E942E
:100340002D0E02C00E94C808DF91CF910F91089531
:10035000FC0101900020E9F73197E81BF90B2E2FE3
:100360003AEA3093C600ABEDB5E01197F1F700C063
:10037000000037E13093C600ABEDB5E01197F1F71F
:1003800000C00000E093C600EBEDF5E03197F1F717
:1003900000C00000222389F0382FE82FF92FA6ECA7
:1003A000B0E081918C938BED95E00197F1F700C05F
:1003B00000008E2F831B8217A0F385E58093C60073
:1003C000ABEDB5E01197F1F700C000000895CF93B1
:1003D000DF9370E06115710591F0E82FF92F80E04F
:1003E00090E0A6ECB0E021912C93CBEDD5E02197E5
:1003F000F1F700C00000019686179707A0F3DF9180
:10040000CF910895CF93DF9300D000D0CDB7DEB762
:1004100082E091E09F938F930E94AB198AEA8983CF
:1004200086E18A831B8285E58C8364E0CE01019698
:100430000E94E7010F900F900F900F900F900F9078
:10044000DF91CF910895F894909115049230F9F0CE
:1004500028F4992341F0913069F04AC0933049F172
:100460009430C9F145C08A3A09F042C081E08093D6
:1004700015043EC0813230F492E0909315048093CD
:100480001F0436C0109215040E94020231C081116F
:1004900004C084E0809315042BC093E0909315046E
:1004A00080932A0410921A04833310F110921504D9
:1004B0001FC0E0911A0491E09E0F90931A04F0E09F
:1004C000E05EFB4F808380912A04981788F084E0D7
:1004D000809315040DC0853519F00E94020206C0F4
:1004E0008BED90E00E94BB100E94DF00109215047B
:1004F000789408951F920F920FB60F9211242F93A4
:100500003F934F935F936F937F938F939F93AF939B
:10051000BF93EF93FF938091C6000E942302FF9147
:10052000EF91BF91AF919F918F917F916F915F916B
:100530004F913F912F910F900FBE0F901F901895E4
:10054000CF93DF9370E06115710591F0E82FF92FDB
:1005500080E090E0A6ECB0E021912C93CBEDD5E0CB
:100560002197F1F700C00000019686179707A0F3C6
:10057000DF91CF910895CF93DF9300D000D0CDB716
:10058000DEB78AEA898380E28A831B8285E58C83D1
:1005900064E0CE0101960E94A0020F900F900F9090
:1005A0000F90DF91CF91089589E18093C400E1EC31
:1005B000F0E0808180688083808180618083808199
:1005C000886080831092150408958091000180FF57
:1005D00022C080910F0490911004A0911104B09159
:1005E00012040296A11DB11D80930F049093100474
:1005F000A0931104B093120480910E048F5F809336
:100600000E0480910E04837031F09091000181E01E
:1006100089278093000180E008950F931F93CF9363
:10062000DF93CDB7DEB764970FB6F894DEBF0FBE89
:10063000CDBF8091000181FF5DC09091000182E0FB
:1006400089278093000180912B0490912C04A09124
:100650002D04B0912E0440913104509132046091E8
:10066000330470913404840F951FA61FB71FAC018B
:10067000BD01440F551F661F771F440F551F661F8E
:10068000771F8A019B01000F111F221F331F000FCC
:10069000111F221F331F400F511F621F731F840F32
:1006A000951FA61FB71FAC01BD017695679557959D
:1006B0004795769567955795479580910F0490914A
:1006C0001004A0911104B09112042AEA298322E1B6
:1006D0002A8328E02B837C836D835E834F83B887D6
:1006E000A9879A878B8785E58C876CE0CE01019678
:1006F0000E94A00280E064960FB6F894DEBF0FBEA1
:10070000CDBFDF91CF911F910F9108951F920F924E
:100710000FB60F9211242F933F934F935F936F93D4
:100720007F938F939F93AF93BF93EF93FF9383B187
:100730009091300481709817B9F083B181708093E3
:10074000300480912B0490912C04A0912D04B09141
:100750002E040196A11DB11D80932B0490932C04AF
:10076000A0932D04B0932E0493B180912F04907820
:100770009817B9F083B1807880932F048091310469
:1007800090913204A0913304B09134040196A11DDC
:10079000B11D8093310490933204A0933304B0933D
:1007A000340480910001837071F485E0809300012E
:1007B00010920E0421E040E45DE063E070E085EE1D
:1007C00092E00E94460F80910001836080930001B7
:1007D00010920E04FF91EF91BF91AF919F918F9175
:1007E0007F916F915F914F913F912F910F900FBE2D
:1007F0000F901F901895FF920F931F93CF93DF9345
:10080000CDB7DEB7C456D1090FB6F894DEBF0FBE20
:10081000CDBFF82E00910F04109110042091110407
:100820003091120480912B0490912C04A0912D04FE
:10083000B0912E0440913104509132046091330400
:10084000709134043F932F931F930F938A019B0160
:10085000080F191F2A1F3B1FD901C801880F991FB4
:10086000AA1FBB1F880F991FAA1FBB1FAC01BD0188
:10087000440F551F661F771F440F551F661F771FB4
:10088000840F951FA61FB71F080F191F2A1F3B1F94
:10089000B901A8017695679557954795769567951F
:1008A000579547957F936F935F934F9383E291E0C2
:1008B0009F938F938E010F5F1F4F1F930F930E9483
:1008C000BF19C8010E94A8018DE093E00E94180F93
:1008D0000FB6F894DEBF0FBECDBF81110AC021E074
:1008E00048E256E46FE070E08DE093E00E94950EE0
:1008F00004C08DE093E00E94BB10FF20C1F0109275
:100900002B0410922C0410922D0410922E0410929D
:100910003104109232041092330410923404109275
:100920000F04109210041092110410921204CC596A
:10093000DF4F0FB6F894DEBF0FBECDBFDF91CF9172
:100940001F910F91FF90089510922B0410922C0488
:1009500010922D0410922E04109231041092320441
:1009600010923304109234041092300410922F0429
:100970000895ECE6F0E0808181608083209880819A
:10098000806880832798E8E6F0E080818260808339
:100990000E94A4040895882351F021E040E251EA26
:1009A00067E070E08DE093E00E94460F08958DE0CF
:1009B00093E00E94BB10089517BC1092B3008BB156
:1009C000887F8BB98BB1807E8BB98BB1807F8BB9DF
:1009D0008BB1807C8BB90E94B4078091130480FF97
:1009E00004C08FE391E00E94A80180E00895809107
:1009F000130480FF04C08BE491E00E94A8010895D5
:100A000017BC1092B300239A84B5836084BD84B56B
:100A1000806484BD84B5806884BD85B5816085BDF2
:100A2000579AE0EBF0E0808183608083808180646E
:100A30008083808180688083E1EBF0E08081816049
:100A40008083259A2D9A249A2C9A539A559A8BB181
:100A5000807F8BB98BB1807C8BB9529A549A8BB1C1
:100A6000887F8BB98BB1807E8BB9089540958111B9
:100A70000AC0662319F05B9A5D9802C05B985D9A84
:100A80004093B3000895662319F05A985C9A02C007
:100A90005A9A5C9847BD0895CF93DF93D82FC62FFD
:100AA000462F60E080E00E9436054C2F60E081E038
:100AB0000E943605AD2FB0E020E432E44FE050E074
:100AC0000E94A019AB01BC0120E08CED94E00E94D3
:100AD000460F20E030E0A90160E070E0CB010E9409
:100AE00085078091130480FF04C08EE791E00E9487
:100AF000A801DF91CF910895CF93DF93D82FC62F10
:100B0000462F61E080E00E9436054C2F61E081E0D5
:100B10000E943605AD2FB0E020E432E44FE050E013
:100B20000E94A019AB01BC0120E08CED94E00E9472
:100B3000460F20E030E0A90160E070E0CB010E94A8
:100B400085078091130480FF04C08EE891E00E9425
:100B5000A801DF91CF910895CF93C82F462F60E071
:100B600080E00E9436054AE060E081E00E943605A0
:100B7000AC2FB0E020E432E44FE050E00E94A01936
:100B8000AB01BC0120E08CED94E00E94460F20E018
:100B900030E0A90160E271EA87E090E00E948507F9
:100BA0008091130480FF04C08DE991E00E94A801A8
:100BB000CF910895CF93DF93C82FD62F4AE060E0FE
:100BC00080E00E9436054D2F60E081E00E943605EE
:100BD000AC2FB0E020E432E44FE050E00E94A019D6
:100BE000AB01BC0120E08CED94E00E94460F20E2B6
:100BF00031EA47E050E060E070E0CB010E948507F9
:100C00008091130480FF04C084EB91E00E94A8014E
:100C1000DF91CF910895CF93C82F462F61E080E0F8
:100C20000E9436054AE061E081E00E943605AC2F63
:100C3000B0E020E432E44FE050E00E94A019AB01A4
:100C4000BC0120E08CED94E00E94460F20E030E0F3
:100C5000A90160E271EA87E090E00E948507809137
:100C6000130480FF04C08CEC91E00E94A801CF9196
:100C70000895CF93DF93C82FD62F4AE061E080E03C
:100C80000E9436054D2F61E081E00E943605AC2FB1
:100C9000B0E020E432E44FE050E00E94A019AB0144
:100CA000BC0120E08CED94E00E94460F20E231EA86
:100CB00047E050E060E070E0CB010E948507809142
:100CC000130480FF04C082EE91E00E94A801DF912E
:100CD000CF910895DF92EF92FF920F931F93CF93DE
:100CE000DF93CDB7DEB7C456D1090FB6F894DEBF97
:100CF0000FBECDBFD82EE62EF42E122F402F622F1E
:100D000080E00E9436054F2D6E2D81E00E94360551
:100D1000AD2DB0E020E432E44FE050E00E94A01995
:100D2000AB01BC0120E08CED94E00E94460F111154
:100D30000DC081E0E81218C020E030E0A90160E2B7
:100D400071EA87E090E00E94850751C0113079F583
:100D5000E1102DC020E231EA47E050E060E070E0B1
:100D6000CB010E94850743C0E11021C00F1550F44C
:100D700020E231EA47E050E060E070E0CB010E9401
:100D8000850735C0F01650F420E030E0A90160E29C
:100D900071EA87E090E00E94850729C020E030E0FA
:100DA000A90160E070E0CB010E94850720C0F01629
:100DB00050F420E030E0A90160E271EA87E090E0C1
:100DC0000E94850714C00F1550F420E231EA47E075
:100DD00050E060E070E0CB010E94850708C020E091
:100DE00030E0A90160E070E0CB010E9485078091AE
:100DF000130480FF1BC01F920F931F921F931F921B
:100E0000FF921F92EF9289EF91E09F938F938E0153
:100E10000F5F1F4F1F930F930E94BF19C8010E94BD
:100E2000A8010FB6F894DEBF0FBECDBFCC59DF4F7F
:100E30000FB6F894DEBF0FBECDBFDF91CF911F91EB
:100E40000F91FF90EF90DF900895CF93DF93D82F0D
:100E5000C62F41111CC0462F61E081E00E9436057B
:100E60004C2F60E080E00E9436058091130480FFE3
:100E700004C087E192E00E94A80120E030E0A901CF
:100E800060E271EA87E090E00E9485071BC0462F70
:100E900060E081E00E9436054C2F61E080E00E9416
:100EA00036058091130480FF04C08EE292E00E9418
:100EB000A80120E231EA47E050E060E070E0CB01B9
:100EC0000E948507AD2FB0E020E432E44FE050E00F
:100ED0000E94A019AB01BC0120E08CED94E00E94BF
:100EE000460FDF91CF91089592B180E2892782B9B0
:100EF00080E0089592B180E1892782B980E0089569
:100F00000C9A0D9A149A159A0895CF92DF92EF9247
:100F1000FF9269017A01611571058105910531F42E
:100F200084E797E00E94BB10149807C021E0AB0152
:100F3000BC0184E797E00E94460FC114D104E1048C
:100F4000F10431F48AE797E00E94BB10159807C0BE
:100F500021E0B701A6018AE797E00E94460FFF90C3
:100F6000EF90DF90CF90089584E797E00E94BB1048
:100F70008AE797E00E94BB10159814980895EF92A5
:100F8000FF920F931F93CF93DF93C0E0D0E00F2E1B
:100F9000F4E4EF2EF2E0FF2EF02D0DE414E080914A
:100FA000800490E00C2E02C0959587950A94E2F794
:100FB00080FF22C0FE01EE0FFF1FEE0FFF1FE35C5C
:100FC000FB4F40815181628173817F936F935F9367
:100FD0004F93DF93CF93FF92EF921F930F930E9453
:100FE000BF19C8010E94A8018DB79EB70A960FB617
:100FF000F8949EBF0FBE8DBF2196C430D10579F6FF
:1010000080E0DF91CF911F910F91FF90EF900895B5
:1010100024E0829FC0011124FC01E35CFB4F80812E
:101020009181A281B3810895CF93DF934091800491
:1010300021E030E0B90102C0660F771F8A95E2F720
:10104000CB01842780938004309180042091800418
:10105000909180048091800433FB332730F91F92F4
:101060003F9322FB222720F91F922F939695917090
:101070001F929F9381701F928F9385E592E09F93BB
:101080008F93CDE4D4E0DF93CF930E94BF19CE01BC
:101090000E94A80130917F0420917F0490917F04E9
:1010A00080917F0433FB332730F91F923F9322FB5B
:1010B000222720F91F922F93969591701F929F934C
:1010C00081701F928F9380E792E09F938F93DF93BD
:1010D000CF930E94BF19CE010E94A8018FEB97E029
:1010E0000E94180F909180046DB77EB7685E7F4FA5
:1010F0000FB6F8947EBF0FBE6DBF992361F08111CA
:1011000015C021E040E452E46FE070E08FEB97E01F
:101110000E94950E0FC09091800491110BC08823FE
:1011200049F08FEB97E00E94BB1004C080918004CF
:101130008823B9F3DF91CF910895882369F08FE078
:1011400080937F0421E040E553EC60E070E086E4AA
:101150009AE00E94460F089586E49AE00E94BB1030
:101160000895882351F021E040EB51E76BE070E0F7
:1011700088EC98E00E94460F089588EC98E00E9461
:10118000BB100895FC0170836183528343830895EB
:10119000CF93DF93CDB7DEB764970FB6F894DEBF79
:1011A0000FBECDBF8AEA898383E18A8380E18B8386
:1011B00040913D0450913E0460913F047091400481
:1011C000CE0104960E94C20840914104509142040D
:1011D0006091430470914404CE0108960E94C208B5
:1011E0004091450450914604609147047091480431
:1011F000CE010C960E94C2084091490450914A04C5
:1012000060914B0470914C04CE0140960E94C2083C
:1012100085E58C8B64E1CE0101960E94A00280E0FE
:1012200064960FB6F894DEBF0FBECDBFDF91CF91AD
:101230000895AAE7B0E08C9187608C93ECE7F0E02A
:1012400080818064808380818F77808380818062C9
:1012500080838C9180688C931092800410927F041C
:101260000895ECE7F0E09081907E90839081892B47
:101270008083EAE7F0E080818064808308950E94A3
:101280003109EAE7F0E0808186FDFDCF209178000A
:1012900022952695269523708091790090E0880FFD
:1012A000991F880F991F822B08958F929F92AF925A
:1012B000BF92CF92DF92EF92FF920F931F93CF9343
:1012C000DF93CDB7DEB72E970FB6F894DEBF0FBE13
:1012D000CDBF182F9E012F5F3F4F79016E013FE078
:1012E000C30ED11C812F0E943F09F7018193919376
:1012F0007F01EC15FD05B1F721E030E080E001E071
:10130000F12C90E0D12CE12C32C0482F50E0FA01B2
:10131000EE0FFF1FAA24A394B12CAC0EBD1EEA0D44
:10132000FB1D608171814A01EFEF8E1A9E0AD40184
:10133000AA0FBB1FAA0DBB1D0D90BC91A02DA61717
:10134000B70780F4440F551F4A0D5B1DFA01B183A6
:10135000A083F401EE0FFF1FEA0DFB1D7183608374
:101360002D2D3E2D8F5F03C0202F3F2D892F8630DE
:1013700060F2232BC9F32F8138858D819E81280F40
:10138000391F89859A85280F391FABEABAEA0E946E
:10139000911996958795412F50E0FA01EE0FFF1FA6
:1013A000EB5CFB4F60817181672B41F4FA01EE0F1A
:1013B000FF1FEB5CFB4F9183808320C0FA01EE0F8F
:1013C000FF1FEB5CFB4F20813181B901660F771F56
:1013D000260F371F220F331F880F991F880F991F61
:1013E000280F391FADECBCEC0E949119969587959A
:1013F0009695879596958795918380831230D0F442
:10140000FA01EE0FFF1FEB5CFB4F2081318122952B
:101410003295307F3227207F32272B53314040E0F6
:1014200050E061E57CEE84E090E00E946919CA0119
:10143000B90119C0FA01EE0FFF1FEB5CFB4F2081D1
:10144000318122953295307F3227207F32272850F4
:10145000324040E050E06DEF7DEB8BE090E00E9489
:101460006919CA01B9012E960FB6F894DEBF0FBEF6
:10147000CDBFDF91CF911F910F91FF90EF90DF9043
:10148000CF90BF90AF909F908F90089580917F04F0
:1014900080FF0BC080E00E94550960933D0470936B
:1014A0003E0480933F049093400480917F0481FF29
:1014B0000BC081E00E94550960934104709342047F
:1014C000809343049093440480917F0482FF0BC077
:1014D00082E00E945509609345047093460480930E
:1014E00047049093480480917F0483FF0BC083E0FE
:1014F0000E9455096093490470934A0480934B04F9
:1015000090934C0480E008954F925F926F927F9287
:101510008F929F92AF92BF92CF92DF92EF92FF9203
:101520000F931F93CF93DF93CDB7DEB7C456D10986
:101530000FB6F894DEBF0FBECDBF81E00E94080851
:101540006C01E12CF12C80918504823009F4D8C023
:1015500028F4882351F08130C9F0C7C2833009F4E0
:1015600071C1843009F478C2C0C2C0928B04D09299
:101570008C04E0928D04F0928E0462E38CE30E946E
:101580004C0581E08093850480E0B4C280918B0497
:1015900090918C04A0918D04B0918E048C599F4F32
:1015A000AF4FBF4F8C159D05AE05BF0508F09EC01F
:1015B00082E08093850480912B0490912C04A0916B
:1015C0002D04B0912E044091310450913204609169
:1015D000330470913404480F591F6A1F7B1F76959E
:1015E0006795579547957695679557954795DB018C
:1015F000CA01880F991FAA1FBB1F880F991FAA1F16
:10160000BB1F8C019D01000F111F221F331F000FF4
:10161000111F221F331F800F911FA21FB31F840FA2
:10162000951FA61FB71F8093810490938204A093F7
:101630008304B093840440912B0450912C04609156
:101640002D0470912E0400913104109132042091E8
:10165000330430913404400F511F621F731F76957D
:1016600067955795479576956795579547958A015C
:101670009B01000F111F221F331F000F111F221F7C
:10168000331F48015901880C991CAA1CBB1C880CEB
:10169000991CAA1CBB1C080D191D2A1D3B1D400FBF
:1016A000511F621F731F4C595F4F6F4F7F4F409305
:1016B0008604509387046093880470938904BF93D1
:1016C000AF939F938F938FE892E09F938F938E01B8
:1016D0000F5F1F4F1F930F930E94BF19C8010E94F5
:1016E000A8010FB6F894DEBF0FBECDBFC0928B0429
:1016F000D0928C04E0928D04F0928E0480E0FAC1C6
:1017000080912B0490912C04A0912D04B0912E0473
:10171000409131045091320460913304709134044B
:10172000840F951FA61FB71FB695A7959795879508
:10173000B695A79597958795AC01BD01440F551FA8
:10174000661F771F440F551F661F771F8A019B0175
:10175000000F111F221F331F000F111F221F331FE5
:10176000400F511F621F731F840F951FA61FB71FC5
:101770000091860410918704209188043091890497
:10178000081719072A073B0708F0B1C183E08093C7
:101790008504C0928B04D0928C04E0928D04F09268
:1017A0008E0480912B0490912C04A0912D04B09173
:1017B0002E044091310450913204609133047091B1
:1017C0003404480F591F6A1F7B1F769567955795FC
:1017D00047957695679557954795DB01CA01880F20
:1017E000991FAA1FBB1F880F991FAA1FBB1F8C011F
:1017F0009D01000F111F221F331F000F111F221FF9
:10180000331F800F911FA21FB31F840F951FA61FA8
:10181000B71FBF93AF939F938F9383EA92E09F93F9
:101820008F938E010F5F1F4F1F930F930E94BF195D
:10183000C8010E94A8010FB6F894DEBF0FBECDBF4D
:1018400080E058C180918B0490918C04A0918D040C
:10185000B0918E048C599F4FAF4FBF4F8C159D0593
:10186000AE05BF0508F0EEC040912B0450912C044A
:1018700060912D0470912E04009131041091320476
:10188000209133043091340480902B0490902C04E8
:10189000A0902D04B0902E048091310490913204D8
:1018A000A0913304B0913404040F151F261F371F75
:1018B000369527951795079536952795179507958A
:1018C000B901A801440F551F661F771F440F551F0C
:1018D000661F771F2A013B01440C551C661C771CB0
:1018E000440C551C661C771C440D551D661D771D48
:1018F000040F151F261F371F40908104509082044B
:10190000609083047090840404191509260937092E
:101910003695279517950795880D991DAA1DBB1D0E
:10192000B695A79597958795B695A7959795879519
:10193000AC01BD01440F551F661F771F440F551F93
:10194000661F771F4A015B01880C991CAA1CBB1CEF
:10195000880C991CAA1CBB1C480D591D6A1D7B1DB7
:10196000840F951FA61FB71F800F911FA21FB31FC3
:101970008093810490938204A0938304B0938404A1
:1019800084E08093850468E28CE30E947C0580916A
:101990002B0490912C04A0912D04B0912E04409121
:1019A0003104509132046091330470913404480F33
:1019B000591F6A1F7B1F76956795579547957695B2
:1019C000679557954795DB01CA01880F991FAA1F94
:1019D000BB1F880F991FAA1FBB1F8C019D01000F01
:1019E000111F221F331F000F111F221F331F800FD3
:1019F000911FA21FB31F840F951FA61FB71FBF9370
:101A0000AF939F938F93809184048F9380918304ED
:101A10008F93809182048F93809181048F9384EBC4
:101A200092E09F938F938E010F5F1F4F1F930F9331
:101A30000E94BF19C8010E94A8010FB6F894DEBF2A
:101A40000FBECDBFC0928B04D0928C04E0928D0467
:101A5000F0928E0480E04EC080912B0490912C0473
:101A6000A0912D04B0912E04409131045091320484
:101A70006091330470913404840F951FA61FB71F23
:101A8000B695A79597958795B695A79597958795B8
:101A9000AC01BD01440F551F661F771F440F551F32
:101AA000661F771F6A017B01CC0CDD1CEE1CFF1C3E
:101AB000CC0CDD1CEE1CFF1C4C0D5D1D6E1D7F1D36
:101AC000840F951FA61FB71FC0908104D090820479
:101AD000E0908304F0908404C816D906EA06FB0659
:101AE00040F40E94DC0481E005C080E003C080E097
:101AF00001C080E0CC59DF4F0FB6F894DEBF0FBEB7
:101B0000CDBFDF91CF911F910F91FF90EF90DF90AC
:101B1000CF90BF90AF909F908F907F906F905F908D
:101B20004F9008951092850410928B0410928C04AB
:101B300010928D0410928E041092810410928204EF
:101B400010928304109284041092860410928704E9
:101B5000109288041092890421E040EF59E462E079
:101B600070E084E89AE00E94460F08950E94D40233
:101B70000E947E0E0E9400050E9480070E941909A3
:101B80000E94B904789481E00E94D20D81E00E9405
:101B9000DD0D8EEE92E00E94A8010E94BB020E9421
:101BA0002A11FDCF20911304909113048227282F2E
:101BB000217092279093130408953091130420917B
:101BC0001304982F91709195932792709227909378
:101BD00013040E949D08089530911304209113046A
:101BE000982F917091959327947092279093130456
:101BF0000E94CB0408953091130420911304982F70
:101C000091709195932798709227909313040E9456
:101C1000B1080895811111C08091130480FF1CC088
:101C200080E00E94D20D809113049091130480955E
:101C3000807189278093130408958091130484FF91
:101C40000BC081E00E94D20D809113049091130487
:101C500080718927809313040895CF93DF9300D078
:101C600000D000D0CDB7DEB78AEA898384E18A83C9
:101C700081E08B83809113048C8385E58D8365E0FF
:101C8000CE0101960E94A00226960FB6F894DEBF00
:101C90000FBECDBFDF91CF910895CF93C82F817034
:101CA0000E94D20DC1FB882780F90E94DD0DC2FB86
:101CB000882780F90E94EC0DC3FB882780F90E94D9
:101CC000FB0D0E942D0ECF91089580E090E0FC0165
:101CD000EE0FFF1F9C01220F331F220F331F220F15
:101CE000331FE20FF31FE856FB4F11861086019653
:101CF0008431910561F710926A0508951092940459
:101D00001092950410929604109297040E94650E0A
:101D1000EFE6F0E080818160808310928500109270
:101D2000840081E08093810008950F931F93CF93E7
:101D3000DF93CDB7DEB7CE56D1090FB6F894DEBF2C
:101D40000FBECDBFF894211105C0B0E0A0E0F0E0D7
:101D5000E0E004C0B42FA52FF62FE72F20916A05ED
:101D600030E049835A836B837C83BD83AE83FF83DA
:101D7000E8879A878987D901AA0FBB1F220F331FD3
:101D8000220F331F220F331FA20FB31FA856BB4FC2
:101D90008AE0FE01319601900D928A95E1F78091DB
:101DA0006A058F5F80936A058091130480FF33C0BA
:101DB00080916A0590E00197FC01EE0FFF1F880FEC
:101DC000991F880F991F880F991FE80FF91FE85670
:101DD000FB4F80819181A281B38120916A05BF93DD
:101DE000AF939F938F93822F90E001979F938F9350
:101DF00083E093E09F938F938E01055F1F4F1F93A6
:101E00000F930E94BF19C8010E94A8010FB6F89451
:101E1000DEBF0FBECDBF7894C259DF4F0FB6F89426
:101E2000DEBF0FBECDBFDF91CF911F910F910895FF
:101E300020916A05222321F12091A0043091A10470
:101E400028173907F9F040E014C0242F30E0F901D9
:101E5000EE0FFF1F220F331F220F331F220F331FDE
:101E6000E20FF31FE856FB4F20853185281739070D
:101E700059F04F5F20916A05421738F380E00895CA
:101E800080E0089581E0089581E008950F931F9305
:101E9000CF93DF93C22FF89420916A05222309F48F
:101EA00059C0E091A004F091A104E817F90709F0E6
:101EB00049C018C0ED2FF0E08F01000F111FDF01A6
:101EC000AA0FBB1FAA0FBB1FAA0FBB1FA00FB11FDA
:101ED000A856BB4F18960D90BC91A02DA817B90716
:101EE00091F503C0E0E0F0E0D0E09F01220F331F46
:101EF000220F331F220F331FDF01AA0FBB1FA20FB8
:101F0000B31FA856BB4F4D935D936D937C9313976E
:101F1000C11104C000E010E0980102C08A019B01D9
:101F2000DF01AA0FBB1FEE0FFF1FEE0FFF1FEE0F0B
:101F3000FF1FEA0FFB1FE856FB4F04831583268320
:101F4000378309C0D0E0DF5F20916A05D21708F41B
:101F5000B1CF01C0D0E020916A05D21303C02C2F6D
:101F60000E94950E7894DF91CF911F910F91089563
:101F70008F929F92AF92BF92FF920F931F93CF9336
:101F8000DF9320916A05222309F47AC0C0E0F12C86
:101F900000E010E0D0E02C2F30E0F901EE0FFF1F41
:101FA000A901440F551F440F551F440F551FE40F3F
:101FB000F51FE856FB4F40855185452B09F45AC063
:101FC000A901440F551F440F551F440F551FF90118
:101FD000EE0FFF1FE40FF51FE856FB4F8080918046
:101FE000A280B38089288A288B2809F443C0A901DC
:101FF000440F551F440F551F440F551FF901EE0F95
:10200000FF1FE40FF51FE856FB4F80809180A280F0
:10201000B380681579058A059B05B8F4A901440FBA
:10202000551F440F551F440F551FF901EE0FFF1F99
:10203000E40FF51FE856FB4F80809180A280B380AB
:10204000861A970AA80AB90A04C08F2C902EA12ECE
:10205000BD2EF901EE0FFF1F220F331F220F331F7A
:10206000220F331FE20FF31FE856FB4F808291824D
:10207000A282B382CF5F20916A05C21708F48BCF8A
:10208000DF91CF911F910F91FF90BF90AF909F90E4
:102090008F9008951F920F920FB60F9211242F93D5
:1020A0003F934F935F936F937F938F939F93AF93E0
:1020B000BF93EF93FF938091940490919504A09126
:1020C0009604B09197040196A11DB11D80939404CC
:1020D00090939504A0939604B093970462E170E204
:1020E00080E090E00E94B80FFF91EF91BF91AF9117
:1020F0009F918F917F916F915F914F913F912F9120
:102100000F900FBE0F901F9018959091130490910F
:102110006A05891750F56AE0282F30E0A9014F5F62
:102120005F4FD901AA0FBB1F220F331F220F331F8E
:10213000220F331FA20FB31FA856BB4FFA01EE0F99
:10214000FF1F440F551F440F551F440F551FE40F29
:10215000F51FE856FB4F962F01900D929A95E1F7E7
:102160008F5F90916A058917B8F280916A05815056
:1021700080936A050895AF92BF92CF92DF92EF925B
:10218000FF920F931F93CF93DF93CDB7DEB7C45663
:10219000D1090FB6F894DEBF0FBECDBF8C01809180
:1021A0006A05882309F442C0A12CB12C0F2EF8E354
:1021B000CF2EF3E0DF2EF02DCE0101967C012B2DEA
:1021C00030E0F901EE0FFF1FC901880F991F880F3A
:1021D000991F880F991FE80FF91FE856FB4F40859C
:1021E000518540175107E1F48091130480FF11C01D
:1021F0003F93BF92DF92CF92FF92EF920E94BF195E
:10220000C7010E94A8010F900F900F900F900F90A0
:102210000F9060E673E08B2D0E948510BA94A39412
:10222000B39480916A05B81650F201C0A12C8A2D92
:10223000CC59DF4F0FB6F894DEBF0FBECDBFDF9194
:10224000CF911F910F91FF90EF90DF90CF90BF90B3
:10225000AF9008951F93CF93DF93F89480916A0510
:10226000882309F48BC010E0C12FD0E0FE01EE0FEF
:10227000FF1FCE01880F991F880F991F880F991F84
:10228000E80FF91FE856FB4F20853185232B09F411
:102290006FC0CE01880F991F880F991F880F991F53
:1022A000FE01EE0FFF1FE80FF91FE856FB4F4081BC
:1022B000518162817381452B462B472B09F058C011
:1022C000CE01880F991F880F991F880F991FFE0153
:1022D000EE0FFF1FE80FF91FE856FB4F0084F18552
:1022E000E02D0995882339F060E773E0812F0E9483
:1022F000851011503DC0CE01880F991F880F991F7E
:10230000880F991FFE01EE0FFF1FE80FF91FE85617
:10231000FB4F4481558166817781452B462B472BA6
:1023200049F044815581668177814083518362837E
:1023300073831EC0CE01880F991FCC0FDD1FCC0FF9
:10234000DD1FCC0FDD1FC80FD91FC856DB4F888596
:1023500099858C5D944031F48CED94E00E94BB1023
:10236000181B06C06EE773E0812F0E948510115084
:102370001F5F80916A05181708F476CF7894DF9173
:10238000CF911F9108951F93CF93DF93182FC0E033
:10239000D0E08C2F9E01220F331F220F331F220FFC
:1023A000331FFE01EE0FFF1FE20FF31FE856FB4F36
:1023B0002085318526543A4011F4111104C06BE890
:1023C00073E00E9485102196C431D10511F781E098
:1023D00080936A05DF91CF911F9108958F929F920C
:1023E000AF92BF92CF92DF92EF92FF920F931F9323
:1023F000CF93DF93CDB7DEB7C456D1090FB6F894AB
:10240000DEBF0FBECDBF83E00E9408086C01E12C47
:10241000F12C82E00E9408084C01A12CB12C809183
:10242000130480FF1BC01F921F929F928F921F92D6
:102430001F92DF92CF928DE993E09F938F938E014D
:102440000F5F1F4F1F930F930E94BF19C8010E9477
:10245000A8010FB6F894DEBF0FBECDBF8091140463
:10246000813069F018F08230F9F022C081E0809369
:10247000140466E98EE10E944C0580E01EC092E8DB
:10248000C916D104E104F104A8F482E88816910485
:10249000A104B10488F482E08093140466E981E029
:1024A0000E947C0580E009C00E94DC0481E005C038
:1024B00080E003C080E001C080E0CC59DF4F0FB660
:1024C000F894DEBF0FBECDBFDF91CF911F910F916A
:1024D000FF90EF90DF90CF90BF90AF909F908F9044
:1024E00008950F931F93CF93DF93CDB7DEB7C456F4
:1024F000D1090FB6F894DEBF0FBECDBF8091D605CF
:10250000813071F020F0823009F458C0BAC0609177
:10251000E50584E60E944C0581E08093D605AFC0B6
:1025200080912B0490912C04A0912D04B0912E0445
:10253000409131045091320460913304709134041D
:10254000840F951FA61FB71FB695A79597958795DA
:10255000B695A79597958795AC01BD01440F551F7A
:10256000661F771F440F551F661F771F8A019B0147
:10257000000F111F221F331F000F111F221F331FB7
:10258000400F511F621F731F840F951FA61FB71F97
:102590000091D8051091D9052091DA053091DB051D
:1025A000081719072A073B0708F069C062E881E0AD
:1025B0000E947C0582E08093D60561C00E94DC0405
:1025C00040910F0450911004609111047091120415
:1025D00080912B0490912C04A0912D04B0912E0495
:1025E000009131041091320420913304309134046D
:1025F0007F936F935F934F93B901A801480F591FC1
:102600006A1F7B1F769567955795479576956795D1
:1026100057954795DB01CA01880F991FAA1FBB1F59
:10262000880F991FAA1FBB1F8C019D01000F111F4E
:10263000221F331F000F111F221F331F800F911FF6
:10264000A21FB31F840F951FA61FB71FBF93AF9381
:102650009F938F938CEA93E09F938F938E010F5FEC
:102660001F4F1F930F930E94BF19C8010E94A8011A
:102670000FB6F894DEBF0FBECDBF81E003C080E08F
:1026800001C080E0CC59DF4F0FB6F894DEBF0FBE1B
:10269000CDBFDF91CF911F910F910895882311F045
:1026A000159A01C01598662311F0149A089514988C
:1026B00008951092140421E040EA56E861E070E0C9
:1026C0008EEE91E10E94950E08958F929F92AF92A7
:1026D000BF92CF92DF92EF92FF920F931F931092CF
:1026E000D605C0902B04D0902C04E0902D04F090DF
:1026F0002E04009131041091320420913304309162
:1027000034040C0D1D1D2E1D3F1D68017901F6942A
:10271000E794D794C794F694E794D794C794970115
:102720008601000F111F221F331F000F111F221FD0
:10273000331F48015901880C991CAA1CBB1C880C2A
:10274000991CAA1CBB1C080D191D2A1D3B1D0C0D34
:102750001D1D2E1D3F1D6B017C01C00ED11EE21EF2
:10276000F31EC092D805D092D905E092DA05F09216
:10277000DB054093E50521E040E157E260E070E0D1
:1027800081E792E10E94460F1F910F91FF90EF9019
:10279000DF90CF90BF90AF909F908F9008954F9211
:1027A0005F926F927F92AF92BF92CF92DF92EF9241
:1027B000FF920F931F93CF93DF9300D000D0CDB73C
:1027C000DEB72B013C0129833A834B835C83C8012C
:1027D000B701052E59E0660F771F881F991F5A957C
:1027E000D1F7502D2AE631E040E050E00E9469190F
:1027F00089819A81AB81BC81821B930BA40BB50BA1
:102800009C01AD01AAE6B1E00E94A019DC01CB0158
:10281000072E79E0B695A795979587957A95D1F784
:10282000702D481659066A067B06A0F4841995098E
:10283000A609B7092D893E894F89588D2817390770
:102840004A075B07D8F0A816B906CA06DB06C0F42B
:1028500083E01BC0481A590A6A0A7B0A8D899E893F
:10286000AF89B88D84159505A605B70558F0A41451
:10287000B504C604D70440F481E007C084E005C075
:1028800082E003C080E001C082E00F900F900F90C3
:102890000F90DF91CF911F910F91FF90EF90DF90FC
:1028A000CF90BF90AF907F906F905F904F900895C2
:1028B000AF92BF92CF92DF92EF92FF920F931F934E
:1028C000CF93DF9382E00E940808EC0181E00E9430
:1028D00008089E0140E050E0BC0180E090E01F92BB
:1028E0001F921F92EDE2EF930F2EF6E1AF2EB12C67
:1028F000C12CD12CF02D1FE5E12EF12C00E010E0D1
:102900000E94CF130F900F900F900F90C82F82301E
:1029100029F4809101018230A9F530C08091010134
:10292000C81771F1C230B9F028F4CC2341F0C1309E
:1029300061F020C0C33099F0C430B9F01BC040E052
:102940006BE48AE00E94250715C040E06CE38AE052
:102950000E9425070FC00E94DC0481E018C041E0FE
:102960006CE38AE00E94250705C041E06BE48AE041
:102970000E942507C093010180E009C081E007C0E3
:1029800080E005C080910101823029F780E0DF916D
:10299000CF911F910F91FF90EF90DF90CF90BF905C
:1029A000AF90089581E2809370051092E005109237
:1029B000D7051092E1051092E2051092E3051092FE
:1029C000E40521E040E950ED63E070E089EC95E139
:1029D0000E94460F0895CF92DF92EF92FF9281E01E
:1029E0000E9408086C01E12CF12C8091D7051F9200
:1029F0008F9380EF93E09F938F9382E795E09F936F
:102A00008F930E94BF1982E795E00E94A8010F9062
:102A10000F900F900F900F900F908091D7058230FC
:102A200009F44CC028F4882351F08130D1F0A5C0BE
:102A3000833009F460C0843009F494C09EC081E002
:102A40008093D705C092E105D092E205E092E305BC
:102A5000F092E40540E06AE58FE00E94250780E0FF
:102A600093C08091E1059091E205A091E305B091BA
:102A7000E405AC01BD014B5F5F4F6F4F7F4F4C15BD
:102A80005D056E057F0550F4C092E105D092E20528
:102A9000E092E305F092E40580E076C00597A10995
:102AA000B109C816D906EA06FB0608F068C082E03C
:102AB0008093D7051092710580E066C08091710502
:102AC0008F5F80937105C092E105D092E205E0929C
:102AD000E305F092E405843008F453C083E080936A
:102AE000D705C0926B05D0926C05E0926D05F0920F
:102AF0006E0580E049C08091E1059091E205A091CA
:102B0000E305B091E4058C159D05AE05BF0548F4BD
:102B100084E08093D7051092710541E061E40E9442
:102B20002507C092E105D092E205E092E305F0921C
:102B3000E40580916B0590916C05A0916D05B091B5
:102B40006E058C159D05AE05BF0510F46C017D0169
:102B5000C0926B05D0926C05E0926D05F0926E0507
:102B600080E012C0809171058F5F80937105853080
:102B700050F00E94DC0481E007C080E005C080E0E6
:102B800003C080E001C080E0FF90EF90DF90CF9025
:102B900008958F929F92AF92BF92CF92DF92EF9261
:102BA000FF920F9382E00E9408084C01A12CB12CE7
:102BB00081E00E9408086C01E12CF12C4091700525
:102BC00050E04536510508F05DC3FA01E95AFF4F60
:102BD0000C948B1960EA8EE10E944C0580912B04C5
:102BE00090912C04A0912D04B0912E0440913104B9
:102BF000509132046091330470913404840F951F16
:102C0000A61FB71FB695A79597958795B695A795D3
:102C100097958795AC01BD01440F551F661F771F1F
:102C2000440F551F661F771F6A017B01CC0CDD1C0A
:102C3000EE1CFF1CCC0CDD1CEE1CFF1C4C0D5D1DA6
:102C40006E1D7F1D840F951FA61FB71F88539F4FB2
:102C5000AF4FBF4F8093E6059093E705A093E8053B
:102C6000B093E90582E28093700580E028C38091EB
:102C70002B0490912C04A0912D04B0912E0440912E
:102C80003104509132046091330470913404840F04
:102C9000951FA61FB71FB695A79597958795B695CB
:102CA000A79597958795AC01BD01440F551F661FE9
:102CB000771F440F551F661F771F6A017B01CC0CDD
:102CC000DD1CEE1CFF1CCC0CDD1CEE1CFF1C4C0D97
:102CD0005D1D6E1D7F1D840F951FA61FB71FC09021
:102CE000E605D090E705E090E805F090E905C81604
:102CF000D906EA06FB0608F0C7C2109270050E94CA
:102D0000DC0480E0DCC20E945814813009F0BEC2AD
:102D1000809370056CE38EE10E944C0580E0CFC289
:102D200029E2C21AD108E108F10839E5C316D10435
:102D3000E104F10408F0ACC282E08093700580E009
:102D4000BEC24DE2C41641E0D406E104F10408F429
:102D5000A1C284E6809370056EE18AE00E947C0542
:102D600080E0ADC259E2C51AD108E108F10889E551
:102D7000C816D104E104F10408F08EC262E384E1D4
:102D80000E944C0580912B0490912C04A0912D045D
:102D9000B0912E044091310450913204609133047B
:102DA00070913404840F951FA61FB71FB695A79581
:102DB00097958795B695A79597958795AC01BD0191
:102DC000440F551F661F771F440F551F661F771F3F
:102DD0006A017B01CC0CDD1CEE1CFF1CCC0CDD1C45
:102DE000EE1CFF1C4C0D5D1D6E1D7F1D840F951F7D
:102DF000A61FB71F82599F4FAF4FBF4F8093E60565
:102E00009093E705A093E805B093E90583E08093EC
:102E1000700580E054C280912B0490912C04A09105
:102E20002D04B0912E0440913104509132046091F0
:102E3000330470913404840F951FA61FB71FB695F5
:102E4000A79597958795B695A79597958795AC0182
:102E5000BD01440F551F661F771F440F551F661F86
:102E6000771F6A017B01CC0CDD1CEE1CFF1CCC0C17
:102E7000DD1CEE1CFF1C4C0D5D1D6E1D7F1D840FA7
:102E8000951FA61FB71FC090E605D090E705E090FC
:102E9000E805F090E905C816D906EA06FB0608F031
:102EA000FDC10E94DC0484E08093700502E321E010
:102EB0004AEA60E085E00E946A0680E000C228ECF1
:102EC000C216D104E104F10408F0EAC185E0809360
:102ED000700541E062E38AE00E94250780E0EFC1CF
:102EE0003DEDC316D104E104F10408F4DBC162E353
:102EF0008FE00E944C0586E08093700580E0DFC182
:102F00004AEA84169104A104B10408F0CDC187E017
:102F1000809370051092D7051092E1051092E2059A
:102F20001092E3051092E40580E0C9C10E94EB1401
:102F3000882309F4BBC188E08093700568E28FE0C4
:102F40000E944C0580E0BBC154E685169104A104A3
:102F5000B10408F0ADC180912B0490912C04A09194
:102F60002D04B0912E0440913104509132046091AF
:102F7000330470913404840F951FA61FB71FB695B4
:102F8000A79597958795B695A79597958795AC0141
:102F9000BD01440F551F661F771F440F551F661F45
:102FA000771F6A017B01CC0CDD1CEE1CFF1CCC0CD6
:102FB000DD1CEE1CFF1C4C0D5D1D6E1D7F1D840F66
:102FC000951FA61FB71F8C599F4FAF4FBF4F8093C0
:102FD000E6059093E705A093E805B093E90589E03D
:102FE0008093700562E38AE00E947C0580E067C1FF
:102FF00080912B0490912C04A0912D04B0912E046B
:103000004091310450913204609133047091340442
:10301000840F951FA61FB71FB695A79597958795FF
:10302000B695A79597958795AC01BD01440F551F9F
:10303000661F771F440F551F661F771F6A017B01AC
:10304000CC0CDD1CEE1CFF1CCC0CDD1CEE1CFF1C94
:103050004C0D5D1D6E1D7F1D840F951FA61FB71F94
:10306000C090E605D090E705E090E805F090E9050E
:10307000C816D906EA06FB0608F01CC10E94DC044B
:103080008AE08093700580E01AC10E94DC04809180
:103090002B0490912C04A0912D04B0912E0440910A
:1030A0003104509132046091330470913404840FE0
:1030B000951FA61FB71FB695A79597958795B695A7
:1030C000A79597958795AC01BD01440F551F661FC5
:1030D000771F440F551F661F771F4A015B01880C3D
:1030E000991CAA1CBB1C880C991CAA1CBB1C480D53
:1030F000591D6A1D7B1D840F951FA61FB71F4E9675
:10310000A11DB11D8093E6059093E705A093E80506
:10311000B093E9058BE08093700562E38AE00E943A
:103120004C05C092DC05D092DD05E092DE05F09200
:10313000DF0580E0C4C080912B0490912C04A09105
:103140002D04B0912E0440913104509132046091CD
:10315000330470913404840F951FA61FB71FB695D2
:10316000A79597958795B695A79597958795AC015F
:10317000BD01440F551F661F771F440F551F661F63
:10318000771F4A015B01880C991CAA1CBB1C880C88
:10319000991CAA1CBB1C480D591D6A1D7B1D840F60
:1031A000951FA61FB71F8090E6059090E705A09099
:1031B000E805B090E90588169906AA06BB0608F04E
:1031C0007BC08091DC059091DD05A091DE05B0917A
:1031D000DF054601570125E0820E911CA11CB11CA0
:1031E00088169906AA06BB06A0F4BC01CD016C198D
:1031F0007D098E099F092AE030E040E050E00E94FE
:10320000691960936F0540E06BE482E00E94250736
:1032100027C04C015D0135E0830E911CA11CB11C3F
:103220008C149D04AE04BF04B0F4A7019601281BC2
:10323000390B4A0B5B0BCA01B9012AE030E040E0D0
:1032400050E00E94691960936F0541E06BE482E0F1
:103250000E94250705C081E080936F050E94DC0471
:103260008CE08093700580E02AC080916F058150CA
:1032700080936F05811122C08AEF93E00E94A8011C
:1032800081E01DC080E01BC080E019C080E017C055
:1032900080E015C080E013C080E011C080E00FC066
:1032A00080E00DC080E00BC080E009C080E007C076
:1032B00080E005C080E003C080E001C080E00F91A5
:1032C000FF90EF90DF90CF90BF90AF909F908F9046
:1032D0000895A1E21A2EAA1BBB1BFD010DC0AA1F57
:1032E000BB1FEE1FFF1FA217B307E407F50720F06F
:1032F000A21BB30BE40BF50B661F771F881F991FEA
:103300001A9469F760957095809590959B01AC0132
:10331000BD01CF010895EE0FFF1F0590F491E02D40
:103320000994A29FB001B39FC001A39F700D811D9E
:103330001124911DB29F700D811D1124911D0895BE
:103340000E949119A59F900DB49F900DA49F800D90
:10335000911D11240895A0E0B0E0E1EBF9E10C9497
:10336000691CFE01359661917191AF018091EC0568
:103370009091ED050E94E119E2E00C94851CAEE00D
:10338000B0E0E5ECF9E10C94671C0D891E8986E03C
:103390008C831A8309838FEF9FE79E838D83AE0111
:1033A000475E5F4F6F89788DCE0101960E94E119CB
:1033B000EF81F885E00FF11F10822E96E4E00C9467
:1033C000831CACE0B0E0E7EEF9E10C94591C7C0101
:1033D0006B018A01FC0117821682838181FFBDC1C6
:1033E000CE0101964C01F7019381F60193FD859181
:1033F00093FF81916F01882309F4ABC1853239F4C1
:1034000093FD859193FF81916F01853229F4B70176
:1034100090E00E94C91BE7CF512C312C20E02032D4
:10342000A0F48B3269F030F4803259F0833269F4C1
:1034300020612CC08D3239F0803339F4216026C0F0
:103440002260246023C0286021C027FD27C030ED02
:10345000380F3A3078F426FF06C0FAE05F9E300D50
:103460001124532E13C08AE0389E300D1124332EC0
:1034700020620CC08E3221F426FD6BC1206406C090
:103480008C3611F4206802C0883641F4F60193FDB1
:10349000859193FF81916F018111C1CF982F9F7DFD
:1034A0009554933028F40C5F1F4FFFE3F9830DC050
:1034B000833631F0833771F0833509F05BC022C069
:1034C000F801808189830E5F1F4F44244394512C5F
:1034D000540115C03801F2E06F0E711CF801A08094
:1034E000B18026FF03C0652D70E002C06FEF7FEF53
:1034F000C5012C870E94BE1B2C0183012C852F77D0
:10350000222E17C03801F2E06F0E711CF801A08066
:10351000B18026FF03C0652D70E002C06FEF7FEF22
:10352000C5012C870E94B31B2C012C852068222EFC
:10353000830123FC1BC0832D90E048165906B0F48C
:10354000B70180E290E00E94C91B3A94F4CFF501E4
:1035500027FC859127FE81915F01B70190E00E94D1
:10356000C91B31103A94F1E04F1A5108411451042B
:1035700071F7E5C0843611F0893639F5F80127FF77
:1035800007C060817181828193810C5F1F4F08C0E9
:1035900060817181882777FD8095982F0E5F1F4F7E
:1035A0002F76B22E97FF09C0909580957095619502
:1035B0007F4F8F4F9F4F2068B22E2AE030E0A4014A
:1035C0000E94FB1BA82EA81844C0853729F42F7E23
:1035D000B22E2AE030E025C0F22FF97FBF2E8F36C1
:1035E000C1F018F4883579F0B4C0803719F0883705
:1035F00021F0AFC02F2F2061B22EB4FE0DC08B2D55
:103600008460B82E09C024FF0AC09F2F9660B92E8F
:1036100006C028E030E005C020E130E002C020E133
:1036200032E0F801B7FE07C0608171818281938129
:103630000C5F1F4F06C06081718180E090E00E5FDB
:103640001F4FA4010E94FB1BA82EA818FB2DFF777B
:10365000BF2EB6FE0BC02B2D2E7FA51450F4B4FE4A
:103660000AC0B2FC08C02B2D2E7E05C07A2C2B2D53
:1036700003C07A2C01C0752C24FF0DC0FE01EA0D99
:10368000F11D8081803311F4297E09C022FF06C01C
:103690007394739404C0822F867809F0739423FD89
:1036A00013C020FF06C05A2C731418F4530C57187B
:1036B000732C731468F4B70180E290E02C870E94A9
:1036C000C91B73942C85F5CF731410F4371801C0FF
:1036D000312C24FF12C0B70180E390E02C870E94B8
:1036E000C91B2C8522FF17C021FF03C088E590E08D
:1036F00002C088E790E0B7010CC0822F867859F0AD
:1037000021FD02C080E201C08BE227FD8DE2B701FE
:1037100090E00E94C91BA51438F4B70180E390E043
:103720000E94C91B5A94F7CFAA94F401EA0DF11D27
:103730008081B70190E00E94C91BA110F5CF332012
:1037400009F451CEB70180E290E00E94C91B3A947F
:10375000F6CFF7018681978102C08FEF9FEF2C96FD
:10376000E2E10C94751CFC01059061507040011061
:10377000D8F7809590958E0F9F1F0895FC0161509A
:10378000704001900110D8F7809590958E0F9F1F83
:1037900008950F931F93CF93DF93182F092FEB01F9
:1037A0008B8181FD03C08FEF9FEF20C082FF10C08F
:1037B0004E815F812C813D81421753077CF4E88163
:1037C000F9819F012F5F3F4F39832883108306C003
:1037D000E885F985812F0995892B29F72E813F816D
:1037E0002F5F3F4F3F832E83812F902FDF91CF910B
:1037F0001F910F910895FA01AA27283051F1203125
:1038000081F1E8946F936E7F6E5F7F4F8F4F9F4F74
:10381000AF4FB1E03ED0B4E03CD0670F781F891FB6
:103820009A1FA11D680F791F8A1F911DA11D6A0F84
:10383000711D811D911DA11D20D009F468943F9137
:103840002AE0269F11243019305D3193DEF6CF0136
:103850000895462F4770405D4193B3E00FD0C9F7FC
:10386000F6CF462F4F70405D4A3318F0495D31FD69
:103870004052419302D0A9F7EACFB4E0A6959795BC
:10388000879577956795BA95C9F700976105710592
:1038900008959B01AC010A2E0694579547953795DC
:1038A0002795BA95C9F7620F731F841F951FA01D36
:1038B00008952F923F924F925F926F927F928F92D4
:1038C0009F92AF92BF92CF92DF92EF92FF920F93AF
:1038D0001F93CF93DF93CDB7DEB7CA1BDB0B0FB6B9
:1038E000F894DEBF0FBECDBF09942A883988488876
:1038F0005F846E847D848C849B84AA84B984C8840C
:10390000DF80EE80FD800C811B81AA81B981CE0F02
:10391000D11D0FB6F894DEBF0FBECDBFED010895E7
:04392000F894FFCF49
:1039240002025472696D6974652064696E206E6F59
:103934007520756C74696D756C206D6573616A2191
:103944002121000A202020646973743A20256C75B3
:10395400200A20202074696D703A20256C75004D72
:103964002D616D206F7072697421005374617274DB
:103974002046726565205020502050210053746108
:10398400727420636F6D706C65746520656E636C12
:103994006F73656420636F6E746F757221004D617F
:1039A4002064756320696E61696E746521004D61E0
:1039B4002064756320696E61706F6921004D612018
:1039C40064756320696E61696E7465207374616ED9
:1039D400676121004D612064756320696E61696EC1
:1039E4007465206472656170746121004D612064A6
:1039F400756320696E61706F69207374616E6761AD
:103A040021004D612064756320696E61706F6920C7
:103A1400647265617074612100726F7469726520EB
:103A2400736D656368657261203A2025752025757C
:103A3400202575202575006D6120726F7465736390
:103A440020737072652064726561707461006D61C9
:103A540020726F7465736320737072652073746170
:103A64006E67610073656E736F7220232564203D59
:103A740020256C750073656E736F7273546F536594
:103A84006E6420256420256420256420256420009C
:103A940073656E736F7273546F526561642025642D
:103AA400202564202564202564203C3C2D2D0073B2
:103AB400746172652D3E32202064697374503D2513
:103AC4006C750073746172652D3E33202044503D43
:103AD400256C750073746172652D3E3420646973BE
:103AE40074503D256C752044503D256C7500646907
:103AF40066663D2564202020647264746D703D25E3
:103B04006C75202073696465523D256C7500202016
:103B14003E3E3E6D61696E2073746172743C3C3C40
:103B2400202000456E747279206164617567617448
:103B340020696E20636F61646121206C6120696E6D
:103B44006465782025642073692063752064656C3E
:103B540061793A20256C7500456E7472792073740E
:103B64006572732064696E20636F6164612E2064E2
:103B74006520706520706F7A69746961202575000D
:103B840072656D6F76652066756E6374696F6E001D
:103B940072657475726E65642074727565006E6FFB
:103BA4007420706572696F6469630072657365740B
:103BB4002074696D657220717565756500666C3A6F
:103BC400256C75202066723A256C750064703A2065
:103BD400256C75202074696D653A256C75007265D5
:103BE4006D6F76656420706172616C656C206368CA
:103BF40065636B206663740061646465642070614E
:103C040072616C656C20636865636B206663740025
:103C1400636D2073743A2575200078416D207061BE
:0E3C24007263617420706172616C656C2100C6
:00000001FF
