S01300005352492050726F6A6563742E737265632C
S11300000C94BC000C94D9000C94D9000C94D90025
S11300100C94D9000C9486030C94D9000C94D90048
S11300200C94D9000C94D9000C94D9000C94D900E8
S11300300C94D9000C94D9000C94D9000C9452124D
S11300400C94D9000C94D9000C94D9000C94D900C8
S11300500C947A020C94D9000C94D9000C94D90015
S11300600C94D9000C94D9000C94D9000C94D900A8
S11300700C94D9000C94D9000C94D90052014A0173
S11300808601A40135013801A4018301A401A4015E
S1130090A401A401A201A401A401A4015A013B01E9
S11300A042014701630168015D019F0196018B18BC
S11300B09818A91813196719781988199E19AC1971
S11300C0001A4D1AA31A3D1B4A1B4A1B4A1B4A1B02
S11300D04A1B4A1B4A1B4A1B4A1B4A1B4A1B4A1BF4
S11300E04A1B4A1B4A1B4A1B4A1B4A1B4A1B4A1BE4
S11300F0F2173F184A1B4A1B4A1B4A1B4A1B4A1B3E
S11301004A1B4A1B4A1B4A1B4A1B4A1B4A1B4A1BC3
S11301104A1B4A1B4A1B4A1B4A1B4A1B4A1B4A1BB3
S11301204A1B4A1B4A1B4A1B4A1B4A1B4A1B4A1BA3
S11301304A1B4A1B4A1B4A1B4A1B4A1B4A1B4A1B93
S11301404A1B4A1B4A1B4A1B4A1B4A1B4A1B4A1B83
S11301504A1B4A1B4A1B4A1B4A1B4A1B4A1B4A1B73
S11301604A1B4A1B4A1B4A1B4A1B4A1B4A1B4A1B63
S11301704A1B4A1B4A1BBA1811241FBECFEFD0E1F9
S1130180DEBFCDBF14E0A0E0B1E0E4E3FDE302C0D4
S113019005900D92A232B107D9F726E0A2E2B4E0AD
S11301A001C01D92AC30B207E1F70E94BE0F0C945F
S11301B0981E0C94000010922A0480E008950F9376
S11301C0CF93DF93809134049FEF980F963008F01B
S11301D041C0C0913504D091360490912F049330DE
S11301E019F480E00E941210909134049330B1F01D
S11301F028F4913049F0923061F023C0953099F0A1
S1130200B8F09630D1F01DC06D2F8C2F0E944F0591
S113021018C06D2F8C2F0E947F0513C06D2F8C2F5B
S11302200E94B0050EC06D2F8C2F0E940F0609C0CE
S11302306D2F8C2F0E94DE0504C06D2F8C2F0E9421
S11302403E0680912F04833009F07EC081E00E9435
S113025012107AC090E0FC013797E931F10508F0FB
S113026073C0E25CFF4F0C94931B0E949A0F6CC006
S11302700E94FA0469C060913604809135040E949A
S1130280561562C0809135040E9446085DC00E94E4
S1130290DC045AC041E060913604809135040E9428
S11302A02B0752C040E060913604809135040E94CF
S11302B02B074AC00E94611547C00E94DC0481E0FC
S11302C00E94CB1341C0809135040E94FB033CC0C3
S11302D080913F048330C0F160913504862F90E013
S11302E0A0E0B0E0BA2FA92F982F882720913604D8
S11302F0BC01CD01620F711D811D911D4091370418
S11303000E946D1521C00E94DA161EC080913F0420
S11303108430D0F0009138042091370440913604A1
S11303206091350482E00E9470060EC080913F0403
S1130330813051F4809135040E94551005C00E940B
S1130340351002C00E94FA08DF91CF910F910895F1
S1130350FC0101900020E9F73197E81BF90B2E2FDF
S11303603AEA3093C600ABEDB5E01197F1F700C05F
S1130370000037E13093C600ABEDB5E01197F1F71B
S113038000C00000E093C600EBEDF5E03197F1F713
S113039000C00000222389F0382FE82FF92FA6ECA3
S11303A0B0E081918C938BED95E00197F1F700C05B
S11303B000008E2F831B8217A0F385E58093C6006F
S11303C0ABEDB5E01197F1F700C000000895CF93AD
S11303D0DF9370E06115710591F0E82FF92F80E04B
S11303E090E0A6ECB0E021912C93CBEDD5E02197E1
S11303F0F1F700C00000019686179707A0F3DF917C
S1130400CF910895CF93DF9300D000D0CDB7DEB75E
S113041082E091E09F938F930E94B31B8AEA8983C1
S113042086E18A831B8285E58C8364E0CE01019694
S11304300E94E7010F900F900F900F900F900F9074
S1130440DF91CF910895F89490912A049230F9F0B5
S113045028F4992341F0913069F04AC0933049F16E
S11304609430C9F145C08A3A09F042C081E08093D2
S11304702A043EC0813230F492E090932A0480939F
S1130480340436C010922A040E94020231C0811141
S113049004C084E080932A042BC093E090932A0440
S11304A080933F0410922F04833310F110922A0496
S11304B01FC0E0912F0491E09E0F90932F04F0E071
S11304C0EB5CFB4F808380913F04981788F084E0B5
S11304D080932A040DC0853519F00E94020206C0DB
S11304E08BED90E00E94C3120E94DF0010922A0458
S11304F0789408951F920F920FB60F9211242F93A0
S11305003F934F935F936F937F938F939F93AF9397
S1130510BF93EF93FF938091C6000E942302FF9143
S1130520EF91BF91AF919F918F917F916F915F9167
S11305304F913F912F910F900FBE0F901F901895E0
S1130540CF93DF9370E06115710591F0E82FF92FD7
S113055080E090E0A6ECB0E021912C93CBEDD5E0C7
S11305602197F1F700C00000019686179707A0F3C2
S1130570DF91CF910895CF93DF9300D000D0CDB712
S1130580DEB78AEA898380E28A831B8285E58C83CD
S113059064E0CE0101960E94A0020F900F900F908C
S11305A00F90DF91CF91089589E18093C400E1EC2D
S11305B0F0E0808180688083808180618083808195
S11305C08860808310922A0408958091000180FF3E
S11305D022C08091230490912404A0912504B09119
S11305E026040296A11DB11D809323049093240434
S11305F0A0932504B0932604809122048F5F8093F6
S1130600220480912204837031F09091000181E0F2
S113061089278093000180E008950F931F93CF935F
S1130620DF93CDB7DEB764970FB6F894DEBF0FBE85
S1130630CDBF8091000181FF5DC09091000182E0F7
S11306408927809300018091400490914104A091F6
S11306504204B09143044091460450914704609190
S1130660480470914904840F951FA61FB71FAC015D
S1130670BD01440F551F661F771F440F551F661F8A
S1130680771F8A019B01000F111F221F331F000FC8
S1130690111F221F331F400F511F621F731F840F2E
S11306A0951FA61FB71FAC01BD0176956795579599
S11306B04795769567955795479580912304909132
S11306C02404A0912504B09126042AEA298322E176
S11306D02A8328E02B837C836D835E834F83B887D2
S11306E0A9879A878B8785E58C876CE0CE01019674
S11306F00E94A00280E064960FB6F894DEBF0FBE9D
S1130700CDBFDF91CF911F910F9108951F920F924A
S11307100FB60F9211242F933F934F935F936F93D0
S11307207F938F939F93AF93BF93EF93FF9383B183
S11307309091450481709817B9F083B181708093CA
S113074045048091400490914104A0914204B091E9
S113075043040196A11DB11D80934004909341046C
S1130760A0934204B093430493B1809144049078DD
S11307709817B9F083B1807880934404809146043B
S113078090914704A0914804B09149040196A11D99
S1130790B11D8093460490934704A0934804B093FA
S11307A0490480910001837071F485E08093000115
S11307B01092220421E040E45DE063E070E085EE05
S11307C092E00E944E1180910001836080930001A9
S11307D010922204FF91EF91BF91AF919F918F915D
S11307E07F916F915F914F913F912F910F900FBE29
S11307F00F901F901895FF920F931F93CF93DF9341
S1130800CDB7DEB7C456D1090FB6F894DEBF0FBE1C
S1130810CDBFF82E009123041091240420912504C7
S1130820309126048091400490914104A0914204A7
S1130830B0914304409146045091470460914804A8
S1130840709149043F932F931F930F938A019B0147
S1130850080F191F2A1F3B1FD901C801880F991FB0
S1130860AA1FBB1F880F991FAA1FBB1FAC01BD0184
S1130870440F551F661F771F440F551F661F771FB0
S1130880840F951FA61FB71F080F191F2A1F3B1F90
S1130890B901A8017695679557954795769567951B
S11308A0579547957F936F935F934F9383E291E0BE
S11308B09F938F938E010F5F1F4F1F930F930E947F
S11308C0C71BC8010E94A8018DE093E00E9420117B
S11308D00FB6F894DEBF0FBECDBF81110AC021E070
S11308E048E256E46FE070E08DE093E00E949D10D2
S11308F004C08DE093E00E94C312FF20C1F0109267
S11309004004109241041092420410924304109245
S1130910460410924704109248041092490410921D
S11309202304109224041092250410922604CC5916
S1130930DF4F0FB6F894DEBF0FBECDBFDF91CF916E
S11309401F910F91FF90089510924004109241045A
S113095010924204109243041092460410924704E9
S113096010924804109249041092450410924404D1
S11309700895ECE6F0E08081816080832098808196
S1130980806880832798E8E6F0E080818260808335
S11309900E94A4040895882351F021E040E251EA22
S11309A067E070E08DE093E00E944E1108958DE0C1
S11309B093E00E94C312089517BC1092B30082B151
S11309C0807882B98BB1887F8BB98BB1807E8BB9EB
S11309D08BB1807F8BB98BB1807C8BB90E94E60789
S11309E08091280480FF04C08FE391E00E94A80155
S11309F080E008958091280480FF04C08BE491E096
S1130A000E94A801089517BC1092B300239A84B5DC
S1130A10836084BD84B5806484BD84B5806884BDEE
S1130A2085B5816085BD579AE0EBF0E080818360F5
S1130A308083808180648083808180688083E1EB0F
S1130A40F0E0808181608083259A2D9A249A2C9AE3
S1130A50539A559A8BB1807F8BB98BB1807C8BB9BB
S1130A60529A549A8BB1887F8BB98BB1807E8BB9A3
S1130A700895409581110AC0662319F05B9A5D9828
S1130A8002C05B985D9A4093B3000895662319F001
S1130A905A985C9A02C05A9A5C9847BD0895CF93BD
S1130AA0DF93D82FC62F462F60E080E00E943905DF
S1130AB04C2F60E081E00E943905AD2FB0E020E4C6
S1130AC032E44FE050E00E94A81BAB01BC0120E0DF
S1130AD08CED94E00E944E1120E030E0A90160E02A
S1130AE070E0CB010E94B7078091280480FF04C006
S1130AF08EE791E00E94A801DF91CF910895CF93F2
S1130B00DF93D82FC62F462F61E080E00E9439057D
S1130B104C2F61E081E00E943905AD2FB0E020E464
S1130B2032E44FE050E00E94A81BAB01BC0120E07E
S1130B308CED94E00E944E1120E030E0A90160E0C9
S1130B4070E0CB010E94B707169A8091280480FFB9
S1130B5004C08EE891E00E94A801DF91CF9108952E
S1130B60CF93C82F462F60E080E00E9439054AE009
S1130B7060E081E00E943905AC2FB0E020E432E46B
S1130B804FE050E00E94A81BAB01BC0120E08CEDBB
S1130B9094E00E944E1120E030E0A90160E271EA85
S1130BA087E090E00E94B7078091280480FF04C08A
S1130BB08DE991E00E94A801CF910895CF93DF932E
S1130BC0C82FD62F4AE060E080E00E9439054D2FFF
S1130BD060E081E00E943905AC2FB0E020E432E40B
S1130BE04FE050E00E94A81BAB01BC0120E08CED5B
S1130BF094E00E944E1120E231EA47E050E060E0C8
S1130C0070E0CB010E94B7078091280480FF04C0E4
S1130C1084EB91E00E94A801DF91CF910895CF93D6
S1130C20C82F462F61E080E00E9439054AE061E068
S1130C3081E00E943905AC2FB0E020E432E44FE0BB
S1130C4050E00E94A81BAB01BC0120E08CED94E0B5
S1130C500E944E1120E030E0A90160E271EA87E0D1
S1130C6090E00E94B707169A8091280480FF04C080
S1130C708CEC91E00E94A801CF910895CF93DF936B
S1130C80C82FD62F4AE061E080E00E9439054D2F3D
S1130C9061E081E00E943905AC2FB0E020E432E449
S1130CA04FE050E00E94A81BAB01BC0120E08CED9A
S1130CB094E00E944E1120E231EA47E050E060E007
S1130CC070E0CB010E94B707169A8091280480FF38
S1130CD004C082EE91E00E94A801DF91CF910895B3
S1130CE0DF92EF92FF920F931F93CF93DF93CDB7D1
S1130CF0DEB7C456D1090FB6F894DEBF0FBECDBF20
S1130D00D82EE62EF42E122F402F622F80E00E9460
S1130D1039054F2D6E2D81E00E943905AD2DB0E0CF
S1130D2020E432E44FE050E00E94A81BAB01BC0178
S1130D3020E08CED94E00E944E1111110DC081E071
S1130D40E81218C020E030E0A90160E271EA87E00F
S1130D5090E00E94B70751C0113079F5E1102DC021
S1130D6020E231EA47E050E060E070E0CB010E940D
S1130D70B70743C0E11021C00F1550F420E231EA57
S1130D8047E050E060E070E0CB010E94B70735C057
S1130D90F01650F420E030E0A90160E271EA87E047
S1130DA090E00E94B70729C020E030E0A90160E08C
S1130DB070E0CB010E94B70720C0F01650F420E089
S1130DC030E0A90160E271EA87E090E00E94B70791
S1130DD014C00F1550F420E231EA47E050E060E01F
S1130DE070E0CB010E94B70708C020E030E0A90101
S1130DF060E070E0CB010E94B7078091280480FF77
S1130E001BC01F920F931F921F931F92FF921F925A
S1130E10EF9289EF91E09F938F938E010F5F1F4FA5
S1130E201F930F930E94C71BC8010E94A8010FB60D
S1130E30F894DEBF0FBECDBFCC59DF4F0FB6F89488
S1130E40DEBF0FBECDBFDF91CF911F910F91FF90F9
S1130E50EF90DF900895CF93DF93D82FC62F4111E1
S1130E601CC0462F61E081E00E9439054C2F60E0F0
S1130E7080E00E9439058091280480FF04C087E146
S1130E8092E00E94A80120E030E0A90160E271EA4A
S1130E9087E090E00E94B7071BC0462F60E081E026
S1130EA00E9439054C2F61E080E00E943905809151
S1130EB0280480FF04C08EE292E00E94A80120E290
S1130EC031EA47E050E060E070E0CB010E94B707F0
S1130ED0AD2FB0E020E432E44FE050E00E94A81BC4
S1130EE0AB01BC0120E08CED94E00E944E11DF9137
S1130EF0CF91089592B180E2892782B980E0089564
S1130F0092B180E1892782B980E008958091270415
S1130F1025E2829F212D1124982F921B9695920FE2
S1130F2096959695292F220F220F220F291B821B9B
S1130F308D7F11F4179803C0813009F4179A8091BA
S1130F4027048F5F8093270480E008950C9A0D9AFC
S1130F50149A159A0E9A0F9A179A21E040E950EDC7
S1130F6063E070E086E897E00E944E110895CF9206
S1130F70DF92EF92FF9269017A0161157105810593
S1130F80910531F48AE797E00E94C312149807C0D0
S1130F9021E0AB01BC018AE797E00E944E11C11425
S1130FA0D104E104F10431F480E897E00E94C31213
S1130FB0159807C021E0B701A60180E897E00E94D8
S1130FC04E11FF90EF90DF90CF9008958AE797E05D
S1130FD00E94C31280E897E00E94C31215981498E7
S1130FE00895EF92FF920F931F93CF93DF93C0E086
S1130FF0D0E00F2EF4E4EF2EF2E0FF2EF02D02E607
S113100014E08091950490E00C2E02C0959587958C
S11310100A94E2F780FF22C0FE01EE0FFF1FEE0FDD
S1131020FF1FEE5AFB4F40815181628173817F9390
S11310306F935F934F93DF93CF93FF92EF921F933E
S11310400F930E94C71BC8010E94A8018DB79EB7C9
S11310500A960FB6F8949EBF0FBE8DBF2196C4307A
S1131060D10579F680E0DF91CF911F910F91FF9028
S1131070EF90089524E0829FC0011124FC01EE5AF0
S1131080FB4F80819181A281B3810895CF93DF9337
S11310904091950421E030E0B90102C0660F771F4A
S11310A08A95E2F7CB0184278093950430919504C7
S11310B020919504909195048091950433FB3327F6
S11310C030F91F923F9322FB222720F91F922F937E
S11310D0969591701F929F9381701F928F9385E5CF
S11310E092E09F938F93C2E6D4E0DF93CF930E9464
S11310F0C71BCE010E94A80130919404209194044E
S1131100909194048091940433FB332730F91F9217
S11311103F9322FB222720F91F922F9396959170DB
S11311201F929F9381701F928F9380E792E09F9309
S11311308F93DF93CF930E94C71BCE010E94A80117
S113114081EF97E00E942011909195046DB77EB7CE
S1131150685E7F4F0FB6F8947EBF0FBE6DBF9923B4
S113116061F0811115C021E040E452E46FE070E0C9
S113117081EF97E00E949D100FC09091950491110A
S11311800BC0882349F081EF97E00E94C31204C08A
S1131190809195048823B9F3DF91CF910895882332
S11311A069F08FE08093940421E040E553EC60E023
S11311B070E088E79AE00E944E11089588E79AE06B
S11311C00E94C3120895882351F021E040EB51E7B7
S11311D06BE070E08AEF98E00E944E1108958AEF68
S11311E098E00E94C3120895FC01708361835283C6
S11311F043830895CF93DF93CDB7DEB764970FB6DB
S1131200F894DEBF0FBECDBF8AEA898383E18A8367
S113121080E18B83409152045091530460915404B3
S113122070915504CE0104960E94F408409156042E
S1131230509157046091580470915904CE01089656
S11312400E94F40840915A0450915B0460915C043C
S113125070915D04CE010C960E94F40840915E04E6
S113126050915F046091600470916104CE014096D6
S11312700E94F40885E58C8B64E1CE0101960E94FE
S1131280A00280E064960FB6F894DEBF0FBECDBF17
S1131290DF91CF910895AAE7B0E08C9187608C9399
S11312A0ECE7F0E080818064808380818F778083A5
S11312B08081806280838C9180688C9310929504E5
S11312C0109294040895ECE7F0E09081907E90836E
S11312D09081892B8083EAE7F0E0808180648083B9
S11312E008950E946309EAE7F0E0808186FDFDCF5E
S11312F02091780022952695269523708091790077
S113130090E0880F991F880F991F822B08958F9260
S11313109F92AF92BF92CF92DF92EF92FF920F9380
S11313201F93CF93DF93CDB7DEB72E970FB6F89404
S1131330DEBF0FBECDBF182F9E012F5F3F4F790137
S11313406E013FE0C30ED11C812F0E947109F70189
S1131350819391937F01EC15FD05B1F721E030E015
S113136080E001E0F12C90E0D12CE12C32C0482F38
S113137050E0FA01EE0FFF1FAA24A394B12CAC0E87
S1131380BD1EEA0DFB1D608171814A01EFEF8E1ACB
S11313909E0AD401AA0FBB1FAA0DBB1D0D90BC91C0
S11313A0A02DA617B70780F4440F551F4A0D5B1DE7
S11313B0FA01B183A083F401EE0FFF1FEA0DFB1DB8
S11313C0718360832D2D3E2D8F5F03C0202F3F2D11
S11313D0892F863060F2232BC9F32F8138858D81C4
S11313E09E81280F391F89859A85280F391FABEAFA
S11313F0BAEA0E94991B96958795412F50E0FA010D
S1131400EE0FFF1FE65BFB4F60817181672B41F498
S1131410FA01EE0FFF1FE65BFB4F9183808320C030
S1131420FA01EE0FFF1FE65BFB4F20813181B9010A
S1131430660F771F260F371F220F331F880F991F40
S1131440880F991F280F391FADECBCEC0E94991B23
S1131450969587959695879596958795918380839C
S11314601230D0F4FA01EE0FFF1FE65BFB4F208130
S1131470318122953295307F3227207F32272B53BA
S1131480314040E050E061E57CEE84E090E00E9471
S1131490711BCA01B90119C0FA01EE0FFF1FE65B07
S11314A0FB4F2081318122953295307F3227207F76
S11314B032272850324040E050E06DEF7DEB8BE066
S11314C090E00E94711BCA01B9012E960FB6F894E0
S11314D0DEBF0FBECDBFDF91CF911F910F91FF9063
S11314E0EF90DF90CF90BF90AF909F908F90089532
S11314F08091940480FF0BC080E00E948709609370
S1131500520470935304809354049093550480912F
S1131510940481FF0BC081E00E9487096093560404
S113152070935704809358049093590480919404C1
S113153082FF0BC082E00E94870960935A04709373
S11315405B0480935C0490935D048091940483FF16
S11315500BC083E00E94870960935E0470935F046C
S1131560809360049093610480E00895CF92DF92A9
S1131570EF92FF920F931F93CF93DF93CDB7DEB714
S1131580C456D1090FB6F894DEBF0FBECDBF81E0BB
S11315900E943A08A0E0B0E02091A004223009F4AF
S11315A0ACC030F4222359F0213009F458C09FC153
S11315B0233009F4F2C0243009F43DC198C14091AC
S11315C0400450914104609142047091430400919D
S11315D04604109147042091480430914904400F77
S11315E0511F621F731F769567955795479576959A
S11315F06795579547958A019B01000F111F221F7C
S1131600331F000F111F221F331F68017901CC0CF7
S1131610DD1CEE1CFF1CCC0CDD1CEE1CFF1C0C0D99
S11316201D1D2E1D3F1D400F511F621F731F409330
S1131630AC045093AD046093AE047093AF04893C42
S11316409105A105B10510F41092A10481E08093E5
S1131650A0046BE48CE30E947F0580E04FC180917D
S1131660400490914104A0914204B09143044091FC
S11316704604509147046091480470914904840FD2
S1131680951FA61FB71FB695A79597958795B695ED
S1131690A79597958795AC01BD01440F551F661F0B
S11316A0771F440F551F661F771F8A019B01000F88
S11316B0111F221F331F000F111F221F331F400F42
S11316C0511F621F731F840F951FA61FB71F049716
S11316D0A109B1090091AC041091AD042091AE04AC
S11316E03091AF04081719072A073B0708F001C116
S11316F082E08093A00480E001C1409140045091B5
S11317004104609142047091430400914604109195
S113171047042091480430914904400F511F621F2F
S1131720731F769567955795479576956795579561
S113173047958A019B01000F111F221F331F000FC1
S1131740111F221F331F68017901CC0CDD1CEE1C14
S1131750FF1CCC0CDD1CEE1CFF1C0C0D1D1D2E1DD6
S11317603F1D400F511F621F731F4093AC045093E1
S1131770AD046093AE047093AF04893C9105A10558
S1131780B10510F41092A10483E08093A0046BE4EB
S11317908CE30E944F0580E0B1C080914004909199
S11317A04104A0914204B0914304409146045091F5
S11317B047046091480470914904840F951FA61F43
S11317C0B71FB695A79597958795B695A7959795BD
S11317D08795AC01BD01440F551F661F771F440F49
S11317E0551F661F771F8A019B01000F111F221FBF
S11317F0331F000F111F221F331F400F511F621F81
S1131800731F840F951FA61FB71F0497A109B10961
S11318100091AC041091AD042091AE043091AF045A
S1131820081719072A073B0708F065C084E080936E
S1131830A00480E063C04091400450914104609151
S1131840420470914304009146041091470420918E
S1131850480430914904400F511F621F731F76954D
S113186067955795479576956795579547958A0156
S11318709B01000F111F221F331F000F111F221F76
S1131880331F68017901CC0CDD1CEE1CFF1CCC0C51
S1131890DD1CEE1CFF1C0C0D1D1D2E1D3F1D400FDD
S11318A0511F621F731F4093AC045093AD046093A7
S11318B0AE047093AF04893C9105A105B10510F401
S11318C01092A1040E94DC048091A1048130A9F447
S11318D089E0EFE8F2E0DE01119601900D928A951D
S11318E0E1F7CE0101960E94A80181E007C080E0E3
S11318F005C080E003C080E001C081E0CC59DF4F27
S11319000FB6F894DEBF0FBECDBFDF91CF911F910C
S11319100F91FF90EF90DF90CF9008954F925F92D8
S11319206F927F928F929F92AF92BF92CF92DF92EB
S1131930EF92FF920F931F93CF93DF93CDB7DEB750
S1131940C456D1090FB6F894DEBF0FBECDBF81E0F7
S11319500E943A086C01E12CF12C80919B048230A6
S113196009F4D8C028F4882361F08130D1F0C9C2C9
S1131970843009F479C208F46EC1853009F4BFC219
S1131980C0C2C092A304D092A404E092A504F09231
S1131990A60462E38CE30E944F0581E080939B04DC
S11319A0B0C28091A3049091A404A091A504B09125
S11319B0A6048C599F4FAF4FBF4F8C159D05AE05A4
S11319C0BF0508F09EC082E080939B048091400490
S11319D090914104A0914204B09143044091460483
S11319E0509147046091480470914904480F591F6D
S11319F06A1F7B1F769567955795479576956795EA
S1131A0057954795DB01CA01880F991FAA1FBB1F71
S1131A10880F991FAA1FBB1F8C019D01000F111F66
S1131A20221F331F000F111F221F331F800F911F0E
S1131A30A21FB31F840F951FA61FB71F809397047F
S1131A4090939804A0939904B0939A04409140040D
S1131A505091410460914204709143040091460402
S1131A60109147042091480430914904400F511FBC
S1131A70621F731F76956795579547957695679579
S1131A80579547958A019B01000F111F221F331F91
S1131A90000F111F221F331F48015901880C991C84
S1131AA0AA1CBB1C880C991CAA1CBB1C080D191D64
S1131AB02A1D3B1D400F511F621F731F4C595F4F5E
S1131AC06F4F7F4F40939C0450939D0460939E04FA
S1131AD070939F04BF93AF939F938F9388E992E091
S1131AE09F938F938E010F5F1F4F1F930F930E943D
S1131AF0C71BC8010E94A8010FB6F894DEBF0FBE31
S1131B00CDBFC092A304D092A404E092A504F092A5
S1131B10A604F7C18091400490914104A09142042D
S1131B20B0914304409146045091470460914804A5
S1131B3070914904840F951FA61FB71FB695A795EA
S1131B4097958795B695A79597958795AC01BD010F
S1131B50440F551F661F771F440F551F661F771FBD
S1131B608A019B01000F111F221F331F000F111F39
S1131B70221F331F400F511F621F731F840F951FB5
S1131B80A61FB71F00919C0410919D0420919E04F0
S1131B9030919F04081719072A073B0708F0B1C1C1
S1131BA083E080939B04C092A304D092A404E092A7
S1131BB0A504F092A6048091400490914104A09160
S1131BC04204B0914304409146045091470460910B
S1131BD0480470914904480F591F6A1F7B1F76956A
S1131BE06795579547957695679557954795DB0182
S1131BF0CA01880F991FAA1FBB1F880F991FAA1F0C
S1131C00BB1F8C019D01000F111F221F331F000FEA
S1131C10111F221F331F800F911FA21FB31F840F98
S1131C20951FA61FB71FBF93AF939F938F938CEA03
S1131C3092E09F938F938E010F5F1F4F1F930F931B
S1131C400E94C71BC8010E94A8010FB6F894DEBF0A
S1131C500FBECDBF56C18091A3049091A404A0915E
S1131C60A504B091A6048C599F4FAF4FBF4F8C155C
S1131C709D05AE05BF0508F0EEC0409140045091AB
S1131C804104609142047091430400914604109110
S1131C904704209148043091490480904004909076
S1131CA04104A0904204B090430480914604909172
S1131CB04704A0914804B0914904040F151F261F3E
S1131CC0371F3695279517950795369527951795B8
S1131CD00795B901A801440F551F661F771F440FCC
S1131CE0551F661F771F2A013B01440C551C661CB7
S1131CF0771C440C551C661C771C440D551D661D31
S1131D00771D040F151F261F371F4090970450900E
S1131D1098046090990470909A040419150926098E
S1131D2037093695279517950795880D991DAA1D8E
S1131D30BB1DB695A79597958795B695A795979545
S1131D408795AC01BD01440F551F661F771F440FD3
S1131D50551F661F771F4A015B01880C991CAA1C3A
S1131D60BB1C880C991CAA1CBB1C480D591D6A1D60
S1131D707B1D840F951FA61FB71F800F911FA21FE5
S1131D80B31F8093970490939804A0939904B093FD
S1131D909A0484E080939B0468E28CE30E947F05AC
S1131DA08091400490914104A0914204B091430475
S1131DB0409146045091470460914804709149044D
S1131DC0480F591F6A1F7B1F76956795579547954E
S1131DD07695679557954795DB01CA01880F991F3A
S1131DE0AA1FBB1F880F991FAA1FBB1F8C019D012F
S1131DF0000F111F221F331F000F111F221F331F3B
S1131E00800F911FA21FB31F840F951FA61FB71F1A
S1131E10BF93AF939F938F9380919A048F938091F4
S1131E2099048F93809198048F93809197048F9352
S1131E308DEB92E09F938F938E010F5F1F4F1F9343
S1131E400F930E94C71BC8010E94A8010FB6F89403
S1131E50DEBF0FBECDBFC092A304D092A404E09213
S1131E60A504F092A6044DC08091400490914104D1
S1131E70A0914204B0914304409146045091470418
S1131E806091480470914904840F951FA61FB71FE1
S1131E90B695A79597958795B695A79597958795A0
S1131EA0AC01BD01440F551F661F771F440F551F1A
S1131EB0661F771F6A017B01CC0CDD1CEE1CFF1C26
S1131EC0CC0CDD1CEE1CFF1C4C0D5D1D6E1D7F1D1E
S1131ED0840F951FA61FB71FC0909704D090980435
S1131EE0E0909904F0909A04C816D906EA06FB0615
S1131EF040F40E94DC0485E080939B0402C00E94AD
S1131F00B60A80E0CC59DF4F0FB6F894DEBF0FBE9F
S1131F10CDBFDF91CF911F910F91FF90EF90DF9094
S1131F20CF90BF90AF909F908F907F906F905F9075
S1131F304F90089510929B041092A3041092A4044D
S1131F401092A5041092A60410929704109298047B
S1131F501092990410929A0410929C0410929D0479
S1131F6010929E0410929F0421E040EF59E462E035
S1131F7070E08EE89CE00E944E1108950E94D40205
S1131F800E9486100E9403050E94A6070E944B0926
S1131F900E94B904789481E00E94DA0F81E00E94E3
S1131FA0E50F81E093E00E94A8010E94BB020E9419
S1131FB03213FDCF20912804909128048227282FE2
S1131FC02170922790932804089530912804209139
S1131FD02804982F9170919593279270922790934B
S1131FE028040E94CF0808953091280420912804E1
S1131FF0982F917091959327947092279093280429
S11320000E94CB0408953091280420912804982F2D
S113201091709195932798709227909328040E9429
S1132020E3080895811111C08091280480FF1CC029
S113203080E00E94DA0F8091280490912804809512
S1132040807189278093280408958091280484FF4F
S11320500BC081E00E94DA0F80912804909128043B
S113206080718927809328040895CF93DF9300D04B
S113207000D000D0CDB7DEB78AEA898384E18A83B1
S113208081E08B83809128048C8385E58D8365E0D2
S1132090CE0101960E94A00226960FB6F894DEBFE8
S11320A00FBECDBFDF91CF910895CF93C82F81701C
S11320B00E94DA0FC1FB882780F90E94E50FC2FB5A
S11320C0882780F90E94F40FC3FB882780F90E94B7
S11320D003100E943510CF91089580E090E0FC0138
S11320E0EE0FFF1F9C01220F331F220F331F220FFD
S11320F0331FE20FF31FEC54FB4F11861086019639
S11321008431910561F71092860508951092B00408
S11321101092B1041092B2041092B3040E946D1094
S1132120EFE6F0E080818160808310928500109258
S1132130840081E08093810008950F931F93CF93CF
S1132140DF93CDB7DEB7CE56D1090FB6F894DEBF14
S11321500FBECDBFF894211105C0B0E0A0E0F0E0BF
S1132160E0E004C0B42FA52FF62FE72F20918605B9
S113217030E049835A836B837C83BD83AE83FF83C2
S1132180E8879A878987D901AA0FBB1F220F331FBB
S1132190220F331F220F331FA20FB31FAC54BB4FA8
S11321A08AE0FE01319601900D928A95E1F78091C3
S11321B086058F5F809386058091280480FF33C055
S11321C08091860590E00197FC01EE0FFF1F880FB8
S11321D0991F880F991F880F991FE80FF91FEC5456
S11321E0FB4F80819181A281B38120918605BF93A9
S11321F0AF939F938F93822F90E001979F938F9338
S113220086E193E09F938F938E01055F1F4F1F9389
S11322100F930E94C71BC8010E94A8010FB6F8942F
S1132220DEBF0FBECDBF7894C259DF4F0FB6F8940E
S1132230DEBF0FBECDBFDF91CF911F910F910895E7
S113224020918605222321F12091BC043091BD0404
S113225028173907F9F040E014C0242F30E0F901C1
S1132260EE0FFF1F220F331F220F331F220F331FC6
S1132270E20FF31FEC54FB4F2085318528173907F3
S113228059F04F5F20918605421738F380E0089596
S113229080E0089581E0089581E008950F931F93ED
S11322A0CF93DF93C22FF89420918605222309F45B
S11322B059C0E091BC04F091BD04E817F90709F096
S11322C049C018C0ED2FF0E08F01000F111FDF018E
S11322D0AA0FBB1FAA0FBB1FAA0FBB1FA00FB11FC2
S11322E0AC54BB4F18960D90BC91A02DA817B907FC
S11322F091F503C0E0E0F0E0D0E09F01220F331F2E
S1132300220F331F220F331FDF01AA0FBB1FA20F9F
S1132310B31FAC54BB4F4D935D936D937C93139754
S1132320C11104C000E010E0980102C08A019B01C1
S1132330DF01AA0FBB1FEE0FFF1FEE0FFF1FEE0FF3
S1132340FF1FEA0FFB1FEC54FB4F04831583268306
S1132350378309C0D0E0DF5F20918605D21708F4E7
S1132360B1CF01C0D0E020918605D21303C02C2F39
S11323700E949D107894DF91CF911F910F91089541
S11323808F929F92AF92BF92FF920F931F93CF931E
S1132390DF9320918605222309F47AC0C0E0F12C52
S11323A000E010E0D0E02C2F30E0F901EE0FFF1F29
S11323B0A901440F551F440F551F440F551FE40F27
S11323C0F51FEC54FB4F40855185452B09F45AC049
S11323D0A901440F551F440F551F440F551FF90100
S11323E0EE0FFF1FE40FF51FEC54FB4F808091802C
S11323F0A280B38089288A288B2809F443C0A901C4
S1132400440F551F440F551F440F551FF901EE0F7C
S1132410FF1FE40FF51FEC54FB4F80809180A280D6
S1132420B380681579058A059B05B8F4A901440FA2
S1132430551F440F551F440F551FF901EE0FFF1F81
S1132440E40FF51FEC54FB4F80809180A280B38091
S1132450861A970AA80AB90A04C08F2C902EA12EB6
S1132460BD2EF901EE0FFF1F220F331F220F331F62
S1132470220F331FE20FF31FEC54FB4F8082918233
S1132480A282B382CF5F20918605C21708F48BCF56
S1132490DF91CF911F910F91FF90BF90AF909F90CC
S11324A08F9008951F920F920FB60F9211242F93BD
S11324B03F934F935F936F937F938F939F93AF93C8
S11324C0BF93EF93FF938091B0049091B104A091D6
S11324D0B204B091B3040196A11DB11D8093B00460
S11324E09093B104A093B204B093B30462E170E298
S11324F080E090E00E94C011FF91EF91BF91AF91F5
S11325009F918F917F916F915F914F913F912F9107
S11325100F900FBE0F901F901895909128049091E2
S11325208605891750F56AE0282F30E0A9014F5F2E
S11325305F4FD901AA0FBB1F220F331F220F331F76
S1132540220F331FA20FB31FAC54BB4FFA01EE0F7F
S1132550FF1F440F551F440F551F440F551FE40F11
S1132560F51FEC54FB4F962F01900D929A95E1F7CD
S11325708F5F909186058917B8F280918605815006
S1132580809386050895AF92BF92CF92DF92EF9227
S1132590FF920F931F93CF93DF93CDB7DEB7C4564B
S11325A0D1090FB6F894DEBF0FBECDBF8C01809168
S11325B08605882309F442C0A12CB12C0F2EFBE41C
S11325C0CF2EF3E0DF2EF02DCE0101967C012B2DD2
S11325D030E0F901EE0FFF1FC901880F991F880F22
S11325E0991F880F991FE80FF91FEC54FB4F408582
S11325F0518540175107E1F48091280480FF11C0F0
S11326003F93BF92DF92CF92FF92EF920E94C71B3B
S1132610C7010E94A8010F900F900F900F900F9088
S11326200F9063E773E08B2D0E948D12BA94A394EC
S1132630B39480918605B81650F201C0A12C8A2D5E
S1132640CC59DF4F0FB6F894DEBF0FBECDBFDF917C
S1132650CF911F910F91FF90EF90DF90CF90BF909B
S1132660AF9008951F93CF93DF93F89480918605DC
S1132670882309F48BC010E0C12FD0E0FE01EE0FD7
S1132680FF1FCE01880F991F880F991F880F991F6C
S1132690E80FF91FEC54FB4F20853185232B09F4F7
S11326A06FC0CE01880F991F880F991F880F991F3B
S11326B0FE01EE0FFF1FE80FF91FEC54FB4F4081A2
S11326C0518162817381452B462B472B09F058C0F9
S11326D0CE01880F991F880F991F880F991FFE013B
S11326E0EE0FFF1FE80FF91FEC54FB4F0084F18538
S11326F0E02D0995882339F063E873E0812F0E9467
S11327008D1211503DC0CE01880F991F880F991F5B
S1132710880F991FFE01EE0FFF1FE80FF91FEC54FD
S1132720FB4F4481558166817781452B462B472B8E
S113273049F0448155816681778140835183628366
S113274073831EC0CE01880F991FCC0FDD1FCC0FE1
S1132750DD1FCC0FDD1FC80FD91FCC54DB4F88857C
S113276099858C5D944031F48CED94E00E94C31201
S1132770181B06C061E973E0812F0E948D1211506D
S11327801F5F80918605181708F476CF7894DF913F
S1132790CF911F9108951F93CF93DF93182FC0E01B
S11327A0D0E08C2F9E01220F331F220F331F220FE4
S11327B0331FFE01EE0FFF1FE20FF31FEC54FB4F1C
S11327C02085318528573A4011F4111104C06EE96F
S11327D073E00E948D122196C431D10511F781E076
S11327E080938605DF91CF911F9108958F929F92D8
S11327F0AF92BF92CF92DF92EF92FF920F931F930B
S1132800CF93DF93CDB7DEB7C456D1090FB6F89492
S1132810DEBF0FBECDBF83E00E943A086C01E12CFD
S1132820F12C82E00E943A084C01A12CB12C809139
S1132830280480FF1BC01F921F929F928F921F92A9
S11328401F92DF92CF9280EB93E09F938F938E0140
S11328500F5F1F4F1F930F930E94C71BC8010E9455
S1132860A8010FB6F894DEBF0FBECDBF8091290436
S1132870813069F018F08230F9F022C081E0809351
S1132880290466E98EE10E944F0580E01EC092E8AB
S1132890C916D104E104F104A8F482E8881691046D
S11328A0A104B10488F482E08093290466E981E0FC
S11328B00E947F0580E009C00E94DC0481E005C01D
S11328C080E003C080E001C080E0CC59DF4F0FB648
S11328D0F894DEBF0FBECDBFDF91CF911F910F9152
S11328E0FF90EF90DF90CF90BF90AF909F908F902C
S11328F008950F931F93CF93DF93CDB7DEB7C456DC
S1132900D1090FB6F894DEBF0FBECDBF8091F2059A
S1132910813071F020F0823009F458C0BAC060915F
S1132920010684E60E944F0581E08093F205AFC062
S11329308091400490914104A0914204B0914304D9
S113294040914604509147046091480470914904B1
S1132950840F951FA61FB71FB695A79597958795C2
S1132960B695A79597958795AC01BD01440F551F62
S1132970661F771F440F551F661F771F8A019B012F
S1132980000F111F221F331F000F111F221F331F9F
S1132990400F511F621F731F840F951FA61FB71F7F
S11329A00091F4051091F5052091F6053091F70595
S11329B0081719072A073B0708F069C062E881E095
S11329C00E947F0582E08093F20561C00E94DC04CE
S11329D040912304509124046091250470912604AD
S11329E08091400490914104A0914204B091430429
S11329F00091460410914704209148043091490401
S1132A007F936F935F934F93B901A801480F591FA8
S1132A106A1F7B1F769567955795479576956795B9
S1132A2057954795DB01CA01880F991FAA1FBB1F41
S1132A30880F991FAA1FBB1F8C019D01000F111F36
S1132A40221F331F000F111F221F331F800F911FDE
S1132A50A21FB31F840F951FA61FB71FBF93AF9369
S1132A609F938F938FEB93E09F938F938E010F5FD0
S1132A701F4F1F930F930E94C71BC8010E94A801F8
S1132A800FB6F894DEBF0FBECDBF81E003C080E077
S1132A9001C080E0CC59DF4F0FB6F894DEBF0FBE03
S1132AA0CDBFDF91CF911F910F910895882311F02D
S1132AB0159A01C01598662311F0149A0895149874
S1132AC008951092290421E040EA56E861E070E09C
S1132AD086EF93E10E949D1008958F929F92AF928A
S1132AE0BF92CF92DF92EF92FF920F931F931092B7
S1132AF0F205C0904004D0904104E0904204F0906C
S1132B0043040091460410914704209148043091F5
S1132B1049040C0D1D1D2E1D3F1D68017901F694FD
S1132B20E794D794C794F694E794D794C7949701FD
S1132B308601000F111F221F331F000F111F221FB8
S1132B40331F48015901880C991CAA1CBB1C880C12
S1132B50991CAA1CBB1C080D191D2A1D3B1D0C0D1C
S1132B601D1D2E1D3F1D6B017C01C00ED11EE21EDA
S1132B70F31EC092F405D092F505E092F605F092AA
S1132B80F7054093010621E040E157E260E070E080
S1132B9089E794E10E944E111F910F91FF90EF90ED
S1132BA0DF90CF90BF90AF909F908F9008954F92F9
S1132BB05F926F927F92AF92BF92CF92DF92EF9229
S1132BC0FF920F931F93CF93DF9300D000D0CDB724
S1132BD0DEB72B013C0129833A834B835C83C80114
S1132BE0B701052E59E0660F771F881F991F5A9564
S1132BF0D1F7502D2AE631E040E050E00E94711BED
S1132C0089819A81AB81BC81821B930BA40BB50B88
S1132C109C01AD01AAE6B1E00E94A81BDC01CB0136
S1132C20072E79E0B695A795979587957A95D1F76C
S1132C30702D481659066A067B06A0F48419950976
S1132C40A609B7092D893E894F89588D2817390758
S1132C504A075B07D8F0A816B906CA06DB06C0F413
S1132C6083E01BC0481A590A6A0A7B0A8D899E8927
S1132C70AF89B88D84159505A605B70558F0A41439
S1132C80B504C604D70440F481E007C084E005C05D
S1132C9082E003C080E001C082E00F900F900F90AB
S1132CA00F90DF91CF911F910F91FF90EF90DF90E4
S1132CB0CF90BF90AF907F906F905F904F900895AA
S1132CC0AF92BF92CF92DF92EF92FF920F931F9336
S1132CD0CF93DF9382E00E943A08EC0181E00E94E6
S1132CE03A089E0140E050E0BC0180E090E01F9271
S1132CF01F921F92E4E6EF930F2EF6E4AF2EB12C51
S1132D00C12CD12CF02D1FE5E12EF12C00E010E0B8
S1132D100E94D7150F900F900F900F90C82F8230FC
S1132D2029F4809101018230A9F530C0809101011C
S1132D30C81771F1C230B9F028F4CC2341F0C13086
S1132D4061F020C0C33099F0C430B9F01BC040E03A
S1132D506BE48AE00E942B0715C040E06CE38AE034
S1132D600E942B070FC00E94DC0481E018C041E0E0
S1132D706CE38AE00E942B0705C041E06BE48AE023
S1132D800E942B07C093010180E009C081E007C0C5
S1132D9080E005C080910101823029F780E0DF9155
S1132DA0CF911F910F91FF90EF90DF90CF90BF9044
S1132DB0AF90089581E280938C051092FC051092E7
S1132DC0F3051092FD051092FE051092FF05109276
S1132DD0000621E040E950ED63E070E081ED97E109
S1132DE00E944E110895CF92DF92EF92FF9281E0FC
S1132DF00E943A086C01E12CF12C8091F3051F929A
S1132E008F9383E094E09F938F938EE895E09F9354
S1132E108F930E94C71B8EE895E00E94A8010F9033
S1132E200F900F900F900F900F908091F3058230C8
S1132E3009F44CC028F4882351F08130D1F0A5C0A6
S1132E40833009F460C0843009F494C09EC081E0EA
S1132E508093F305C092FD05D092FE05E092FF0534
S1132E60F092000640E06AE58FE00E942B0780E0C4
S1132E7093C08091FD059091FE05A091FF05B0914E
S1132E800006AC01BD014B5F5F4F6F4F7F4F4C1588
S1132E905D056E057F0550F4C092FD05D092FE05D8
S1132EA0E092FF05F092000680E076C00597A10944
S1132EB0B109C816D906EA06FB0608F068C082E024
S1132EC08093F30510928D0580E066C080918D0596
S1132ED08F5F80938D05C092FD05D092FE05E09230
S1132EE0FF05F0920006843008F453C083E0809319
S1132EF0F305C0928705D0928805E0928905F09287
S1132F008A0580E049C08091FD059091FE05A0915D
S1132F10FF05B09100068C159D05AE05BF0548F46C
S1132F2084E08093F30510928D0541E061E40E94F2
S1132F302B07C092FD05D092FE05E092FF05F092AA
S1132F4000068091870590918805A0918905B0912C
S1132F508A058C159D05AE05BF0510F46C017D0135
S1132F60C0928705D0928805E0928905F0928A057F
S1132F7080E012C080918D058F5F80938D05853030
S1132F8050F00E94DC0481E007C080E005C080E0CE
S1132F9003C080E001C080E0FF90EF90DF90CF900D
S1132FA008958F929F92AF92BF92CF92DF92EF9249
S1132FB0FF920F9382E00E943A084C01A12CB12C9D
S1132FC081E00E943A086C01E12CF12C40918C05BF
S1132FD050E04536510508F05DC3FA01E95AFF4F48
S1132FE00C94931B60EA8EE10E944F05809140048B
S1132FF090914104A0914204B0914304409146044D
S1133000509147046091480470914904840F951FBE
S1133010A61FB71FB695A79597958795B695A795BB
S113302097958795AC01BD01440F551F661F771F07
S1133030440F551F661F771F6A017B01CC0CDD1CF2
S1133040EE1CFF1CCC0CDD1CEE1CFF1C4C0D5D1D8E
S11330506E1D7F1D840F951FA61FB71F88539F4F9A
S1133060AF4FBF4F8093020690930306A0930406CC
S1133070B093050682E280938C0580E028C380919A
S1133080400490914104A0914204B09143044091C2
S11330904604509147046091480470914904840F98
S11330A0951FA61FB71FB695A79597958795B695B3
S11330B0A79597958795AC01BD01440F551F661FD1
S11330C0771F440F551F661F771F6A017B01CC0CC5
S11330D0DD1CEE1CFF1CCC0CDD1CEE1CFF1C4C0D7F
S11330E05D1D6E1D7F1D840F951FA61FB71FC09009
S11330F00206D0900306E0900406F0900506C81678
S1133100D906EA06FB0608F0C7C210928C050E9495
S1133110DC0480E0DCC20E946016813009F0BEC28B
S113312080938C056CE38EE10E944F0580E0CFC252
S113313029E2C21AD108E108F10839E5C316D1041D
S1133140E104F10408F0ACC282E080938C0580E0D5
S1133150BEC24DE2C41641E0D406E104F10408F411
S1133160A1C284E680938C056EE18AE00E947F050B
S113317080E0ADC259E2C51AD108E108F10889E539
S1133180C816D104E104F10408F08EC262E384E1BC
S11331900E944F058091400490914104A091420403
S11331A0B09143044091460450914704609148040F
S11331B070914904840F951FA61FB71FB695A79554
S11331C097958795B695A79597958795AC01BD0179
S11331D0440F551F661F771F440F551F661F771F27
S11331E06A017B01CC0CDD1CEE1CFF1CCC0CDD1C2D
S11331F0EE1CFF1C4C0D5D1D6E1D7F1D840F951F65
S1133200A61FB71F82599F4FAF4FBF4F809302062F
S113321090930306A0930406B093050683E080937D
S11332208C0580E054C28091400490914104A091A7
S11332304204B09143044091460450914704609184
S1133240480470914904840F951FA61FB71FB695B3
S1133250A79597958795B695A79597958795AC016A
S1133260BD01440F551F661F771F440F551F661F6E
S1133270771F6A017B01CC0CDD1CEE1CFF1CCC0CFF
S1133280DD1CEE1CFF1C4C0D5D1D6E1D7F1D840F8F
S1133290951FA61FB71FC0900206D0900306E090AA
S11332A00406F0900506C816D906EA06FB0608F0DF
S11332B0FDC10E94DC0484E080938C0502E321E0DC
S11332C04AEA60E085E00E94700680E000C228ECD3
S11332D0C216D104E104F10408F0EAC185E0809348
S11332E08C0541E066E48AE00E942B0780E0EFC190
S11332F03DEDC316D104E104F10408F4DBC162E33B
S11333008FE00E944F0586E080938C0580E0DFC14A
S11333104AEA84169104A104B10408F0CDC187E0FF
S113332080938C051092F3051092FD051092FE0512
S11333301092FF051092000680E0C9C10E94F316A6
S1133340882309F4BBC188E080938C0568E28FE090
S11333500E944F0580E0BBC154E685169104A10488
S1133360B10408F0ADC18091400490914104A09152
S11333704204B09143044091460450914704609143
S1133380480470914904840F951FA61FB71FB69572
S1133390A79597958795B695A79597958795AC0129
S11333A0BD01440F551F661F771F440F551F661F2D
S11333B0771F6A017B01CC0CDD1CEE1CFF1CCC0CBE
S11333C0DD1CEE1CFF1C4C0D5D1D6E1D7F1D840F4E
S11333D0951FA61FB71F8C599F4FAF4FBF4F8093A8
S11333E0020690930306A0930406B093050689E0B1
S11333F080938C0562E38AE00E947F0580E067C1C8
S11334008091400490914104A0914204B0914304FE
S113341040914604509147046091480470914904D6
S1133420840F951FA61FB71FB695A79597958795E7
S1133430B695A79597958795AC01BD01440F551F87
S1133440661F771F440F551F661F771F6A017B0194
S1133450CC0CDD1CEE1CFF1CCC0CDD1CEE1CFF1C7C
S11334604C0D5D1D6E1D7F1D840F951FA61FB71F7C
S1133470C0900206D0900306E0900406F090050682
S1133480C816D906EA06FB0608F01CC10E94DC0433
S11334908AE080938C0580E01AC10E94DC0480914C
S11334A0400490914104A0914204B091430440919E
S11334B04604509147046091480470914904840F74
S11334C0951FA61FB71FB695A79597958795B6958F
S11334D0A79597958795AC01BD01440F551F661FAD
S11334E0771F440F551F661F771F4A015B01880C25
S11334F0991CAA1CBB1C880C991CAA1CBB1C480D3B
S1133500591D6A1D7B1D840F951FA61FB71F4E965C
S1133510A11DB11D8093020690930306A093040697
S1133520B09305068BE080938C0562E38AE00E94E9
S11335304F05C092F805D092F905E092FA05F09291
S1133540FB0580E0C4C08091400490914104A091A7
S11335504204B09143044091460450914704609161
S1133560480470914904840F951FA61FB71FB69590
S1133570A79597958795B695A79597958795AC0147
S1133580BD01440F551F661F771F440F551F661F4B
S1133590771F4A015B01880C991CAA1CBB1C880C70
S11335A0991CAA1CBB1C480D591D6A1D7B1D840F48
S11335B0951FA61FB71F8090020690900306A09047
S11335C00406B090050688169906AA06BB0608F0FC
S11335D07BC08091F8059091F905A091FA05B0910E
S11335E0FB054601570125E0820E911CA11CB11C6C
S11335F088169906AA06BB06A0F4BC01CD016C1975
S11336007D098E099F092AE030E040E050E00E94E5
S1133610711B60938B0540E06BE482E00E942B07F2
S113362027C04C015D0135E0830E911CA11CB11C27
S11336308C149D04AE04BF04B0F4A7019601281BAA
S1133640390B4A0B5B0BCA01B9012AE030E040E0B8
S113365050E00E94711B60938B0541E06BE482E0B3
S11336600E942B0705C081E080938B050E94DC0437
S11336708CE080938C0580E02AC080918B0581507A
S113368080938B05811122C08DE094E00E94A801F3
S113369081E01DC080E01BC080E019C080E017C03D
S11336A080E015C080E013C080E011C080E00FC04E
S11336B080E00DC080E00BC080E009C080E007C05E
S11336C080E005C080E003C080E001C080E00F918D
S11336D0FF90EF90DF90CF90BF90AF909F908F902E
S11336E00895A1E21A2EAA1BBB1BFD010DC0AA1F3F
S11336F0BB1FEE1FFF1FA217B307E407F50720F057
S1133700A21BB30BE40BF50B661F771F881F991FD1
S11337101A9469F760957095809590959B01AC011A
S1133720BD01CF010895EE0FFF1F0590F491E02D28
S11337300994A29FB001B39FC001A39F700D811D86
S11337401124911DB29F700D811D1124911D0895A6
S11337500E94991BA59F900DB49F900DA49F800D6E
S1133760911D11240895A0E0B0E0E9EBFBE10C9475
S1133770711EFE01359661917191AF018091080629
S1133780909109060E94E91BE2E00C948D1EAEE0C4
S1133790B0E0EDECFBE10C946F1E0D891E8986E010
S11337A08C831A8309838FEF9FE79E838D83AE01F9
S11337B0475E5F4F6F89788DCE0101960E94E91BA9
S11337C0EF81F885E00FF11F10822E96E4E00C944F
S11337D08B1EACE0B0E0EFEEFBE10C94611E7C01CB
S11337E06B018A01FC0117821682838181FFBDC1AE
S11337F0CE0101964C01F7019381F60193FD859169
S113380093FF81916F01882309F4ABC1853239F4A8
S113381093FD859193FF81916F01853229F4B7015E
S113382090E00E94D11DE7CF512C312C20E02032B2
S1133830A0F48B3269F030F4803259F0833269F4A9
S113384020612CC08D3239F0803339F4216026C0D8
S11338502260246023C0286021C027FD27C030EDEA
S1133860380F3A3078F426FF06C0FAE05F9E300D38
S11338701124532E13C08AE0389E300D1124332EA8
S113388020620CC08E3221F426FD6BC1206406C078
S11338908C3611F4206802C0883641F4F60193FD99
S11338A0859193FF81916F018111C1CF982F9F7DE5
S11338B09554933028F40C5F1F4FFFE3F9830DC038
S11338C0833631F0833771F0833509F05BC022C051
S11338D0F801808189830E5F1F4F44244394512C47
S11338E0540115C03801F2E06F0E711CF801A0807C
S11338F0B18026FF03C0652D70E002C06FEF7FEF3B
S1133900C5012C870E94C61D2C0183012C852F77AD
S1133910222E17C03801F2E06F0E711CF801A0804E
S1133920B18026FF03C0652D70E002C06FEF7FEF0A
S1133930C5012C870E94BB1D2C012C852068222EDA
S1133940830123FC1BC0832D90E048165906B0F474
S1133950B70180E290E00E94D11D3A94F4CFF501C2
S113396027FC859127FE81915F01B70190E00E94B9
S1133970D11D31103A94F1E04F1A51084114510409
S113398071F7E5C0843611F0893639F5F80127FF5F
S113399007C060817181828193810C5F1F4F08C0D1
S11339A060817181882777FD8095982F0E5F1F4F66
S11339B02F76B22E97FF09C09095809570956195EA
S11339C07F4F8F4F9F4F2068B22E2AE030E0A40132
S11339D00E94031EA82EA81844C0853729F42F7E00
S11339E0B22E2AE030E025C0F22FF97FBF2E8F36A9
S11339F0C1F018F4883579F0B4C0803719F08837ED
S1133A0021F0AFC02F2F2061B22EB4FE0DC08B2D3C
S1133A108460B82E09C024FF0AC09F2F9660B92E77
S1133A2006C028E030E005C020E130E002C020E11B
S1133A3032E0F801B7FE07C0608171818281938111
S1133A400C5F1F4F06C06081718180E090E00E5FC3
S1133A501F4FA4010E94031EA82EA818FB2DFF7758
S1133A60BF2EB6FE0BC02B2D2E7FA51450F4B4FE32
S1133A700AC0B2FC08C02B2D2E7E05C07A2C2B2D3B
S1133A8003C07A2C01C0752C24FF0DC0FE01EA0D81
S1133A90F11D8081803311F4297E09C022FF06C004
S1133AA07394739404C0822F867809F0739423FD71
S1133AB013C020FF06C05A2C731418F4530C571863
S1133AC0732C731468F4B70180E290E02C870E9491
S1133AD0D11D73942C85F5CF731410F4371801C0DD
S1133AE0312C24FF12C0B70180E390E02C870E94A0
S1133AF0D11D2C8522FF17C021FF03C088E590E06B
S1133B0002C088E790E0B7010CC0822F867859F094
S1133B1021FD02C080E201C08BE227FD8DE2B701E6
S1133B2090E00E94D11DA51438F4B70180E390E021
S1133B300E94D11D5A94F7CFAA94F401EA0DF11D05
S1133B408081B70190E00E94D11DA110F5CF3320F0
S1133B5009F451CEB70180E290E00E94D11D3A945D
S1133B60F6CFF7018681978102C08FEF9FEF2C96E5
S1133B70E2E10C947D1EFC0105906150704001103F
S1133B80D8F7809590958E0F9F1F0895FC01615082
S1133B90704001900110D8F7809590958E0F9F1F6B
S1133BA008950F931F93CF93DF93182F092FEB01E1
S1133BB08B8181FD03C08FEF9FEF20C082FF10C077
S1133BC04E815F812C813D81421753077CF4E8814B
S1133BD0F9819F012F5F3F4F39832883108306C0EB
S1133BE0E885F985812F0995892B29F72E813F8155
S1133BF02F5F3F4F3F832E83812F902FDF91CF91F3
S1133C001F910F910895FA01AA27283051F120310C
S1133C1081F1E8946F936E7F6E5F7F4F8F4F9F4F5C
S1133C20AF4FB1E03ED0B4E03CD0670F781F891F9E
S1133C309A1FA11D680F791F8A1F911DA11D6A0F6C
S1133C40711D811D911DA11D20D009F468943F911F
S1133C502AE0269F11243019305D3193DEF6CF011E
S1133C600895462F4770405D4193B3E00FD0C9F7E4
S1133C70F6CF462F4F70405D4A3318F0495D31FD51
S1133C804052419302D0A9F7EACFB4E0A6959795A4
S1133C90879577956795BA95C9F70097610571057A
S1133CA008959B01AC010A2E0694579547953795C4
S1133CB02795BA95C9F7620F731F841F951FA01D1E
S1133CC008952F923F924F925F926F927F928F92BC
S1133CD09F92AF92BF92CF92DF92EF92FF920F9397
S1133CE01F93CF93DF93CDB7DEB7CA1BDB0B0FB6A1
S1133CF0F894DEBF0FBECDBF09942A88398848885E
S1133D005F846E847D848C849B84AA84B984C884F3
S1133D10DF80EE80FD800C811B81AA81B981CE0FEA
S1133D20D11D0FB6F894DEBF0FBECDBFED010895CF
S1073D30F894FFCF31
S1133D3402025472696D6974652064696E206E6F41
S1133D447520756C74696D756C206D6573616A2179
S1133D542121000A202020646973743A20256C759B
S1133D64200A20202074696D703A20256C75004D5A
S1133D742D616D206F7072697421005374617274C3
S1133D8420467265652050205020502100537461F0
S1133D94727420636F6D706C65746520656E636CFA
S1133DA46F73656420636F6E746F757221004D6167
S1133DB42064756320696E61696E746521004D61C8
S1133DC42064756320696E61706F6921004D612000
S1133DD464756320696E61696E7465207374616EC1
S1133DE4676121004D612064756320696E61696EA9
S1133DF47465206472656170746121004D6120648E
S1133E04756320696E61706F69207374616E676194
S1133E1421004D612064756320696E61706F6920AF
S1133E24647265617074612100726F7469726520D3
S1133E34736D656368657261203A20257520257564
S1133E44202575202575006D6120726F7465736378
S1133E5420737072652064726561707461006D61B1
S1133E6420726F7465736320737072652073746158
S1133E746E67610073656E736F7220232564203D41
S1133E8420256C750073656E736F7273546F53657C
S1133E946E64202564202564202564202564200084
S1133EA473656E736F7273546F5265616420256415
S1133EB4202564202564202564203C3C2D2D00739A
S1133EC4746172653D20310073746172652D3E32F4
S1133ED4202064697374503D256C75007374617299
S1133EE4652D3E33202044503D256C750073746168
S1133EF472652D3E342064697374503D256C7520BD
S1133F0444503D256C750073746172653D256420CD
S1133F1400646966663D2564202020647264746DBF
S1133F24703D256C75202073696465523D256C755C
S1133F340020203E3E3E6D61696E2073746172748C
S1133F443C3C3C202000456E7472792061646175A8
S1133F5467617420696E20636F61646121206C6100
S1133F6420696E6465782025642073692063752054
S1133F7464656C61793A20256C7500456E747279B8
S1133F842073746572732064696E20636F61646165
S1133F942E20646520706520706F7A6974696120CD
S1133FA425750072656D6F76652066756E63746938
S1133FB46F6E0072657475726E65642074727565D3
S1133FC4006E6F7420706572696F64696300726552
S1133FD47365742074696D65722071756575650007
S1133FE4666C3A256C75202066723A256C750064FB
S1133FF4703A20256C75202074696D653A256C75BA
S11340040072656D6F76656420706172616C656CB5
S113401420636865636B206663740061646465642B
S113402420706172616C656C20636865636B2066E3
S1134034637400636D2073743A2575200078416DB0
S11340442070617263617420706172616C656C21AB
S1054054000066
S9030000FC
