S01300005352492050726F6A6563742E737265632C
S11300000C94BC000C94D9000C94D9000C94D90025
S11300100C94D9000C94F2030C94D9000C94D900DC
S11300200C94D9000C94D9000C94D9000C94D900E8
S11300300C94D9000C94D9000C94D9000C9431136D
S11300400C94D9000C94D9000C94D9000C94D900C8
S11300500C94E6020C94D9000C94D9000C94D900A9
S11300600C94D9000C94D9000C94D9000C94D900A8
S11300700C94D9000C94D9000C94D90052014A0173
S11300808701A50135013801A5018401A501A50158
S1130090A501A501A301A501A501A5015A013B01E3
S11300A042014701640169015D01A00197014F19F3
S11300B05C196D19D7192B1A3C1A4C1A621A701A4A
S11300C0C41A111B671B011C0E1C0E1C0E1C0E1CDB
S11300D00E1C0E1C0E1C0E1C0E1C0E1C0E1C0E1CCC
S11300E00E1C0E1C0E1C0E1C0E1C0E1C0E1C0E1CBC
S11300F0B61803190E1C0E1C0E1C0E1C0E1C0E1C16
S11301000E1C0E1C0E1C0E1C0E1C0E1C0E1C0E1C9B
S11301100E1C0E1C0E1C0E1C0E1C0E1C0E1C0E1C8B
S11301200E1C0E1C0E1C0E1C0E1C0E1C0E1C0E1C7B
S11301300E1C0E1C0E1C0E1C0E1C0E1C0E1C0E1C6B
S11301400E1C0E1C0E1C0E1C0E1C0E1C0E1C0E1C5B
S11301500E1C0E1C0E1C0E1C0E1C0E1C0E1C0E1C4B
S11301600E1C0E1C0E1C0E1C0E1C0E1C0E1C0E1C3B
S11301700E1C0E1C0E1C7E1911241FBECFEFD0E1E5
S1130180DEBFCDBF14E0A0E0B1E0E4E9FEE302C0CD
S113019005900D92AE33B107D9F726E0AEE3B4E093
S11301A001C01D92A732B207E1F70E9482100C949D
S11301B0481F0C9400001092480480E008950F93A7
S11301C0CF93DF93809153049FEF980F963008F0FC
S11301D041C0C0915504D091560490915F0493306E
S11301E019F480E00E94EA10909153049330B1F026
S11301F028F4913049F0923061F023C0953099F0A1
S1130200B8F09630D1F01DC06D2F8C2F0E94BF0521
S113021018C06D2F8C2F0E94EF0513C06D2F8C2FEB
S11302200E9420060EC06D2F8C2F0E94760609C0F6
S11302306D2F8C2F0E944E0604C06D2F8C2F0E94B0
S1130240A50680915F04833009F07FC081E00E949D
S1130250EA107BC090E0FC013797E931F10508F022
S113026074C0E25CFF4F0C94571C0E945B106DC07D
S11302700E946A056AC060915604809155040E94E8
S1130280171663C0809155040E94D1085EC00E9475
S113029048055BC041E060915604809155040E947A
S11302A0920753C040E060915604809155040E9427
S11302B092074BC00E94221648C00E9448050E9423
S11302C0A8140E944B1141C0809155040E946704F8
S11302D03CC080915F048330C0F160915504862F47
S11302E090E0A0E0B0E0BA2FA92F982F88272091A2
S11302F05604BC01CD01620F711D811D911D4091F9
S113030057040E942E1621C00E949E171EC0809181
S11303105F048430D0F00091580420915704409138
S113032056046091550482E00E94D7060EC0809165
S11303305F04813051F4809155040E942D1105C051
S11303400E940D1102C00E948509DF91CF910F9187
S11303500895FC0101900020E9F73197E81BF90B9F
S11303602E2F3AEA3093C600ABEDB5E01197F1F7C2
S113037000C0000037E13093C600ABEDB5E0119743
S1130380F1F700C00000E093C600EBEDF5E0319713
S1130390F1F700C00000222389F0382FE82FF92F4D
S11303A0A6ECB0E081918C938BED95E00197F1F789
S11303B000C000008E2F831B8217A0F385E5809375
S11303C0C600ABEDB5E01197F1F700C00000089549
S11303D0CF93DF9370E06115710591F0E82FF92F49
S11303E080E090E0A6ECB0E021912C93CBEDD5E039
S11303F02197F1F700C00000019686179707A0F334
S1130400DF91CF910895CF93DF9300D000D01F9256
S1130410CDB7DEB79AEA998391E29A8391E09B8300
S11304208C8385E58D8365E0CE0101960E94E80109
S11304300F900F900F900F900F90DF91CF91089530
S1130440CF93DF9300D000D0CDB7DEB78AEA89839B
S113045081E28A831B8285E58C8364E0CE01019668
S11304600E94E8010F900F900F900F90DF91CF91B1
S113047008950F931F93CF93DF93CDB7DEB7E29721
S11304800FB6F894DEBF0FBECDBF20913E0430916D
S11304903F042F5F3F4F30933F0420933E0420914D
S11304A03E0430913F0490914804923011F128F4B5
S11304B0992359F0913081F07EC0943009F443C0FF
S11304C058F1953009F445C076C08A3A09F073C0F2
S11304D081E0809348046FC0823230F492E09093BC
S11304E048048093530467C0109248040E94200279
S11304F062C090915304980F90935404811104C0E6
S113050084E08093480457C093E090934804809318
S11305105F0410924E044FC0E0914E0491E09E0F90
S113052090934E04F0E0EB5AFB4F808320915404E7
S1130530820F8093540480915F049817E0F184E063
S11305408093480438C08093490485E0809348042C
S113055032C020915404281731F1821730F430E06E
S1130560A901481B5109CA0103C090E0821B9109EB
S11305709F938F938CE893E09F938F938E010F5FEB
S11305801F4F1F930F930E94771CC8010E94A9015B
S1130590809149040E9403020F900F900F900F90D6
S11305A00F900F9002C00E94DF008BED90E00E943C
S11305B0A21310924804E2960FB6F894DEBF0FBE61
S11305C0CDBFDF91CF911F910F9108951F920F928C
S11305D00FB60F9211242F933F934F935F936F9312
S11305E07F938F939F93AF93BF93EF93FF938091E8
S11305F0C6000E943902FF91EF91BF91AF919F9184
S11306008F917F916F915F914F913F912F910F90B7
S11306100FBE0F901F901895CF93DF9370E0611574
S1130620710591F0E82FF92F80E090E0A6ECB0E09E
S113063021912C93CBEDD5E02197F1F700C0000078
S1130640019686179707A0F3DF91CF910895CF9372
S1130650DF9300D000D0CDB7DEB78AEA898380E289
S11306608A831B8285E58C8364E0CE0101960E9417
S11306700C030F900F900F900F90DF91CF9108957E
S113068089E18093C400E1ECF0E08081806880839C
S11306908081806180838081886080831092480497
S11306A008958091000180FF22C0809141049091BF
S11306B04204A0914304B09144040296A11DB11DCB
S11306C08093410490934204A0934304B093440460
S11306D0809140048F5F8093400480914004837034
S11306E031F09091000181E089278093000180E03E
S11306F008950F931F93CF93DF93CDB7DEB764971D
S11307000FB6F894DEBF0FBECDBF8091000181FF0C
S11307105DC09091000182E089278093000180915F
S1130720600490916104A0916204B09163044091CB
S11307306604509167046091680470916904840FA1
S1130740951FA61FB71FAC01BD01440F551F661F9F
S1130750771F440F551F661F771F8A019B01000FE7
S1130760111F221F331F000F111F221F331F400FA1
S1130770511F621F731F840F951FA61FB71FAC0163
S1130780BD017695679557954795769567955795E5
S113079047958091410490914204A0914304B09103
S11307A044042AEA298322E12A8328E02B837C83D8
S11307B06D835E834F83B887A9879A878B8785E586
S11307C08C876CE0CE0101960E940C0380E0649655
S11307D00FB6F894DEBF0FBECDBFDF91CF911F914E
S11307E00F9108951F920F920FB60F9211242F9319
S11307F03F934F935F936F937F938F939F93AF93A5
S1130800BF93EF93FF9383B1909165048170981720
S1130810B9F083B1817080936504809160049091F4
S11308206104A0916204B09163040196A11DB11DFD
S11308308093600490936104A0936204B093630472
S113084093B18091640490789817B9F083B180785B
S1130850809364048091660490916704A091680475
S1130860B09169040196A11DB11D80936604909313
S11308706704A0936804B0936904809100018370B5
S113088071F485E0809300011092400421E040E47B
S11308905DE063E070E081E593E00E942F128091B7
S11308A0000183608093000110924004FF91EF9156
S11308B0BF91AF919F918F917F916F915F914F9174
S11308C03F912F910F900FBE0F901F901895FF929C
S11308D00F931F93CF93DF93CDB7DEB7C456D109DF
S11308E00FB6F894DEBF0FBECDBFF82E00914104C1
S11308F01091420420914304309144048091600497
S113090090916104A0916204B091630440916604E3
S11309105091670460916804709169043F932F9328
S11309201F930F938A019B01080F191F2A1F3B1F56
S1130930D901C801880F991FAA1FBB1F880F991FCF
S1130940AA1FBB1FAC01BD01440F551F661F771FB3
S1130950440F551F661F771F840F951FA61FB71FCF
S1130960080F191F2A1F3B1FB901A8017695679527
S11309705795479576956795579547957F936F93C8
S11309805F934F9382E091E09F938F938E010F5F6B
S11309901F4F1F930F930E94771CC8010E94A90147
S11309A089E793E00E9401120FB6F894DEBF0FBEF0
S11309B0CDBF81110AC021E048E256E46FE070E047
S11309C089E793E00E94801104C089E793E00E94C4
S11309D0A213FF20C1F010926004109261041092DF
S11309E062041092630410926604109267041092D9
S11309F06804109269041092410410924204109207
S1130A00430410924404CC59DF4F0FB6F894DEBF70
S1130A100FBECDBFDF91CF911F910F91FF9008952D
S1130A2010926004109261041092620410926304A4
S1130A30109266041092670410926804109269047C
S1130A4010926504109264040895ECE6F0E080814D
S1130A508160808320988081806880832798E8E67D
S1130A60F0E08081826080830E94100508958823CD
S1130A7051F021E040E251EA67E070E089E793E059
S1130A800E942F12089589E793E00E94A21308950B
S1130A9017BC1092B30082B1807882B98BB1887F81
S1130AA08BB98BB1807E8BB98BB1807F8BB98BB1C5
S1130AB0807C8BB90E9471088091460480FF04C039
S1130AC08EE191E00E94A90188E495E00E94A213BE
S1130AD080E008958091460480FF04C08AE291E09A
S1130AE00E94A901089517BC1092B300239A84B5FB
S1130AF0836084BD84B5806484BD84B5806884BD0E
S1130B0085B5816085BD579AE0EBF0E08081836014
S1130B108083808180648083808180688083E1EB2E
S1130B20F0E0808181608083259A2D9A249A2C9A02
S1130B30539A559A8BB1807F8BB98BB1807C8BB9DA
S1130B40529A549A8BB1887F8BB98BB1807E8BB9C2
S1130B500895409581110AC0662319F05B9A5D9847
S1130B6002C05B985D9A4093B3000895662319F020
S1130B705A985C9A02C05A9A5C9847BD0895CF93DC
S1130B80DF93D82FC62F462F60E080E00E94A9058E
S1130B904C2F60E081E00E94A905AD2FB0E020E475
S1130BA032E44FE050E00E946C1CAB01BC0120E039
S1130BB088E495E00E942F1220E030E0A90160E073
S1130BC070E0CB010E9442088091460480FF04C07B
S1130BD08DE591E00E94A901DF91CF910895CF9313
S1130BE0DF93D82FC62F462F61E080E00E94A9052D
S1130BF04C2F61E081E00E94A905AD2FB0E020E414
S1130C0032E44FE050E00E946C1CAB01BC0120E0D8
S1130C1088E495E00E942F1220E030E0A90160E012
S1130C2070E0CB010E944208169A8091460480FF2E
S1130C3004C08DE691E00E94A901DF91CF9108954F
S1130C40CF93C82F462F60E080E00E94A9054AE0B8
S1130C5060E081E00E94A905AC2FB0E020E432E41A
S1130C604FE050E00E946C1CAB01BC0120E088E422
S1130C7095E00E942F1220E030E0A90160E271EAC1
S1130C8087E090E00E9442088091460480FF04C0FF
S1130C908CE791E00E94A901CF910895CF93DF934F
S1130CA0C82FD62F4AE060E080E00E94A9054D2FAE
S1130CB060E081E00E94A905AC2FB0E020E432E4BA
S1130CC04FE050E00E946C1CAB01BC0120E088E4C2
S1130CD095E00E942F128091460480FF04C083E9AE
S1130CE091E00E94A901DF91CF910895CF93C82F7D
S1130CF0462F61E080E00E94A9054AE061E081E0BE
S1130D000E94A905AC2FB0E020E432E44FE050E0AB
S1130D100E946C1CAB01BC0120E088E495E00E94B9
S1130D202F1220E030E0A90160E271EA87E090E050
S1130D300E944208169A8091460480FF04C08BEA00
S1130D4091E00E94A901CF910895CF93DF93C82F1A
S1130D50D62F4AE061E080E00E94A9054D2F61E0B2
S1130D6081E00E94A905AC2FB0E020E432E44FE01A
S1130D7050E00E946C1CAB01BC0120E088E495E0CB
S1130D800E942F1220E231EA47E050E060E070E078
S1130D90CB010E944208169A8091460480FF04C049
S1130DA081EC91E00E94A901DF91CF910895DF9237
S1130DB0EF92FF920F931F93CF93DF93CDB7DEB7DC
S1130DC0C456D1090FB6F894DEBF0FBECDBFD82EDE
S1130DD0E62EF42E122F402F622F80E00E94A905E8
S1130DE04F2D6E2D81E00E94A905AD2DB0E020E4C9
S1130DF032E44FE050E00E946C1CAB01BC0120E0E7
S1130E0088E495E00E942F1211110DC081E0E812D0
S1130E1018C020E030E0A90160E271EA87E090E0C8
S1130E200E94420851C0113079F5E1102DC020E232
S1130E3031EA47E050E060E070E0CB010E944208F4
S1130E4043C0E11021C00F1550F420E231EA47E01D
S1130E5050E060E070E0CB010E94420835C0F0161B
S1130E6050F420E030E0A90160E271EA87E090E00C
S1130E700E94420829C020E030E0A90160E070E04F
S1130E80CB010E94420820C0F01650F420E030E06C
S1130E90A90160E271EA87E090E00E94420814C070
S1130EA00F1550F420E231EA47E050E060E070E0D2
S1130EB0CB010E94420808C020E030E0A90160E0B4
S1130EC070E0CB010E9442088091460480FF1BC061
S1130ED01F920F931F921F931F92FF921F92EF92E4
S1130EE088ED91E09F938F938E010F5F1F4F1F93A7
S1130EF00F930E94771CC8010E94A9010FB6F894B1
S1130F00DEBF0FBECDBFCC59DF4F0FB6F894DEBFA6
S1130F100FBECDBFDF91CF911F910F91FF90EF9046
S1130F20DF900895CF93DF93D82FC62F41111CC0B3
S1130F30462F61E081E00E94A9054C2F60E080E02B
S1130F400E94A9058091460480FF04C086EF91E0C9
S1130F500E94A90120E030E0A90160E271EA87E083
S1130F6090E00E9442081BC0462F60E081E00E948E
S1130F70A9054C2F61E080E00E94A90580914604F8
S1130F8080FF04C08DE092E00E94A90120E231EAD2
S1130F9047E050E060E070E0CB010E944208AD2FD2
S1130FA0B0E020E432E44FE050E00E946C1CAB015E
S1130FB0BC0120E088E495E00E942F12DF91CF91DC
S1130FC0089592B180E2892782B980E0089592B1B0
S1130FD080E1892782B980E0089580914604829552
S1130FE08F708770813019F0823099F02BC0809116
S1130FF04504811102C0179825C0873018F182B1C9
S1131000805882B9809145048C30E1F410924504F3
S113101019C08091450425E2829F212D1124982F27
S1131020921B9695920F96959695292F220F220F33
S1131030220F291B821B8D7F11F4179803C0813066
S113104009F4179A809145048F5F8093450480E0EA
S113105008950C9A0D9A0E9A0F9A089510924504C9
S11310601798882351F021E040E950ED63E070E0E7
S11310708DEE97E00E942F1208958DEE97E00E9466
S1131080A2130895CF92DF92EF92FF9269017A0141
S1131090611571058105910531F481EE97E00E9497
S11310A0A213149807C021E0AB01BC0181EE97E0C4
S11310B00E942F12C114D104E104F10431F487EE2B
S11310C097E00E94A213159807C021E0B701A6017A
S11310D087EE97E00E942F12FF90EF90DF90CF9061
S11310E0089581EE97E00E94A21387EE97E00E9494
S11310F0A213159814980895EF92FF920F931F93DB
S1131100CF93DF93C0E0D0E00F2EF3E2EF2EF2E0B6
S1131110FF2EF02D02E814E08091B50490E00C2E2F
S113112002C0959587950A94E2F780FF22C0FE01DC
S1131130EE0FFF1FEE0FFF1FEE58FB4F4081518152
S1131140628173817F936F935F934F93DF93CF9308
S1131150FF92EF921F930F930E94771CC8010E9485
S1131160A9018DB79EB70A960FB6F8949EBF0FBE1D
S11311708DBF2196C430D10579F680E0DF91CF91FF
S11311801F910F91FF90EF90089524E0829FC0017A
S11311901124FC01EE58FB4F80819181A281B3811F
S11311A00895CF93DF934091B50421E030E0B90175
S11311B002C0660F771F8A95E2F7CB0184278093DC
S11311C0B5043091B5042091B5049091B504809193
S11311D0B50433FB332730F91F923F9322FB2227B8
S11311E020F91F922F93969591701F929F9381706F
S11311F01F928F9384E392E09F938F93C2E8D4E08D
S1131200DF93CF930E94771CCE010E94A9013091F5
S1131210B4042091B4049091B4048091B40433FBD9
S1131220332730F91F923F9322FB222720F91F9284
S11312302F93969591701F929F9381701F928F9315
S11312408FE492E09F938F93DF93CF930E94771C58
S1131250CE010E94A9018CE798E00E9401129091AE
S1131260B5046DB77EB7685E7F4F0FB6F8947EBF46
S11312700FBE6DBF992361F0811115C021E040E4D8
S113128052E46FE070E08CE798E00E9480110FC098
S11312909091B50491110BC0882349F08CE798E034
S11312A00E94A21304C08091B5048823B9F3DF918E
S11312B0CF910895882369F08FE08093B40421E0EE
S11312C040E553EC60E070E08FEF9AE00E942F124B
S11312D008958FEF9AE00E94A2130895882351F095
S11312E021E040E950ED63E070E085E899E00E9478
S11312F02F12089585E899E00E94A2130895FC0135
S113130070836183528343830895CF93DF93CDB772
S1131310DEB764970FB6F894DEBF0FBECDBF8AEA7E
S1131320898383E18A8380E18B83409172045091A5
S113133073046091740470917504CE0104960E9444
S11313407F094091760450917704609178047091FC
S11313507904CE0108960E947F0940917A04509145
S11313607B0460917C0470917D04CE010C960E94F4
S11313707F0940917E0450917F04609180047091B4
S11313808104CE0140960E947F0985E58C8B64E13F
S1131390CE0101960E940C0380E064960FB6F89487
S11313A0DEBF0FBECDBFDF91CF910895AAE7B0E0B5
S11313B08C9187608C93ECE7F0E08081806480837B
S11313C080818F7780838081806280838C91806824
S11313D08C931092B5041092B4040895ECE7F0E0F5
S11313E09081907E90839081892B8083EAE7F0E05E
S11313F080818064808308950E94EE09EAE7F0E02A
S1131400808186FDFDCF2091780022952695269532
S113141023708091790090E0880F991F880F991F9D
S1131420822B08958F929F92AF92BF92CF92DF92B8
S1131430EF92FF920F931F93CF93DF93CDB7DEB755
S11314402E970FB6F894DEBF0FBECDBF182F9E01A6
S11314502F5F3F4F79016E013FE0C30ED11C812FF6
S11314600E94FC09F701819391937F01EC15FD051E
S1131470B1F721E030E080E001E0F12C90E0D12CE4
S1131480E12C32C0482F50E0FA01EE0FFF1FAA24CE
S1131490A394B12CAC0EBD1EEA0DFB1D60817181BD
S11314A04A01EFEF8E1A9E0AD401AA0FBB1FAA0DA0
S11314B0BB1D0D90BC91A02DA617B70780F4440F57
S11314C0551F4A0D5B1DFA01B183A083F401EE0F91
S11314D0FF1FEA0DFB1D718360832D2D3E2D8F5F51
S11314E003C0202F3F2D892F863060F2232BC9F3B0
S11314F02F8138858D819E81280F391F89859A8592
S1131500280F391FABEABAEA0E945D1C96958795AD
S1131510412F50E0FA01EE0FFF1FE659FB4F6081A7
S11315207181672B41F4FA01EE0FFF1FE659FB4F5F
S1131530918380831CC0FA01EE0FFF1FE659FB4F15
S113154020813181820F931F9C01220F331F220FB0
S1131550331F280F391FADECBCEC0E945D1C96951F
S11315608795969587959695879591838083123074
S1131570D0F4FA01EE0FFF1FE659FB4F20813181B1
S113158022953295307F3227207F32272B533140EA
S113159040E050E061E57CEE84E090E00E94351C80
S11315A0CA01B90119C0FA01EE0FFF1FE659FB4F3A
S11315B02081318122953295307F3227207F322756
S11315C02850324040E050E06DEF7DEB8BE090E03E
S11315D00E94351CCA01B9012E960FB6F894DEBFDD
S11315E00FBECDBFDF91CF911F910F91FF90EF9070
S11315F0DF90CF90BF90AF909F908F90089580918F
S1131600B40480FF0BC080E00E94120A609372044D
S11316107093730480937404909375048091B4045C
S113162081FF0BC081E00E94120A609376047093DC
S1131630770480937804909379048091B40482FFB2
S11316400BC082E00E94120A60937A0470937B04B8
S113165080937C0490937D048091B40483FF0BC039
S113166083E00E94120A60937E0470937F04809347
S113167080049093810480E00895CF92DF92EF92EA
S1131680FF920F931F93CF93DF93CDB7DEB7E2970B
S11316900FB6F894DEBF0FBECDBF81E00E94C5082F
S11316A0A0E0B0E02091C004213079F038F022307D
S11316B009F47CC0233009F430C19EC181E08093D9
S11316C0C0048093C20480E09CC1409160045091A6
S11316D06104609162047091630400916604109146
S11316E067042091680430916904400F511F621F00
S11316F0731F769567955795479576956795579592
S113170047958A019B01000F111F221F331F000FF1
S1131710111F221F331F68017901CC0CDD1CEE1C44
S1131720FF1CCC0CDD1CEE1CFF1C0C0D1D1D2E1D06
S11317303F1D400F511F621F731F485D5F4F6F4F66
S11317407F4F4093CD045093CE046093CF047093A5
S1131750D00421E08D329140A105B10508F420E0C8
S11317608091C204289F802D11248093C2041F926B
S11317708F938EE692E09F938F938E010F5F1F4F9E
S11317801F930F930E94771CC8010E94A90182E055
S11317908093C00462E38CE30E94EF050F900F90E6
S11317A00F900F900F900F9080E02BC14091600438
S11317B05091610460916204709163040091660425
S11317C0109167042091680430916904400F511FFF
S11317D0621F731F7695679557954795769567951C
S11317E0579547958A019B01000F111F221F331F34
S11317F0000F111F221F331F68017901CC0CDD1C5F
S1131800EE1CFF1CCC0CDD1CEE1CFF1C0C0D1D1D66
S11318102E1D3F1D400F511F621F731FC090CD042A
S1131820D090CE04E090CF04F090D004C416D50636
S1131830E606F70608F0E2C021E08D329140A105EA
S1131840B10508F420E08091C204289F802D112462
S11318508093C2041F928F938EE692E09F938F939E
S11318608E010F5F1F4F1F930F930E94771CC801B7
S11318700E94A9018091600490916104A091620486
S1131880B0916304409166045091670460916804C8
S113189070916904840F951FA61FB71FB695A7956D
S11318A097958795B695A79597958795AC01BD01B2
S11318B0440F551F661F771F440F551F661F771F60
S11318C08A019B01000F111F221F331F000F111FDC
S11318D0221F331F400F511F621F731F840F951F58
S11318E0A61FB71F805B9F4FAF4FBF4F8093CD04A0
S11318F09093CE04A093CF04B093D00483E080935C
S1131900C00462E38CE30E94BF050F900F900F9018
S11319100F900F900F9080E074C04091600450913C
S113192061046091620470916304009166041091F3
S113193067042091680430916904400F511F621FAD
S1131940731F76956795579547957695679557953F
S113195047958A019B01000F111F221F331F000F9F
S1131960111F221F331F68017901CC0CDD1CEE1CF2
S1131970FF1CCC0CDD1CEE1CFF1C0C0D1D1D2E1DB4
S11319803F1D400F511F621F731FC090CD04D090A4
S1131990CE04E090CF04F090D004C416D506E60639
S11319A0F70670F521E08D329140A105B10508F4E8
S11319B020E08091C204289F802D11248093C204CA
S11319C01F928F938EE692E09F938F938E010F5F09
S11319D01F4F1F930F930E94771CC8010E94A901F7
S11319E00E9448058091C20482600F900F900F906E
S11319F00F900F900F9005C080E003C080E001C0FD
S1131A0080E0E2960FB6F894DEBF0FBECDBFDF9143
S1131A10CF911F910F91FF90EF90DF90CF90089599
S1131A204F925F926F927F928F929F92AF92BF92EA
S1131A30CF92DF92EF92FF920F931F93CF93DF9396
S1131A40CDB7DEB7C456D1090FB6F894DEBF0FBECA
S1131A50CDBF82E00E94C5086C01E12CF12C80917D
S1131A60BB04833009F48CC120F4813069F178F02F
S1131A70E5C0853009F4DEC208F490C2843609F06A
S1131A80F9C21092C2041092BB0480E0FCC280919F
S1131A90C2048F5F8093C204843008F4EDC2C09204
S1131AA0C404D092C504E092C604F092C7046AE567
S1131AB08CE30E94BF0581E08093BB0484E792E03D
S1131AC00E94A90180E0DFC28091C4049091C50402
S1131AD0A091C604B091C7048C599F4FAF4FBF4F1C
S1131AE08C159D05AE05BF0508F09EC082E080936D
S1131AF0BB048091600490916104A0916204B09150
S1131B006304409166045091670460916804709185
S1131B106904480F591F6A1F7B1F7695679557956F
S1131B2047957695679557954795DB01CA01880FC8
S1131B30991FAA1FBB1F880F991FAA1FBB1F8C01C7
S1131B409D01000F111F221F331F000F111F221FA1
S1131B50331F800F911FA21FB31F840F951FA61F51
S1131B60B71F8093B7049093B804A093B904B093BB
S1131B70BA044091600450916104609162047091D0
S1131B806304009166041091670420916804309105
S1131B906904400F511F621F731F7695679557950F
S1131BA0479576956795579547958A019B01000F50
S1131BB0111F221F331F000F111F221F331F480143
S1131BC05901880C991CAA1CBB1C880C991CAA1CC2
S1131BD0BB1C080D191D2A1D3B1D400F511F621F00
S1131BE0731F4C595F4F6F4F7F4F4093BC0450930A
S1131BF0BD046093BE047093BF04BF93AF939F93DF
S1131C008F9389E792E09F938F938E010F5F1F4F0D
S1131C101F930F930E94771CC8010E94A9010FB65D
S1131C20F894DEBF0FBECDBFC092C404D092C504E9
S1131C30E092C604F092C70480E025C2809160045B
S1131C4090916104A0916204B09163044091660490
S1131C50509167046091680470916904840F951F22
S1131C60A61FB71FB695A79597958795B695A7957F
S1131C7097958795AC01BD01440F551F661F771FCB
S1131C80440F551F661F771F8A019B01000F111F08
S1131C90221F331F000F111F221F331F400F511F1C
S1131CA0621F731F840F951FA61FB71F0091BC04EA
S1131CB01091BD042091BE043091BF040817190788
S1131CC02A073B0708F0DAC183E08093BB04C09283
S1131CD0C404D092C504E092C604F092C704809173
S1131CE0600490916104A0916204B09163044091F6
S1131CF06604509167046091680470916904480F08
S1131D00591F6A1F7B1F769567955795479576955A
S1131D10679557954795DB01CA01880F991FAA1F3C
S1131D20BB1F880F991FAA1FBB1F8C019D01000FA9
S1131D30111F221F331F000F111F221F331F800F7B
S1131D40911FA21FB31F840F951FA61FB71FBF9318
S1131D50AF939F938F938DE892E09F938F938E011F
S1131D600F5F1F4F1F930F930E94771CC8010E949F
S1131D70A9010FB6F894DEBF0FBECDBF80E083C1CA
S1131D808091C4049091C504A091C604B091C70485
S1131D908C599F4FAF4FBF4F8C159D05AE05BF05A6
S1131DA008F0F2C08090600490906104A0906204F6
S1131DB0B09063048091660490916704A0916804D4
S1131DC0B09169044091600450916104609162048F
S1131DD07091630400916604109167042091680473
S1131DE030916904040F151F261F371F3695279558
S1131DF0179507953695279517950795B901A80165
S1131E00440F551F661F771F440F551F661F771F0A
S1131E102A013B01440C551C661C771C440C551CC0
S1131E20661C771C440D551D661D771D040F151F78
S1131E30261F371F0E5C1F4F2F4F3F4F880D991DD4
S1131E40AA1DBB1DB695A79597958795B695A79599
S1131E5097958795AC01BD01440F551F661F771FE9
S1131E60440F551F661F771F4A015B01880C991C9C
S1131E70AA1CBB1C880C991CAA1CBB1C480D591D10
S1131E806A1D7B1D840F951FA61FB71F8090B70482
S1131E909090B804A090B904B090BA048819990934
S1131EA0AA09BB09B695A79597958795080F191F99
S1131EB02A1F3B1F0093B7041093B8042093B9045E
S1131EC03093BA0484E08093BB046CE38CE30E94F7
S1131ED0EF058091600490916104A0916204B09137
S1131EE063044091660450916704609168047091A2
S1131EF06904480F591F6A1F7B1F7695679557958C
S1131F0047957695679557954795DB01CA01880FE4
S1131F10991FAA1FBB1F880F991FAA1FBB1F8C01E3
S1131F209D01000F111F221F331F000F111F221FBD
S1131F30331F800F911FA21FB31F840F951FA61F6D
S1131F40B71FBF93AF939F938F938091BA048F93DE
S1131F508091B9048F938091B8048F938091B704D2
S1131F608F938EE992E09F938F938E010F5F1F4FA3
S1131F701F930F930E94771CC8010E94A9010FB6FA
S1131F80F894DEBF0FBECDBFC092C404D092C50486
S1131F90E092C604F092C70480E075C080916004AA
S1131FA090916104A0916204B0916304409166042D
S1131FB0509167046091680470916904840F951FBF
S1131FC0A61FB71FB695A79597958795B695A7951C
S1131FD097958795AC01BD01440F551F661F771F68
S1131FE0440F551F661F771F6A017B01CC0CDD1C53
S1131FF0EE1CFF1CCC0CDD1CEE1CFF1C4C0D5D1DEF
S11320006E1D7F1D840F951FA61FB71FC090B704B8
S1132010D090B804E090B904F090BA04C816D90678
S1132020EA06FB0668F51092C00485E08093BB04C1
S113203080E029C00E943D0B482F50E060E070E032
S11320404093B7045093B8046093B9047093BA04EE
S1132050452B462B472BB1F080FF06C088EB92E05E
S11320600E94A90181E00FC086EC92E00E94A901C0
S113207081E009C080E007C080E005C080E003C0C3
S113208080E001C080E0CC59DF4F0FB6F894DEBF8A
S11320900FBECDBFDF91CF911F910F91FF90EF90B5
S11320A0DF90CF90BF90AF909F908F907F906F9074
S11320B05F904F90089584E68093BB041092C4040B
S11320C01092C5041092C6041092C7041092B7046B
S11320D01092B8041092B9041092BA041092BC047D
S11320E01092BD041092BE041092BF041092C20458
S11320F021E040E950ED63E070E080E19DE00E9462
S11321002F1208950E9440030E9469110E947305D2
S11321100E9429080E94D6090E942505789481E02E
S11321200E94A11081E00E94AC1080E00E94D910AE
S11321308DE193E00E94A9010E9427030E941114DB
S1132140FDCF20914604909146048227282F2170C8
S113215092279093460408953091460420914604B2
S1132160982F91709195932792709227909346049B
S11321700E945A0908953091460420914604982FEC
S113218091709195932794709227909346040E949E
S1132190370508953091460420914604982F917094
S11321A09195932798709227909346040E946E0904
S11321B00895909146049F78909346049091460424
S11321C040E1849F90011124292B209346040E940E
S11321D02E080895811111C08091460480FF1CC00F
S11321E080E00E94A110809146049091460480955D
S11321F08078892780934604089580914604882333
S11322005CF481E00E94A110809146049091460400
S113221080788927809346040895CF93DF9300D074
S113222000D000D0CDB7DEB78AEA898384E18A83FF
S113223081E08B83809146048C8385E58D8365E002
S1132240CE0101960E940C0326960FB6F894DEBFC9
S11322500FBECDBFDF91CF910895CF93C82F81706A
S11322600E94A110C1FB882780F90E94AC10C2FB18
S1132270882780F90E94BB10C3FB882780F90E943D
S1132280CA108C2F82958F7087700E94D9100E947B
S11322900D11CF910895809146040E942D11089547
S11322A080E090E0FC01EE0FFF1F9C01220F331F22
S11322B0220F331F220F331FE20FF31FEB52FB4F8A
S11322C01186108601968431910561F71092A70555
S11322D008951092D1041092D2041092D304109253
S11322E0D4040E945011EFE6F0E080818160808385
S11322F0109285001092840081E0809381000895FB
S11323000F931F93CF93DF93CDB7DEB7CE56D1098A
S11323100FB6F894DEBF0FBECDBF211105C0B0E0EB
S1132320A0E0F0E0E0E004C0B42FA52FF62FE72FE3
S11323302091A70530E049835A836B837C83BD8356
S1132340AE83FF83E8879A878987D901AA0FBB1FC9
S1132350220F331F220F331F220F331FA20FB31F6D
S1132360AB52BB4F8AE0FE01319601900D928A95E3
S1132370E1F78091A7058F5F8093A70580914604BC
S113238080FF33C08091A70590E00197FC01EE0F18
S1132390FF1F880F991F880F991F880F991FE80F37
S11323A0F91FEB52FB4F80819181A281B38120916F
S11323B0A705BF93AF939F938F93822F90E00197CC
S11323C09F938F9382E393E09F938F938E01055F96
S11323D01F4F1F930F930E94771CC8010E94A901ED
S11323E00FB6F894DEBF0FBECDBFC259DF4F0FB694
S11323F0F894DEBF0FBECDBFDF91CF911F910F9137
S113240008952091A705222321F12091DD04309124
S1132410DE0428173907F9F040E014C0242F30E017
S1132420F901EE0FFF1F220F331F220F331F220F5C
S1132430331FE20FF31FEB52FB4F20853185281722
S1132440390759F04F5F2091A705421738F380E010
S1132450089580E0089581E0089581E008950F9340
S11324601F93CF93DF93C22F2091A705222309F452
S113247059C0E091DD04F091DE04E817F90709F092
S113248049C018C0ED2FF0E08F01000F111FDF01CC
S1132490AA0FBB1FAA0FBB1FAA0FBB1FA00FB11F00
S11324A0AB52BB4F18960D90BC91A02DA817B9073D
S11324B091F503C0E0E0F0E0D0E09F01220F331F6C
S11324C0220F331F220F331FDF01AA0FBB1FA20FDE
S11324D0B31FAB52BB4F4D935D936D937C93139796
S11324E0C11104C000E010E0980102C08A019B0100
S11324F0DF01AA0FBB1FEE0FFF1FEE0FFF1FEE0F32
S1132500FF1FEA0FFB1FEB52FB4F04831583268347
S1132510378309C0D0E0DF5F2091A705D21708F404
S1132520B1CF01C0D0E02091A705D21303C02C2F56
S11325300E948011DF91CF911F910F9108958F9286
S11325409F92AF92BF92FF920F931F93CF93DF930B
S11325502091A705222309F47AC0C0E0F12C00E001
S113256010E0D0E02C2F30E0F901EE0FFF1FA9019D
S1132570440F551F440F551F440F551FE40FF51FFB
S1132580EB52FB4F40855185452B09F45AC0A901F4
S1132590440F551F440F551F440F551FF901EE0FEB
S11325A0FF1FE40FF51FEB52FB4F80809180A28048
S11325B0B38089288A288B2809F443C0A901440FD1
S11325C0551F440F551F440F551FF901EE0FFF1FF0
S11325D0E40FF51FEB52FB4F80809180A280B38003
S11325E0681579058A059B05B8F4A901440F551FA0
S11325F0440F551F440F551FF901EE0FFF1FE40F41
S1132600F51FEB52FB4F80809180A280B380861A25
S1132610970AA80AB90A04C08F2C902EA12EBD2EA9
S1132620F901EE0FFF1F220F331F220F331F220F5A
S1132630331FE20FF31FEB52FB4F80829182A28281
S1132640B382CF5F2091A705C21708F48BCFDF9127
S1132650CF911F910F91FF90BF90AF909F908F905B
S113266008951F920F920FB60F9211242F933F9348
S11326704F935F936F937F938F939F93AF93BF9386
S1132680EF93FF938091D1049091D204A091D3044D
S1132690B091D4040196A11DB11D8093D1049093EF
S11326A0D204A093D304B093D40462E170E280E036
S11326B090E00E949F12FF91EF91BF91AF919F9183
S11326C08F917F916F915F914F913F912F910F90D7
S11326D00FBE0F901F901895909146049091A705F6
S11326E0891750F56AE0282F30E0A9014F5F5F4F4A
S11326F0D901AA0FBB1F220F331F220F331F220F32
S1132700331FA20FB31FAB52BB4FFA01EE0FFF1FD3
S1132710440F551F440F551F440F551FE40FF51F59
S1132720EB52FB4F962F01900D929A95E1F78F5F34
S11327309091A7058917B8F28091A70581508093DD
S1132740A7050895AF92BF92CF92DF92EF92FF92C6
S11327500F931F93CF93DF93CDB7DEB7C456D10940
S11327600FB6F894DEBF0FBECDBF8C018091A705D4
S1132770882309F442C0A12CB12C0F2EF7E6CF2EEA
S1132780F3E0DF2EF02DCE0101967C012B2D30E0FD
S1132790F901EE0FFF1FC901880F991F880F991FB8
S11327A0880F991FE80FF91FEB52FB4F40855185A5
S11327B040175107E1F48091460480FF11C03F9314
S11327C0BF92DF92CF92FF92EF920E94771CC701D3
S11327D00E94A9010F900F900F900F900F900F90EF
S11327E06FE873E08B2D0E946C13BA94A394B39496
S11327F08091A705B81650F201C0A12C8A2DCC599E
S1132800DF4F0FB6F894DEBF0FBECDBFDF91CF917F
S11328101F910F91FF90EF90DF90CF90BF90AF90FA
S113282008951F93CF93DF938091A705882309F41C
S11328308BC010E0C12FD0E0FE01EE0FFF1FCE01D0
S1132840880F991F880F991F880F991FE80FF91F88
S1132850EB52FB4F20853185232B09F46FC0CE0149
S1132860880F991F880F991F880F991FFE01EE0F7B
S1132870FF1FE80FF91FEB52FB4F4081518162812A
S11328807381452B462B472B09F058C0CE01880F86
S1132890991F880F991F880F991FFE01EE0FFF1FC4
S11328A0E80FF91FEB52FB4F0084F185E02D0995E9
S11328B0882339F06FE973E0812F0E946C13115063
S11328C03DC0CE01880F991F880F991F880F991F4B
S11328D0FE01EE0FFF1FE80FF91FEB52FB4F44817F
S11328E0558166817781452B462B472B49F04481DE
S11328F055816681778140835183628373831EC0CF
S1132900CE01880F991FCC0FDD1FCC0FDD1FCC0F1C
S1132910DD1FC80FD91FCB52DB4F8885998588549A
S1132920954031F488E495E00E94A213181B06C078
S11329306DEA73E0812F0E946C1311501F5F809128
S1132940A705181708F476CFDF91CF911F9108954A
S1132950CF93C0E06AEB73E08C2F0E946C13CF5FBF
S1132960C431C1F781E08093A705CF9108958F9278
S11329709F92AF92BF92CF92DF92EF92FF920F930A
S11329801F93CF93DF93CDB7DEB7C456D1090FB6EB
S1132990F894DEBF0FBECDBF83E00E94C5086C0172
S11329A0E12CF12C82E00E94C5084C01A12CB12C31
S11329B08091460480FF1BC01F921F929F928F92AA
S11329C01F921F92DF92CF928CEC93E09F938F9390
S11329D08E010F5F1F4F1F930F930E94771CC80136
S11329E00E94A9010FB6F894DEBF0FBECDBF80913F
S11329F04704813069F018F08230F9F022C081E098
S1132A008093470466E98EE10E94BF0580E01EC002
S1132A1092E8C916D104E104F104A8F482E8881606
S1132A209104A104B10488F482E08093470466E928
S1132A3081E00E94EF0580E009C00E94480581E022
S1132A4005C080E003C080E001C080E0CC59DF4FC6
S1132A500FB6F894DEBF0FBECDBFDF91CF911F91AB
S1132A600F91FF90EF90DF90CF90BF90AF909F9029
S1132A708F9008950F931F93CF93DF93CDB7DEB755
S1132A80C456D1090FB6F894DEBF0FBECDBF8091F6
S1132A901306813071F020F0823009F458C0BAC0B6
S1132AA06091220684E60E94BF0581E080931306AC
S1132AB0AFC08091600490916104A0916204B091D0
S1132AC063044091660450916704609168047091B6
S1132AD06904840F951FA61FB71FB695A7959795F0
S1132AE08795B695A79597958795AC01BD01440F39
S1132AF0551F661F771F440F551F661F771F8A01D6
S1132B009B01000F111F221F331F000F111F221FD3
S1132B10331F400F511F621F731F840F951FA61F81
S1132B20B71F0091150610911606209117063091D3
S1132B301806081719072A073B0708F069C062E856
S1132B4081E00E94EF0582E08093130661C00E9439
S1132B5048054091410450914204609143047091AE
S1132B6044048091600490916104A0916204B09146
S1132B706304009166041091670420916804309105
S1132B8069047F936F935F934F93B901A801480F32
S1132B90591F6A1F7B1F76956795579547957695BC
S1132BA0679557954795DB01CA01880F991FAA1F9E
S1132BB0BB1F880F991FAA1FBB1F8C019D01000F0B
S1132BC0111F221F331F000F111F221F331F800FDD
S1132BD0911FA21FB31F840F951FA61FB71FBF937A
S1132BE0AF939F938F938BED93E09F938F938E017D
S1132BF00F5F1F4F1F930F930E94771CC8010E9401
S1132C00A9010FB6F894DEBF0FBECDBF81E003C0AB
S1132C1080E001C080E0CC59DF4F0FB6F894DEBFEE
S1132C200FBECDBFDF91CF911F910F9108958823DF
S1132C3011F0159A01C01598662311F0149A08959D
S1132C40149808951092470421E040EA56E861E0A0
S1132C5070E087EB94E10E94801108958F929F9217
S1132C60AF92BF92CF92DF92EF92FF920F931F9396
S1132C7010921306C0906004D0906104E090620446
S1132C80F090630400916604109167042091680435
S1132C90309169040C0D1D1D2E1D3F1D6801790125
S1132CA0F694E794D794C794F694E794D794C7948A
S1132CB097018601000F111F221F331F000F111FE0
S1132CC0221F331F48015901880C991CAA1CBB1CE4
S1132CD0880C991CAA1CBB1C080D191D2A1D3B1D20
S1132CE00C0D1D1D2E1D3F1D6B017C01C00ED11E40
S1132CF0E21EF31EC0921506D0921606E092170645
S1132D00F09218064093220621E040E157E260E089
S1132D1070E08AE395E10E942F121F910F91FF90BA
S1132D20EF90DF90CF90BF90AF909F908F900895D9
S1132D304F925F926F927F92AF92BF92CF92DF9247
S1132D40EF92FF920F931F93CF93DF9300D000D0A5
S1132D50CDB7DEB72B013C0129833A834B835C83D7
S1132D60C801B701052E59E0660F771F881F991F08
S1132D705A95D1F7502D2AE631E040E050E00E9408
S1132D80351C89819A81AB81BC81821B930BA40B76
S1132D90B50B9C01AD01AAE6B1E00E946C1CDC01FC
S1132DA0CB01072E79E0B695A795979587957A95E7
S1132DB0D1F7702D481659066A067B06A0F48419CB
S1132DC09509A609B7092D893E894F89588D281779
S1132DD039074A075B07D8F0A816B906CA06DB0606
S1132DE0C0F483E01BC0481A590A6A0A7B0A8D8919
S1132DF09E89AF89B88D84159505A605B70558F049
S1132E00A414B504C604D70440F481E007C084E0E8
S1132E1005C082E003C080E001C082E00F900F9003
S1132E200F900F90DF91CF911F910F91FF90EF9032
S1132E30DF90CF90BF90AF907F906F905F904F9056
S1132E400895AF92BF92CF92DF92EF92FF920F93C9
S1132E501F93CF93DF9382E00E94C508EC0181E0C9
S1132E600E94C5089E0140E050E0BC0180E090E073
S1132E701F921F921F92EDE2EF930F2EF6E1AF2EF9
S1132E80B12CC12CD12CF02D1FE5E12EF12C00E04A
S1132E9010E00E9498160F900F900F900F90C82F7B
S1132EA0823029F4809101018230C1F533C08091D0
S1132EB00101C81789F1C230B9F028F4CC2341F0DC
S1132EC0C13061F023C0C330B1F0C430D1F01EC0B2
S1132ED040E06AE58AE00E94920718C040E06BE493
S1132EE08AE00E94920712C00E94480582E0809303
S1132EF0010181E018C041E06BE48AE00E9492077E
S1132F0005C041E06AE58AE00E949207C09301018E
S1132F1080E009C081E007C080E005C08091010124
S1132F20823011F780E0DF91CF911F910F91FF90D4
S1132F30EF90DF90CF90BF90AF90089581E280939F
S1132F40AD0510921D061092140610921E061092E2
S1132F501F06109220061092210621E040E950ED50
S1132F6063E070E085E998E10E942F120895CF9202
S1132F70DF92EF92FF9281E00E94C5086C01E12C80
S1132F80F12C809114061F928F938FE194E09F930C
S1132F908F938FEA95E09F938F930E94771C8FEA1B
S1132FA095E00E94A9010F900F900F900F900F9041
S1132FB00F9080911406823009F44CC028F48823C1
S1132FC051F08130D1F0A5C0833009F460C0843061
S1132FD009F494C09EC081E080931406C0921E063A
S1132FE0D0921F06E0922006F092210640E06AE5A6
S1132FF08FE00E94920780E093C080911E0690911A
S11330001F06A0912006B0912106AC01BD014B5FC3
S11330105F4F6F4F7F4F4C155D056E057F0550F474
S1133020C0921E06D0921F06E0922006F09221065E
S113303080E076C00597A109B109C816D906EA0649
S1133040FB0608F068C082E0809314061092AE0577
S113305080E066C08091AE058F5F8093AE05C0921C
S11330601E06D0921F06E0922006F09221068430BC
S113307008F453C083E080931406C092A805D0924C
S1133080A905E092AA05F092AB0580E049C08091C1
S11330901E0690911F06A0912006B09121068C1562
S11330A09D05AE05BF0548F484E080931406109294
S11330B0AE0541E061E40E949207C0921E06D092E0
S11330C01F06E0922006F09221068091A8059091B7
S11330D0A905A091AA05B091AB058C159D05AE0577
S11330E0BF0510F46C017D01C092A805D092A9051A
S11330F0E092AA05F092AB0580E012C08091AE0583
S11331008F5F8093AE05853050F00E94480581E0C2
S113311007C080E005C080E003C080E001C080E01B
S1133120FF90EF90DF90CF9008958F929F92AF928F
S1133130BF92CF92DF92EF92FF920F9382E00E94B0
S1133140C5084C01A12CB12C81E00E94C5086C017A
S1133150E12CF12C4091AD0550E04536510508F0C5
S11331605DC3FA01E95AFF4F0C94571C60EA8EE1E3
S11331700E94BF058091600490916104A091620453
S1133180B0916304409166045091670460916804AF
S113319070916904840F951FA61FB71FB695A79554
S11331A097958795B695A79597958795AC01BD0199
S11331B0440F551F661F771F440F551F661F771F47
S11331C06A017B01CC0CDD1CEE1CFF1CCC0CDD1C4D
S11331D0EE1CFF1C4C0D5D1D6E1D7F1D840F951F85
S11331E0A61FB71F88539F4FAF4FBF4F809323062F
S11331F090932406A0932506B093260682E280933A
S1133200AD0580E028C38091600490916104A09191
S11332106204B09163044091660450916704609124
S1133220680470916904840F951FA61FB71FB69593
S1133230A79597958795B695A79597958795AC018A
S1133240BD01440F551F661F771F440F551F661F8E
S1133250771F6A017B01CC0CDD1CEE1CFF1CCC0C1F
S1133260DD1CEE1CFF1C4C0D5D1D6E1D7F1D840FAF
S1133270951FA61FB71FC0902306D0902406E09088
S11332802506F0902606C816D906EA06FB0608F0BD
S1133290C7C21092AD050E94480580E0DCC20E94BE
S11332A02117813009F0BEC28093AD056CE38EE135
S11332B00E94BF0580E0CFC229E2C21AD108E1080A
S11332C0F10839E5C316D104E104F10408F0ACC2F5
S11332D082E08093AD0580E0BEC24DE2C41641E0B9
S11332E0D406E104F10408F4A1C284E68093AD0598
S11332F06EE18AE00E94EF0580E0ADC259E2C51A92
S1133300D108E108F10889E5C816D104E104F10403
S113331008F08EC262E384E10E94BF0580916004DC
S113332090916104A0916204B09163044091660499
S1133330509167046091680470916904840F951F2B
S1133340A61FB71FB695A79597958795B695A79588
S113335097958795AC01BD01440F551F661F771FD4
S1133360440F551F661F771F6A017B01CC0CDD1CBF
S1133370EE1CFF1CCC0CDD1CEE1CFF1C4C0D5D1D5B
S11333806E1D7F1D840F951FA61FB71F82599F4F67
S1133390AF4FBF4F8093230690932406A093250636
S11333A0B093260683E08093AD0580E054C28091FB
S11333B0600490916104A0916204B091630440910F
S11333C06604509167046091680470916904840FE5
S11333D0951FA61FB71FB695A79597958795B69580
S11333E0A79597958795AC01BD01440F551F661F9E
S11333F0771F440F551F661F771F6A017B01CC0C92
S1133400DD1CEE1CFF1CCC0CDD1CEE1CFF1C4C0D4B
S11334105D1D6E1D7F1D840F951FA61FB71FC090D5
S11334202306D0902406E0902506F0902606C816C0
S1133430D906EA06FB0608F0FDC10E94480584E0AF
S11334408093AD0502E321E04AEA60E085E00E9452
S1133450D70680E000C228ECC216D104E104F104CE
S113346008F0EAC185E08093AD0541E066E48AE0B6
S11334700E94920780E0EFC13DEDC316D104E10440
S1133480F10408F4DBC162E38FE00E94BF0586E02B
S11334908093AD0580E0DFC14AEA84169104A1045B
S11334A0B10408F0CDC187E08093AD0510921406F5
S11334B010921E0610921F061092200610922106EA
S11334C080E0C9C10E94B717882309F4BBC188E012
S11334D08093AD0568E28FE00E94BF0580E0BBC128
S11334E054E685169104A104B10408F0ADC180919D
S11334F0600490916104A0916204B09163044091CE
S11335006604509167046091680470916904840FA3
S1133510951FA61FB71FB695A79597958795B6953E
S1133520A79597958795AC01BD01440F551F661F5C
S1133530771F440F551F661F771F6A017B01CC0C50
S1133540DD1CEE1CFF1CCC0CDD1CEE1CFF1C4C0D0A
S11335505D1D6E1D7F1D840F951FA61FB71F8C59FF
S11335609F4FAF4FBF4F8093230690932406A093A1
S11335702506B093260689E08093AD0562E38AE0D0
S11335800E94EF0580E067C180916004909161041E
S1133590A0916204B0916304409166045091670461
S11335A06091680470916904840F951FA61FB71F6A
S11335B0B695A79597958795B695A7959795879569
S11335C0AC01BD01440F551F661F771F440F551FE3
S11335D0661F771F6A017B01CC0CDD1CEE1CFF1CEF
S11335E0CC0CDD1CEE1CFF1C4C0D5D1D6E1D7F1DE7
S11335F0840F951FA61FB71FC0902306D0902406E2
S1133600E0902506F0902606C816D906EA06FB06C1
S113361008F01CC10E9448058AE08093AD0580E053
S11336201AC10E9448058091600490916104A091A0
S11336306204B09163044091660450916704609100
S1133640680470916904840F951FA61FB71FB6956F
S1133650A79597958795B695A79597958795AC0166
S1133660BD01440F551F661F771F440F551F661F6A
S1133670771F4A015B01880C991CAA1CBB1C880C8F
S1133680991CAA1CBB1C480D591D6A1D7B1D840F67
S1133690951FA61FB71F4E96A11DB11D809323062B
S11336A090932406A0932506B09326068BE080937E
S11336B0AD0562E38AE00E94BF05C0921906D0926C
S11336C01A06E0921B06F0921C0680E0C4C08091AA
S11336D0600490916104A0916204B09163044091EC
S11336E06604509167046091680470916904840FC2
S11336F0951FA61FB71FB695A79597958795B6955D
S1133700A79597958795AC01BD01440F551F661F7A
S1133710771F440F551F661F771F4A015B01880CF2
S1133720991CAA1CBB1C880C991CAA1CBB1C480D08
S1133730591D6A1D7B1D840F951FA61FB71F8090FE
S1133740230690902406A0902506B090260688169D
S11337509906AA06BB0608F07BC0809119069091D1
S11337601A06A0911B06B0911C064601570125E0DC
S1133770820E911CA11CB11C88169906AA06BB06D0
S1133780A0F4BC01CD016C197D098E099F092AE0C2
S113379030E040E050E00E94351C6093AC0540E00E
S11337A06BE482E00E94920727C04C015D0135E082
S11337B0830E911CA11CB11C8C149D04AE04BF0487
S11337C0B0F4A7019601281B390B4A0B5B0BCA0105
S11337D0B9012AE030E040E050E00E94351C6093DB
S11337E0AC0541E06BE482E00E94920705C081E0F1
S11337F08093AC050E9448058CE08093AD0580E081
S11338002AC08091AC0581508093AC05811122C0FF
S113381089E294E00E94A90181E01DC080E01BC000
S113382080E019C080E017C080E015C080E013C0BC
S113383080E011C080E00FC080E00DC080E00BC0CC
S113384080E009C080E007C080E005C080E003C0DC
S113385080E001C080E00F91FF90EF90DF90CF9067
S1133860BF90AF909F908F900895A1E21A2EAA1B4B
S1133870BB1BFD010DC0AA1FBB1FEE1FFF1FA2171C
S1133880B307E407F50720F0A21BB30BE40BF50B19
S1133890661F771F881F991F1A9469F760957095A2
S11338A0809590959B01AC01BD01CF010895EE0F69
S11338B0FF1F0590F491E02D0994A29FB001B39FDE
S11338C0C001A39F700D811D1124911DB29F700D25
S11338D0811D1124911D08950E945D1CA59F900DCA
S11338E0B49F900DA49F800D911D11240895AEE006
S11338F0B0E0EDE7FCE10C941F1F0D891E8986E002
S11339008C831A8309838FEF9FE79E838D83AE0197
S1133910475E5F4F6F89788DCE0101960E94991C96
S1133920EF81F885E00FF11F10822E96E4E00C94ED
S11339303B1FACE0B0E0EFE9FCE10C94111F7C010B
S11339406B018A01FC0117821682838181FFBDC14C
S1133950CE0101964C01F7019381F60193FD859107
S113396093FF81916F01882309F4ABC1853239F447
S113397093FD859193FF81916F01853229F4B701FD
S113398090E00E94811EE7CF512C312C20E02032A0
S1133990A0F48B3269F030F4803259F0833269F448
S11339A020612CC08D3239F0803339F4216026C077
S11339B02260246023C0286021C027FD27C030ED89
S11339C0380F3A3078F426FF06C0FAE05F9E300DD7
S11339D01124532E13C08AE0389E300D1124332E47
S11339E020620CC08E3221F426FD6BC1206406C017
S11339F08C3611F4206802C0883641F4F60193FD38
S1133A00859193FF81916F018111C1CF982F9F7D83
S1133A109554933028F40C5F1F4FFFE3F9830DC0D6
S1133A20833631F0833771F0833509F05BC022C0EF
S1133A30F801808189830E5F1F4F44244394512CE5
S1133A40540115C03801F2E06F0E711CF801A0801A
S1133A50B18026FF03C0652D70E002C06FEF7FEFD9
S1133A60C5012C870E94761E2C0183012C852F779B
S1133A70222E17C03801F2E06F0E711CF801A080ED
S1133A80B18026FF03C0652D70E002C06FEF7FEFA9
S1133A90C5012C870E946B1E2C012C852068222EC8
S1133AA0830123FC1BC0832D90E048165906B0F413
S1133AB0B70180E290E00E94811E3A94F4CFF501B0
S1133AC027FC859127FE81915F01B70190E00E9458
S1133AD0811E31103A94F1E04F1A510841145104F7
S1133AE071F7E5C0843611F0893639F5F80127FFFE
S1133AF007C060817181828193810C5F1F4F08C070
S1133B0060817181882777FD8095982F0E5F1F4F04
S1133B102F76B22E97FF09C0909580957095619588
S1133B207F4F8F4F9F4F2068B22E2AE030E0A401D0
S1133B300E94B31EA82EA81844C0853729F42F7EEE
S1133B40B22E2AE030E025C0F22FF97FBF2E8F3647
S1133B50C1F018F4883579F0B4C0803719F088378B
S1133B6021F0AFC02F2F2061B22EB4FE0DC08B2DDB
S1133B708460B82E09C024FF0AC09F2F9660B92E16
S1133B8006C028E030E005C020E130E002C020E1BA
S1133B9032E0F801B7FE07C06081718182819381B0
S1133BA00C5F1F4F06C06081718180E090E00E5F62
S1133BB01F4FA4010E94B31EA82EA818FB2DFF7747
S1133BC0BF2EB6FE0BC02B2D2E7FA51450F4B4FED1
S1133BD00AC0B2FC08C02B2D2E7E05C07A2C2B2DDA
S1133BE003C07A2C01C0752C24FF0DC0FE01EA0D20
S1133BF0F11D8081803311F4297E09C022FF06C0A3
S1133C007394739404C0822F867809F0739423FD0F
S1133C1013C020FF06C05A2C731418F4530C571801
S1133C20732C731468F4B70180E290E02C870E942F
S1133C30811E73942C85F5CF731410F4371801C0CA
S1133C40312C24FF12C0B70180E390E02C870E943E
S1133C50811E2C8522FF17C021FF03C088E590E058
S1133C6002C088E790E0B7010CC0822F867859F033
S1133C7021FD02C080E201C08BE227FD8DE2B70185
S1133C8090E00E94811EA51438F4B70180E390E00F
S1133C900E94811E5A94F7CFAA94F401EA0DF11DF3
S1133CA08081B70190E00E94811EA110F5CF3320DE
S1133CB009F451CEB70180E290E00E94811E3A944B
S1133CC0F6CFF7018681978102C08FEF9FEF2C9684
S1133CD0E2E10C942D1FFC0105906150704001102D
S1133CE0D8F7809590958E0F9F1F0895FC01615021
S1133CF0704001900110D8F7809590958E0F9F1F0A
S1133D0008950F931F93CF93DF93182F092FEB017F
S1133D108B8181FD03C08FEF9FEF20C082FF10C015
S1133D204E815F812C813D81421753077CF4E881E9
S1133D30F9819F012F5F3F4F39832883108306C089
S1133D40E885F985812F0995892B29F72E813F81F3
S1133D502F5F3F4F3F832E83812F902FDF91CF9191
S1133D601F910F910895FA01AA27283051F12031AB
S1133D7081F1E8946F936E7F6E5F7F4F8F4F9F4FFB
S1133D80AF4FB1E03ED0B4E03CD0670F781F891F3D
S1133D909A1FA11D680F791F8A1F911DA11D6A0F0B
S1133DA0711D811D911DA11D20D009F468943F91BE
S1133DB02AE0269F11243019305D3193DEF6CF01BD
S1133DC00895462F4770405D4193B3E00FD0C9F783
S1133DD0F6CF462F4F70405D4A3318F0495D31FDF0
S1133DE04052419302D0A9F7EACFB4E0A695979543
S1133DF0879577956795BA95C9F700976105710519
S1133E0008959B01AC010A2E069457954795379562
S1133E102795BA95C9F7620F731F841F951FA01DBC
S1133E2008952F923F924F925F926F927F928F925A
S1133E309F92AF92BF92CF92DF92EF92FF920F9335
S1133E401F93CF93DF93CDB7DEB7CA1BDB0B0FB63F
S1133E50F894DEBF0FBECDBF09942A8839884888FC
S1133E605F846E847D848C849B84AA84B984C88492
S1133E70DF80EE80FD800C811B81AA81B981CE0F89
S1133E80D11D0FB6F894DEBF0FBECDBFED0108956E
S1073E90F894FFCFD0
S1133E9402020A202020646973743A20256C752078
S1133EA40A20202074696D703A20256C75004D2D0C
S1133EB4616D206F7072697421005374617274208F
S1133EC4467265652050205020502100537461725D
S1133ED47420636F6D706C65746520656E636C6FBC
S1133EE473656420636F6E746F757221004D612075
S1133EF464756320696E61696E746521004D612087
S1133F0464756320696E61706F6921004D6120647A
S1133F14756320696E61696E7465207374616E677C
S1133F246121004D612064756320696E61696E745A
S1133F3465206472656170746121004D612064754B
S1133F446320696E61706F69207374616E676121A7
S1133F54004D612064756320696E61706F6920642B
S1133F647265617074612100726F74697265207383
S1133F746D656368657261203A2025752025752076
S1133F842575202575006D6120726F746573632037
S1133F94737072652064726561707461006D612070
S1133FA4726F746573632073707265207374616EC9
S1133FB467610073656E736F7220232564203D204E
S1133FC4256C750073656E736F7273546F53656EED
S1133FD4642025642025642025642025642000733E
S1133FE4656E736F7273546F526561642025642027
S1133FF42564202564202564203C3C2D2D006C314F
S11340043D256400302D3E310073746172652D3E8C
S113401432202064697374503D256C750073746197
S113402472652D3E33202044503D256C7500737415
S11340346172652D3E342064697374503D256C753A
S11340442044503D256C75006C6F63756C206520AD
S11340546C69626572006C6F63756C206E752065A3
S1134064206C6962657200737461726549203D2530
S1134074642000594F4C4F00646966663D256420F2
S11340842020647264746D703D256C7520207369FE
S11340946465523D256C750073746172653D2564D5
S11340A4200078416D207061726361740020203EA9
S11340B43E3E6D61696E2073746172743C3C3C20B5
S11340C42000456E7472792061646175676174209F
S11340D4696E20636F61646121206C6120696E6480
S11340E465782025642073692063752064656C6198
S11340F4793A20256C7500456E7472792073746561
S113410472732064696E20636F6164612E20646538
S113411420706520706F7A69746961202575007256
S1134124656D6F76652066756E6374696F6E007273
S1134134657475726E65642074727565006E6F744F
S113414420706572696F64696300726573657420B5
S113415474696D657220717565756500666C3A25C0
S11341646C75202066723A256C750064703A2025BB
S11341746C75202074696D653A256C750072656DE3
S11341846F76656420706172616C656C2063686528
S1134194636B206663740061646465642070617297
S11341A4616C656C20636865636B2066637400638B
S11341B46D2073743A2575200078416D2070617206
S11141C463617420706172616C656C2100008F
S9030000FC
