S01300005352492050726F6A6563742E737265632C
S11300000C945C000C9479000C9479000C947900A5
S11300100C9479000C941C020C9479000C947900D3
S11300200C9479000C9479000C9479000C94790068
S11300300C9479000C9479000C9479000C94480B7E
S11300400C9479000C9479000C9479000C94790048
S11300500C94E5010C9479000C9479000C947900CB
S11300600C9479000C9479000C9479000C94790028
S11300700C9479000C9479000C947900FB00CE0068
S1130080D100120112011201120112011201120116
S1130090120112011201F100D400D900DE00E900BE
S11300A0E1000E010901F707FF0772086A085F08FB
S11300B0070847085808810811241FBECFEFD0E174
S11300C0DEBFCDBF14E0A0E0B1E0E8E0FFE102C094
S11300D005900D92AC30B107D9F725E0ACE0B4E05F
S11300E001C01D92A934B207E1F70E94A0080C9444
S11300F0820F0C940000CF93DF93809119049FEF3B
S1130100980F963008F03FC0C0911A04D0911B0498
S113011090911804933011F40E94B6089091190438
S11301209330B1F028F4913049F0923061F023C05B
S1130130953099F0B8F09630D1F01DC06D2F8C2F0A
S11301400E94710318C06D2F8C2F0E949D0313C051
S11301506D2F8C2F0E94C9030EC06D2F8C2F0E940F
S11301601E0409C06D2F8C2F0E94F20304C06D2F52
S11301708C2F0E94470480911804833009F052C0E8
S11301800E94B6084FC090E0FC013797E531F105B5
S113019008F048C0E25CFF4F0C947D0C0E940A03F7
S11301A041C00E9401033EC080911A040E94F00BDA
S11301B039C080911A040E94FC0434C00E94ED02EC
S11301C031C040E060911B0480911A040E947304C2
S11301D029C041E060911B0480911A040E947304B9
S11301E021C020E040E251EA67E070E089E19CE050
S11301F00E94ED0817C021E040E251EA67E070E098
S113020086EA97E00E94ED0880911A048093100416
S113021009C00E94ED020E94EC0B04C080911A04F4
S11302200E947802DF91CF910895FC010190002093
S1130230E9F73197E81BF90B2E2F3AEA3093C60001
S1130240AFE1BEE41197F1F700C0000034E1309350
S1130250C600AFE1BEE41197F1F700C00000E093DF
S1130260C600EFE1FEE43197F1F700C0000022235D
S113027089F0382FE82FF92FA6ECB0E081918C9308
S11302808FE19EE40197F1F700C000008E2F831BDD
S11302908217A0F385E58093C600AFE1BEE4119711
S11302A0F1F700C000000895CF93DF9370E061156B
S11302B0710591F0E82FF92F80E090E0A6ECB0E012
S11302C021912C93CFE1DEE42197F1F700C00000E7
S11302D0019686179707A0F3DF91CF910895CF93E6
S11302E0DF9300D000D0CDB7DEB782E091E09F93DA
S11302F08F930E949D0C8AEA898383E18A831B82FF
S113030085E58C8364E0CE0101960E9454010F9030
S11303100F900F900F900F900F90DF91CF91089551
S1130320F894909101019230F9F028F4992341F066
S1130330913069F048C0933059F19430D9F143C0F9
S11303408A3A09F040C081E0809301013CC08C31BD
S113035030F492E0909301018093190434C0109218
S113036001010E946F012FC0811105C01092240465
S1130370109218040AC093E090930101809324041E
S11303801092180481508233F0F0109201011BC0C6
S1130390E091180491E09E0F90931804F0E0E65E5B
S11303A0FB4F808380912404981768F084E0809345
S11303B0010109C0853519F00E946F0102C00E9435
S11303C07B0010920101789408951F920F920FB64A
S11303D00F9211242F933F934F935F936F937F93C7
S11303E08F939F93AF93BF93EF93FF938091C60036
S11303F00E949001FF91EF91BF91AF919F918F91D6
S11304007F916F915F914F913F912F910F900FBE0C
S11304100F901F90189589E18093C400E1ECF0E0FF
S1130420808180688083808180618083808188600E
S113043080831092010108951F920F920FB60F92BC
S113044011248F939F93AF93BF9383B190912A0408
S113045081709817B9F083B1817080932A048091D8
S1130460250490912604A0912704B09128040196B4
S1130470A11DB11D8093250490932604A093270405
S1130480B093280493B18091290490789817B9F017
S113049083B180788093290480912B0490912C045B
S11304A0A0912D04B0912E040196A11DB11D80933D
S11304B02B0490932C04A0932D04B0932E04BF918D
S11304C0AF919F918F910F900FBE0F901F90189531
S11304D0ECE6F0E0808181608083209880818068F0
S11304E080832798E8E6F0E0808182608083089525
S11304F0FF920F931F93CF93DF93CDB7DEB7C4560C
S1130500D1090FB6F894DEBF0FBECDBFF82E00910F
S11305102B0410912C0420912D0430912E04409131
S113052025045091260460912704709128043F9378
S11305302F931F930F937F936F935F934F9323E2B4
S113054031E03F932F938E010F5F1F4F1F930F9343
S11305500E94B10CC8010E9415010FB6F894DEBFC9
S11305600FBECDBFFF20C1F01092250410922604C7
S1130570109227041092280410922B0410922C0439
S113058010922D0410922E0410920C0410920D045B
S113059010920E0410920F04CC59DF4F0FB6F8944A
S11305A0DEBF0FBECDBFDF91CF911F910F91FF90A2
S11305B0089580910C0490910D04A0910E04B091C3
S11305C00F040196A11DB11D80930C0490930D049A
S11305D0A0930E04B0930F04089517BC1092B300B7
S11305E08BB1887F8BB98BB1807E8BB98BB1807FC7
S11305F08BB98BB1807C8BB989ED92E00E94EC09B8
S113060008958091120480FF04C087E391E00E9462
S1130610150108958091120480FF04C089E491E0DB
S11306200E941501089517BC1092B300239A84B553
S1130630836084BD84B5806484BD84B5806884BDD2
S113064085B5816085BD579AE0EBF0E080818360D9
S11306508083808180648083808180688083E1EBF3
S1130660F0E0808181608083259A2D9A249A2C9AC7
S1130670539A559A8BB1807F8BB98BB1807C8BB99F
S1130680529A549A8BB1887F8BB98BB1807E8BB987
S113069008951F93CF93DF93D82FC62F142F21E0F3
S11306A040E452E46FE070E089ED92E00E94940A25
S11306B01095D1110AC0CC2319F05A985C9A02C043
S11306C05A9A5C981093B30008C0CC2319F05B9A33
S11306D05D9802C05B985D9A17BDDF91CF911F9121
S11306E00895CF93DF93D82FC62F462F60E080E084
S11306F00E9449034C2F60E081E00E9449038DEE83
S113070092E00E94EC09AD2FB0E020E432E44FE027
S113071050E00E94920CAB01BC0120E08DEE92E00F
S11307200E94ED088091120480FF04C08AE691E0E3
S11307300E941501DF91CF910895CF93DF93D82FB5
S1130740C62F462F61E080E00E9449034C2F61E0F0
S113075081E00E9449038DEE92E00E94EC09AD2FE6
S1130760B0E020E432E44FE050E00E94920CAB0190
S1130770BC0120E08DEE92E00E94ED08809112040D
S113078080FF04C08AE791E00E941501DF91CF91B8
S11307900895CF93C82F462F60E080E00E9449035C
S11307A04AE060E081E00E9449038DEE92E00E94FD
S11307B0EC09AC2FB0E020E432E44FE050E00E94BA
S11307C0920CAB01BC0120E08DEE92E00E94ED089A
S11307D08091120480FF04C089E891E00E94150111
S11307E0CF910895CF93DF93C82FD62F4AE060E0CE
S11307F080E00E9449034D2F60E081E00E9449039C
S11308008DEE92E00E94EC09AC2FB0E020E432E4DB
S11308104FE050E00E94920CAB01BC0120E08DEE51
S113082092E00E94ED088091120480FF04C080EAE7
S113083091E00E941501DF91CF910895CF93C82FC5
S1130840462F61E080E00E9449034AE061E081E0D4
S11308500E9449038DEE92E00E94EC09AC2FB0E0B7
S113086020E432E44FE050E00E94920CAB01BC0162
S113087020E08DEE92E00E94ED088091120480FF4A
S113088004C088EB91E00E941501CF910895CF93A5
S1130890DF93C82FD62F4AE061E080E00E9449032D
S11308A04D2F61E081E00E9449038DEE92E00E94A9
S11308B0EC09AC2FB0E020E432E44FE050E00E94B9
S11308C0920CAB01BC0120E08DEE92E00E94ED0899
S11308D08091120480FF04C08EEC91E00E94150107
S11308E0DF91CF910895CF93DF93D82FC62F411175
S11308F013C0462F61E081E00E9449034C2F60E061
S113090080E00E9449038091120480FF17C085EEA5
S113091091E00E94150112C0462F60E081E00E9420
S113092049034C2F61E080E00E9449038091120446
S113093080FF04C08CEF91E00E9415018DEE92E0DF
S11309400E94EC09AD2FB0E020E432E44FE050E027
S11309500E94920CAB01BC0120E08DEE92E00E945B
S1130960ED08DF91CF910895EF92FF920F931F93BB
S1130970CF93DF93C0E0D0E00F2EF2E1EF2EF2E050
S1130980FF2EF02D07E414E080917A0490E00C2E01
S113099002C0959587950A94E2F780FF22C0FE0174
S11309A0EE0FFF1FEE0FFF1FE95CFB4F40815181EB
S11309B0628173817F936F935F934F93DF93CF93A0
S11309C0FF92EF921F930F930E94B10CC8010E94F3
S11309D015018DB79EB70A960FB6F8949EBF0FBE49
S11309E08DBF2196C430D10579F6DF91CF911F9147
S11309F00F91FF90EF900895CF93DF9340917A0485
S1130A0021E030E0B90102C0660F771F8A95E2F752
S1130A10CB01842780937A0430917A0420917A045C
S1130A2090917A0480917A0433FB332730F91F9232
S1130A303F9322FB222720F91F922F9396959170C2
S1130A401F929F9381701F928F9383E292E09F93F2
S1130A508F93C7E4D4E0DF93CF930E94B10CCE010F
S1130A600E941501309179042091790490917904C0
S1130A708091790433FB332730F91F923F9322FB93
S1130A80222720F91F922F93969591701F929F937E
S1130A9081701F928F938EE392E09F938F93DF93E5
S1130AA0CF930E94B10CCE010E94150184EB94E017
S1130AB00E94670A90917A046DB77EB7685E7F4F93
S1130AC00FB6F8947EBF0FBE6DBF992361F08111FC
S1130AD015C021E040E452E46FE070E084EB94E060
S1130AE00E94ED080FC090917A0491110BC08823E5
S1130AF049F084EB94E00E94EC0904C080917A04EC
S1130B008823B9F3DF91CF9108954091790421E0CE
S1130B1030E0B90102C0660F771F8A95E2F7CB0176
S1130B2084278093790480EF96E00E94670A90916D
S1130B307904992361F0811115C021E040EA56E857
S1130B4061E070E080EF96E00E94ED0808959091D6
S1130B50790491110BC0882349F080EF96E00E943C
S1130B60EC090895809179048823B9F30895AAE7DC
S1130B70B0E08C9187608C93ECE7F0E08081806436
S1130B80808380818F7780838081806280838C9151
S1130B9080688C9310927A041092790480E00E9409
S1130BA0850581E00E94850582E00E94850583E039
S1130BB00E9485050895ECE7F0E09081907E908393
S1130BC09081892B8083EAE7F0E0808180648083D0
S1130BD008950E94DB05EAE7F0E0808186FDFDCF01
S1130BE0209178002295269526952370809179008E
S1130BF090E0880F991F880F991F822B08958F9278
S1130C009F92AF92BF92CF92DF92EF92FF920F9397
S1130C101F93CF93DF93CDB7DEB72E970FB6F8941B
S1130C20DEBF0FBECDBF182F9E012F5F3F4F79014E
S1130C306E013FE0C30ED11C812F0E94E905D7014C
S1130C408D939D937D01AC15BD05B1F721E030E096
S1130C5080E001E0F12C90E0D12CE12C2DC0482F54
S1130C6050E0FA01EE0FFF1FAA24A394B12CAC0E9E
S1130C70BD1EEA0DFB1D608171814A01AFEF8A1A26
S1130C809A0AD401AA0FBB1FAA0DBB1D0D90BC91DB
S1130C90A02DA617B70758F4B183A083F401EE0F73
S1130CA0FF1FEA0DFB1D718360832D2D3E2D8F5F89
S1130CB003C0202F3F2D892F863088F2232BC9F3C0
S1130CC02F8138858D819E81280F391F89859A85CA
S1130CD0280F391FABEABAEA0E94830C96958795D0
S1130CE0412F50E0FA01EE0FFF1FE15DFB4F208121
S1130CF03181232B41F4FA01EE0FFF1FE15DFB4F1D
S1130D009183808325C0FA01EE0FFF1FE15DFB4F45
S1130D1020813181B901660F771F660F771F660F37
S1130D20771F5B01A21AB30A9501BC01660F771FF6
S1130D30860F971F280F391FADECBCEC0E94830C63
S1130D4096958795969587959695879591838083B3
S1130D501230D0F4FA01EE0FFF1FE15DFB4F20814A
S1130D60318122953295307F3227207F32272B53D1
S1130D70314040E050E061E57CEE84E090E00E9488
S1130D805B0CCA01B90119C0FA01EE0FFF1FE15D46
S1130D90FB4F2081318122953295307F3227207F8D
S1130DA032272850324040E050E06DEF7DEB8BE07D
S1130DB090E00E945B0CCA01B9012E960FB6F8941C
S1130DC0DEBF0FBECDBFDF91CF911F910F91FF907A
S1130DD0EF90DF90CF90BF90AF909F908F90089549
S1130DE08091790480FF0BC080E00E94FF0560932E
S1130DF03704709338048093390490933A048091B3
S1130E00790481FF0BC081E00E94FF0560933B04DD
S1130E1070933C0480933D0490933E048091790444
S1130E2082FF0BC082E00E94FF0560933F04709331
S1130E30400480934104909342048091790483FF99
S1130E400BC083E00E94FF05609343047093440445
S1130E50809345049093460408957F928F929F92C5
S1130E60AF92BF92CF92DF92EF92FF920F931F93B4
S1130E70CF93DF93CDB7DEB72E970FB6F894DEBFCE
S1130E800FBECDBF782E6E018FE0C80ED11CFE01BF
S1130E9031967F010AE710E00F2EF8E78F2E912C90
S1130EA0F02D0F2EF9E7AF2EB12CF02D872D0E94D7
S1130EB0DB05F801808186FDFCCFF40120812295B9
S1130EC026952695237030E0F70131832083F501C0
S1130ED0808190E0880F991F880F991F282B392B48
S1130EE0F701219331937F01EC15FD05F9F6FE011D
S1130EF0319640E050E081919191480F591FEC15D3
S1130F00FD05C9F79A01A3E9B4E20E94830C481BCA
S1130F10590B9A0136952795820F931F96958795BD
S1130F20969587952E960FB6F894DEBF0FBECDBF6B
S1130F30DF91CF911F910F91FF90EF90DF90CF90B1
S1130F40BF90AF909F908F907F900895AF92BF9283
S1130F50CF92DF92EF92FF920F931F93CF93DF9381
S1130F60CDB7DEB7C456D1090FB6F894DEBF0FBEB5
S1130F70CDBF80E00E942D07B82EA92E81E00E94EB
S1130F802D078C011092120483E00E942D076C013E
S1130F9082E00E942D077C01809111041F928F939F
S1130FA01F930F93AF92BF92FF92EF92DF92CF9273
S1130FB083E692E09F938F93CE0101965C01BF92EA
S1130FC08F930E94B10CC5010E9415010FB6F894CD
S1130FD0DEBF0FBECDBF8091110490E08930910532
S1130FE008F099C0FC01ED5AFF4F0C947D0C81E090
S1130FF08093110486E892E00E9415018CC06DE78D
S11310008CE30E94F20383E08093110484C097E987
S1131010C916D10460F087E9E816F10440F082E0D3
S11310208093110441E06BE48CE30E947304043662
S11310301105A8F4809110048150809310048091CC
S11310401004811109C040E06BE48CE30E94730436
S113105086E08093110403C088E0809311040D3D61
S1131060110538F084E0809311046BE48CE30E9452
S1131070C9030B5A11090F34110508F04CC083E061
S1131080809311046BE48CE30E94F20344C09BE55B
S1131090C916D10408F03FC084EBE816F104D8F572
S11310A06BE486E00E94710387E08093110433C0EF
S11310B00E94ED0286EA97E00E94EC092CC00C32F3
S11310C0114048F585E0809311046BE48CE30E94A1
S11310D0710321C085E0809311046BE48CE30E94CA
S11310E0710319C085E6E81AF10897E2E916F104DC
S11310F090F46BE48CE30E94710385E08093110407
S11311000AC00C32114038F485E0809311046BE47A
S11311108CE30E94710381E080931204CC59DF4F69
S11311200FB6F894DEBF0FBECDBFDF91CF911F91F4
S11311300F91FF90EF90DF90CF90BF90AF90089504
S11311400E940B020E94C6080E94180C0E941303FE
S11311500E94D3080E94B7050E946802789482EB2B
S113116092E00E9415010E94830BFDCF809112042E
S113117080FF04C082E080931204089580911204D9
S113118081FF03C081E0809312040895EFE6F0E04C
S1131190808181608083109285001092840081E0B8
S11311A0809381000895409100014423A9F080E0D8
S11311B090E0FC01EE0FFF1F9C01220F331F220F52
S11311C0331F220F331FE20FF31FE558FB4F118625
S11311D010860196841768F30895DF92EF92FF92C8
S11311E00F931F93CF93DF93CDB7DEB7CE56D109BC
S11311F00FB6F894DEBF0FBECDBFF894D0900001B7
S1131200DD2009F476C0E0918304F0918404EF2B8F
S113121009F478C0E0918304F0918404E817F90795
S113122009F05DC02DC07F01DF01AA0FBB1FAA0F0B
S1131230BB1FAA0FBB1F8F01000F111FA00FB11FEF
S1131240A558BB4F18960D90BC91A02DAB2B09F45B
S11312504DC08F01000F111FDF01AA0FBB1FAA0F82
S1131260BB1FAA0FBB1FA00FB11FA558BB4F1896D9
S11312700D90BC91A02D3196A817B90791F502C025
S1131280E12CF12C8091120480FF97C0F701EE0F3E
S1131290FF1FEE0CFF1CEE0CFF1CEE0CFF1CEE0DF2
S11312A0FF1DE558FB4F80819181A281B381BF93DB
S11312B0AF939F938F9387EC92E09F938F938E01CC
S11312C0055F1F4F1F930F930E94B10CC8010E942A
S11312D015010FB6F894DEBF0FBECDBF6EC0E1E0BE
S11312E0F0E03E2FED1508F49ECF01C0E32FED1181
S11312F00AC08091120480FF60C083EF92E00E94D4
S113130015015BC030E0211104C0A0E0F0E0E0E092
S113131004C0A42FF52FE62F272F032F10E04983B5
S11313205A836B837C83AD83FE83EF8328879A87FC
S11313308987D801AA0FBB1FC801880F991F880F7E
S1131340991F880F991FA80FB91FA558BB4F8AE092
S1131350FE01319601900D928A95E1F78091120475
S113136080FF2AC0F801EE0FFF1F000F111F000FAE
S1131370111F000F111FE00FF11FE558FB4F808173
S11313809181A281B381BF93AF939F938F931F9257
S11313903F9381E093E09F938F938E01055F1F4FEE
S11313A01F930F930E94B10CC8010E9415010FB640
S11313B0F894DEBF0FBECDBF7894C259DF4F0FB68D
S11313C0F894DEBF0FBECDBFDF91CF911F910F9177
S11313D0FF90EF90DF900895BF92CF92DF92EF924B
S11313E0FF920F931F93CF93DF93CDB7DEB7C4560D
S11313F0D1090FB6F894DEBF0FBECDBF8C0180912A
S11314000001882309F452C0B12C0F2EF6E3CF2E2D
S1131410F3E0DF2EF02DCE0101967C012B2D30E080
S1131420F901EE0FFF1FC901880F991F880F991F3B
S1131430880F991FE80FF91FE558FB4F4085518528
S11314404017510769F5C901880F991F880F991F23
S1131450880F991FF901EE0FFF1FE80FF91FE558D8
S1131460FB4F11861086108211821282138214821D
S11314701582168217828091120480FF11C03F9357
S1131480BF92DF92CF92FF92EF920E94B10CC701FC
S11314900E9415010F900F900F900F900F900F90D6
S11314A0B39480910001B81608F4B8CFCC59DF4F3B
S11314B00FB6F894DEBF0FBECDBFDF91CF911F9161
S11314C00F91FF90EF90DF90CF90BF9008956091BF
S11314D00001662319F120918304309184042817B4
S11314E03907F1F021E030E015C0F901EE0FFF1FDC
S11314F0A901440F551F440F551F440F551FE40FF6
S1131500F51FE558FB4F408551852F5F3F4F481726
S1131510590741F0261748F380E0089580E00895C4
S113152081E0089581E00895CF92DF92EF92FF92D7
S11315301F93CF93DF93EC016A017B01122F0E946A
S1131540670A811106C0212FB701A601CE010E94AE
S1131550ED08DF91CF911F91FF90EF90DF90CF9036
S113156008958F929F92AF92BF92DF92EF92FF9273
S11315700F931F93CF93DF9310910001112309F46C
S11315807BC020E030E0D12CE12CF12C00E0F9010B
S1131590A901440F551F440F551F440F551FD9016E
S11315A0AA0FBB1FA40FB51FA558BB4F18964D918A
S11315B05C911997452B09F45AC0A901440F551F92
S11315C0440F551F440F551FD901AA0FBB1FA40F69
S11315D0B51FA558BB4F8D909D90AD90BC908928A8
S11315E08A288B2809F443C0A901440F551F440FCE
S11315F0551F440F551FD901AA0FBB1FA40FB51FB8
S1131600A558BB4F8D909D90AD90BC906815790501
S11316108A059B05B8F4A901440F551F440F551FB3
S1131620440F551FD901AA0FBB1FA40FB51FA558FE
S1131630BB4F8D909D90AD90BC90861A970AA80AD6
S1131640B90A04C08D2C9E2CAF2CB02EEF01CC0F08
S1131650DD1FEE0FFF1FEE0FFF1FEE0FFF1FEC0F3E
S1131660FD1FE558FB4F80829182A282B3822F5FD7
S11316703F4F211708F48BCFDF91CF911F910F912A
S1131680FF90EF90DF90BF90AF909F908F90089560
S11316901F920F920FB60F9211242F933F934F93E3
S11316A05F936F937F938F939F93AF93BF93EF93C6
S11316B0FF938091130490911404A0911504B091A8
S11316C016040196A11DB11D809313049093140474
S11316D0A0931504B093160460E672E280E090E0F3
S11316E00E94B10AFF91EF91BF91AF919F918F91A9
S11316F07F916F915F914F913F912F910F900FBE0A
S11317000F901F901895EF92FF921F93CF93DF9342
S1131710F89480910001882309F457C010E0C12F88
S1131720D0E0FE01EE0FFF1FCE01880F991F880F36
S1131730991F880F991FE80FF91FE558FB4F808503
S11317409185892BE1F1CE01880F991F880F991F8C
S1131750880F991FFE01EE0FFF1FE80FF91FE558D0
S1131760FB4F80819181A281B381892B8A2B8B2BA2
S113177031F57F010084F185E02D0995F70184811D
S11317809581A681B781892B8A2B8B2B49F0848183
S11317909581A681B78180839183A283B3830FC08F
S11317A0CE01880F991FCC0FDD1FCC0FDD1FCC0F8E
S11317B0DD1FC80FD91FC558DB4F198618861F5F58
S11317C080910001181708F4AACF7894DF91CF9183
S11317D01F91FF90EF9008950E94D30808950895F3
S11317E0813069F018F0823099F008958FEE9BE013
S11317F00E94EC098EE593E00E94150108958FEE96
S11318009BE00E94EC0982E793E00E941501089591
S11318101092170421E040E452E46FE070E08FEE90
S11318209BE00E94ED0887E893E00E94150108956B
S113183008950F931F93CF93DF93CDB7DEB7A3978C
S11318400FB6F894DEBF0FBECDBF40912B0450916C
S11318502C0460912D0470912E04809125049091A4
S11318602604A0912704B09128047F936F935F937B
S11318704F93BF93AF939F938F9385EF93E09F9381
S11318808F938E010F5F1F4F1F930F930E94B10C14
S1131890C8010E9415010FB6F894DEBF0FBECDBF7C
S11318A0A3960FB6F894DEBF0FBECDBFDF91CF91E4
S11318B01F910F910895A1E21A2EAA1BBB1BFD01D3
S11318C00DC0AA1FBB1FEE1FFF1FA217B307E4071B
S11318D0F50720F0A21BB30BE40BF50B661F771F73
S11318E0881F991F1A9469F7609570958095909553
S11318F09B01AC01BD01CF010895EE0FFF1F0590C0
S1131900F491E02D0994A29FB001B39FC001A39F5D
S1131910700D811D1124911DB29F700D811D112424
S1131920911D08950E94830CA59F900DB49F900D66
S1131930A49F800D911D11240895A0E0B0E0E3EA76
S1131940FCE00C945B0FFE01359661917191AF013F
S113195080914505909146050E94D30CE2E00C94D9
S1131960770FAEE0B0E0E7EBFCE00C94590F0D8983
S11319701E8986E08C831A8309838FEF9FE79E83F9
S11319808D83AE01475E5F4F6F89788DCE010196DE
S11319900E94D30CEF81F885E00FF11F10822E9680
S11319A0E4E00C94750FACE0B0E0E9EDFCE00C94DD
S11319B04B0F7C016B018A01FC0117821682838123
S11319C081FFBDC1CE0101964C01F7019381F6015F
S11319D093FD859193FF81916F01882309F4ABC135
S11319E0853239F493FD859193FF81916F0185329E
S11319F029F4B70190E00E94BB0EE7CF512C312CA3
S1131A0020E02032A0F48B3269F030F4803259F0B7
S1131A10833269F420612CC08D3239F0803339F47B
S1131A20216026C02260246023C0286021C027FDD5
S1131A3027C030ED380F3A3078F426FF06C0FAE0BC
S1131A405F9E300D1124532E13C08AE0389E300D52
S1131A501124332E20620CC08E3221F426FD6BC17A
S1131A60206406C08C3611F4206802C0883641F424
S1131A70F60193FD859193FF81916F018111C1CF8F
S1131A80982F9F7D9554933028F40C5F1F4FFFE3EC
S1131A90F9830DC0833631F0833771F0833509F053
S1131AA05BC022C0F801808189830E5F1F4F4424EC
S1131AB04394512C540115C03801F2E06F0E711C8F
S1131AC0F801A080B18026FF03C0652D70E002C03C
S1131AD06FEF7FEFC5012C870E94B00E2C018301AC
S1131AE02C852F77222E17C03801F2E06F0E711C5F
S1131AF0F801A080B18026FF03C0652D70E002C00C
S1131B006FEF7FEFC5012C870E94A50E2C012C8559
S1131B102068222E830123FC1BC0832D90E04816ED
S1131B205906B0F4B70180E290E00E94BB0E3A94EB
S1131B30F4CFF50127FC859127FE81915F01B70160
S1131B4090E00E94BB0E31103A94F1E04F1A510814
S1131B504114510471F7E5C0843611F0893639F522
S1131B60F80127FF07C060817181828193810C5F36
S1131B701F4F08C060817181882777FD8095982F59
S1131B800E5F1F4F2F76B22E97FF09C09095809558
S1131B90709561957F4F8F4F9F4F2068B22E2AE03A
S1131BA030E0A4010E94ED0EA82EA81844C0853789
S1131BB029F42F7EB22E2AE030E025C0F22FF97FDF
S1131BC0BF2E8F36C1F018F4883579F0B4C0803751
S1131BD019F0883721F0AFC02F2F2061B22EB4FE48
S1131BE00DC08B2D8460B82E09C024FF0AC09F2F1E
S1131BF09660B92E06C028E030E005C020E130E050
S1131C0002C020E132E0F801B7FE07C060817181B3
S1131C10828193810C5F1F4F06C06081718180E0D7
S1131C2090E00E5F1F4FA4010E94ED0EA82EA8188D
S1131C30FB2DFF77BF2EB6FE0BC02B2D2E7FA514D8
S1131C4050F4B4FE0AC0B2FC08C02B2D2E7E05C091
S1131C507A2C2B2D03C07A2C01C0752C24FF0DC0C7
S1131C60FE01EA0DF11D8081803311F4297E09C043
S1131C7022FF06C07394739404C0822F867809F0FF
S1131C80739423FD13C020FF06C05A2C731418F458
S1131C90530C5718732C731468F4B70180E290E066
S1131CA02C870E94BB0E73942C85F5CF731410F40B
S1131CB0371801C0312C24FF12C0B70180E390E033
S1131CC02C870E94BB0E2C8522FF17C021FF03C066
S1131CD088E590E002C088E790E0B7010CC0822F4D
S1131CE0867859F021FD02C080E201C08BE227FD15
S1131CF08DE2B70190E00E94BB0EA51438F4B70141
S1131D0080E390E00E94BB0E5A94F7CFAA94F401AA
S1131D10EA0DF11D8081B70190E00E94BB0EA11075
S1131D20F5CF332009F451CEB70180E290E00E9450
S1131D30BB0E3A94F6CFF7018681978102C08FEFEC
S1131D409FEF2C96E2E10C94670FFC010590615023
S1131D5070400110D8F7809590958E0F9F1F0895BD
S1131D60FC016150704001900110D8F78095909566
S1131D708E0F9F1F08950F931F93CF93DF93182FF8
S1131D80092FEB018B8181FD03C08FEF9FEF20C0F2
S1131D9082FF10C04E815F812C813D814217530721
S1131DA07CF4E881F9819F012F5F3F4F39832883B9
S1131DB0108306C0E885F985812F0995892B29F7B9
S1131DC02E813F812F5F3F4F3F832E83812F902FA2
S1131DD0DF91CF911F910F910895FA01AA2728301E
S1131DE051F1203181F1E8946F936E7F6E5F7F4FE4
S1131DF08F4F9F4FAF4FB1E03ED0B4E03CD0670F60
S1131E00781F891F9A1FA11D680F791F8A1F911DB2
S1131E10A11D6A0F711D811D911DA11D20D009F402
S1131E2068943F912AE0269F11243019305D319344
S1131E30DEF6CF010895462F4770405D4193B3E02D
S1131E400FD0C9F7F6CF462F4F70405D4A3318F0D4
S1131E50495D31FD4052419302D0A9F7EACFB4E085
S1131E60A6959795879577956795BA95C9F700973D
S1131E706105710508959B01AC010A2E06945795DE
S1131E80479537952795BA95C9F7620F731F841F35
S1131E90951FA01D08952F923F924F925F926F92CB
S1131EA07F928F929F92AF92BF92CF92DF92EF92E6
S1131EB0FF920F931F93CF93DF93CDB7DEB7CA1B67
S1131EC0DB0B0FB6F894DEBF0FBECDBF09942A8892
S1131ED0398848885F846E847D848C849B84AA843A
S1131EE0B984C884DF80EE80FD800C811B81AA81C7
S1131EF0B981CE0FD11D0FB6F894DEBF0FBECDBF92
S10B1F00ED010895F894FFCFF0
S1131F0814FF5472696D6974652064696E206E6F7C
S1131F187520756C74696D756C206D6573616A21C3
S1131F282121000A6531433A20256C750A6532433C
S1131F383A20256C752000537461727420467265CA
S1131F48652050205020502100537461727420631E
S1131F586F6D706C65746520656E636C6F73656412
S1131F6820636F6E746F757221004D612064756310
S1131F7820696E61696E746521004D612064756322
S1131F8820696E61706F6921004D6120647563205A
S1131F98696E61696E7465207374616E676121008E
S1131FA84D612064756320696E61696E746520648F
S1131FB872656170746121004D61206475632069E4
S1131FC86E61706F69207374616E676121004D6181
S1131FD82064756320696E61706F6920647265613D
S1131FE870746121006D6120726F7465736320736E
S1131FF87072652064726561707461006D6120722D
S11320086F746573632073707265207374616E678F
S1132018610073656E736F7220232564203D20254B
S11320286C750073656E736F7273546F53656E6469
S113203820256420256420256420256420007365F8
S11320486E736F7273546F52656164202564202522
S113205864202564202564203C3C2D2D00446F6EAB
S113206865210053463D2564202044463D256420CF
S113207820533D25642020443D2564202073746149
S113208872653D256400536120696E636570656DF2
S1132098203A440053463D2564202044463D2564A7
S11320A8202020443D2564202073746172653D25F9
S11320B8640020203E3E3E6D61696E207374617237
S11320C8743C3C3C20200046756E63746961206151
S11320D873746120652064656A6120696E20636F8A
S11320E8616461212063752064656C61793A2025F7
S11320F86C7500436F61646120652066756C6C21A2
S113210800456E7472792061646175676174206931
S11321186E20636F61646121206C6120696E64655F
S1132128782025642073692063752064656C61795F
S11321383A20256C7500456E747279207374657243
S1132148732064696E20636F6164612E2064652066
S1132158706520706F7A69746961202564006C6504
S113216864756C206120666F7374207374696E7370
S11321782E006C6564756C206120666F7374206131
S11321887072696E732E006C6564756C20766120BC
S113219827626C696E63617269272E0073656E73BA
S11321A86F722023303A2025640073746172746559
S11321B864210073656E736F722023313A2025649D
S11321C80073656E736F722023323A20256400739E
S11321D8656E736F722023333A20256400743A20A5
S11321E8256C75002564202564007269676874008D
S11321F86C65667400656E6320434E543A20313A28
S10F2208256C752020323A256C7500000E
S9030000FC
